:020000040800F2
:1000000010120020CD010008A504000851040008CA
:10001000A10400082D030008A70A00080000000042
:100020000000000000000000000000002908000897
:1000300031030008000000005B0200083D090008D1
:10004000E7010008E7010008E7010008E7010008F0
:10005000E7010008E7010008E7010008E7010008E0
:10006000E7010008E7010008E7010008E7010008D0
:10007000E7010008E7010008E7010008E7010008C0
:10008000E7010008E7010008E7010008E7010008B0
:10009000E7010008E7010008E7010008E7010008A0
:1000A000E7010008E7010008E7010008E701000890
:1000B000E7010008E7010008E7010008E701000880
:1000C000E7010008E7010008E7010008E701000870
:1000D000E7010008B9090008E7010008E701000886
:1000E000E7010008E7010008E7010008E701000850
:1000F000E7010008E7010008E7010008E701000840
:10010000E7010008E7010008E7010008E70100082F
:10011000E7010008E7010008E7010008E70100081F
:10012000E7010008E7010008E7010008E70100080F
:1001300000F002F800F03AF80AA090E8000C8244BF
:100140008344AAF10107DA4501D100F02FF8AFF29C
:10015000090EBAE80F0013F0010F18BFFB1A43F0A5
:1001600001031847AC0B0000CC0B0000103A24BF71
:1001700078C878C1FAD8520724BF30C830C144BF0C
:1001800004680C607047000000230024002500264E
:10019000103A28BF78C1FBD8520728BF30C148BFEA
:1001A0000B6070471FB51FBD10B510BD00F08BF878
:1001B0001146FFF7F7FF00F00DFD00F0A9F803B4BA
:1001C000FFF7F2FF03BC00F070FC00000948804715
:1001D00009480047FEE7FEE7FEE7FEE7FEE7FEE729
:1001E000FEE7FEE7FEE7FEE704480549054A064B41
:1001F000704700005909000831010008100C002068
:1002000010120020100E0020100E0020EFF31080BE
:1002100072B6704780F310887047204C204D2560DF
:100220004FF0000484F309881E4C4FF0010525703F
:100230001D4C4FF08055256062B6FEE730B41A4C75
:100240004FF08055256030BC704730B4164C4FF0ED
:100250008055256030BC704700BF72B6EFF309804F
:1002600028B1203880E8F00F10490968086000B50F
:100270000F4880475DF804EB0E480F490A7802707A
:100280000A480E490A680260106890E8F00F2030B2
:1002900080F309884EF0040E62B6704720ED00E04E
:1002A0000000FFFF4600002004ED00E04C000020AD
:1002B000FD0500083B0000203C0000205400002009
:1002C000704770477047754600F02CF8AE46050041
:1002D0006946534620F00700854618B020B5FFF761
:1002E00083FFBDE820404FF000064FF000074FF0BD
:1002F00000084FF0000B21F00701AC46ACE8C00944
:10030000ACE8C009ACE8C009ACE8C0098D4670474C
:1003100010B50446AFF300802046BDE81040FFF75B
:100320004EBF000000487047B00B002000BFFEE742
:1003300070472DE9F04102460025002600200023E9
:100340000024002791F803C00CF00F0591F803C0BA
:100350000CF0100CBCF1000F03D091F802C04CEA75
:10036000050591F800C0BCF1000F31D014680020E1
:100370002BE04FF0010C0CFA00F3B1F800C00CEACE
:1003800003069E4220D183004FF00F0C0CFA03F7B6
:10039000BC4305FA03FC4CEA040491F803C0BCF129
:1003A000280F06D14FF0010C0CFA00FCC2F814C063
:1003B0000AE091F803C0BCF1480F05D14FF0010CE1
:1003C0000CFA00FCC2F810C0401C0828D1D31460FD
:1003D000B1F800C0BCF1FF0F34DD546800202EE0FE
:1003E00000F1080C4FF0010808FA0CF3B1F800C056
:1003F0000CEA03069E4221D183004FF00F0C0CFA49
:1004000003F7BC4305FA03FC4CEA040491F803C06B
:10041000BCF1280F05D100F1080C08FA0CF8C2F85D
:10042000148091F803C0BCF1480F07D100F1080C0B
:100430004FF0010808FA0CF8C2F81080401C082898
:10044000CED35460BDE8F0814161704701617047CF
:1004500000BFFEE708B50121502000F0D5F90620C5
:10046000ADF8000010208DF8030003208DF8020085
:1004700069460948FFF75DFF20210748FFF7E6FFBF
:100480002020ADF8000069460448FFF752FF202104
:100490000248FFF7DBFF08BD0010014000180140D3
:1004A00000BFFEE77047000006480078012808D129
:1004B00005480078FF2804D203480078401C024910
:1004C00008707047460000203900002010B5002455
:1004D0001A480078012830D1FFF798FE04461848E2
:1004E000007820B116480078401E1549087014485D
:1004F0000078F8B913480078E0B900F06FF91248B5
:100500001249097850F82100114908600F48007815
:100510001049097888420DD00D480068806B401C56
:100520000B49096888630C480068401C0A49086048
:10053000FFF78BFE2046FFF76DFE10BD4600002042
:10054000390000203A000020480600203C0000202E
:10055000540000203B0000202000002010B50024A3
:100560000B480078012811D1FFF750FE04460948D6
:10057000007840B908480078FF2804D2064800787F
:10058000401C054908702046FFF744FE10BD0000DE
:1005900046000020390000203A00002010B5002459
:1005A00013480078012821D1FFF730FE0446114896
:1005B0000078C0B10F480078401E0E490870084608
:1005C000007860B90C48007828B92046FFF722FE71
:1005D00000F0CAF80AE02046FFF71CFE06E02046BD
:1005E000FFF718FE02E02046FFF714FE10BD0000E2
:1005F000460000203A00002039000020704700002B
:1006000070B5054600261748007800B170BD164841
:10061000007800B1FAE71DB3FFF7F8FD064613486E
:10062000006890F834401248005D1049096891F85C
:10063000351088430E4908550846005D40B90B48FF
:10064000006890F836100B48007888430949087014
:1006500006480068C5623046FFF7DCFD00F084F80C
:1006600000BFD3E7390000203A0000204C000020F2
:100670003E0000203D00002070B5002600F072F81A
:10068000FFF7C4FD064631480068401C2F4908604A
:100690003046FFF7BFFD2E480078012853D12D4882
:1006A000007820B1012804D0022809D103E00125F7
:1006B0000BE0002509E0012501202649087004E02F
:1006C000012500202349087000BF00BF05B970BD97
:1006D0002148046833E0FFF799FD0646E06A50B30D
:1006E000E06A401EE062E06A28BB94F8300000F047
:1006F000370040B114F8300F00F0C800207001201E
:100700006070303C02E0002084F8310094F8300042
:1007100000F0080078B93434A0781049097808430B
:100720000E49087020780E49085C6178084314F877
:1007300034190B4A505464693046FFF76BFD94F846
:1007400032003F28C7D100BFC1E70000640000208D
:10075000460000205C000020580000203D000020E2
:100760003E0000207047000010B50024FFF74EFD4A
:10077000044613480078F8B912480078E0B900F050
:100780002DF811481149097850F8210010490860E6
:100790000E4800780F49097888420DD00C4800684F
:1007A000806B401C0A49096888630B480068401C3C
:1007B00009490860FFF742FD2046FFF72BFD10BDF9
:1007C000390000203A000020480600203C000020AC
:1007D000540000203B000020200000200649074A6A
:1007E0001278885C0649095C034A515C01EBC00140
:1007F000044A117070470000100C00083D000020F2
:100800003E0000203C00002029B1064A92690243C4
:10081000044B9A6104E0034A92698243014B9A6156
:100820007047000000100240704710B500F002F859
:1008300010BD00000CB50020019000903348006806
:1008400040F480303149086000BF3048006800F44F
:10085000003000900198401C0190009818B9019850
:10086000B0F5A06FF1D12948006800F4003010B154
:100870000120009001E0002000900098012843D161
:100880002348006840F010002149086008460068CD
:1008900020F0030008600846006840F0020008608D
:1008A0001A48406819494860084640684860084648
:1008B000406840F4806048600846406820F47C103E
:1008C00048600846406840F4E81048600846006800
:1008D00040F08070086000BF0C48006800F00070B5
:1008E0000028F9D00948406820F003000749486013
:1008F0000846406840F00200486000BF0348406876
:1009000000F00C000828F9D10CBD000000100240D6
:1009100000200240042808D14FF0E021096941F08D
:1009200004014FF0E022116107E04FF0E021096976
:1009300021F004014FF0E0221161704710B5054825
:100940000078012805D1FFF7AFFDFFF795FEFFF70F
:10095000BDFD10BD4600002010B51348006840F0F2
:1009600001001149086008464068104908400E49D6
:100970004860084600680E4908400B490860084670
:10098000006820F4802008600846406820F4FE00DB
:1009900048604FF41F008860FFF747FF4FF000608A
:1009A0000449086010BD0000001002400000FFF87C
:1009B000FFFFF6FE08ED00E010B5FFF775FD40F211
:1009C00025511E4800F040F810B31C4800F066F8AE
:1009D000C4B21B48008800F40040C8B91848008819
:1009E00000F4804060B10A2C03D000201449088034
:1009F00020E01348008840F400401149088019E0C5
:100A00000D2C06D10E48008840F480400C49088027
:100A100010E00B480088C0F30D000A490C54084848
:100A20000088401C0649088008460088C72801DD68
:100A300000200880FFF74AFD10BD0000003801408B
:100A40001C0000206800002070B50246002400232E
:100A50000025002040F66A16B14200D100BFC1F364
:100A6000421501F01F03012606FA03F3012D02D1FE
:100A70009689334006E0022D02D1168A334001E008
:100A8000968A33400C12012606FA04F41688344084
:100A900013B10CB1012000E0002070BD0146888830
:100AA000C0F30800704700BFFEE700BF70470000BA
:100AB00010B56FF00400FFF72DFF104800681049D3
:100AC000B0FBF1F00F4908700C4800680C49B0FB0E
:100AD000F1F441F28830444305200B4908804FF07F
:100AE000E020006940F002004FF0E0210861084674
:100AF0004461006940F00100086110BD0000002061
:100B000000127A00140000201600002070B5044680
:100B10000F480078A0B10F48007888B90E480088C7
:100B2000844206DB0C48008894FBF0F5284600F070
:100B30001DF80948008894FBF0F100FB114084B2D5
:100B40004FF47A7104FB01F000F016F870BD00005C
:100B500046000020390000201600002010B5FFF7E5
:100B6000FDFC10BD10B5FFF719FD10BD10B5044612
:100B70002046FFF745FD10BD2DE9F047074600264A
:100B80004FF0E020D0F814901148007807FB00F8EF
:100B900000BFFFF7E3FF4FF0E020856911E04FF061
:100BA000E0208469AC420CD0AC4202D2281B06443F
:100BB00003E0A9EB0400284406442546464500D33B
:100BC00000E0ECE700BFFFF7CDFFBDE8F0870000D5
:100BD00014000020FFF76CFFFFF73CFC15E0042138
:100BE0000A48FFF731FC02210848FFF72FFC3220AA
:100BF000FFF78CFF04210548FFF728FC022103487A
:100C0000FFF722FC3220FFF781FFE8E700100140E8
:100C100000000100020001000300010002000100C9
:100C200004000100020001000300010002000100B5
:100C300005000100020001000300010002000100A4
:100C40000400010002000100030001000200010095
:100C50000600010002000100030001000200010083
:100C60000400010002000100030001000200010075
:100C70000500010002000100030001000200010064
:100C80000400010002000100030001000200010055
:100C90000700010002000100030001000200010042
:100CA0000400010002000100030001000200010035
:100CB0000500010002000100030001000200010024
:100CC0000400010002000100030001000200010015
:100CD0000600010002000100030001000200010003
:100CE00004000100020001000300010002000100F5
:100CF00005000100020001000300010002000100E4
:100D000004000100020001000300010002000100D4
:100D1000300D000800000020680000006C01000891
:100D2000980D000868000020A81100008801000844
:100D300000A24A04000000000000000001020304B9
:100D40000607080900000000000000000000000085
:100D50000000000000000000000000000000000093
:100D60000000000000000000000000000000000083
:100D70000000000000000000000000000000000073
:100D80000000000000000000000000000000000063
:080D900000000000000000005B
:04000005080001CD21
:00000001FF
