:020000040800F2
:1000000000040020E30D0008F10D0008F30D0008C6
:10001000F50D0008F70D0008F90D000800000000BC
:10002000000000000000000000000000FB0D0008C0
:10003000FD0D000800000000FF0D0008010E000883
:10004000450E0008470E0008490E00084B0E000838
:100050004D0E00084F0E0008510E0008530E000808
:10006000550E0008570E0008590E00085B0E0008D8
:100070005D0E00085F0E0008610E0008630E0008A8
:10008000650E0008670E0008690E0008030E0008E0
:10009000030E0008030E0008030E0008730E00088C
:1000A000750E0008770E0008790E00087B0E000818
:1000B0007D0E00087F0E0008810E0008830E0008E8
:1000C000850E0008870E0008890E00088B0E0008B8
:1000D0008D0E00088F0E0008910E0008930E000888
:1000E000950E0008970E0008990E00089B0E000858
:1000F0009D0E00089F0E0008A10E0008A30E000828
:10010000A50E0008A70E0008A90E0008AB0E0008F7
:10011000AD0E0008AF0E0008B10E0008B30E0008C7
:10012000B50E0008B70E0008B90E0008BB0E000897
:1001300000F002F800F03AF80AA090E8000C8244BF
:100140008344AAF10107DA4501D100F02FF8AFF29C
:10015000090EBAE80F0013F0010F18BFFB1A43F0A5
:1001600001031847189D0000389D0000103A24BF75
:1001700078C878C1FAD8520724BF30C830C144BF0C
:1001800004680C607047000000230024002500264E
:10019000103A28BF78C1FBD8520728BF30C148BFEA
:1001A0000B6070471FB51FBD10B510BD01F0DCF925
:1001B0001146FFF7F7FF00F009FF01F0FAF903B469
:1001C000FFF7F2FF03BC01F001FA000010B504468E
:1001D000C448844208D10121042000F01DFB002105
:1001E000042000F019FB46E0BF48844208D10121F9
:1001F000082000F011FB0021082000F00DFB3AE080
:10020000BA48844208D10121102000F005FB0021EA
:10021000102000F001FB2EE0B548844208D10121F6
:10022000202000F0F9FA0021202000F0F5FA22E069
:10023000B048844208D10121402000F0EDFA0021AD
:10024000402000F0E9FA16E0AB48844208D10121D1
:10025000802000F0E1FA0021802000F0DDFA0AE0C1
:10026000A648844207D10121801500F0D5FA00216B
:10027000A01500F0D1FA10BD10B50121084600F01C
:10028000CBFA0021012000F0C7FA10BD2DE9F041A2
:10029000024600250026002000230024002791F8B4
:1002A00003C00CF00F0591F803C00CF0100CBCF16A
:1002B000000F03D091F802C04CEA050591F800C088
:1002C000BCF1000F31D0146800202BE04FF0010C7E
:1002D0000CFA00F3B1F800C00CEA03069E4220D1EC
:1002E00083004FF00F0C0CFA03F7BC4305FA03FC34
:1002F0004CEA040491F803C0BCF1280F06D14FF07A
:10030000010C0CFA00FCC2F814C00AE091F803C01A
:10031000BCF1480F05D14FF0010C0CFA00FCC2F8FB
:1003200010C0401C0828D1D31460B1F800C0BCF143
:10033000FF0F34DD546800202EE000F1080C4FF070
:10034000010808FA0CF3B1F800C00CEA03069E425B
:1003500021D183004FF00F0C0CFA03F7BC4305FAD0
:1003600003FC4CEA040491F803C0BCF1280F05D14A
:1003700000F1080C08FA0CF8C2F8148091F803C0D8
:10038000BCF1480F07D100F1080C4FF0010808FA42
:100390000CF8C2F81080401C0828CED35460BDE889
:1003A000F0814FF6FF710180022181700421C1703C
:1003B00070470246002093680B400BB1012000E01B
:1003C000002070470146886880B2704702460020CE
:1003D000D3680B400BB1012000E0002070470146BC
:1003E000C86880B2704701617047416170470AB1C7
:1003F000016100E041617047C16070474FF4803295
:100400000A43826181618261826982697047024622
:1004100000203B4B18684FF68073184040EA0210EA
:100420000843374B186070473649C8617047F0B5CC
:100430000A460023002400210025314E7168C0F3D4
:10044000034583B200F44016B6F5401F08D121F0F1
:1004500070612B4E766826F07066294F7E6012E040
:1004600000F48016B6F5801F06D1032606FA05F4BF
:10047000A14341F0706106E0460D360103FA06F62D
:10048000B14341F0706122B1460D360103FA06F620
:1004900031431B4E7160F0BD30B500228B071C0F3D
:1004A0000F2303FA04F2164B08338C1053F8243050
:1004B0009343134C08348D1044F8253023468C1098
:1004C00053F824308C07240F00FA04F423430C4C17
:1004D00008348D1044F8253030BD0A49DC310860FD
:1004E0007047000000080140000C0140001001406E
:1004F0000014014000180140001C01400020014090
:100500000000014000002042DF48006840F0010088
:10051000DD49086008464068DC490840DA4948601F
:1005200008460068DA490840D7490860084600686C
:1005300020F4802008600846406820F4FE004860EF
:100540004FF41F0088607047CF49096821F480315B
:10055000CD4A11601146096821F480211160B0F57F
:10056000803F03D0B0F5802F0ED106E0C649096860
:1005700041F48031C44A116007E0C349096841F47D
:10058000A021C14A116000E000BF00BF704710B554
:1005900001460022002300204A11012A02D1BA4C50
:1005A000236806E0022A02D1B74C236A01E0B64C68
:1005B000636A01F01F02012494401C400CB1012029
:1005C00000E0002010BD38B5002000900024002578
:1005D00000BF3120FFF7DBFF05460098401C00906C
:1005E0000098B0F5A06F01D0002DF2D03120FFF7B8
:1005F000CEFF08B1012400E00024204638BD0146AA
:100600000020A14A106820F0F80040EAC100106004
:100610007047A04908607047024600209A4B58680E
:1006200020F47C1042EA01031843974B586070474E
:1006300098490866704701460020934A506820F0A8
:1006400003000843506070478F48406800F00C007A
:100650007047014600208C4A506820F0F0000843A3
:100660005060704701460020874A506820F4E060DF
:1006700008435060704701460020834A506820F4C8
:10068000605040EAC1005060704729B17E4A527AFA
:1006900002437D4B5A7204E07B4A527A82437A4B82
:1006A0005A7270477B49D831086070470146002074
:1006B000754A506820F4404008435060704700215C
:1006C000714A20321170704A82F82010012802D03D
:1006D00004280AD104E001216B4A2032117005E0A0
:1006E0000521694A2032117000E000BF00BF704749
:1006F0006949086070476449096A0143624A1162A6
:100700007047654944390860704730B500210022C0
:10071000002400235C4D6D6805F00C0121B1042913
:1007200005D0082923D105E05C4D056022E05B4D32
:1007300005601FE0544D6D6805F47012524D6D68F0
:1007400005F48034022505EB92421CB9544D554303
:1007500005600BE04C4D6D6805F400351DB1504D42
:100760005543056002E04D4D5543056002E04B4D99
:10077000056000BF00BF444D6D6805F0F001090938
:10078000484D6B5C0568DD4045603F4D6D6805F484
:10079000E061090A434D6B5C4568DD4085603A4D78
:1007A0006D6805F46051C90A3E4D6B5C4568DD40DB
:1007B000C560354D6D6805F44041890B3A4D6B5C61
:1007C000C568B5FBF3F5056130BD29B12E4A526904
:1007D00002432D4B5A6104E02B4A526982432A4B53
:1007E0005A61704729B1284A92690243264B9A619F
:1007F00004E0254A92698243234B9A61704729B1EC
:10080000214AD2690243204BDA6104E01E4AD269D0
:1008100082431D4BDA61704729B11B4AD2680243FB
:10082000194BDA6004E0184AD2688243164BDA604A
:10083000704729B1144A12690243134B1A6104E04C
:10084000114A12698243104B1A61704712494039AC
:10085000086070470F49C86470470B49C8717047FA
:100860000948406A40F08070074948627047014675
:100870000020054A92680A400AB1012000E00020E9
:100880007047014988727047001002400000FFF86D
:10089000FFFFF6FE000042428004424200127A004E
:1008A00000093D000000002010000020014600204B
:1008B000FD4A106800F03800084310607047FA499C
:1008C000096821F00801F84A1160114609680143DE
:1008D00011607047F449096821F01001F24A116073
:1008E00011460968014311607047F048EE494860BD
:1008F000EF4848607047EC48006940F08000EA49E2
:10090000086170470420E849C96801F0010109B194
:1009100001200EE0E449C96801F0040109B1022098
:1009200007E0E149C96801F0100109B1032000E0C6
:100930000420704708B500200090FF20009002E0DE
:100940000098401E009000980028F9D108BD70B5AD
:1009500004460425FFF7D6FF054605E0FFF7EAFF4A
:10096000FFF7D0FF0546641E012D01D1002CF5D103
:1009700004B90525284670BD70B50546042440F627
:10098000FF70FFF7E4FF0446042C19D1C648006944
:1009900040F00200C449086108464561006940F022
:1009A0004000086140F6FF70FFF7D1FF0446052CB8
:1009B00006D0BD48006941F6FD710840BA4908619A
:1009C000204670BD10B5042440F6FF70FFF7BFFF4E
:1009D0000446042C18D1B448006940F00400B24920
:1009E00008610846006940F04000086140F6FF7069
:1009F000FFF7ADFF0446052C06D0AB48006941F671
:100A0000FB710840A8490861204610BD10B50424B8
:100A100040F6FF70FFF79BFF0446042C3BD1A34830
:100A2000A1498860A24888600846006940F020001B
:100A300008610846006940F04000086140F6FF7018
:100A4000FFF785FF0446042C1CD19748006941F646
:100A5000DF710840944908610846006940F01000C1
:100A60000861A520934908800F20FFF770FF044616
:100A7000052C10D08C48006941F6EF7108408A4976
:100A8000086108E0052C06D08748006941F6EF713F
:100A9000084085490861204610BDF8B506460D4658
:100AA0000424002000900F20FFF751FF0446042C7F
:100AB00028D17D48006940F001007B4908613580FC
:100AC0000F20FFF744FF0446042C12D1B01C009005
:100AD000280C009908800F20FFF739FF0446052CE9
:100AE00010D07148006941F6FE7108406E490861F6
:100AF00008E0052C06D06C48006941F6FE710840FC
:100B0000694908612046F8BD70B505460E460424C3
:100B10000F20FFF71CFF0446042C13D16248006924
:100B200040F00100604908612E800F20FFF70FFFA1
:100B30000446052C06D05C48006941F6FE71084069
:100B400059490861204670BD70B505460E4604241B
:100B50000F20FFF7FCFE0446042C17D153485249DE
:100B60008860534888600846006940F010000861BA
:100B70002E800F20FFF7EBFE0446052C06D04A48D6
:100B8000006941F6EF71084047490861204670BD91
:100B90002DE9F04704464FF6FF763746B046B1469A
:100BA0000425E443E6B2C4F30727C4F307484FEA39
:100BB00014690F20FFF7CBFE0546042D40D13B48BA
:100BC000394988603A4888600846006940F010005A
:100BD0000861FF2E06D03748083006800F20FFF747
:100BE000B6FE0546042D08D1FF2F06D031480A3045
:100BF00007800F20FFF7ABFE0546042D0AD1B8F1A0
:100C0000FF0F07D02B480C30A0F800800F20FFF713
:100C10009EFE0546042D0AD1B9F1FF0F07D02548E5
:100C20000E30A0F800900F20FFF791FE0546052D2D
:100C300006D01D48006941F6EF7108401A49086165
:100C40002846BDE8F08770B50546042440F6FF70DD
:100C5000FFF77DFE0446042C49D1144812498860F0
:100C6000134888600846006940F020000861084683
:100C7000006940F04000086140F6FF70FFF767FE32
:100C80000446042C2AD10848006941F6DF71084067
:100C9000054908610846006940F0100008615DB12F
:100CA0000020044908800AE0002002402301674533
:100CB000AB89EFCD00F8FF1FA5204549088040F61D
:100CC000FF70FFF744FE0446052C10D04148006930
:100CD00041F6EF7108403F49086108E0052C06D055
:100CE0003C48006941F6DF7108403A4908612046F6
:100CF00070BD2DE9F04105460E46174604243648DE
:100D000034498860354888600F20FFF720FE04468C
:100D1000042C19D12F48006940F010002D490861BA
:100D200047F0F800304328432949891C08800F20E8
:100D3000FFF70DFE0446052C06D02648006941F653
:100D4000EF710840234908612046BDE8F081214841
:100D5000C069800870471F48006A704700201D491D
:100D6000C96901F0020109B1012000E000207047CB
:100D700000201849096801F0200109B1012000E0B4
:100D80000020704729B1134A12690243114B1A61BE
:100D900004E0104A126982430E4B1A617047014603
:100DA0000020012908D10B4AD26902F001020AB1E0
:100DB000012008E0002006E0064AD2680A400AB195
:100DC000012000E0002070470249C8607047000021
:100DD00000F8FF1F0020024023016745AB89EFCDDB
:100DE00070470B4880470B4981F308880A48004741
:100DF000FEE7FEE7FEE7FEE7FEE7FEE7FEE7FEE7CB
:100E0000FEE7FEE705480649064A074B7047000023
:100E1000E10D00087806002031010008780000206C
:100E20007806002078020020780200207047704782
:100E300000BFFEE700BFFEE700BFFEE77047704758
:100E400070477047704770477047704770477047EA
:100E500070477047704770477047704770477047DA
:100E600070477047704770477047704770477047CA
:100E700070477047704770477047704770477047BA
:100E800070477047704770477047704770477047AA
:100E9000704770477047704770477047704770479A
:100EA000704770477047704770477047704770478A
:100EB00070477047704770477047704708B5012109
:100EC0001820FFF78FFC4FF4E060ADF80000102011
:100ED0008DF8030003208DF8020069464748FFF7AC
:100EE000D5F94FF44040ADF8000010208DF8030014
:100EF00003208DF8020069464048FFF7C7F94FF418
:100F00000050ADF8000028208DF8030003208DF874
:100F1000020069463948FFF7B9F94FF48050ADF83F
:100F2000000010208DF8030003208DF802006946B0
:100F30003248FFF7ABF908BD10B5FFF7E5FA4FF4FB
:100F40008030FFF701FBFFF73EFB2D490870084694
:100F50000078012805D14FF4E0110004FFF75CFB95
:100F60000DE00120FFF755FB00BF2120FFF70FFB2D
:100F70000028FAD04FF460110020FFF74DFB10203D
:100F8000FFF7A8FC0220FFF791FC0020FFF761FBB0
:100F90000020FFF770FB4FF48060FFF763FB012038
:100FA000FFF746FB00BF3920FFF7F1FA0028FAD01F
:100FB0000220FFF740FB00BFFFF746FB0828FBD1EC
:100FC000012144F20500FFF70DFC10BDFFF7B4FF4F
:100FD000FFF774FF00F091F800F04FF900F08DF882
:100FE0000849094800F0D2F800F0F0F84FF4967084
:100FF00000F00CF800BFFEE770470000000C014055
:10100000140000209A6F0008FA5F000800220021F7
:1010100000BF06E0002200E0521CB2F5205FFBD3C7
:10102000491C8142F6D3704770B5044625464FF4FB
:101030000071FE48FFF7D9F900261BE005F080009B
:1010400028B14FF48061F948FFF7CDF904E04FF47F
:101050008061F648FFF7C9F94FF40071F348FFF7D4
:10106000C2F94FF40071F148FFF7BFF96806050EA9
:10107000701CC6B2082EE1DB70BD10B506E04FF45F
:101080000051EA48FFF795F900B900E0F7E700BF23
:1010900010BD10B504464FF48071E448FFF7A3F982
:1010A0004FF48071E148FFF7A0F94FF40041DF48A9
:1010B000FFF79BF92046FFF7B7FF4FF48071DB483D
:1010C000FFF791F910BD10B504464FF48071D74871
:1010D000FFF789F94FF48071D448FFF786F94FF490
:1010E0000041D248FFF77FF92046FFF79DFF4FF4FC
:1010F0008071CE48FFF777F910BD10B54FF48041ED
:10110000CA48FFF772F96420FFF780FF4FF480416F
:10111000C648FFF768F96420FFF778FFFFF7ADFFD7
:101120001220FFF7B6FFFFF7A8FF0620FFF7B1FF79
:101130001720FFF7C8FF1720FFF7C5FF1720FFF79D
:10114000C2FF0020FFF7A5FF0F20FFF7BCFF0D2017
:10115000FFF7B9FF6120FFF79CFF8020FFF7B3FF87
:101160000120FFF7B0FF2820FFF7ADFFFFF785FF55
:1011700010BD10B52220FFF78CFFF720FFF7A3FF6B
:101180002020FFF786FFFFF778FF10BD70B50546FA
:101190000E462420FFF77DFF002404E02878FFF7A7
:1011A00092FF6D1C641CB4F57A6FF7D32620FFF70D
:1011B00070FF002404E03078FFF785FF761C641C84
:1011C000B4F57A6FF7D3FFF7D4FF70BD10B51020D8
:1011D000FFF75FFF0120FFF776FF6420FFF716FFA0
:1011E00010BD70B52420FFF754FF002408E000254F
:1011F00003E0FF20FFF767FF6D1C142DF9D3641C7B
:10120000B4F5947FF3D32620FFF743FF002408E0D2
:10121000002503E0FF20FFF756FF6D1C142DF9D3C6
:10122000641CB4F5947FF3D3FFF7A3FF70BD70B5D2
:101230002420FFF72EFF002408E0002503E0002013
:10124000FFF741FF6D1C142DF9D3641CB4F5947F96
:10125000F3D32620FFF71DFF002408E0002503E05C
:101260000020FFF730FF6D1C142DF9D3641CB4F57A
:10127000947FF3D3FFF77DFF70BD70B52420FFF797
:1012800008FF002408E0002503E0FF20FFF71BFF14
:101290006D1C142DF9D3641CB4F5947FF3D3262070
:1012A000FFF7F7FE002408E0002503E00020FFF729
:1012B0000AFF6D1C142DF9D3641CB4F5947FF3D38D
:1012C000FFF757FF70BD2DE9FE4F04460F469046CD
:1012D0009946DDF830B004F10800C4080D9804EB1D
:1012E000D000401E0290002001903D46FF2F02D901
:1012F000280A0190EDB20020009007EB0B00461E7B
:10130000FF2E02D9300A0090F6B24420FFF7C1FE4A
:10131000E0B2FFF7D8FE0299C8B2FFF7D4FE45202D
:10132000FFF7B7FEE8B2FFF7CEFE0199C8B2FFF7AC
:10133000CAFEF0B2FFF7C7FE0099C8B2FFF7C3FEBE
:101340004E20FFF7A6FEE0B2FFF7BDFE4F20FFF7ED
:10135000A0FEE8B2FFF7B7FE0199C8B2FFF7B3FEEF
:10136000B9F1010F02D12420FFF793FEB9F1020F6A
:1013700002D12620FFF78DFE4FF0000A07E098F813
:101380000000FFF7A0FE08F101080AF1010A0D981C
:101390000BFB00F0BAEBD00FF1D3FFF7EAFEBDE88C
:1013A000FE8F2DE9FF4F87B00646DDE9187806F17C
:1013B0000800C60806EBD800401E069000200590E5
:1013C000DDF82090B9F1FF0F04D94FEA19200590FC
:1013D00009F0FF090020049008983844A0F1010AA0
:1013E000BAF1FF0F04D94FEA1A2004900AF0FF0A5D
:1013F0004420FFF74EFEF0B2FFF765FE0699C8B233
:10140000FFF761FE4520FFF744FE09F0FF00FFF7FC
:101410005AFE0599C8B2FFF756FE0AF0FF00FFF723
:1014200052FE0499C8B2FFF74EFE01E0000C0140E5
:101430004E20FFF72EFEF0B2FFF745FE4F20FFF7DC
:1014400028FE09F0FF00FFF73EFE0599C8B2FFF73E
:101450003AFE2620FFF71DFE002407E00A990878CF
:10146000FFF731FE0A98401C0A90641C07FB08F045
:10147000B4EBD00FF2D314980830C008149014982D
:1014800000EBD800401E039000200290159DFF2D18
:1014900002D9280A0290EDB2002001901598384434
:1014A000A0F1010BBBF1FF0F04D94FEA1B20019003
:1014B0000BF0FF0B4420FFF7ECFD1499C8B2FFF7C7
:1014C00002FE0399C8B2FFF7FEFD4520FFF7E1FDDC
:1014D000E8B2FFF7F8FD0299C8B2FFF7F4FD0BF090
:1014E000FF00FFF7F0FD0199C8B2FFF7ECFD4E20B9
:1014F000FFF7CFFD1499C8B2FFF7E5FD4F20FFF7C6
:10150000C8FDE8B2FFF7DFFD0299C8B2FFF7DBFDC7
:101510002420FFF7BEFD002407E016990878FFF7A6
:10152000D2FD1698401C1690641C07FB08F0B4EB23
:10153000D00FF2D32620FFF7ACFD002407E0179967
:101540000878FFF7C0FD1798401C1790641C07FB34
:1015500008F0B4EBD00FF2D3FFF70BFE0BB0BDE8F1
:10156000F08F704770477047754600F02BF8AE4615
:1015700005006946534620F00700854618B020B59F
:10158000FFF740FCBDE820404FF000064FF0000799
:101590004FF000084FF0000B21F00701AC46ACE81B
:1015A000C009ACE8C009ACE8C009ACE8C0098D4688
:1015B000704710B50446AFF300802046BDE81040E8
:1015C000FEF7FDBD004870471800002001491820B3
:1015D000ABBEFEE7260002007047FFFFFFFFFFFFE4
:1015E000FFFFFFFFFFFFFFFFFFFFFFFFFFFFFFFF0B
:1015F000FFFFFFFFFFFFFFFFFFFFFFFFFFFFFFFFFB
:10160000FFFFFFFFFFFFFFFFFFFFFFFFFFFFFFFFEA
:10161000FFFFFFFFFFFFFFFFFFFFFFFFFFFFFFFFDA
:10162000FFFFFFFFFFFFFFFFFFFC003FFFFFFFFF8C
:10163000800001FFFFFFF80000001FFFFFF0000027
:10164000000FFFFFC000000003FFFF80000000014B
:10165000FFFE000FFFF0007FFC01FFFFFF803FFC5B
:101660001FFFFFFFF83FFC7FFFFFFFFE3FF9FFFF7B
:10167000FFFFFF9FFBFFFFFFFFFF9FFBFFFFFFFF42
:10168000FFDFF7FFFFFFFFFFCFF7FFFFFFFFFFEFDA
:10169000F7FFFFFFFFFFEFF7FFFFFFFFFFEFF7FF92
:1016A000FFFFFFFFEFF7FFFFFFFFFFEFF7FFFFFF7A
:1016B000FFFFEFFBFFFFFFFFFFDFFBFFFFFFFFFF72
:1016C0009FF9FFFFFFFFFF9FFC7FFFFFFFFE3FFC37
:1016D0001FFFFFFFF83FFC01FFFFFF803FFE000FF1
:1016E000FFF0007FFF8000000001FFFFC00000004E
:1016F00003FFFFE000000007FFFFF80000001FFFEE
:10170000FFFF800001FFFFFFFFFC003FFFFFFFFF27
:10171000FFFFFFFFFFFFFFFFFFFFFFFFFFFFFFFFD9
:10172000FFFFFFFFFFFFFFFFFFFFFFFFFFFFFFFFC9
:10173000FFFFFFFFFFFFFFFFFFFFFFFFFFFFFFFFB9
:10174000FFFFFFFFFFFFFFFFFFFFFFFFFFFFFFFFA9
:10175000FFFFFFFFFFFFFFFFFFFFFFFFFFFFFFFF99
:10176000FFFFFFFFFFFFFFFFFFFFFFFFFFFFFFFF89
:10177000FFFFFFFFFFFFFFFFFFFFFFFFFFFFFFFF79
:10178000FFFFFFFFFFFFFFFFFFFFFFFFFFFFFFFF69
:10179000FFFFFFFFFFFFFFFFFFFFFFFFFFFFFFFF59
:1017A000FFFFFFFFFFFFFFFFFFFFFFFFFFFFFFFF49
:1017B000FFFFFFFFFFFFFFFFFFFFFFFFFFFFFFFF39
:1017C000FFFFFFFFFFFFFFFFFFFFFFFFFFFFFFFF29
:1017D000FFFFFFFFFFFFFFFFFFFFFFFFFFFFFFEF29
:1017E000FFFFFFFFFFFFEFFFFBFFFFFFFFEFFFF735
:1017F000FFFFFFFFEFFFF7FFFFFFFFEFFFEFFFFF31
:10180000FFFFCFFFCFFFFFFFFFCFFF9FFFFFFFFFD8
:101810000FFF00000000000FFE00000000000FFEA0
:1018200000000000000FFC00000000000FF80000A6
:101830000000000FF000000000000FFFFFFFFFFF9F
:10184000FF0FFFFFFFFFFFFFCFFFFFFFFFFFFFCFF8
:10185000FFFFFFFFFFFFEFFFFFFFFFFFFFEFFFFFB8
:10186000FFFFFFFFEFFFFFFFFFFFFFEFFFFFFFFFA8
:10187000FFFFEFFFFFFFFFFFFFFFFFFFFFFFFFFF88
:10188000FFFFFFFFFFFFFFFFFFFFFFFFFFFFFFFF68
:10189000FFFFFFFFFFFFFFFFFFFFFFFFFFFFFFFF58
:1018A000FFFFFFFFFFFFFFFFFFFFFFFFFFFFFFFF48
:1018B000FFFFFFFFFFFFFFFFFFFFFFFFFFFFFFFF38
:1018C000FFFFFFFFFFFFFFFFFFFFFFFFFFFFFFFF28
:1018D000FFFFFFFFFFFFFFFFFFFFFFFFFFFFFFFF18
:1018E000FFFFFFFFFFFFFFFFFFFFFFFFFFFFFFFF08
:1018F000FFFFFFFFFFFFFFFFFFFFFFFFFFFFFFFFF8
:10190000FFFFFFFFFFFFFFFFFFFFFFFFFFFFFFFFE7
:10191000FFFFFFFFFFFFFFFFFFFFFFFFFFFFFFFFD7
:10192000FFFFFFFFFFFFFFFFFFFFFFFFFFFFFFFFC7
:10193000FFFFFFFFFFFFFFFFF8FFFFFFF00FFFE0DC
:101940007FFFFF89FFFF803FFFFC73FFFF603FFFCA
:10195000FBF7FFFEE03FFFF7F7FFFDE03FFFEFF78C
:10196000FFFDF03FFFDFF7FFFDF87FFFBFF7FFFB55
:10197000FFFFFFBFF3FFFBFFFFFF7FF3FFFBFFFF57
:10198000FF7FF1FFF7FFFFFEFFF8FFF7FFFFFEFF0E
:10199000F8FFF7FFFFFDFFF87FF7FFFFFDFFF87F80
:1019A000F7FFFFFBFFF83FF7FFFFFBFFFC1FF7FF11
:1019B000FFF7FFFC1FF7FFFFF7FFFC0FF7FFFFEF3D
:1019C000FFFC0FF7FFFFEFFFFC0FF7FFFFCFFFFC60
:1019D0000FF3FFFF9FFFFC0FFBFFFF1FFFFC0FF943
:1019E000FFFE3FFFFC0FF8FFF83FFFFC0FFC1FE07E
:1019F0007FFFFC0FFC0000FFFFFC0FFE0000FFFF5D
:101A0000FC1FFF0001FFFFF83FFF8003FFFFF87F8F
:101A1000FFE00FFFFFF1FFFFF83FFFFF07FFFFFFB2
:101A2000FFFFFFFFFFFFFFFFFFFFFFFFFFFFFFFFC6
:101A3000FFFFFFFFFFFFFFFFFFFFFFFFFFFFFFFFB6
:101A4000FFFFFFFFFFFFFFFFFFFFFFFFFFFFFFFFA6
:101A5000FFFFFFFFFFFFFFFFFFFFFFFFFFFFFFFF96
:101A6000FFFFFFFFFFFFFFFFFFFFFFFFFFFFFFFF86
:101A7000FFFFFFFFFFFFFFFFFFFFFFFFFFFFFFFF76
:101A8000FFFFFFFFFFFFFFFFFFFFFFFFFFFFFFFF66
:101A9000FFFFFFFFFFFFFFFFFFFFFFFFFFFFFFFF56
:101AA000FFFFFFFFFFFFFFFFFFFFFFFFFFFFFFFF46
:101AB000FFFFFFFFFFFFFFFFFFFFFFFFFFFFFFFF36
:101AC000FFFFFFFFFFFFFFFFFFFFFFFFFFFFD07FD5
:101AD000FFFE0BFFFF203FFFFC04FFFEE03FFFFC8B
:101AE000077FFEE03FFFFC07BFFDF03FFFFC0FBF9D
:101AF000FDF87FFFFE1FBFFDFFFFFFFFFFDFFBFFC6
:101B0000FFFFFFFFDFFBFFFFFFFFFFDFFBFFFFFF2D
:101B1000FFFFEFF7FFFFFFFFFFEFF7FFFFFFFFFF05
:101B2000EFF7FFFF7FFFFFEFF7FFFF7FFFFFEFF70D
:101B3000FFFF7FFFFFEFF7FFFF7FFFFFEFF7FFFFE5
:101B40007FFFFFEFF7FFFF3FFFFFEFF3FFFE3FFFDA
:101B5000FFEFF3FFFE1FFFFFEFF1FFFC1FFFFFCFC3
:101B6000F8FFF80FFFFFDFF83FE0C7FFFF9FF80027
:101B700000C1FFFE1FFC0000E03FF03FFC0001F051
:101B800000003FFC0001F800003FFF0007FC0000E0
:101B90007FFFC01FFE0000FFFFFFFFFF0003FFFFEE
:101BA000FFFFFFE00FFFFFFFFFFFFFFFFFFFFFFF54
:101BB000FFFFFFFFFFFFFFFFFFFFFFFFFFFFFFFF35
:101BC000FFFFFFFFFFFFFFFFFFFFFFFFFFFFFFFF25
:101BD000FFFFFFFFFFFFFFFFFFFFFFFFFFFFFFFF15
:101BE000FFFFFFFFFFFFFFFFFFFFFFFFFFFFFFFF05
:101BF000FFFFFFFFFFFFFFFFFFFFFFFFFFFFFFFFF5
:101C0000FFFFFFFFFFFFFFFFFFFFFFFFFFFFFFFFE4
:101C1000FFFFFFFFFFFFFFFFFFFFFFFFFFFFFFFFD4
:101C2000FFFFFFFFFFFFFFFFFFFFFFFFFFFFFFFFC4
:101C3000FFFFFFFFFFFFFEFFFFFFFFFFFFF9FFFFBB
:101C4000FFFFFFFFF5FFFFFFFFFFFFEDFFFFFFFFC0
:101C5000FFFF9DFFFFFFFFFFFF7DFFFFFFFFFFFE79
:101C6000FDFFFFFFFFFFF9FDFFFFFFFFFFF7FDFF98
:101C7000FFFFFFFFCFFDFFFFFFFFFFBFFDFFFFFFE8
:101C8000FFFF7FFDFFFFFFFFFCFFFDFFFFFFFFFBEF
:101C9000FFFDFFEFFFFFF7FFFDFFEFFFFFCFFFFDB2
:101CA000FFEFFFFFBFFFFDFFEFFFFF7FFFFDFFEF38
:101CB000FFFCFFFFFDFFCFFFFBFFFFFDFFCFFFFBA3
:101CC000FFFFFDFF0FFFE0000000000FFFC000005E
:101CD00000000FFF80000000000FFE000000000069
:101CE0000FFC00000000000FF000000000000FFFDC
:101CF000FFFFFFFDFF0FFFFFFFFFFDFFCFFFFFFF18
:101D0000FFFDFFCFFFFFFFFFFDFFEFFFFFFFFFFD29
:101D1000FFEFFFFFFFFFFDFFEFFFFFFFFFFDFFEF07
:101D2000FFFFFFFFFDFFEFFFFFFFFFFDFFFFFFFFD7
:101D3000FFFFFDFFFFFFFFFFFFFDFFFFFFFFFFFFB7
:101D4000FFFFFFFFFFFFFFFFFFFFFFFFFFFFFFFFA3
:101D5000FFFFFFFFFFFFFFFFFFFFFFFFFFFFFFFF93
:101D6000FFFFFFFFFFFFFFFFFFFFFFFFFFFFFFFF83
:101D7000FFFFFFFFFFFFFFFFFFFFFFFFFFFFFFFF73
:101D8000FFFFFFFFFFFFFFFFFFFFFFFFFFFFFFFF63
:101D9000FFFFFFFFFFFFFFFFFFFFFFFFFFFFFFFF53
:101DA000FFFFFFFFFFFFFFFFFFFFFFFFFFFFFFFF43
:101DB000FFFFFFFFFFFFFFFFFFFFFFFFFFFFFFFF33
:101DC000FFFFFFFFFFFFFFFFFFFFFFFFFFFFFFFF23
:101DD000FFFF8FFF1FFFFFFFF01FFE07FFFFFE0744
:101DE000BFFC01FFFFC0FF7FFC06FFF81FFEFFFCEA
:101DF000077FF03FFDFFFC07BFF03FFDFFFE0FBF79
:101E0000F03FFBFFFF1FDFF03FFBFFFFFFDFF03F77
:101E1000FBFFFFFFDFF03FF7FFFFFFEFF03FF7FFB4
:101E2000FFFFEFF03FF7FFFFFFEFF03FF7FFFFFF90
:101E3000EFF03FF7FFFFFFEFF03FF7FFFFFFEFF09F
:101E40007FF7FFFFFFEFF07FF7FFFFFFEFF07FF778
:101E5000FFFFFFEFF07FF7FFFFFFCFF0FFFBFFFF7C
:101E6000FFDFF0FFFBFFFFFF9FF0FFF9FFFFFF9F8A
:101E7000F1FFFCFFFFFF3FF1FFFC7FFFFE3FF3FFA1
:101E8000FC1FFFF83FF3FFFE03FFC07FF7FFFF00DB
:101E90000000FFF7FFFF800001FFF7FFFFC0000316
:101EA000FFFFFFFFE00007FFFFFFFFFC003FFFFF1A
:101EB000FFFFFF00FFFFFFFFFFFFFFFFFFFFFFFF31
:101EC000FFFFFFFFFFFFFFFFFFFFFFFFFFFFFFFF22
:101ED000FFFFFFFFFFFFFFFFFFFFFFFFFFFFFFFF12
:101EE000FFFFFFFFFFFFFFFFFFFFFFFFFFFFFFFF02
:101EF000FFFFFFFFFFFFFFFFFFFFFFFFFFFFFFFFF2
:101F0000FFFFFFFFFFFFFFFFFFFFFFFFFFFFFFFFE1
:101F1000FFFFFFFFFFFFFFFFFFFFFFFFFFFFFFFFD1
:101F2000FFFFFFFFFFFFFFFFFFFFFFFFFFFFFFFFC1
:101F3000FFFFFFFFFFFFFFFFFFFFFFFFFFFFFFFFB1
:101F4000FFFFFFFFFFFFFFFFFFFFFFFFFFFFFFFFA1
:101F5000FFFFFFFFFFFFFFFFFFFE0000FFFFFFFF90
:101F6000E000003FFFFFFE00000007FFFFFC000055
:101F70000003FFFFF000000001FFFFC000000000B1
:101F8000FFFF8007F3FE007FFF007FC7FFC03FFE1B
:101F900007FF9FFFF83FFE1FFF3FFFFE3FFC7FFF55
:101FA0007FFFFF9FFCFFFEFFFFFF9FF9FFFEFFFF8C
:101FB000FFDFF9FFFDFFFFFFCFFBFFFDFFFFFFEF9F
:101FC000F3FFFDFFFFFFEFF7FFFDFFFFFFEFF7FF61
:101FD000FDFFFFFFEFF7FFFDFFFFFFEFF7FFFDFF47
:101FE000FFFFEFF7FFFCFFFFFFCFF7FFFEFFFFFF55
:101FF000DFF7FFFE7FFFFF9FF7C3FE7FFFFF1FF3AB
:1020000081FF3FFFFE3FFB00FF0FFFFC3FF900FF9A
:1020100081FFE07FFD00FFC00000FFFE00FFE00049
:1020200001FFFF81FFF00003FFFFE3FFF80007FF60
:10203000FFFFFFFF003FFFFFFFFFFFE1FFFFFFFF8D
:10204000FFFFFFFFFFFFFFFFFFFFFFFFFFFFFFFFA0
:10205000FFFFFFFFFFFFFFFFFFFFFFFFFFFFFFFF90
:10206000FFFFFFFFFFFFFFFFFFFFFFFFFFFFFFFF80
:10207000FFFFFFFFFFFFFFFFFFFFFFFFFFFFFFFF70
:10208000FFFFFFFFFFFFFFFFFFFFFFFFFFFFFFFF60
:10209000FFFFFFFFFFFFFFFFFFFFFFFFFFFFFFFF50
:1020A000FFFFFFFFFFFFFFFFFFFFFFFFFFFFFFFF40
:1020B000FFFFFFFFFFFFFFFFFFFFFFFFFFFFFFFF30
:1020C000FFFFFFFFFFFFFFFFFFFFFFFFFFFFFFFF20
:1020D000FFFFFFFFFFFFFFFFFFFFFFFFFFFFFFF01F
:1020E000003FFFFFFFFFFFC7FFFFFFFFFFFF0FFFE7
:1020F000FFFFFFFFFE1FFFFFFFFFFFFC1FFFFFFFB4
:10210000FFFFF83FFFFFFFFFFFF03FFFFFFFFFFF75
:10211000F03FFFFFFFFFFFF03FFFFFFFFFFFF03F3C
:10212000FFFFFFFFFFF03FFFFFFFFFFFF03FFFFF5D
:10213000FF800FF03FFFFFFC000FF83FFFFFF000B4
:102140000FFC3FFFFFC0000FFC3FFFFF80000FFEB2
:102150003FFFFE00000FFE1FFFFC007FFFFF1FFF81
:10216000F807FFFFFF1FFFF07FFFFFFF9FFFE1FF6B
:10217000FFFFFFDFFFC7FFFFFFFFCFFF8FFFFFFF67
:10218000FFEFFF1FFFFFFFFFEFFE3FFFFFFFFFEF30
:10219000FCFFFFFFFFFFEFF9FFFFFFFFFFEFF3FF84
:1021A000FFFFFFFFDFE7FFFFFFFFFFBFDFFFFFFFD7
:1021B000FFFE7E3FFFFFFFFFF9F1FFFFFFFFFFF094
:1021C0000FFFFFFFFFFFFFFFFFFFFFFFFFFFFFFF0F
:1021D000FFFFFFFFFFFFFFFFFFFFFFFFFFFFFFFF0F
:1021E000FFFFFFFFFFFFFFFFFFFFFFFFFFFFFFFFFF
:1021F000FFFFFFFFFFFFFFFFFFFFFFFFFFFFFFFFEF
:10220000FFFFFFFFFFFFFFFFFFFFFFFFFFFFFFFFDE
:10221000FFFFFFFFFFFFFFFFFFFFFFFFFFFFFFFFCE
:10222000FFFFFFFFFFFFFFFFFFFFFFFFFFFFFFFFBE
:10223000FFFFFFFFFFFFFFFFFFFFFFFFFFFFFFFFAE
:10224000FFFFFFFFFFFFFFFFFFFFFFFFFFFFFFFF9E
:10225000FFFFFFFFFFFFFFFFFFFFFFFFFFFFFFFF8E
:10226000FFFFFFFFFFFFFFFFFFFFFF000FFFFFFF6D
:10227000FFFC0003FFFFC01FF00001FFFF0007E0AD
:102280000000FFFC0001C000007FFC0001C0000056
:102290003FFC0000C0FFF03FF8000087FFFE1FF882
:1022A0003FE09FFFFF9FF8FFF81FFFFFDFF1FFFCFC
:1022B0003FFFFFCFF3FFFE3FFFFFEFF7FFFF7FFF83
:1022C000FFEFF7FFFF7FFFFFEFF7FFFF7FFFFFEF5E
:1022D000F7FFFF7FFFFFEFF7FFFF7FFFFFEFF7FF46
:1022E000FF7FFFFFEFF7FFFF7FFFFFEFF7FFFF7FAE
:1022F000FFFFEFF7FFFF7FFFFFEFF3FFFE7FFFFF23
:10230000EFF1FFFC3FFFFFCFF8FFF81FFFFFDFF803
:102310003FE09FFFFF9FF8000087FFFE1FFC0000CB
:10232000C0FFF03FFC0001C000003FFC0001C00006
:10233000007FFF0007E00000FFFFC01FF00001FF6B
:10234000FFFFFFFC0003FFFFFFFFFF000FFFFFFF8A
:10235000FFFFFFFFFFFFFFFFFFFFFFFFFFFFFFFF8D
:10236000FFFFFFFFFFFFFFFFFFFFFFFFFFFFFFFF7D
:10237000FFFFFFFFFFFFFFFFFFFFFFFFFFFFFFFF6D
:10238000FFFFFFFFFFFFFFFFFFFFFFFFFFFFFFFF5D
:10239000FFFFFFFFFFFFFFFFFFFFFFFFFFFFFFFF4D
:1023A000FFFFFFFFFFFFFFFFFFFFFFFFFFFFFFFF3D
:1023B000FFFFFFFFFFFFFFFFFFFFFFFFFFFFFFFF2D
:1023C000FFFFFFFFFFFFFFFFFFFFFFFFFFFFFFFF1D
:1023D000FFFFFFFFFFFFFFFFFFFFFFFFFFFFFFFF0D
:1023E000FFFFFFFFFFFFFFFFFFFFFFFFFFFFFFFFFD
:1023F000FFFFFFFFFFFFFFFE01FFFFFFFFFFF000FA
:102400003FFFFFFFFFC0000FFFC3FFFF800007FF7C
:1024100080FFFF000003FF003FFE07FF81FF00BFBA
:10242000FC3FFFF0FF00DFFC7FFFFCFF01DFFCFF54
:10243000FFFCFF83EFF9FFFFFE7FC7EFFBFFFFFF0E
:102440007FFFEFFBFFFFFF7FFFEFF7FFFFFFBFFF08
:10245000EFF7FFFFFFBFFFEFF7FFFFFFBFFFEFF754
:10246000FFFFFFBFFFEFF7FFFFFFBFFFEFF7FFFF2C
:10247000FFBFFFDFF7FFFFFFBFFFDFF3FFFFFF7FC0
:10248000FF9FFBFFFFFE7FFF3FF9FFFFFEFFFE3FC9
:10249000F87FFFFCFFFC3FFC1FFFF9FFF07FFC070C
:1024A000FFE3FF80FFFE00FF87FC01FFFF0000004D
:1024B0000003FFFF8000000007FFFFC00000001FB7
:1024C000FFFFE00000007FFFFFF8000003FFFFFFB9
:1024D000FF00007FFFFFFFFFFFFFFFFFFFFFFFFF8A
:1024E000FFFFFFFFFFFFFFFFFFFFFFFFFFFFFFFFFC
:1024F000FFFFFFFFFFFFFFFFFFFFFFFFFFFFFFFFEC
:10250000FFFFFFFFFFFFFFFFFFFFFFFFFFFFFFFFDB
:10251000FFFFFFFFFFFFFFFFFFFFFFFFFFFFFFFFCB
:10252000FFFFFFFFFFFFFFFFFFFF000000000000B5
:10253000000000000000000000000000000000009B
:10254000000000000000000000000000000000008B
:10255000000000000000000000000000000000007B
:10256000000000000000000000000000000000006B
:1025700000000000000000000003FFC00000000099
:102580007FFFFE00000007FFFFFFE000000FFFFFDE
:10259000FFF000003FFFFFFFFC00007FFFFFFFFE9A
:1025A0000001FFF0000FFF8003FE0000007FC0036A
:1025B000E000000007C0038000000001C00600002A
:1025C0000000006004000000000060040000000043
:1025D000002008000000000030080000000000108B
:1025E00008000000000010080000000000100800B3
:1025F00000000000100800000000001008000000AB
:102600000000100400000000002004000000000092
:102610006006000000000060038000000001C003AD
:10262000E000000007C003FE0000007FC001FFF0D3
:10263000000FFF80007FFFFFFFFE00003FFFFFFF56
:10264000FC00001FFFFFFFF8000007FFFFFFE00096
:1026500000007FFFFE0000000003FFC0000000003C
:10266000000000000000000000000000000000006A
:10267000000000000000000000000000000000005A
:10268000000000000000000000000000000000004A
:10269000000000000000000000000000000000003A
:1026A000000000000000000000000000000000002A
:1026B000000000000000000000000000000000001A
:1026C000000000000000000000000000000000000A
:1026D00000000000000000000000000000000000FA
:1026E00000000000000000000000000000000000EA
:1026F00000000000000000000000000000000000DA
:1027000000000000000000000000000000000000C9
:1027100000000000000000000000000000000000B9
:102720000000000000000000000000000000001099
:10273000000000000000100004000000001000086D
:102740000000000010000800000000100010000051
:102750000000300030000000003000600000000089
:10276000F000FFFFFFFFFFF001FFFFFFFFFFF001A1
:10277000FFFFFFFFFFF003FFFFFFFFFFF007FFFF7B
:10278000FFFFFFF00FFFFFFFFFFFF0000000000062
:1027900000F00000000000003000000000000030E9
:1027A0000000000000001000000000000010000009
:1027B00000000000100000000000001000000000F9
:1027C00000001000000000000000000000000000F9
:1027D00000000000000000000000000000000000F9
:1027E00000000000000000000000000000000000E9
:1027F00000000000000000000000000000000000D9
:1028000000000000000000000000000000000000C8
:1028100000000000000000000000000000000000B8
:1028200000000000000000000000000000000000A8
:102830000000000000000000000000000000000098
:102840000000000000000000000000000000000088
:102850000000000000000000000000000000000078
:102860000000000000000000000000000000000068
:102870000000000000000000000000000000000058
:102880000000000000000000070000000FF0001F23
:102890008000007600007FC000038C00009FC00015
:1028A000040800011FC000080800021FC000100833
:1028B00000020FC00020080002078000400800044A
:1028C000000000400C0004000000800C0004000028
:1028D00000800E0008000001000700080000010051
:1028E00007000800000200078008000002000780BF
:1028F000080000040007C0080000040003E008000E
:1029000000080003E0080000080003F008000010C1
:102910000003F0080000100003F00800003000037E
:10292000F00C0000600003F0040000E00003F0067B
:102930000001C00003F0070007C00003F003E01F20
:10294000800003F003FFFF000003F001FFFF000021
:1029500003E000FFFE000007C0007FFC00000780CE
:10296000001FF000000E000007C00000F80000008B
:102970000000000000000000000000000000000057
:102980000000000000000000000000000000000047
:102990000000000000000000000000000000000037
:1029A0000000000000000000000000000000000027
:1029B0000000000000000000000000000000000017
:1029C0000000000000000000000000000000000007
:1029D00000000000000000000000000000000000F7
:1029E00000000000000000000000000000000000E7
:1029F00000000000000000000000000000000000D7
:102A000000000000000000000000000000000000C6
:102A100000000000000000000000000000002F8007
:102A20000001F40000DFC00003FB00011FC0000331
:102A3000F880011FC00003F840020FC00003F040FF
:102A40000207800001E040020000000000200400B6
:102A5000000000002004000000000020040000002E
:102A60000000100800000000001008000000000036
:102A7000100800008000001008000080000010080E
:102A80000000800000100800008000001008000016
:102A900080000010080000C00000100C0001C00001
:102AA00000100C0001E00000100E0003E0000030F8
:102AB000070007F000002007C01F3800006007FF74
:102AC000FF3E0001E003FFFF1FC00FC003FFFE0F2A
:102AD000FFFFC003FFFE07FFFFC000FFF803FFFF7B
:102AE00080003FE001FFFF0000000000FFFC00004D
:102AF0000000001FF00000000000000000000000C7
:102B000000000000000000000000000000000000C5
:102B100000000000000000000000000000000000B5
:102B200000000000000000000000000000000000A5
:102B30000000000000000000000000000000000095
:102B40000000000000000000000000000000000085
:102B50000000000000000000000000000000000075
:102B60000000000000000000000000000000000065
:102B70000000000000000000000000000000000055
:102B8000000000000000010000000000000600003E
:102B9000000000000A000000000000120000000019
:102BA0000000620000000000008200000000000140
:102BB0000200000000000602000000000008020001
:102BC0000000000030020000000000400200000091
:102BD000000080020000000003000200000000046A
:102BE0000002001000000800020010000030000287
:102BF00000100000400002001000008000020010E1
:102C00000003000002003000040000020030000455
:102C100000000200F0001FFFFFFFFFF0003FFFFF7A
:102C2000FFFFF0007FFFFFFFFFF001FFFFFFFFFF4F
:102C3000F003FFFFFFFFFFF00FFFFFFFFFFFF000BC
:102C40000000000200F00000000002003000000060
:102C5000000200300000000002001000000000022E
:102C60000010000000000200100000000002001030
:102C70000000000002001000000000020000000040
:102C80000000020000000000000200000000000040
:102C90000000000000000000000000000000000034
:102CA0000000000000000000000000000000000024
:102CB0000000000000000000000000000000000014
:102CC0000000000000000000000000000000000004
:102CD00000000000000000000000000000000000F4
:102CE00000000000000000000000000000000000E4
:102CF00000000000000000000000000000000000D4
:102D000000000000000000000000000000000000C3
:102D100000000000000000000000000000000000B3
:102D200000007000E00000000FE001F8000001F872
:102D30004003FE00003F008003F90007E0010003AC
:102D4000F8800FC0020003F8400FC0020001F040FD
:102D50000FC0040000E0200FC004000000200FC0DE
:102D600004000000200FC008000000100FC0080081
:102D70000000100FC008000000100FC00800000085
:102D8000100FC008000000100FC008000000100F56
:102D90008008000000100F8008000000100F80085D
:102DA000000000100F8008000000300F0004000039
:102DB00000200F0004000000600F0006000000600B
:102DC0000E0003000000C00E0003800001C00C00D4
:102DD00003E00007C00C0001FC003F80080000FF7A
:102DE000FFFF000800007FFFFE000800003FFFFC1F
:102DF000000000001FFFF80000000003FFC00000FB
:102E0000000000FF000000000000000000000000C3
:102E100000000000000000000000000000000000B2
:102E200000000000000000000000000000000000A2
:102E30000000000000000000000000000000000092
:102E40000000000000000000000000000000000082
:102E50000000000000000000000000000000000072
:102E60000000000000000000000000000000000062
:102E70000000000000000000000000000000000052
:102E80000000000000000000000000000000000042
:102E90000000000000000000000000000000000032
:102EA00000000000000000000001FFFF0000000023
:102EB0001FFFFFC0000001FFFFFFF8000003FFFF3E
:102EC000FFFC00000FFFFFFFFE00003FFFFFFFFFC2
:102ED00000007FF80C01FF8000FF8038003FC00138
:102EE000F800600007C001E000C00001C0038000DE
:102EF0008000006003000100000060060001000087
:102F00000020060002000000300400020000001053
:102F10000C00020000001008000200000010080071
:102F2000020000001008000200000010080002006B
:102F3000000010080003000000300800010000003D
:102F40002008000180000060083C01800000E00CC7
:102F50007E00C00001C004FF00F00003C006FF00B7
:102F60007E001F8002FF003FFFFF0001FF001FFFE8
:102F7000FE00007E000FFFFC00001C0007FFF800B1
:102F800000000000FFC000000000001E0000000064
:102F90000000000000000000000000000000000031
:102FA0000000000000000000000000000000000021
:102FB0000000000000000000000000000000000011
:102FC0000000000000000000000000000000000001
:102FD00000000000000000000000000000000000F1
:102FE00000000000000000000000000000000000E1
:102FF00000000000000000000000000000000000D1
:1030000000000000000000000000000000000000C0
:1030100000000000000000000000000000000000B0
:103020000000000000000000000000000000000F91
:10303000FFC0000000000038000000000000F000A9
:103040000000000001E0000000000003E0000000BC
:10305000000007C000000000000FC00000000000DA
:103060000FC000000000000FC000000000000FC0F3
:1030700000000000000FC000000000000FC00000B2
:10308000007FF00FC0000003FFF007C000000FFF3B
:10309000F003C000003FFFF003C000007FFFF0011D
:1030A000C00001FFFFF001E00003FF800000E0002E
:1030B00007F8000000E0000F8000000060001E0024
:1030C0000000002000380000000030007000000008
:1030D000001000E0000000001001C000000000101F
:1030E00003000000000010060000000000100C00AB
:1030F0000000000020180000000000402000000038
:10310000000181C000000000060E00000000000F5A
:10311000F0000000000000000000000000000000BF
:10312000000000000000000000000000000000009F
:10313000000000000000000000000000000000008F
:10314000000000000000000000000000000000007F
:10315000000000000000000000000000000000006F
:10316000000000000000000000000000000000005F
:10317000000000000000000000000000000000004F
:10318000000000000000000000000000000000003F
:10319000000000000000000000000000000000002F
:1031A000000000000000000000000000000000001F
:1031B0000000000000000000000000FFF000000020
:1031C0000003FFFC00003FE00FFFFE0000FFF81FC0
:1031D000FFFF0003FFFE3FFFFF8003FFFE3FFFFFF7
:1031E000C003FFFF3F000FC007FFFF780001E007AB
:1031F000C01F60000060070007E00000200E000311
:10320000C00000300C0001C0000010080000800069
:10321000001008000080000010080000800000106E
:103220000800008000001008000080000010080066
:1032300000800000100800008000001008000080DE
:10324000000010080000800000100C000180000049
:10325000100E0003C0000030070007E00000200748
:10326000C01F6000006007FFFF780001E003FFFF60
:103270003F000FC003FFFE3FFFFFC003FFFE3FFF05
:10328000FF8000FFF81FFFFF00003FE00FFFFE0080
:1032900000000003FFFC0000000000FFF000000041
:1032A000000000000000000000000000000000001E
:1032B000000000000000000000000000000000000E
:1032C00000000000000000000000000000000000FE
:1032D00000000000000000000000000000000000EE
:1032E00000000000000000000000000000000000DE
:1032F00000000000000000000000000000000000CE
:1033000000000000000000000000000000000000BD
:1033100000000000000000000000000000000000AD
:10332000000000000000000000000000000000009D
:10333000000000000000000000000000000000008D
:103340000000000000000001FE00000000000FFF70
:10335000C0000000003FFFF0003C00007FFFF800CD
:103360007F0000FFFFFC00FFC001F8007E00FF406F
:1033700003C0000F00FF200380000300FE200300B5
:103380000003007C100600000180381004000000DB
:1033900080001004000000800010080000004000C1
:1033A0001008000000400010080000004000100855
:1033B000000000400010080000004000100800005D
:1033C00000400020080000004000200C00000080A9
:1033D0000060040000018000C0060000010001C080
:1033E000078000030003C003E00006000F8003F81D
:1033F000001C007F0001FF007803FE0000FFFFFFBC
:10340000FFFC00007FFFFFFFF800003FFFFFFFE031
:1034100000001FFFFFFF80000007FFFFFC0000000F
:1034200000FFFF800000000000000000000000001E
:10343000000000000000000000000000000000008C
:10344000000000000000000000000000000000007C
:10345000000000000000000000000000000000006C
:10346000000000000000000000000000000000005C
:1034700000000000000000000000FFFFFFFFFFFF52
:10348000FFFFFFFFFFFFFFFFFFFFFFFFFFFFFFFF4C
:10349000FFFFFFFFFFFFFFFFFFFFFFFFFFFFFFFF3C
:1034A000FFFFFFFFFFFFFFFFFFFFFFFFFFFFFFFF2C
:1034B000FFEFFFFFFFFFFFFFEFFFFFFFFFFFFFEF4C
:1034C000FFFFFFFFFFFFCFFFFFFFFFFFFF8FFFFFAC
:1034D000FFFFFFFC0FFFFFFFFFFFE38FFFFFFFFF7B
:1034E000FF1FCFFFFFFFFFF87FCFFFFFFFFFE1FFD1
:1034F000EFFFFFFFFF1DFFEFFFFFFFF8FDFFEFFFF7
:10350000FFFFC7FDFFEFFFFFFE3FFDFFEFFFFFF1F6
:10351000FFFDFFFFFFFF87FFFDFFFFFFFE3FFFFDFA
:10352000FFFFFFF1FFFFFDFFFFFF87FFFFFDFFFF35
:10353000FFFFFFFFFDFFFFFFFFFFFFFDFFFFFFFF9F
:10354000FFFFFDFFFFFFFFFFFFFDFFFFFFFFFFFF8F
:10355000FDFFFFFFFFFFFFFDFFFFFFFFFFFFFDFF81
:10356000FFFFFFFFFFFDFFFFFFFFFFFFFFFFFFFF6D
:10357000FFFFFFFFFFFFFFFFFFFFFFFFFFFFFFFF5B
:10358000FFFFFFFFFFFFFFFFFFFFFFFFFFFFFFFF4B
:10359000FFFFFFFFFFFFFFFFFFFFFFFFFFFFFFFF3B
:1035A000FFFFFFFFFFFFFFFFFFFFFFFFFFFFFFFF2B
:1035B000FFFFFFFFFFFFFFFFFFFFFFFFFFFFFFFF1B
:1035C000FFFFFFFFFFFFFFFFFFFFFFFFFFFFFFFF0B
:1035D000FFFFFFFFFFFFFFFFFFFFFFFFFFFFFFFFFB
:1035E000FFFFFFFFFFFFFFFFFFFFFFFFFFFFFFFFEB
:1035F000FFFFFFFFFFFFFFFFFFFFFFFFFFFFFFFFDB
:10360000FFFFFFFFFFFFFFFFFFFFFFFFFFFFFFFFCA
:10361000FFFFFFFFFFFFFFFFFFFFFFFFFFFFFFFFBA
:10362000FFFFFFFFFFFFFFFFFFFFFFFFFFFFFFFFAA
:10363000FFFFFFFFFFFFFFFFFFFFFFFFFFFFFFFF9A
:10364000FFFFFFFFFFFFFFFFF7FFFFFFFFFFEFF7AA
:10365000FFFFFFFFFFEFF7FFFFFFFFFFEFF3FFFFAE
:10366000FFFFFFCFF3FFFFFFFFFFCFF0FFFFFFFFE5
:10367000FF0FF000000000000FF000000000000F3E
:10368000F000000000000FF000000000000FF0004C
:10369000000000000FF000000000000FF0FFFFFF2F
:1036A000FFFF0FF3FFFFFFFFFFCFF3FFFFFFFFFF62
:1036B000CFF7FFFFFFFFFFEFF7FFFFFFFFFFEFF782
:1036C000FFFFFFFFFFEFF7FFFFFFFFFFEFF7FFFF3A
:1036D000FFFFFFEFF7FFFFFFFFFFEFF7FFFFFFFF2A
:1036E000FFEFF7FFFFFFFFFFEFF7FFFFFFFFFFEF2A
:1036F000F7FFFFFFFFFFEFF7FFFFFFFFFFEFF7FF12
:10370000FFFFFFFFEFF7FFFFFFFFFFEFFFFFFFFFF1
:10371000FFFFFFFFFFFFFFFFFFFFFFFFFFFFFFFFB9
:10372000FFFFFFFFFFFFFFFFFFFFFFFFFFFFFFFFA9
:10373000FFFFFFFFFFFFFFFFFFFFFFFFFFFFFFFF99
:10374000FFFFFFFFFFFFFFFFFFFFFFFFFFFFFFFF89
:10375000FFFFFFFFFFFFFFFFFFFFFFFFFFFFFFFF79
:10376000FFFFFFFFFFFFFFFFFFFFFFFFFFFFFFFF69
:10377000FFFFFFFFFFFFFFFFFFFFFFFFFFFFFFFF59
:10378000FFFFFFFFFFFFFFFFFFFFFFFFFFFFFFFF49
:10379000FFFFFFFFFFFFFFFFFFFFFFFFFFFFFFFF39
:1037A000FFFFFFFFFFFFFFFFFFFFFFFFFFFFFFFF29
:1037B000FFFFFFFFFFFFFFFFFFFFFFFFFFFFFFFF19
:1037C000FFFFFFFFFFFFFFFFFFFFFFFFFFFFFFFF09
:1037D000FFFFFFFFFFFFFFFFFFFFFFFFFFFFFFFFF9
:1037E000FFFFFFFFFFFFFFFFFFFFFFFFFFFFFFFFE9
:1037F000FFFFFFFFFFFFFFFFFFFFFFFFFFFFFFFFD9
:10380000FFFFFFFFFFFFFFFFFFFFFFFFFFFFFFFFC8
:10381000FFFFFFFFFFFFFFFFFFFFFFFFFFFFFFFFB8
:10382000FFFFFFFFFFFFFFFFFFFFFFFFFFFFFFFFA8
:10383000FFFFFFFFFFFFFFFFFFFFFFFFFFFFFFFF98
:10384000F7FFFFFFFFFFEFF7FFFFFFFFFFEFF7FFC0
:10385000FFFFFFFFEFF7FFFFFFFFFFEFF7FFFFFFA8
:10386000FFFFEFF7FFFFFFFFFFEFF7FFFFFFFFFF98
:10387000EFF7FFFFFFFFFFEFF7FFFFFFFFFFEFF7A0
:10388000FFFFFFFFFFCFFBFFFFFFFFFFDFFBFFFFA0
:10389000FFFFFF9FFDFFFFFFFFFFBFFEFFFFFFFFDB
:1038A000FF7FFF7FFFFFFFFEFFFFBFFFFFFFFDFF6B
:1038B000FFDFFFFFFFFBFFFF87FFFFFFE7FFFC00CE
:1038C000FFFFFF8FFF800007FFFF3FFFFFFFFFFFAE
:1038D000FFFFFFFFFFFFFFFFFFFFFFFFFFFFFFFFF8
:1038E000FFFFFFFFFFFFFFFFFFFFFFFFFFFFFFFFE8
:1038F000FFFFFFFFFFFFFFFFFFFFFFFFFFFFFFFFD8
:10390000FFFFFFFFFFFFFFFFFFFFFFFFFFFFFFFFC7
:10391000FFFFFFFFFFFFFFFFFFFFFFFFFFFFFFFFB7
:10392000FFFFFFFFFFFFFFFFFFFFFFFFFFFFFFFFA7
:10393000FFFFFFFFFFFFFFFFFFFFFFFFFFFFFFFF97
:10394000FFFFFFFFFFFFFFFFFFFFFFFFFFFFFFFF87
:10395000FFFFFFFFFFFFFFFFFFFFFFFFFFFFFFFF77
:10396000FFFFFFFFFFFFFFFFFFFFFFFFFFFFFFFF67
:10397000FFFFFFFFFFFFFFFFFFFFFFFFFFFFFFFF57
:10398000FFFFFFFFFFFFFFFFFFFFFFFFFFFFFFFF47
:10399000FFFFFFFFFFFFFFFFFFFFFFFFFFFFFFFF37
:1039A000FFFFFFFFFFFFFFFFFFFFFFFFFFFFFFFF27
:1039B000FFFFFFFFFFFFFFFFFFFFFFFFFFFFFFFF17
:1039C000FFFFFFFFFFFFFFFFFFFFFFFFFFFFFFFF07
:1039D000FFFFFFFFFFFFFFFFFFFFFFFFFFFFFFFFF7
:1039E000FFFFFFFFFFFFFFFFFFFFFFFFFFFFFFFFE7
:1039F000FFFFFFFFFFFFFFFFFFFBFFFFFFFFFFDFFB
:103A0000FBFFFFFFFFFFDFF9FFFFFFFFFF9FF9FF56
:103A1000FFFFFFFF9FFCFFFFFFFFFE3FFC3FFFFF9D
:103A2000FFFC3FFC0FFFFFFFF03FFE07FFFFFFE043
:103A30007FFF00FFFFFF00FFFF800FFFF001FFFF90
:103A4000C000000003FFFFE000000007FFFFF800D8
:103A500000001FFFFFFE0000007FFFFFFFC000030C
:103A6000FFFFFFFFF8001FFFFFFFFFFFFFFFFFFF4C
:103A7000FFFFFFFFFFFFFFFFFFFFFFFFFFFFFFFF56
:103A8000FFFFFFFFFFFFFFFFFFFFFFFFFFFFFFFF46
:103A9000FFFFFFFFFFFFFFFFFFFF00000000000030
:103AA0000000000000000000000000000000000016
:103AB0000000000000000000000000000000000006
:103AC00000000000000000000000000000000000F6
:103AD00000000000000000000000000000000000E6
:103AE00000000000000000000000000000000000D6
:103AF00000000000000000000000000000000000C6
:103B000000000000000000000000000000000000B5
:103B100000000000000000000000000000000000A5
:103B20000000000000000000000000000000000095
:103B30000000000000000000000000000000000085
:103B40000000000000000000000000000000000075
:103B500003FF00000000000FFFE00000000003FF73
:103B6000FC00000000007FFF80000000000FFFF05D
:103B70000000000001FFFE00000000003FFFC00049
:103B800010000007FFF80010000000FFFF00100009
:103B900000001FFFE03000000003FFFC30000000C9
:103BA000007FFFF0000000000FFFF00000000001A8
:103BB000FFF000000000003FF0000000000007F0F0
:103BC000000000000000F000000000000070000095
:103BD00000000000300000000000001000000000A5
:103BE00000001000000000000010000000000000B5
:103BF00000000000000000000000000000000000C5
:103C000000000000000000000000000000000000B4
:103C100000000000000000000000000000000000A4
:103C20000000000000000000000000000000000094
:103C30000000000000000000000000000000000084
:103C40000000000000000000000000000000000074
:103C50000000000000000000000000000000000064
:103C60000000000000000000000000000000000054
:103C70000000000000000000000000000000000044
:103C80000000000000000000000000000000000034
:103C90000000000000000000000000000000000024
:103CA0000000000000000000000000000000000014
:103CB00000000000000000000000000000000020E4
:103CC00000000000000020000000000000200000B4
:103CD00000000000200000000000002000000000A4
:103CE0000000200000000000002000000000000094
:103CF0002000000000000020000000000000200064
:103D00000000000000200000000000002000000073
:103D10000000002000000000000020000000000063
:103D20000020000000000000300000000C000070C7
:103D300000003004000078000020060000D80000D9
:103D400060070001CE0000E003C007CF8003C0037E
:103D5000FFFF8FFFFFC001FFFF87FFFF8000FFFF16
:103D600003FFFF00007FFE01FFFE00003FF8007F21
:103D7000FC00000FE0001FF0000000000000000049
:103D80000000000000000000000000000000000033
:103D90000000000000000000000000000000000023
:103DA0000000000000000000000000000000000013
:103DB0000000000000000000000000000000000003
:103DC00000000000000000000000000000000000F3
:103DD00000000000000000000000000000000000E3
:103DE00000000000000000000000000000000000D3
:103DF00000000000000000000007FFE000000000DD
:103E00003FFFFC00000000FFFFFF00000003FFFF7A
:103E1000FFC000000FFFFFFFF000003FFFFFFFFCAF
:103E200000007FF0001FFE0000FF000001FF000106
:103E3000F80000001F8001E00000000F8003C000B8
:103E4000000003C0030000000001C00600000000E5
:103E5000006004000000000060040000000000207A
:103E60000000000000002000000000000000000032
:103E70000000000000000000000000000000000042
:103E80000000000000000000000000000000000032
:103E90000000000000000000000000000000000022
:103EA0000000000000000000000000000000000012
:103EB0000000000000000000000000000000000002
:103EC00000000000000000000000000000000000F2
:103ED00000000000000000000000000000000000E2
:103EE00000000000000000000000000000000000D2
:103EF00000000000000000000000000000000000C2
:103F000000000000000000000000000000000000B1
:103F100000000000000000000000000000000000A1
:103F20000000000000000000000000000000000091
:103F30000000000000000000000000000000000081
:103F40000000000000000000000000000000000071
:103F50000000000000000000000000000000000061
:103F60000000000000000000000000000000000051
:103F70000000000000000000080000000000100821
:103F8000000000000010080000000000100C0000FD
:103F9000000000300C0000000000300F00000000A6
:103FA00000F00FFFFFFFFFFFF00FFFFFFFFFFFF02D
:103FB0000FFFFFFFFFFFF00FFFFFFFFFFFF00FFFFF
:103FC000FFFFFFFFF00FFFFFFFFFFFF00F000000FC
:103FD0000000F00C0000000000300C0000000000A9
:103FE0003008000000000010080000000000100869
:103FF0000000000000100800000000001008000091
:104000000000001008000000000010080000000080
:104010000010080000000000100800000000001060
:104020000000000000000000000000000000000090
:104030000000000000000000000000000000000080
:104040000000000000000000000000000000000070
:104050000000000000000000000000000000000060
:104060000000000000000000000000000000000050
:104070000000000000000000000000000000000040
:104080000000000000000000000000000000000030
:104090000000000000000000000000000000000020
:1040A0000000000000000000000000000000000010
:1040B00000000000000000000000FFFFFFFFFFFF06
:1040C000FFFFFFFFFFFFFFE3FFC0FFFFFFFFFFFF5B
:1040D000FFFFFFFFFFFFFFE3FFC0FFFFFFFFFFFF4B
:1040E000FFFFFFFFFFFFFFE3FFC0FFFFFFFFFFFF3B
:1040F000FFFFFFFFFFFFFFE3FFC0FFFFFFFFFFFF2B
:10410000FFFFFFFFFFFFFFE3FFC0FFFFFFFFFFFF1A
:10411000FFFFFFFFFFFFFFE3FFC0FFFFFFFFFFFF0A
:10412000FFFFFFFFFFFFFFE3FFC0FFFFFFFFFFFFFA
:10413000FFFFFFFFFFFFFFE3FFC0FFFFFFFFFFFFEA
:10414000FFFFFFFFFFFFFFE3FFC0FFFFFFFFFFFFDA
:10415000FFFFFFFFFFFFFFE3FFC0FFFFFFFFFFFFCA
:10416000FFFFFFFFFFFFFFE3FFC0FFFFFFFFFFFFBA
:10417000FFFFFFFFFFFFFFE3FFC0FFFFFFFFFFFFAA
:10418000FFFFFFFFFFFFFFE3FFC0FFFFFFFFFFFF9A
:10419000FFFFFFFFFFFFFFE3FFC0FFFFFFFFFFFF8A
:1041A000FFFFFFFFFFFFFFE3FFC0FFFFFFFFFFFF7A
:1041B000FFFFFFFFFFFFFFE3FFC0FFFFFFFFFFFF6A
:1041C000FFFFFFFFFFFFFFE3FFC0FFFFFFFFFFFF5A
:1041D000FFFFFFFFFFFFFFE3FFC0FFFFFFFFFFFF4A
:1041E000FFFFFFFFFFFFFFE3FFC0FFFFFFFFFFFF3A
:1041F000FFFFFFFFFFFFFFE3FFC0FFFFFFFFFFFF2A
:10420000FFFFFFFFFFFFFFE3FFC0FFFFFFFFFFFF19
:10421000FFFFFFFFFFFFFFE3FFC0FFFFFFFFFFFF09
:10422000FFFFFFFFFFFFFFE3FFC0FFFFFFFFFFFFF9
:10423000FFFFFFFFFFFFFFE3FFC0FFFFFFFFFFFFE9
:10424000FFFFFFFFFFFFFFE3FFC0FFFFFFFFFFFFD9
:10425000FFFFFFFFFFFFFFE3FFC0FFFFFFFFFFFFC9
:10426000FFFFFFFFFFFFFFE3FFC0FFFFFFFFFFFFB9
:10427000FFFFFFFFFFFFFFE3FFC0FFFFFFFFFFFBAD
:10428000FBFFFFFFFFFFFFE3FFC0FFFFFFFFFFF8A4
:1042900003FFFFFFFFFFFFE3FFC0FFFFFFFFFFF88C
:1042A00003FFFFFFFFFFFFE3FFC0FFFFFFFFFFFB79
:1042B000BBFFFFFFFFFFFFE3FFC0FFFFFFFFFFFBB1
:1042C0008FFFFFFFFFFFFFE3FFC0FFFFFFFFFFF8D0
:1042D00043FFFFFFFFFFFFE3FFC0FFFFFFFFFFFC08
:1042E000F3FFFFFFFFFFFFE3FFC0FFFFFFFFFFFF45
:1042F000FBFFFFFFFFFFFFE3FFC0FFFFFFFFFFFF2D
:1043000087FFFFFFFFFFFFE3FFC0FFFFFFFFFFFF90
:1043100003FFFFFFFFFFFFE3FFC0FFFFFFFFFFFF04
:104320005BEFEFFFFFFFFFE3FFC0FFFFFFFFFFFFBC
:104330001BE00FFFFFFFFFE3FFC0FFFFFFFFFFFFDB
:1043400097E00FFFFFFFFFE3FFC0FFFFFFFFFFFF4F
:10435000FFEFEFFFFFFFFFE3FFC0FFFFFFFFFFFFE8
:1043600093FDEFFFFFFFFFE3FFC0FFFFFFFFFFFF36
:104370000BFC0FFFFFFFFFE3FFC0FFFFFFFFFFFF8F
:1043800043FC0FFFFFFFFFE3FFC0FFFFFFFFFFFF47
:1043900027FDFFFFFFFFFFE3FFC0FFFFFFFFFFFF62
:1043A000FFFC0FFFFFFFFFE3FFC0FFFFFFFFFFFF6B
:1043B00087FE0FFFFFFFFFE3FFC0FFFFFFFFFFFFD1
:1043C00003FFEFFFFFFFFFE3FFC0FFFFFFFFFFFF64
:1043D0007BFDFFFFFFFFFFE3FFC0FFFFFFFFFFFFCE
:1043E00003FC0FFFFFFFFFE3FFC0FFFFFFFFFFFF27
:1043F00087F00FFFFFFFFFE3FFC0FFFFFFFFFFFF9F
:10440000FFFDEFFFFFFFFFE3FFC0FFFFFFFFFFFB2D
:10441000FBFE1FFFFFFFFFE3FFC0FFFFFFFFFFF8F3
:1044200003FC0FFFFFFFFFE3FFC0FFFFFFFFFFF8ED
:1044300003FD6FFFFFFFFFE3FFC0FFFFFFFFFFFF75
:10444000FBFC6FFFFFFFFFE3FFC0FFFFFFFFFFFF6E
:104450007FFE5FFFFFFFFFE3FFC0FFFFFFFFFFFFE8
:1044600007FFFFFFFFFFFFE3FFC0FFFFFFFFFFFFAF
:1044700003FDEFFFFFFFFFE3FFC0FFFFFFFFFFFFB5
:10448000FBFC0FFFFFFFFFE3FFC0FFFFFFFFFFFF8E
:1044900003FC0FFFFFFFFFE3FFC0FFFFFFFFFFFF76
:1044A00003FDEFFFFFFFFFE3FFC0FFFFFCFFFFFF88
:1044B000FBFCFFFFFFFFFFE3FFC0FFFF08FFFFFF65
:1044C0007FFDEFFFFFFFFFE3FFC0FFFF01FFFFFFE7
:1044D00003F00FFFFFFFFFE3FFC0FFFF03FFFFFC41
:1044E00003E00FFFFFFFFFE3FFC0FFFFFFFFFFFF42
:1044F0007BEDEFFFFFFFFFE3FFC0FFFFFFFFFFFFCD
:104500007BE6CFFFFFFFFFE3FFC0FFFFFCFFFFF9EC
:1045100003FD0FFFFFFFFFE3FFC0FFFF08FFFFF9F1
:1045200003FD6FFFFFFFFFE3FFC0FFFF01FFFFFF82
:10453000FBFC0FFFFFFFFFE3FFC0FFFF03FFFFFFD9
:1045400087FE0FFFFFFFFFE3FFC0FFFFFFFFFFFF3F
:1045500003FFEFFFFFFFFFE3FFC0FFFFFFFFFFFFD2
:104560007BFE1FFFFEFFFFE3FFC0FFFFFFFFFFFF1C
:1045700003FC0FFFFEFFFFE3FFC0FFFFFFFFFFFF96
:1045800087FDEFFFFEFFFFE3FFC0FFFFFFFFFFFF21
:10459000FFFCCFFFFFFFFFE3FFC0FFFFFFFFFFFFB9
:1045A0007BFFFFFFFFFFFFE3FFC0FFFFFFFFFFFFFA
:1045B00003FE1FFFFFFFFFE3FFC0FFFFFFFFFFFF43
:1045C00003FC0FFFFFFFFFE3FFC0FFFFFFFFFFFF45
:1045D0007FFD6FFFFFFFFFE3FFC0FFFFFFFFFFFF58
:1045E00003FC6FFFFFFFFFE3FFC0FFFFFFFFFFFFC5
:1045F00083FE5FFFFFFFFFE3FFC0FFFFFFFFFFFF43
:10460000FBFFFFFFFFFFFFE3FFC0FFFFFFFFFFFF19
:10461000FFFFFFFFFFFFFFE3FFC0FFFFFFFFFFFF05
:1046200033FCCFFFFFFFFFE3FFC0FFFFFFFFFFFFF4
:1046300033FCCFFFFFFFFFE3FFC0FFFFFFFFFFFFE4
:10464000FFFFFFFFFFFFFFE3FFC0FFFFFFFFFFFFD5
:10465000FFFFFFFFFFFFFFE3FFC0FFFFFFFFFFFFC5
:10466000FFFFFFFFFFFFFFE3FFC0FFFFFFFFFFFFB5
:10467000FFFFFFFFFFFFFFE3FFC0FFFFFFFFFFFCA8
:10468000FBFFFFFFFFFFFFE3FFC0FFFFFFFFFFF99F
:10469000E3F18FFFFFFFFFE3FFC0FFFFFFFFFFF925
:1046A000D3E0EFFFFFFFFFE3FFC0FFFFFFFFFFF8D7
:1046B00033EC6FFFFFFFFFE3FFC0FFFFFFFFFFFCD7
:1046C00073F70FFFFFFFFFE3FFC0FFFFFFFFFFFFD9
:1046D000FFE31FFFFFFFFFE3FFC0FFFFFFFFFFFF41
:1046E00033FFFFFFFFFFFFE3FFC0FFFFFFFFFFF808
:1046F00033EFEFFFFFFFFFE3FFC0FFFFFFFFFFF917
:104700003BE00FFFFFFFFFE3FFC0FFFFFFFFFFF9ED
:1047100017E00FFFFFFFFFE3FFC0FFFFFFFFFFFBFF
:104720008FEEEFFFFFFFFFE3FFC0FFFFFFFFFFFF85
:10473000FFEEFFFFFFFFFFE3FFC0FFFFFFFFFFFEF6
:104740000FE0FFFFFFFFFFE3FFC0FFFFFFFFFFF8EA
:1047500003F1FFFFFFFFFFE3FFC0FFFFFFFFFFFBD2
:10476000FBEFEFFFFFFFFFE3FFC0FFFFFFFFFFF8DF
:1047700003E00FFFFFFFFFE3FFC0FFFFFFFFFFFEB0
:104780000FE00FFFFFFFFFE3FFC0FFFFFFFFFFFF93
:10479000FFEFEFFFFFFFFFE3FFC0FFFFFFFFFFFFA4
:1047A00077FFFFFFFFFFFFE3FFC0FFFFFFFFFFFFFC
:1047B000AFFFFFFFFFFFFFE3FFC0FFFFFFFFFFFFB4
:1047C000DFFFFFFFFFFFFFE3FFC0FFFFFFFFFFFF74
:1047D000AFFFFFFFFFFFFFE3FFC0FFFFFFFFFFFF94
:1047E00077FFFFFFFFFFFFE3FFC0FFFFFFFFFFFFBC
:1047F000FFFFFFFFFFFFFFE3FFC0FFFFFFFFFFFF24
:10480000FFFFFFFFFFFFFFE3FFC0FFFFFFFFFFFB17
:10481000FBFFFFFFFFFFFFE3FFC0FFFFFFFFFFF80E
:1048200003FFFFFFFFFFFFE3FFC0FFFFFFFFFFF8F6
:1048300003FFFFFFFFFFFFE3FFC0FFFFFFFFFFFFDF
:10484000FBFFFFFFFFFFFFE3FFC0FFFFFFFFFFFFD7
:10485000FFFFFFFFFFFFFFE3FFC0FFFFFFFFFFFCC6
:10486000FBFFFFFFFFFFFFE3FFC0FFFFFFFFFFF9BD
:10487000E3FFFFFFFFFFFFE3FFC0FFFFFFFFFFF9C5
:10488000D3FFFFFFFFFFFFE3FFC0FFFFFFFFFFF8C6
:1048900033FFFFFFFFFFFFE3FFC0FFFFFFFFFFFC52
:1048A00073FFFFFFFFFFFFE3FFC0FFFFFFFFFFFFFF
:1048B000FFFFFFFFFFFFFFE3FFC0FFFFFFFFFFFC66
:1048C000FBFFFFFFFFFFFFE3FFC0FFFFFFFFFFF95D
:1048D000E3FFFFFFFFFFFFE3FFC0FFFFFFFFFFF965
:1048E000D3FFFFFFFFFFFFE3FFC0FFFFFFFFFFF866
:1048F00033FFFFFFFFFFFFE3FFC0FFFFFFFFFFFCF2
:1049000073FFFFFFFFFFFFE3FFC0FFFFFFFFFFFF9E
:10491000FFFFFFFFFFFFFFE3FFC0FFFFFFFFFFFF02
:10492000FFFFFFFFFFFFFFE3FFC0FFFFFFFFFFFFF2
:10493000FFFFFFFFFFFFFFE3FFC0FFFFFFFFFFFFE2
:10494000FFFFFFFFFFFFFFE3FFC0FFFFFFFFFFFFD2
:10495000FFFFFFFFFFFFFFE3FFC0FFFFFFFFFFFFC2
:10496000FFFFFFFFFFFFFFE3FFC0FFFFFFFFFFFFB2
:10497000FFFFFFFFFFFFFFE3FFC0FFFFFFFFFFFFA2
:10498000FFFFFFFFFFFFFFE3FFC0FFFFFFFFFFFF92
:10499000FFFFFFFFFFFFFFE3FFC0FFFFFFFFFFFF82
:1049A000FFFFFFFFFFFFFFE3FFC0FFFFFFFFFFFF72
:1049B000FFFFFFFFFFFFFFE3FFC0FFFFFFFFFFFF62
:1049C000FFFFFFFFFFFFFFE3FFC0FFFFFFFFFFFF52
:1049D000FFFFFFFFFFFFFFE3FFC0FFFFFFFFFFFF42
:1049E000FFFFFFFFFFFFFFE3FFC0FFFFFFFFFFFF32
:1049F000FFFFFFFFFFFFFFE3FFC0FFFFFFFFFFFF22
:104A0000FFFFFFFFFFFFFFE3FFC0FFFFFFFFFFFF11
:104A1000FFFFFFFFFFFFFFE3FFC0FFFFFFFFFFFF01
:104A2000FFFFFFFFFFFFFFE3FFC0FFFFFFFFFFFFF1
:104A3000FFFFFFFFFFFFFFE3FFC0FFFFFFFFFFFFE1
:104A4000FFFFFFF1FFFFFFE3FFC0FFFFFFFFFFFFDF
:104A5000FFFFFE007FFFFFE3FFC0FFFFFFFFFFFF41
:104A6000FFFC1C003FFFFFE3FFC0FFFFFFFFFFFF56
:104A7000FFF008001FFFFFE3FFC0FFFFFFFFFFFF86
:104A8000FFC1F8001FF3FFE3FFC0FFFFFFFFFFFFC1
:104A9000FFC3F8001FF3FFE3FFC0FFFFFFFFFFFFAF
:104AA000FFC608701FF3FFE3FFC0FFFFFFFFFFFF1C
:104AB000FFC20CF81FF7FFE3FFC0FFFFFFFFFFFF80
:104AC000FFC33F8C1FE7FFE3FFC0FFFFFFFFFFFFB8
:104AD000FFE1F1CC1FCFFFE3FFC0FFFFFFFFFFFFB0
:104AE000FFF0C06C0FCFFFE3FFC0FFFFFFFFFFFF32
:104AF000FFF980680FCFFFE3FFC0FFFFFFFFFFFF5D
:104B0000FFFF00380FCFFFE3FFC0FFFFFFFFFFFFF6
:104B1000FFFE00301FCFFFE3FFC0FFFFFFFFFFFFDF
:104B2000FFFE00103FC7FFE3FFC0FFFFFFFFFFFFD7
:104B3000FFFF00187FE7FFE3FFC0FFFFFFFFFFFF5E
:104B4000FFFE0004FFC7FFE3FFC0FFFFFFFFFFFF03
:104B5000FFFC0003FFC7FFE3FFC0FFFFFFFFFFFFF6
:104B6000FFFC0003FF8FFFE3FFC0FFFFFFFFFFFF1E
:104B7000FFFC0003FF0FFFE3FFC0FFFFFFFFFFFF8E
:104B8000FFF80F81FC0FFFE3FFC0FFFFFFFFFFFFF8
:104B9000FF1C3FC1F867FFE3FFC0FFFFFFFFFFFF00
:104BA000FE1C3061F8F7FFE3FFC0FFFFFFFFFFFFD0
:104BB000FE1C6033F083FFE3FFC0FFFFFFFFFFFF3A
:104BC000FC1C6013F0B3FFE3FFC0FFFFFFFFFFFF1C
:104BD000FC1E6003F0FFFFE3FFC0FFFFFFFFFFFFCE
:104BE000F81F2187F8C7FFE3FFC0FFFFFFFFFFFFAC
:104BF000F83FE3CF0C83FFE3FFC0FFFFFFFFFFFFA2
:104C0000F83FE27E06C1FFE3FFC0FFFFFFFFFFFFAB
:104C1000F84FF17E0271FFE3FFC0FFFFFFFFFFFFD0
:104C2000F0CFFFF80371FFE3FFC0FFFFFFFFFFFFBF
:104C3000F08FFFE00301FFE3FFC0FFFFFFFFFFFF77
:104C4000E18FFF000101FFE3FFC0FFFFFFFFFFFF58
:104C5000E18800180303FFE3FFC0FFFFFFFFFFFF32
:104C6000818800F00183FFE3FFC0FFFFFFFFFFFF2C
:104C7000018C03E000C3FFE3FFC0FFFFFFFFFFFF66
:104C800000CFFE600047FFE3FFC0FFFFFFFFFFFF15
:104C9000C0DFF0C0006FFFE3FFC0FFFFFFFFFFFFBB
:104CA000E07FF080007FFFE3FFC0FFFFFFFFFFFF1B
:104CB000E07FE080003FFFE3FFC0FFFFFFFFFFFF5B
:104CC000F03FE0C0003FFFE3FFC0FFFFFFFFFFFF3B
:104CD000F03FE0E0083FFFE3FFC0FFFFFFFFFFFF03
:104CE000F03FF0601C3FFFE3FFC0FFFFFFFFFFFF4F
:104CF000F07FF830363FFFE3FFC0FFFFFFFFFFFF0D
:104D0000F0FFFC30233FFFE3FFC0FFFFFFFFFFFF8B
:104D1000FFFFFC10633FFFE3FFC0FFFFFFFFFFFF4C
:104D2000FFFFF630233FFFE3FFC0FFFFFFFFFFFF62
:104D3000FFFFF318017FFFE3FFC0FFFFFFFFFFFF4F
:104D4000FFFFF10C017FFFE3FFC0FFFFFFFFFFFF4D
:104D5000FFFFF186013FFFE3FFC0FFFFFFFFFFFF03
:104D6000FFFFF186033FFFE3FFC0FFFFFFFFFFFFF1
:104D7000FFFFF182033FFFE3FFC0FFFFFFFFFFFFE5
:104D8000FFB7E182023FFFE3FFC0FFFFFFFFFFFF2E
:104D9000FFB78183C63FFFE3FFC0FFFFFFFFFFFFB9
:104DA000FF300183FC3FFFE3FFC0FFFFFFFFFFFF7A
:104DB000FF300703303FFFE3FFC0FFFFFFFFFFFFB0
:104DC000FF100E03007FFFE3FFC0FFFFFFFFFFFFA9
:104DD000FF18180200FFFFE3FFC0FFFFFFFFFFFF08
:104DE000FF8F300600FFFFE3FFC0FFFFFFFFFFFF65
:104DF000FF83E00701FFFFE3FFC0FFFFFFFFFFFFAF
:104E0000FF80000F87FFFFE3FFC0FFFFFFFFFFFFF3
:104E1000FFC0003FFFFFFFE3FFC0FFFFFFFFFFFFFB
:104E2000FFC0007FFFFFFFE3FFC0FFFFFFFFFFFFAB
:104E3000FFE000FFFFFFFFE3FFC0FFFFFFFFFFFFFB
:104E4000FFF000FFFFFFFFE3FFC0FFFFFFFFFFFFDB
:104E5000FFF801FFFFFFFFE3FFC0FFFFFFFFFFFFC2
:104E6000FFCF0FFFFFFFFFE3FFC0FFFFFFFFFFFFCD
:104E7000FF9BFFFFFFFFFFE3FFC0FFFFFFFFFFFF01
:104E8000FF30E7FFFFFFFFE3FFC0FFFFFFFFFFFF74
:104E9000FE20C7FFFFFFFFE3FFC0FFFFFFFFFFFF95
:104EA000FE319FFFFFFFFFE3FFC0FFFFFFFFFFFF9C
:104EB000FC1F1FFFFFFFFFE3FFC0FFFFFFFFFFFF20
:104EC000FC0237FFFFFFFFE3FFC0FFFFFFFFFFFF15
:104ED000FE0637FFFFFFFFE3FFC0FFFFFFFFFFFFFF
:104EE000FF1E27FFFFFFFFE3FFC0FFFFFFFFFFFFE6
:104EF000FFFE23FFFFFFFFE3FFC0FFFFFFFFFFFFFA
:104F0000FFFF31F7FFFFFFE3FFC0FFFFFFFFFFFFE2
:104F1000FFFF9803FFFFFFE3FFC0FFFFFFFFFFFF5F
:104F2000FFFF8823FFFFFFE3FFC0FFFFFFFFFFFF3F
:104F3000FFFF0833FFFFFFE3FFC0FFFFFFFFFFFF9F
:104F4000FFFF0C67FFFFFFE3FFC0FFFFFFFFFFFF57
:104F5000FFFF87C7FFFFFFE3FFC0FFFFFFFFFFFF6C
:104F6000FFFF838FFFFFFFE3FFC0FFFFFFFFFFFF98
:104F7000FFFFC00FFFFFFFE3FFC0FFFFFFFFFFFFCB
:104F8000FFFFE01FFFFFFFE3FFC0FFFFFFFFFFFF8B
:104F9000FFFFFFFFFFFFFFE3FFC0FFFFFFFFFFFF7C
:104FA000FFFFFFFFFFFFFFE3FFC0FFFFFFFFFFFF6C
:104FB000FFFFFFFFFFFFFFE3FFC0FFFFFFFFFFFF5C
:104FC000FFFFFFFFFFFFFFE3FFC0FFFFFFFFFFFF4C
:104FD000FFFFFFFFFFFFFFE3FFC0FFFFFFFFFFFF3C
:104FE000FFFFFFFFFFFFFFE3FFC0FFFFFFFFFFFF2C
:104FF000FFFFFFFFFFFFFFE3FFC0FFFFFFFFFFFF1C
:10500000FFFFFFFFFFFFFFE3FFC0FFFFFFFFFFFF0B
:10501000FFFFFFFFFFFFFFE3FFC0FFFFFFFFFFFFFB
:10502000FFFFFFFFFFFFFFE3FFC0FFFFFFFFFFFFEB
:10503000FFFFFFFFFFFFFFE3FFC0FFFFFFFFFFFFDB
:10504000FFFFFFFFFFFFFFE3FFC0FFFFFFFFFFFFCB
:10505000FFFFFFFFFFFFFFE3FFC0000000000000B5
:105060000000000000000000000000000000000040
:105070000000000000000000000000000000000030
:105080000000000000000000000000000000000020
:105090000000000000000000000000000000000010
:1050A0000000000000000000000000000000000000
:1050B00000000000000000000000000000000000F0
:1050C00000000000000000000000000000000000E0
:1050D00000000000000000000000000000000000D0
:1050E00000000000000000000000000000000000C0
:1050F00000000000000000000000000000000000B0
:10510000000000000000000000000000000000009F
:10511000000000000000000000000000000000008F
:10512000000000000000000000000000000000007F
:10513000000000000000000000000000000000006F
:10514000000000000000000000000000000000005F
:10515000000000000000000000000000000000004F
:10516000000000000000000000000000000000003F
:10517000000000000000000000000000000000002F
:10518000000000000000000000000000000000001F
:10519000000000000000000000000000000000000F
:1051A00000000000000000000000000000000000FF
:1051B00000000000000000000000000000000000EF
:1051C00000000000000000000000000000000000DF
:1051D00000000000000000000000000000000000CF
:1051E00000000000000000000000000000000000BF
:1051F00000000000000000000000000000000000AF
:10520000000000000000000000000000000000009E
:10521000000000000000000000000000000000008E
:10522000000000000000000000000000000F00006F
:105230000000000000000000000000000E1F000041
:105240000000000000000000000000001E3F000001
:105250000000000000000000000000003C7700009B
:1052600000000000000000000000000038E700001F
:1052700000000000000000000000000039C700002E
:105280000000000000000000000000003F87000058
:105290000000000000000000000000001F000000EF
:1052A00000000000000000000000000000000000FE
:1052B000000000001F0000000000000000070000C8
:1052C000000000003F800000000000000007000018
:1052D0000000000060C000000000000000000000AE
:1052E000000000004060000000000000000000001E
:1052F00000000000407000000000000000000000FE
:105300000000000060D80000000000000000000065
:10531000000000003F8800000000000003000000C3
:10532000000000001F08000000000000070F000040
:105330000000000000000000000000000EFF000060
:105340000000000040400000000000001FF80000C6
:10535000000000007FC00000000000003F8000004F
:10536000000000007FC000000000000030000000CE
:1053700000000000404000000000000000000000AD
:1053800000000000400000000000000000000000DD
:10539000000000007000000000000000001C000081
:1053A000000000005C400000000000000E1F000034
:1053B0000000000047C00000000000001E070000C1
:1053C0000000000003C000000000000039C700001A
:1053D000000000004C4000000000000039CF000039
:1053E0000000000070000000000000003BFE000014
:1053F0000000000040000000000000003FFC000032
:105400000000000040000000000000001F0000003D
:10541000000000007F80000000000000000000008D
:10542000000000007FC0000000000000000000003D
:1054300000000000404000000000000000000000EC
:10544000000000000040000000000000000000001C
:105450000000000040C0000000000000000000004C
:10546000000000007F80000000000000000000003D
:1054700000000000400000000000000000000000EC
:10548000000000004040000000000000000000009C
:10549000000000007FC000000000000000000000CD
:1054A000000000006040000000000000000000005C
:1054B00000000000380000000000000000000000B4
:1054C000000000000E0000000000000000000000CE
:1054D0000000000047000000000000000000000085
:1054E000000000007FC0000000000000000000007D
:1054F000000000004000000000000000000000006C
:10550000000000000000000000000000000000009B
:10551000000000000000000000000000000000008B
:10552000000000000000000000000000000F00006C
:1055300000000000000000000000000007FF000065
:105540000000000040400000000000003FFF00009D
:10555000000000007FC00000000000003DC7000008
:10556000000000007FC000000000000039C70000FC
:1055700000000000404000000000000039C70000AB
:1055800000000000404000000000000039C700009B
:105590000000000060C000000000000039C70000EB
:1055A000000000003F8000000000000039C700003C
:1055B000000000001F0000000000000039C00000D3
:1055C0000000000040400000000000003800000023
:1055D000000000007FC0000000000000000F00007D
:1055E000000000007FC000000000000007FF000076
:1055F0000000000040400000000000003FF80000F4
:105600000000000000000000000000003CE000007E
:105610000000000039C000000000000038E0000079
:10562000000000007C4000000000000038E00000A6
:10563000000000004E4000000000000038E00000C4
:105640000000000023C000000000000039E000005E
:105650000000000073800000000000003FC0000058
:105660000000000000000000000000001F8000009B
:1056700000000000404000000000000000030000A7
:10568000000000007FC0000000000000000F0000CC
:10569000000000007FC0000000000000003E00008D
:1056A00000000000444000000000000000F800007E
:1056B00000000000440000000000000007F00000AF
:1056C000000000007C000000000000001FF000004F
:1056D0000000000038000000000000003C700000E6
:1056E0000000000040400000000000003FF000000B
:1056F000000000007FC00000000000001FFF00004D
:10570000000000007FC0000000000000003F00001B
:105710000000000040400000000000000000000009
:105720000000000000400000000000000000000039
:105730000000000000C0000000000000000F00009A
:105740000000000001C000000000000007FF000092
:105750000000000000400000000000003FF80000D2
:105760000000000001C00000000000003CE000005C
:10577000000000000E4000000000000038E00000C3
:1057800000000000320000000000000038E00000CF
:10579000000000007E4000000000000038E0000033
:1057A000000000000FC000000000000039E0000011
:1057B0000000000001C00000000000003FC0000029
:1057C0000000000000400000000000001F800000FA
:1057D0000000000040000000000000000000000089
:1057E000000000007000000000000000000F00003A
:1057F000000000005C4000000000000007FF000007
:105800000000000047C00000000000003FFF000053
:105810000000000003C00000000000003DC70000C1
:10582000000000004C4000000000000039C70000EC
:1058300000000000700000000000000039C70000F8
:1058400000000000400000000000000039C7000018
:1058500000000000000000000000000039C7000048
:1058600000000000000000000000000039C7000038
:1058700000000000000000000000000039C000002F
:1058800000000000000000000000000038000000E0
:10589000000000000000000000000000000F0000F9
:1058A00000000000000000000000000007FF0000F2
:1058B0000000000000000000000000003FF80000B1
:1058C0000000000000000000000000003DC00000DB
:1058D00000000000000000000000000039C00000CF
:1058E00000000000000000000000000039C00000BF
:1058F00000000000000000000000000039E000008F
:1059000000000000000000000000000039F8000066
:1059100000000000000000000000000039FF00004F
:105920000000000000000000000000003F8F0000A9
:105930000000000000000000000000001F00000048
:105940000000000000000000000000000000000057
:105950000000000000000000000000000000000047
:105960000000000000000000000000000000000037
:105970000000000000000000000000000000000027
:105980000000000000000000000000000000000017
:105990000000000000000000000000000000000007
:1059A00000000000000000000000000000000000F7
:1059B00000000000000000000000000000000000E7
:1059C00000000000000000000000000000000000D7
:1059D00000000000000000000000000000000000C7
:1059E00000000000000000000000000000000000B7
:1059F00000000000000000000000000000000000A7
:105A00000000000000000000000000000000008016
:105A1000000000000000000000000000000000C0C6
:105A2000000000000000000000000000000001C0B5
:105A3000000000000000000000000000000000E086
:105A4000000000000000000000000000000000F85E
:105A5000000000000000000000000000000000FC4A
:105A6000000000000000000000000000000000FE38
:105A70000000000000000000000000000007C2FF5E
:105A8000000000000000000000000000001FF67F82
:105A9000800000000000000000000000007FE77FA1
:105AA000C0000000000000000000000000002F3FC8
:105AB000C00000000000000000000000008FCF8F39
:105AC000E0000000000000000000000000FFEFE721
:105AD000E0000000000000000000000000FFEFE711
