:020000040800F2
:10000000283400202D0200080D150008591400089E
:100010000915000835130008EF290008000000004A
:10002000000000000000000000000000352600086D
:100030003913000800000000BB020008492700082F
:10004000470200084702000847020008470200086C
:10005000470200084702000847020008470200085C
:10006000470200084702000847020008470200084C
:10007000470200084702000847020008470200083C
:10008000470200084702000847020008470200082C
:10009000470200084702000847020008470200081C
:1000A000470200084702000847020008470200080C
:1000B00047020008470200084702000847020008FC
:1000C00047020008470200084702000847020008EC
:1000D00047020008C5270008470200084702000839
:1000E00047020008470200084702000847020008CC
:1000F00047020008470200084702000847020008BC
:1001000047020008470200084702000847020008AB
:10011000470200084702000847020008470200089B
:10012000470200084702000847020008470200088B
:1001300000F002F800F06BF80AA090E8000C82448E
:100140008344AAF10107DA4501D100F060F8AFF26B
:10015000090EBAE80F0013F0010F18BFFB1A43F0A5
:100160000103184794390000B439000010F8013B2E
:100170000A4413F0030408BF10F8014B1D1108BF17
:1001800010F8015B641E05D010F8016B641E01F8C5
:10019000016BF9D1002D15D010F8014B03F00C03C1
:1001A0000C2BA1EB04040ABF10F8013BA4EB831451
:1001B000A4EB032405F1010314F8016B5B1E01F8A5
:1001C000016BF9D5914238BF10F8013BD1D370478C
:1001D0000023002400250026103A28BF78C1FBD850
:1001E000520728BF30C148BF0B607047662902F034
:1001F000AA87002070471FB500F04AFB04000020CA
:10020000002102F035FEE0601FBD10B510BD00F00A
:100210005BFC1146FFF7EFFF02F058FD00F079FCA0
:1002200003B4FFF7F2FF03BC02F055FC0948804716
:1002300009480047FEE7FEE7FEE7FEE7FEE7FEE7C8
:10024000FEE7FEE7FEE7FEE704480549054A064BE0
:10025000704700006527000831010008282E0020A3
:10026000283400202830002028300020EFF31080B0
:1002700072B6704780F310887047204C204D25607F
:100280004FF0000484F309881E4C4FF001052570DF
:100290001D4C4FF08055256062B6FEE730B41A4C15
:1002A0004FF08055256030BC704730B4164C4FF08D
:1002B0008055256030BC704700BF72B6EFF30980EF
:1002C00028B1203880E8F00F10490968086000B5AF
:1002D0000F4880475DF804EB0E480F490A7802701A
:1002E0000A480E490A680260106890E8F00F203052
:1002F00080F309884EF0040E62B6704720ED00E0EE
:100300000000FFFF5E18002004ED00E064180020EC
:10031000311E000853180020541800206C180020CB
:100320000FB4044910B503AA029800F09FFA10BC5C
:100330005DF814FB1C1800202DE9F0474FF0000A6F
:1003400089460446C0F820A02046E1688847002876
:1003500076D0252806D0D4E901219047206A401C98
:100360002062F1E7E168204600258847C4F81CA018
:1003700006460027C4F818A02A2E09D0304602F0FD
:10038000A3FB38B304EB8708303EC8F8186019E0C7
:1003900059F8041B204604EB87029161E168884705
:1003A000012F064618D1E069002820DA25F0200543
:1003B0001DE0D8F8180000EB800006EB4000303854
:1003C000C8F818002046E1688847064602F07CFB22
:1003D0000028EED1012F0AD02E2E08D12046E16848
:1003E00088477F1C0646022F45F02005C4DBA06924
:1003F000002803DA404245F00105A061E80701D07A
:1004000025F01005B6B1A6F14100192802D8203612
:1004100045F400654A463146204625604D46FFF7C3
:10042000E5FE58B1012806D0ED1D25F0070000F1CA
:10043000080989E704E005F1040985E730468AE701
:10044000206ABDE8F08770477047704770472DE914
:10045000FF4F0C461E464FF0FF378BB0D2E900012C
:10046000DDF860800A908A46C1F30A5505B93D4619
:10047000002108464FF00000BAF1000F00F44000E0
:1004800005DA00EB80004FF4400101EA50004FEA2A
:100490009059B9F1010F00DDB9460A9850EA4A00B7
:1004A0000ED044F61050A5F2FF3545432F14B8F195
:1004B000000F1ED07542291E1EDDC9F100021CE08E
:1004C000B8F1010F4FF0000001D0302103E0F243FA
:1004D00005E02154401CB042FBDB304600220021E5
:1004E00021540B99C1F80880C1E900200FB0BDE884
:1004F000F08FBD1B6D1CDEE74A4600DA694206A894
:1005000000F068FA06AB93E8070003AB83E8070046
:1005100050460A9900F046FB8DE80700A0F5005010
:100520001F3800900398002D0ADD42F21F014A4651
:100530000844002303A90390684600F0AFFD09E0DA
:10054000A0F500504A461F38002303A903906846CF
:1005500000F0B9FD8DE807000004000C03D04FF057
:10056000FF30410800E01046B8F1000F03D0002230
:10057000009215461EE0751E05D400F08DF930324C
:1005800062556D1EF9D5B3460122084302D0002200
:100590007F1C04E02078302801D100227F1E002A31
:1005A000099784D01DE0112D07DA00F075F930327B
:1005B00062556D1C50EA0102F5D1084302D0009843
:1005C000C8B10EE00021681E05E0235C625C635444
:1005D0002254401E491C8142F7DBAB46A81B401E3B
:1005E0000990002004F80B000B98099AC0F80880C5
:1005F000C0E9002B7AE711264FF0000857E72DE9F4
:10060000F04F88460446D21D22F0070191B0D1E98F
:100610000001CDE90A0102F043FA02460B98C00F2F
:1006200001D02D2007E02068810701D52B2002E0B2
:10063000202101EAC000032A099001D0072A05DB26
:1006400003464146204600F085F90BE120788006FC
:1006500001D5E06900E00620B8F1650F814606D0BB
:10066000B8F1660F18D0B8F1670F70D131E00020F3
:10067000B9F1110F009001DB112301E009F1010331
:100680000AAA01A90CA8FFF7E2FEDDE90C7000261A
:1006900009F10105834647E001204B4600904FF0E9
:1006A00000470AAA01A90CA8FFF7D1FEDDE90DB0A9
:1006B0000C995D46002610B909F101000D18B9EB3F
:1006C000050003D4C0F1FF3609F10105A5EB0900CF
:1006D0002BE0B9F1010F01DA4FF001090020B9F167
:1006E000110F0090484601DD112300E003460AAADD
:1006F00001A90CA8FFF7ABFEDDE90C704D46002602
:100700008346207800070AD4AB4500DA5D4601A88D
:10071000012D04DD411911F8011C302907D04F4586
:1007200002DA17F1040F04DA012082460FE06D1E91
:10073000EEE7002F02DCED1B3E4403E0781CA842EC
:1007400000DD7D1CB81B00F1010A4FF00047207846
:10075000000703D4AA4501DB4FF0FF3A0021B7F1AF
:10076000004F0DF143088DF8431024D002202B23B5
:10077000002F01DA7F422D230A21021EA0F1010081
:1007800000DC5FB197FBF1FC97FBF1F201FB1C7CF5
:1007900017460CF1300C08F801CDEEE7A8F1010086
:1007A00003702188090501D5452100E06521A0F1EC
:1007B000010800F8011C09980FA9A1EB0807FF1D0B
:1007C00000B10120411901EBEA70A1693844081A0F
:1007D000401EA0612078C00602D42046AFF30080FE
:1007E000099828B1D4E901219047206A401C206271
:1007F0002078C00622D52046AFF300801EE0002EF0
:1008000004DBB34502DD01A8805D00E03020D4E9BF
:1008100001219047206A401C2062761CAAF1010049
:100820005FEA000A0AD100F033F8C0680168405C52
:10083000D4E901219047206A401C2062281EA5F1BE
:100840000105DCDC07E0D4E9012118F8010B904731
:10085000206A401C2062381EA7F10107F3DC204605
:10086000AFF30080032011B041E60000074B70B5E4
:100870000D467B4400F05BF80446284600F01CF966
:1008800010B14FF0FF3070BD204670BDEB2300006B
:1008900000487047E82D002030B5B0F10A024FEA59
:1008A000900E71F100034EEA817EB0EB0E0061EB19
:1008B00091014FEA101E4EEA017E10EB0E0041EB53
:1008C00011114FEA102E4EEA016E10EB0E0041EBB3
:1008D00011214FEA104E4EEA014E10EB0E0041EB93
:1008E0001141401841F100014FEAD00040EA417047
:1008F0004FEAD10110EB80054FEA810444EA90747D
:1009000044EB01046D1944EB0404521BA3414FF066
:10091000000348BF0A3200D530BD401C41F1000140
:1009200030BD000001694A1C02610878704700B5BB
:100930008FB0CDE901310021059105497944CDE918
:10094000031011466846FFF7F7FC0FB000BD00002A
:10095000E5FFFFFF2DE9F0411F460446032601682D
:10096000072A01F4006004DB08B116A505E016A50E
:1009700003E008B115A500E015A521F010002060E6
:10098000A069C01EA0610FB1401EA0612046AFF358
:1009900000804FB1D4E9012138469047206A401CBD
:1009A0002062C01C206206E0206AFAE7D4E9012137
:1009B00015F8010B9047761EF8D22046AFF3008061
:1009C000BDE8F0814E414E006E616E00494E46001A
:1009D000696E66002DE9F047814616468AB03548B3
:1009E00078440DC88DE80D0032487844801C03AC73
:1009F0000DC884E80D0041F69B300844372190FB78
:100A0000F1F290FBF1F5A5F1800501FB12041B3C0E
:100A100002D56442012000E00020DFF898A0804663
:100A20000027FA44AAF1BE0A0EE0E0070AD03246D7
:100A3000684607EB470101230AEB810100F043FB05
:100A40008DE8070064107F1C002CEED1194F7F4405
:100A5000AE3F19E0E80715D007EB04100DF1180AB6
:100A600090E80E008AE80E00C068F04201D19819A3
:100A700008903246012306A903A800F024FB03AB2B
:100A800083E807006D10641C002DE3D14FF00103D3
:100A900032466946B8F1000F03A802D000F0FEFA12
:100AA00001E000F010FBC9E90001C9F808200AB014
:100AB000BDE8F087FC300000007B00F0800070474C
:100AC00000487047C82D00207546FFF7F9FFAE4675
:100AD00005006946534620F00700854618B020B54A
:100AE000FFF7B2FBBDE820404FF000064FF00007D3
:100AF0004FF000084FF0000B21F00701AC46ACE8C6
:100B0000C009ACE8C009ACE8C009ACE8C0098D4632
:100B1000704710B50446AFF300802046BDE8104092
:100B2000FFF77EBB4FF0013C50F8042B51F8043B1B
:100B30009A4221D1A2EB0C03934313EACC1317D1B1
:100B400050F8042B51F8043B9A4215D1A2EB0C0348
:100B5000934313EACC130BD150F8042B51F8043B08
:100B60009A4209D1A2EB0C03934313EACC13DBD0D6
:100B70004FF00000704700BFD01A01BAB1FA81F1FE
:100B800001F0180122FA01F0CB40C1F12001DBB2E3
:100B9000C0B2C01A2CFA01F3D11A914311EAC31161
:100BA000E6D170475FEA400C08BF91F0000F4FEAB2
:100BB0008C234FEAC12243EA51514FEA1C5018BF1F
:100BC00000F5F0404FEA300018BF41F000415FEA05
:100BD0006C5C00F02980BCF1FF3F08BF40F0804012
:100BE0007047130C06BF12044FF0100C4FF0000CAE
:100BF000130E04BF12020CF1080C130F04BF1201F4
:100C00000CF1040C930F04BF92000CF1020CD30FF3
:100C100004BF52000CF1010C11464FF00002A0F18C
:100C20001F00A0EB0C00704711F0004F08BF704789
:100C300031F000413FF4D5AF0B0C06BF09044FF073
:100C4000100C4FF0000C0B0E04BF09020CF1080C45
:100C50000B0F04BF09010CF1040C8B0F04BF8900BA
:100C60000CF1020CCB0F04BF49000CF1010CCCF1CC
:100C70002003A0EB0C0022FA03F302FA0CF241EA83
:100C8000030100F10100704720F07F4C80EA03006F
:100C900023F07F47ACEB070303F57C5300F00040E3
:100CA00003F1FF032DE980494FEA154B09B44FEAE0
:100CB000144325EA0B4E24EA03480FF2042606EB00
:100CC000132749083E785FEA320203FB0667C7F53F
:100CD000000707FB06F64FEA54374FEAD64606F1FF
:100CE000020607FB066CCCF1005C4FEA1C472CEABD
:100CF000074C07FB06F40CFB06F504EB15464FEA20
:100D0000961634BF00204FF000404FEAD13706FB63
:100D100007FC4FEA1C4C0CFB0BF7D21B03FB0CF738
:100D200061EB07010CFB0EF7B0EB074072EB1742CB
:100D30000CFB08F734BFA2EB0742B2EB074261EBB2
:100D400017414FEA0C444FEA910706FB07FC4FEAB4
:100D50001C4C0CFB0BF7B0EBC74072EB573203FB9C
:100D60000CF734BFA2EBC742B2EBC74261EB57317D
:100D70000CFB0EF7B0EBC70072EB57720CFB08F7D9
:100D800034BFA2EBC702B2EBC70261EB5771039FFE
:100D90004FEA816141EA921104EBCC044FEAD1376A
:100DA0004FEA826206FB07FC42EA90124FEA80603B
:100DB0004FEA1C4C0CFB0BF7D21B03FB0CF761EB4F
:100DC00007010CFB0EF7B0EB074072EB17420CFB70
:100DD00008F734BFA2EB0742B2EB074261EB1741C1
:100DE0004FEA8C554FEA910704EB9C2406FB07FC65
:100DF0004FEA1C4C0CFB0BF7B0EBC74072EB5732C1
:100E000003FB0CF734BFA2EBC742B2EBC74261EB66
:100E100057310CFB0EF7B0EBC70072EB57720CFBAF
:100E200008F734BFA2EBC702B2EBC70261EB577100
:100E300015EB4C254FEA816141EA92114FEA82623B
:100E40004FEAD13742EA901206FB07FC44F1000456
:100E50004FEA80604FEA1C4C0CFB0BF7D21B03FBE4
:100E60000CF761EB07010CFB0EF7B0EB074072EBE0
:100E700017420CFB08F734BFA2EB0742B2EB074264
:100E800061EB174115EB1C154FEA813141EA9241A4
:100E90004FEA823242EA90424FEA80304FEA0C76C3
:100EA00044F1000448EA03434EEA0B484FF0000EB9
:100EB000B2EB080C71EB030724BF624639464EEBD8
:100EC0000E0E4FF0000B0018524149414BEB0B0B3B
:100ED000B2EB080C71EB03077BF1000B24BF6246F9
:100EE00039464EEB0E0E4FF0000B001852414941AF
:100EF0004BEB0B0BB2EB080C71EB03077BF1000B18
:100F000024BF624639464EEB0E0E51EA020718BF67
:100F100046F0010616EB0E7655F1000254F1000181
:100F200003D5BDE88901BDE80088BDE88901BDE8B9
:100F30000048B619524141EB0101A3F1010370478A
:100F400080807F7E7D7C7B7A797877767675747306
:100F5000727171706F6E6E6D6C6C6B6A6A696868C5
:100F6000676666656464636362616160605F5F5E5B
:100F70005E5D5D5C5C5B5B5A5A59595858575756D1
:100F80005655555554545353525252515150505036
:100F90004F4F4F4E4E4D4D4D4C4C4C4B4B4B4A4A88
:100FA0004A494949484848474747474646464545CC
:100FB0004544444444434343434242424241414105
:100FC000002B9C4630D477002BD01CB54FEA370756
:100FD00003B44FF010004FF01001BAF1000F06D02B
:100FE000BCF1000FDCBF40F0080040F008014FF0FA
:100FF00000000FBCBDE810400BF1010BBBF1010F6D
:1010000008BF5FEA170722BF12F1010211F10101C7
:101010004FF0004143F1000300F0004043EA0000BC
:101020007047F9D35708D0E746EA064613F1400F58
:101030004FEA16461FDD13F1200FDFBF16430A46A5
:10104000002120335B42BED0C3F1200746EA0646AA
:1010500002FA07F74FEA164646EA0706C3F12007E9
:1010600022FA03F201FA07F721FA03F14FF0000325
:1010700042EA0702A7E746EA020646EA06464FEAC0
:10108000164646EA0106BCBF46EA0646360C4FF055
:1010900000034FF000024FF0000194E72DE9804C6F
:1010A0009A46934670B491E8380007C831EA400C7C
:1010B00048BF34EA430C03D5FFF7E6FDFFF780FF96
:1010C000F0BCBDE8008C2DE9804C9A46934670B484
:1010D00091E8380007C810F0804F08BF13F0804F28
:1010E00003D100F005F8FFF76BFFF0BCBDE8008C02
:1010F00020F07F4780EA030023F07F4C07EB0C03CE
:10110000A3F57C5300F00040A3F1FE0392F0000F22
:1011100000F0B38095F0000F00F077802DE90149D1
:101120004FEA11404FEA144621EA004800FB06FC52
:1011300024EA064708FB06F607FB08F800FB07F75A
:1011400018EB06484CEB164C4FEA124B18EB0748CD
:101150004FEA15464CEB174022EA0B4E0BFB06FC00
:1011600025EA06470EFB06F607FB0EFE0BFB07F70C
:101170001EEB064E4CEB164C4FF000061EEB074ED6
:101180004CEB174B18EB0B0840F1000018EB0E0B63
:1011900058EB000840F100008F1A4FF000013CBFEF
:1011A000C943661B14BFB5EB040C00213CBFC94307
:1011B000F61B4FEA17444EEA8E0E27EA04454FEA23
:1011C0001C4704FB07622CEA074C05FB07F70CFBE6
:1011D00005F604FB0CFC16EB074642EB174216EB38
:1011E0000C4642EB1C421BEB060658EB0202414147
:1011F00046EA9E0601D5BDE80189B619524141EB88
:101200000101A3F10103BDE801894FEA14454FEA4A
:10121000114724EA054621EA074C05FB07F406FBC3
:1012200007F70CFB06F105FB0CFC11EB074144EB47
:1012300017444FEA124711EB0C4144EB1C4422EADD
:10124000074C05FB07F206FB07F70CFB06F605FB50
:101250000CFC16EB074642EB174216EB0C4642EB32
:101260001C456A1854F1000148BF7047B619524135
:1012700041EB0101A3F10103704795F0000F37D056
:101280004FEA11424FEA144721EA024624EA074C8A
:1012900002FB07F106FB07F70CFB06F402FB0CFC54
:1012A00014EB074441EB17414FEA154714EB0C448C
:1012B00041EB1C4125EA074C02FB07F506FB07F74B
:1012C0000CFB06F602FB0CFC16EB074645EB17453C
:1012D00016EB0C4645EB1C42121951F1000148BFB8
:1012E0007047B619524141EB0101A3F10103704768
:1012F0004FEA14454FEA114724EA054621EA074C14
:1013000005FB07F106FB07F70CFB06F24FF00006A2
:1013100005FB0CFC12EB074241EB174112EB0C42B0
:1013200051EB1C4148BF7047921841EB0101A3F1FA
:101330000103704700BFFEE770472DE9F041024608
:1013400000250026002000230024002791F803C078
:101350000CF00F0591F803C00CF0100CBCF1000F5D
:1013600003D091F802C04CEA050591F800C0BCF129
:10137000000F31D0146800202BE04FF0010C0CFA64
:1013800000F3B1F800C00CEA03069E4220D18300AE
:101390004FF00F0C0CFA03F7BC4305FA03FC4CEAC0
:1013A000040491F803C0BCF1280F06D14FF0010CE2
:1013B0000CFA00FCC2F814C00AE091F803C0BCF1BA
:1013C000480F05D14FF0010C0CFA00FCC2F810C018
:1013D000401C0828D1D31460B1F800C0BCF1FF0F45
:1013E00034DD546800202EE000F1080C4FF00108B5
:1013F00008FA0CF3B1F800C00CEA03069E4221D1B2
:1014000083004FF00F0C0CFA03F7BC4305FA03FC02
:101410004CEA040491F803C0BCF1280F05D100F197
:10142000080C08FA0CF8C2F8148091F803C0BCF15B
:10143000480F07D100F1080C4FF0010808FA0CF82A
:10144000C2F81080401C0828CED35460BDE8F0815B
:10145000416170470161704700BFFEE710B5202170
:101460000748FFF7F7FF80210548FFF7F3FF8021CA
:101470000348FFF7EDFF20210148FFF7E9FF10BD0A
:101480000008014010B520210548FFF7E3FF802147
:101490000348FFF7DDFF80210148FFF7DBFF10BDA8
:1014A0000008014010B520210348FFF7D3FF202199
:1014B0000148FFF7CDFF10BD0008014008B501212C
:1014C000502001F03DF80620ADF8000010208DF806
:1014D000030003208DF8020069460948FFF72DFF3D
:1014E00020210748FFF7B6FF2020ADF8000069462D
:1014F0000448FFF722FF20210248FFF7ABFF08BD99
:10150000001001400018014000BFFEE770470000D6
:1015100070B5002100230F22C47804B3154C246851
:1015200004F4E064C4F5E064210AC1F10403CA4094
:10153000447804FA03F184781440214309010E4CE5
:101540000678A155047804F01F050124AC40057805
:101550006D11AD0005F1E025C5F8004109E0047802
:1015600004F01F050124AC40044D0678761145F8BF
:10157000264070BD0CED00E000E400E080E100E0FA
:1015800002490143024A1160704700000000FA0559
:101590000CED00E070B5002418E004F1B00000216B
:1015A00000F05BF90021084600F057F900211020F7
:1015B00000F053F9002505E00121002000F04DF96D
:1015C000681CC5B2802DF7DB601CC4B2082CE4DBBC
:1015D00070BD2DE9F05F06460F4690461C46DDF8CB
:1015E00028A04FF0000BE11704EB5171C910A4EBD8
:1015F000C10131B92046E11704EB5171C1F3C705B0
:1016000006E02046E11704EB5171C910491CCDB228
:101610003D4615E02946304600F09CF8B1460BE007
:1016200059460BF1010B1AF80100012100F015F9E0
:1016300009F1010000F0FF09C145F1DB681CC5B2EA
:10164000A542E7DBBDE8F09F08B50121042000F0CA
:1016500077FFA020ADF8000010208DF803000320D4
:101660008DF8020069463A48FFF767FEA021384826
:10167000FFF7F0FE0021AE2000F0EFF80021084651
:1016800000F0EBF80021102000F0E7F800214020E6
:1016900000F0E3F80021B02000F0DFF80021812005
:1016A00000F0DBF80021FF2000F0D7F80021A12096
:1016B00000F0D3F80021A62000F0CFF80021A820E8
:1016C00000F0CBF800213F2000F0C7F80021C8202F
:1016D00000F0C3F80021D32000F0BFF80021084635
:1016E00000F0BBF80021D52000F0B7F800218020E1
:1016F00000F0B3F80021D82000F0AFF80021052059
:1017000000F0ABF80021D92000F0A7F80021F1206B
:1017100000F0A3F80021DA2000F09FF80021122049
:1017200000F09BF80021DB2000F097F8002130202A
:1017300000F093F800218D2000F08FF80021142094
:1017400000F08BF80021AF2000F087F808BD000002
:101750000008014070B504460D4605F1B0000021B7
:1017600000F07BF8102141EA1410002100F075F818
:1017700004F00F00002100F070F870BD2DE9F04773
:1017800007460E469046994600250024A8F1200001
:10179000C5B27F2F02DD0027B01CC6B2B9F1100F11
:1017A00024D131463846FFF7D5FF002408E004EB8A
:1017B0000511194A505C012100F04FF8601CC4B2B9
:1017C000082CF4DB701CC1B23846FFF7C3FF0024BD
:1017D00009E004EB051108310F4A505C012100F0CB
:1017E0003CF8601CC4B2082CF3DB12E031463846EA
:1017F000FFF7B0FF00240AE005EB4501074A02EBC2
:101800004101085D012100F028F8601CC4B2062CDB
:10181000F2DBBDE8F0870000723300084A310008AF
:101820002DE9F04104460F461546984600260FE084
:10183000AA5D434639462046FFF7A0FF04F10800A1
:10184000C4B2782C02DD0024B81CC7B2701CC6B22A
:10185000A85D0028ECD1BDE8F08170B504460D46C6
:101860001DB1E0B201F006F902E0E0B201F0ECF8DF
:1018700070BD10B500F013F800F0E6FB00F00EFCB0
:1018800000F02EFC00F0B6FB00F088FB00F0C2FC7C
:1018900000F066FC00F08CFC00F002F810BD704710
:1018A0007047000006480078012808D105480078F4
:1018B000FF2804D203480078401C02490870704792
:1018C0005E1800205118002010B500241A48007836
:1018D000012830D1FEF7CAFC04461848007820B130
:1018E00016480078401E1549087014480078F8B969
:1018F00013480078E0B900F0EFFC1248124909786B
:1019000050F82100114908600F4800781049097803
:1019100088420DD00D480068806B401C0B49096857
:1019200088630C480068401C0A490860FEF7BDFC4B
:101930002046FEF79FFC10BD5E18002051180020C5
:101940005218002060280020541800206C18002035
:10195000531800203818002010B500240B480078D8
:10196000012811D1FEF782FC04460948007840B9ED
:1019700008480078FF2804D206480078401C054932
:1019800008702046FEF776FC10BD00005E180020AF
:10199000511800205218002010B500241348007878
:1019A000012821D1FEF762FC044611480078C0B13D
:1019B0000F480078401E0E4908700846007860B94C
:1019C0000C48007828B92046FEF754FC00F04AFC89
:1019D0000AE02046FEF74EFC06E02046FEF74AFCF1
:1019E00002E02046FEF746FC10BD00005E18002015
:1019F000521800205118002010B50B48007890B9FB
:101A000000F06AFC0948007809490870094807494C
:101A1000097850F82100084908600846006807491D
:101A20000860FEF72AFC10BD5E1800205418002044
:101A300053180020602800206C1800206418002033
:101A400010B50024022000F0F5F9FEF70FFC044663
:101A500000200B4908602046FEF70CFC142000F023
:101A6000E9F9FEF703FC04460548006805490860EB
:101A70000120054908702046FEF7FCFB10BD000060
:101A800060180020481800205018002070470000FF
:101A90002DE9FE4F06460F4690461C464FF00009C2
:101AA000FEF7E4FB81461F48007828B14846FEF760
:101AB000E1FB3C20BDE8FE8F1B4850F8240060BBD2
:101AC0000120194941F824004846FEF7D3FB0023C2
:101AD00042463946304600F009F98246002000901F
:101AE00001900346024651460290204600F00AFC4F
:101AF000054635B90D48007801280CD100F0B2FB3D
:101B000009E0FEF7B3FB81460020074941F82400B5
:101B10004846FEF7AFFB2846CCE74846FEF7AAFB4F
:101B20002820C7E751180020602800205E180020F8
:101B30002DE9F04F85B081468A4693461C46DDE983
:101B40000F78129D00200390FEF790FB039023482E
:101B5000007830B10398FEF78DFB3C2005B0BDE85E
:101B6000F08F1F4850F8240088BB01201C4941F821
:101B700024000398FEF77EFB2A464146384600F0D3
:101B8000D1FC2B465A465146484600F0AFF8049027
:101B90001198CDE9008002953A4620460E9B0499A3
:101BA00000F0B0FB064636B90E48007801280CD18B
:101BB00000F058FB09E0FEF759FB039000200849AC
:101BC00041F824000398FEF755FB3046C6E7FFE7CF
:101BD0000398FEF74FFB2820C0E7000051180020B3
:101BE000602800205E180020704770472DE9F04102
:101BF00006460F4614464FF000081548007818B105
:101C000012202070BDE8F081FEF730FB8046FF2EE9
:101C100003D11048006890F832600F4850F8265001
:101C20002DB94046FEF726FB43202070EAE7012D40
:101C300005D14046FEF71EFB43202070E2E7EF642B
:101C40004046FEF717FB0020207000BFDAE70000D7
:101C50005118002064180020602800207047000000
:101C60002DE9F04707460D464FF0000A0020286096
:101C70006860FEF7FBFA8246FF2F03D1194800681F
:101C800090F83270184850F827402CB95046FEF7AB
:101C9000F1FA4320BDE8F087012C04D15046FEF74D
:101CA000E9FA4320F6E7207C00F0010020B9504615
:101CB000FEF7E0FA4520EDE70026D4F80C90D4F8C2
:101CC00008805046FEF7D6FA00E0761C58F8041B50
:101CD0000029FAD0B0002860A9EB060080006860F7
:101CE0000020D7E7641800206028002070B5044663
:101CF00010464FF080750560051F28462C606FF078
:101D00000106051F28462E604FF01236051F284693
:101D10002E604FF00336051F28462E604FF0023626
:101D2000051F28462E607610051F28462E60051FC9
:101D3000284629604FF01136051F28462E604FF0C7
:101D40001036051F28462E604FF00936051F28461D
:101D50002E604FF00836051F28462E604FF00736DC
:101D6000051F28462E604FF00636051F28462E60B8
:101D70004FF00536051F28462E604FF00436051F2C
:101D800028462E6070BD00002DE9F04105464FF059
:101D90000008FEF76BFA8046FF2D05D12048006849
:101DA00090F83250012608E01D48006890F8320093
:101DB000A84201D1012600E000261A4850F825402B
:101DC0002CB94046FEF756FA4820BDE8F081012CB8
:101DD00004D14046FEF74EFA4320F6E794F83470FB
:101DE0001148C05D94F8351088430F49C85508461E
:101DF000C05D30B994F836100C48007888430B4920
:101E0000087094F8300040F0080084F83000404634
:101E1000FEF730FA012E01D100F024FA0020D4E7B9
:101E20006418002060280020561800205518002053
:101E30007047000070B5054600261748007800B1CD
:101E400070BD1648007800B1FAE71DB3FEF70EFA30
:101E500006461348006890F834401248005D104967
:101E6000096891F8351088430E4908550846005D09
:101E700040B90B48006890F836100B48007888434A
:101E80000949087006480068C5623046FEF7F2F955
:101E900000F0E8F900BFD3E75118002052180020E5
:101EA00064180020561800205518002070B5002630
:101EB00000F072F8FEF7DAF9064631480068401C77
:101EC0002F4908603046FEF7D5F92E4800780128E2
:101ED00053D12D48007820B1012804D0022809D11F
:101EE00003E001250BE0002509E00125012026493A
:101EF000087004E0012500202349087000BF00BFDE
:101F000005B970BD2148046833E0FEF7AFF9064615
:101F1000E06A50B3E06A401EE062E06A28BB94F8D1
:101F2000300000F0370040B114F8300F00F0C80066
:101F3000207001206070303C02E0002084F8310005
:101F400094F8300000F0080078B93434A0781049D3
:101F5000097808430E49087020780E49085C6178BA
:101F6000084314F834190B4A505464693046FEF79C
:101F700081F994F832003F28C7D100BFC1E70000C3
:101F80007C1800205E1800207418002070180020B3
:101F90005518002056180020704700002DE9F04128
:101FA0005021114800F02CF900250DE0681C86B284
:101FB0000D4800EB051400EB061700202070676049
:101FC0000AA0E060681C85B2042DEFD3064800EB40
:101FD000051400202070606004A0E06002480449FD
:101FE0000860BDE8F0810000102400203F000000E0
:101FF0004018002070B5C821114800F001F90023F5
:102000000FE0581C85B203EB83000D4901EB8004FF
:1020100005EB850001EB8006002020706660581CEF
:1020200083B2092BEDD303EB8300054901EB800458
:1020300000202070606008460249086070BD000002
:10204000482300203C18002000200A4908600A4963
:1020500008700A4908700A4908700A4908700A4954
:1020600008600A4908600A4908600A4908600A4984
:10207000087070477C18002051180020521800206A
:102080005F1800205E18002038180020601800201B
:102090004C180020481800205018002000210A4A3F
:1020A0001170002004E00021084A1154411CC8B2FC
:1020B0000828F8D30021064A1170064A1170064A12
:1020C0001160064A1160704755180020561800200C
:1020D00053180020541800206C18002064180020A9
:1020E00070B54FF47C71194800F08AF84FF4807194
:1020F000174800F085F8002413E0601CC5B2C4EB5B
:10210000C40000EB4000114901EB8003C5EBC500A2
:1021100000EB400001EB80065E610EA0D864601CFD
:10212000C4B20B2CE9D3C4EBC40000EB4000074958
:1021300001EB80030020586106A0D8640020064906
:10214000086002480549086070BD00006029002051
:10215000602800203F000000701800206818002050
:1021600000B587B00320002180220A4BCDE901325F
:10217000CDE903104FF6FF703F23074A0090074850
:10218000FFF7D6FC06AA06A13F20FFF72FFD07B0F8
:1021900000BD0000602600205C28002039240008D3
:1021A00075432F4F532D49492049646C6500000049
:1021B00000B587B00320002180220A4BCDE901320F
:1021C000CDE903104FF6FE703E23074A0090074802
:1021D000FFF7AEFC06AA06A13E20FFF707FD07B0F9
:1021E00000BD0000602400205C260020612400085F
:1021F00075432F4F532D49492053746174000000DB
:1022000004E0002200F8012B4A1E91B20029F8D107
:10221000704700002DE9F04178211048FFF7F0FFEA
:1022200000240DE0601C86B204EB44000B4901EB76
:10223000C00506EB460001EBC0072F60601C84B2AE
:10224000042CEFD304EB4400044901EBC00500204B
:102250002860084602490860BDE8F081502D002042
:102260007818002010B50024FEF700F80446134843
:102270000078F8B912480078E0B900F02DF811485C
:102280001149097850F82100104908600E4800787B
:102290000F49097888420DD00C480068806B401CBB
:1022A0000A49096888630B480068401C09490860AE
:1022B000FDF7F4FF2046FDF7DDFF10BD51180020AB
:1022C0005218002060280020541800206C180020AC
:1022D00053180020381800200649074A1278885CF5
:1022E0000649095C034A515C01EBC001044A1170C4
:1022F0007047000062390008551800205618002069
:10230000541800202DE9F84F05460F46904699468F
:10231000DDE90AAB00200090FDF7A8FF00903F48E0
:102320000468002C74D0183454F8040C3B4908603D
:102330000098FDF79FFF44F8187CA57600202076D2
:102340006076606144F814BC44F80CAC44F8108C1E
:102350000C9824F8080C24F8069C0020E077E8107C
:10236000207705F00700E076217F01208840A077E4
:10237000E17E01208840607700206060E060A0601E
:102380002062A0626062E062206325A06063183C66
:10239000002606E0002104F1500040F82610701CD1
:1023A000C6B2002EF6D02046FFF770FB2046FFF79E
:1023B0001BFCFDF75BFF00901A4840F825401A48C7
:1023C000006860610020A0611748006810B11648DD
:1023D00000688461144804603434A0781349097893
:1023E00008431249087020781149085C6178084355
:1023F00014F834190E4A50540E480078401C0D4908
:1024000008700098FDF736FF0020BDE8F88FFFE761
:102410000098FDF72FFF4220F7E700006818002022
:102420003F00000060280020701800205518002090
:10243000561800205F180020002400BF00BFFDF7E1
:1024400015FF044605480068401C04490860204602
:10245000FDF710FFFFF7C9FBF1E70000601800204F
:10246000002400BF02E02820FFF7E4FC19480078B0
:102470000028F8D0184800686421B0FBF1F0164934
:1024800008600846006828B9002014490870FF2039
:10249000FFF77AFC00BFFDF7E9FE0446104800682C
:1024A0001049086000200E4908602046FDF7E2FE52
:1024B0000C48006808490968B0FBF1F0C0F16400FD
:1024C00006490870FFF7CAFB00F00EF81420FFF76A
:1024D000B1FCE0E750180020481800204418002004
:1024E000601800204C1800207CB5002514E06946D7
:1024F0002846FFF7B5FB064666B9094850F825405F
:1025000044B1012C06D0D4E9020100EB81006064E3
:102510000198A064681CC5B23F2DE8D97CBD0000BD
:102520006028002002F0010343B102F002032BB146
:1025300002E0491E002308C00029FAD170470000BC
:1025400029B1064A92690243044B9A6104E0034AA6
:1025500092698243014B9A6170470000001002406B
:1025600030B500210022002400232D4D6D6805F0B8
:102570000C0121B1042905D0082923D105E0294DFA
:10258000056022E0274D05601FE0254D6D6805F4CC
:102590007012234D6D6805F48034022505EB9242DC
:1025A0001CB9214D554305600BE01D4D6D6805F4C8
:1025B00000351DB11C4D5543056002E0194D5543D2
:1025C000056002E0174D056000BF00BF144D6D6847
:1025D00005F0F0010909154D6B5C0568DD404560AB
:1025E0000F4D6D6805F4E061090A104D6B5C45689C
:1025F000DD4085600A4D6D6805F46051C90A0B4DD8
:102600006B5C4568DD40C560054D6D6805F4404173
:10261000890B074D6B5CC568B5FBF3F5056130BDF3
:102620000010024000127A0000093D00221800202C
:1026300032180020704710B500F002F810BD0000FD
:102640000CB50020019000903348006840F48030C1
:102650003149086000BF3048006800F40030009045
:102660000198401C0190009818B90198B0F5A06F2E
:10267000F1D12948006800F4003010B10120009029
:1026800001E0002000900098012843D12348006811
:1026900040F01000214908600846006820F003005F
:1026A00008600846006840F0020008601A48406868
:1026B000194948600846406848600846406840F448
:1026C000806048600846406820F47C1048600846F6
:1026D000406840F4E81048600846006840F08070A8
:1026E000086000BF0C48006800F000700028F9D0B6
:1026F0000948406820F003000749486008464068E0
:1027000040F00200486000BF0348406800F00C0041
:102710000828F9D10CBD0000001002400020024042
:10272000042808D14FF0E021096941F004014FF07D
:10273000E022116107E04FF0E021096921F0040176
:102740004FF0E0221161704710B50548007801286C
:1027500005D1FFF7A7F8FFF7A9FBFFF7B5F810BD04
:102760005E18002010B51348006840F001001149C0
:10277000086008464068104908400E49486008460D
:1027800000680E4908400B4908600846006820F4BC
:10279000802008600846406820F4FE0048604FF43E
:1027A0001F008860FFF747FF4FF000600449086092
:1027B00010BD0000001002400000FFF8FFFFF6FE11
:1027C00008ED00E010B5FFF76DF840F225511E4806
:1027D00000F04CF810B31C4800F004F9C4B21B48D8
:1027E000008800F40040C8B91848008800F4804010
:1027F00060B10A2C03D000201449088020E013485F
:10280000008840F400401149088019E00D2C06D1E1
:102810000E48008840F480400C49088010E00B48C6
:102820000088C0F30D000A490C5408480088401C79
:102830000649088008460088C72801DD0020088076
:10284000FFF742F810BD00000038014020180020BA
:102850008022002021B1828942F40052828104E06A
:1028600082894DF6FF731A408281704770B5024627
:10287000002400230025002040F66A16B14200D152
:1028800000BFC1F3421501F01F03012606FA03F34E
:10289000012D02D19689334006E0022D02D1168A1D
:1028A000334001E0968A33400C12012606FA04F404
:1028B0001688344013B10CB1012000E0002070BD37
:1028C000F0B50346002400260025002040F66A17D4
:1028D000B94200D100BF1846C1F3421401F01F06EF
:1028E000012707FA06F5012C01D10C3004E0022C77
:1028F00001D1103000E014301AB107682F4307608F
:1029000002E00768AF430760F0BD00002DE9F04723
:1029100086B005460E460024A24600BFA146002709
:10292000B08900B100BF2F462C8A4CF6FF700440DE
:10293000F08804432C82AC894EF6F3100440B08832
:1029400031890843718908430443AC81AC8A4FF64E
:10295000FF400440B0890443AC8201A8FFF700FEA9
:102960001F48874202D1DDF810A001E0DDF80CA07D
:10297000A88900F4004040B10AEBCA0000EB0A103D
:1029800031684900B0FBF1F807E00AEBCA0000EB40
:102990000A1031688900B0FBF1F86420B8FBF0F050
:1029A00004012009642101FB1089A88900F400407A
:1029B00040B1322000EBC900B0FBF1F000F007009D
:1029C000044308E0322000EB09106421B0FBF1F071
:1029D00000F00F0004432C8106B0BDE8F087000032
:1029E0000038014001468888C0F30800704700BFE6
:1029F000FEE700002DE9F04105462C462021114854
:102A0000FEF726FD002619E0274607F08007802FF5
:102A100004D180210B48FEF71DFD03E08021094809
:102A2000FEF716FD6006040E20210648FEF712FD93
:102A300020210448FEF70CFD701CC6B2082EE3DB13
:102A4000BDE8F0810008014010B50446FEF706FD20
:102A50007820FFF7CFFFFEF725FD0020FFF7CAFF24
:102A6000FEF720FD2046FFF7C5FFFEF71BFDFEF732
:102A700009FD10BD10B50446FEF7F0FC7820FFF705
:102A8000B9FFFEF70FFD4020FFF7B4FFFEF70AFD88
:102A90002046FFF7AFFFFEF705FDFEF7F3FC10BD84
:102AA000490050EAC12018BF04204A0D18BF40F069
:102AB000010040F2FF72B2EB515F08BF40F002002C
:102AC000012808BF0520704730380A2801D20120AC
:102AD00070470020704700BF7047000010B56FF0CE
:102AE0000400FFF71DFE104800681049B0FBF1F02C
:102AF0000F4908700C4800680C49B0FBF1F441F232
:102B00008830444305200B4908804FF0E0200069DD
:102B100040F002004FF0E02108610846446100697E
:102B200040F00100086110BD0418002000127A0076
:102B3000181800201A18002070B504460F480078B5
:102B4000A0B10F48007888B90E480088844206DB9F
:102B50000C48008894FBF0F5284600F01DF8094861
:102B6000008894FBF0F100FB114084B24FF47A71BD
:102B700004FB01F000F016F870BD00005E180020A4
:102B8000511800201A18002010B5FEF7E5FE10BD00
:102B900010B5FEF701FF10BD10B504462046FFF743
:102BA00049F910BD2DE9F047074600264FF0E02017
:102BB000D0F814901148007807FB00F800BFFFF729
:102BC000E3FF4FF0E020856911E04FF0E0208469D9
:102BD000AC420CD0AC4202D2281B064403E0A9EB65
:102BE0000400284406442546464500D300E0ECE7AF
:102BF00000BFFFF7CDFFBDE8F087000018180020E8
:102C000000241AE00D490E48006800F079F90C49DB
:102C10000860FDF72BFB04460948006800F044F902
:102C200005462A460B4607A0FDF77AFB2046FDF72E
:102C300021FB4FF4FA70FFF77FFFE3E70AD7233C4D
:102C400000180020666C6F61745F6E756DE79A8482
:102C5000E580BCE4B8BA3A20252E34660D0A00009F
:102C600000BF054A128802F04002002AF9D0C2B221
:102C7000014B1B1D1A807047003801400CE00020FA
:102C8000064908605A20FFF757FF01200449C1F8A0
:102C900084016420FFF750FFF1E700008401224225
:102CA000000022420DE00020064908605020FFF796
:102CB00043FF01200449C1F888014FF4C870FFF7B1
:102CC0003BFFF0E7880122420000224210B5FFF7E7
:102CD00005FF4FF4A060FEF753FC4FF4E13000F025
:102CE00077F8FEF7EBFBFEF7AFFCFEF753FCFEF7C1
:102CF000C0FD0A23044A00210448FEF7C9FEFEF77E
:102D00007BFE002010BD00007C1A0020612D000811
:102D100008B519E0FEF73EFC64230CA2032106204F
:102D2000FEF77EFD4FF47A70FFF706FFFEF732FCE8
:102D30000A4808238022002100900846FEF749FC3B
:102D40004FF47A70FFF7F8FEE4E700002053544D8B
:102D5000333266313033524300000000000000205F
:102D600070B50446002500BFFEF76AFEFDF77EFA47
:102D7000054604230E4A00210E48FEF789FE06236D
:102D80000D4A00210D48FEF783FE05230C4A002161
:102D90000C48FEF77DFE07230B4A00210B48FEF787
:102DA00077FE0A20FEF7F0FF2846FDF763FA70BDB4
:102DB0007C1C00207D2C00087C1E0020A52C000817
:102DC0007C200020012C00087C220020112D00080E
:102DD00010B586B00446012144F20400FFF7B0FBB1
:102DE0004FF40070ADF8140003208DF81600182081
:102DF0008DF8170005A91C48FEF79FFA4FF4806074
:102E0000ADF8140004208DF8170005A91648FEF748
:102E100094FA25208DF8000003208DF801008DF82C
:102E2000020001208DF803006846FEF771FB019453
:102E30000020ADF80800ADF80A00ADF80C00ADF8C0
:102E400010000C20ADF80E0001A90848FFF75EFD48
:102E5000012240F225510548FFF732FD01210348C8
:102E6000FFF7F8FC06B010BD000801400038014033
:102E700010B500290AD00878002807D00548784402
:102E8000FDF750FE002801D0002010BD0248784414
:102E900010BD00009A0C0000920C00000808A0F57C
:102EA00000114FEA3101704743004FEAD30C4FEA5B
:102EB0003C0C43401FBF40070CF1605113F0FE4F24
:102EC00070471CF0006F03D100200CF000417047E8
:102ED0000CF0004343EA507010B540EACC0000F01B
:102EE00071F800BF000000924FEA0001FFF7D6BF63
:102EF0004FF000414FF00000A1F5002170470000A5
:102F000090EA010F48BF81F0004100F1AE80421A03
:102F10003CBF801A89184FEAD0524FF07F4C1CEA10
:102F2000410FA2EBD15318BF9CEA026F00F03B8027
:102F30004FF0004C4CEA00204CEA012121FA03FC3E
:102F400010EB0C0C1ED202F1FF325FEA1C2040EBAA
:102F5000C25038BF70471CF07F0F4FEA400C18BFBB
:102F6000BCF17F4F38BF7047C3F12003994008BFC1
:102F700020F00100BCF17F4F38BF7047A0F1C04086
:102F800000F066B84FEA3C00000A40EBC25028BF90
:102F90001CF0FF0F4FEA400CE6D018BFBCF17F4F8A
:102FA00038BF7047EAE79CEA026F05D010EA5C0F71
:102FB00008BF00F00040704710B500F003F800BFF4
:102FC00064FBBE3E0EF1020E2EF0030E5EF8044BC3
:102FD000244204D44FEA4102B2F17F4F11D84FEAA4
:102FE0004003B3F17F4F0CD80ED14FEAD07CB2F141
:102FF0007F4F0CEB4C0C0CF1020C08BF4CEBD17C5E
:1030000004E04FF0080C01E04FEAD17C0CEB4C03DC
:1030100024FA03F404F00704B4F1040C06D20EEB16
:10302000840CBDE810404CF0010C6047DFE80CF068
:10303000070802024FF00040A0F5800010BD0846CE
:10304000420018BFD2F1807288BF00F0004010BD6E
:10305000FF2141EAD050C0057047000090EA010FFF
:1030600048BF81F000413FF552AF421A04D882F0C8
:103070000042A0EB020011444FEAD0524FF07F4CC7
:103080001CEA410FA2EBD15318BF9CEA026F4AD051
:103090004FF0004C4CEA00204CEA012121FA03FCDD
:1030A000B0EB0C0C0FD412F0FE0F36D05FEA4C00E0
:1030B0001DD5001240EBC25038BF70471CF03F0FC7
:1030C00018BF70470BE0A2F101025FEA1C2040EB41
:1030D000C25038BF70471CF07F0F18BF7047C3F154
:1030E0002003994014BF401E20F001007047800863
:1030F0004FEA122308BF7047B0FA80FCA2EB0C0223
:10310000CCF1280C60FA0CF093EA122F04BF00EB0C
:10311000C25070474FEAC3707047130A5FEADC1071
:1031200008BF7047F6E79CEA026F04D010EA5C0F14
:1031300008BF0020704710B5FFF744FF40DFF63EA0
:1031400081F000407047FDF75ABA0000000000000F
:103150000000002F000000000700070000147F148B
:103160007F1400242A7F2A12006264081323003689
:103170004955225000000503000000001C224100B8
:10318000000041221C000014083E08140008083EFC
:103190000808000000A060000008080808080000F7
:1031A00060600000002010080402003E5149453EC6
:1031B0000000427F400000426151494600214145E4
:1031C0004B31001814127F10002745454539003C4B
:1031D0004A49493000017109050300364949493619
:1031E00000064949291E0000363600000000563608
:1031F00000000008142241000014141414140000EC
:103200004122140800020151090600324959513E79
:10321000007C1211127C007F49494936003E414131
:103220004122007F4141221C007F49494941007FE2
:1032300009090901003E4149497A007F0808087FD1
:103240000000417F4100002040413F01007F081401
:103250002241007F40404040007F020C027F007FFF
:103260000408107F003E4141413E007F09090906E4
:10327000003E4151215E007F091929460046494917
:1032800049310001017F0101003F4040403F001FE4
:103290002040201F003F4038403F00631408146363
:1032A00000070870080700615149454300007F414D
:1032B000410000552A552A55000041417F00000475
:1032C00002010204004040404040000001020400AE
:1032D000002054545478007F484444380038444413
:1032E000442000384444487F00385454541800089F
:1032F0007E0901020018A4A4A47C007F08040478BD
:103300000000447D4000004080847D00007F102844
:1033100044000000417F4000007C04180478007CD9
:103320000804047800384444443800FC2424241859
:103330000018242418FC007C080404080048545495
:10334000542000043F444020003C4040207C001CAE
:103350002040201C003C4030403C004428102844C1
:10336000001CA0A0A07C004464544C441414141409
:103370001414000000000000000000000000000025
:103380000000000000F800000000000000333000E2
:10339000000000100C06100C0600000000000000E9
:1033A000000040C07840C0784000043F04043F045F
:1033B0000400007088FC08300000001820FF211E67
:1033C0000000F008F000E018000000211C031E219E
:1033D0001E0000F00888700000001E212324192719
:1033E000211010160E000000000000000000000078
:1033F0000000000000E01804020000000007182090
:10340000400000020418E0000000004020180700FF
:103410000000404080F0804040000202010F0102A5
:103420000200000000F0000000000101011F010186
:103430000100000000000000000080B070000000EB
:103440000000000000000000000000010101010177
:10345000010100000000000000000030300000000A
:1034600000000000000080601804006018060100E1
:10347000000000E010080810E000000F10202010ED
:103480000F00001010F8000000000020203F202056
:1034900000000070080808887000003028242221ED
:1034A00030000030088888483000001820202011A3
:1034B0000E000000C02010F8000000070424243F84
:1034C000240000F80888880808000019212020112D
:1034D0000E0000E0108888180000000F1120201155
:1034E0000E0000380808C83808000000003F00003F
:1034F00000000070880808887000001C222121222A
:103500001C0000E010080810E00000003122221129
:103510000F00000000C0C0000000000000303000BC
:10352000000000000080000000000000806000003B
:103530000000000080402010080000010204081074
:103540002000404040404040400004040404040483
:103550000400000810204080000000201008040231
:103560000100007048080808F00000000030360133
:103570000000C030C828E810E000071827242314F2
:103580000B000000C038E0000000203C23020227AE
:10359000382008F8888888700000203F20202011FB
:1035A0000E00C03008080808380007182020201036
:1035B000080008F808080810E000203F202020102C
:1035C0000F0008F88888E8081000203F20202320FA
:1035D000180008F88888E8081000203F2000030041
:1035E0000000C03008080838000007182020221EFC
:1035F000020008F808000008F808203F2101012116
:103600003F20000808F8080800000020203F202084
:10361000000000000808F8080800C08080807F00D3
:10362000000008F888C028180800203F200126382C
:10363000200008F8080000000000203F2020202083
:10364000300008F8F800F8F80800203F003F003F7D
:10365000200008F830C00008F808203F20000718B4
:103660003F00E01008080810E0000F102020201094
:103670000F0008F808080808F000203F21010101A8
:103680000000E01008080810E0000F18242438504B
:103690004F0008F8888888887000203F2000030CBD
:1036A00030200070880808083800003820212122C6
:1036B0001C00180808F8080818000000203F200027
:1036C000000008F808000008F808001F202020204B
:1036D0001F000878880000C83808000007380E016D
:1036E0000000F80800F80008F800033C0700073C59
:1036F0000300081868808068180820302C03032C09
:1037000030200838C800C83808000000203F2000DA
:10371000000010080808C83808002038262120209A
:103720001800000000FE020202000000007F40407E
:103730004000000C30C0000000000000000106380E
:10374000C00000020202FE000000004040407F0076
:10375000000000000402020204000000000000005B
:103760000000000000000000000080808080808059
:103770008080000202040000000000000000000041
:103780000000000080808080000000192422222296
:103790003F2008F8008080000000003F1120201129
:1037A0000E000000008080800000000E112020200C
:1037B0001100000000808088F800000E1120201009
:1037C0003F200000808080800000001F22222222F3
:1037D0001300008080F0888888180020203F202077
:1037E00000000000808080808000006B949494939F
:1037F000600008F8008080800000203F2100002049
:103800003F2000809898000000000020203F2020EA
:103810000000000000809898000000C08080807F39
:10382000000008F8000080808000203F24022D3036
:103830002000000808F8000000000020203F2020A1
:1038400000008080808080808000203F20003F201A
:10385000003F8080008080800000203F2100002009
:103860003F200000808080800000001F202020205A
:103870001F00808000808000000080FFA1202011B8
:103880000E000000008080808000000E112020A02B
:10389000FF80808080008080800020203F212000E9
:1038A00001000000808080808000003324242424D4
:1038B0001900008080E0808000000000001F2020B0
:1038C00000008080000000808000001F2020201069
:1038D0003F20808080000080808000010E3008063C
:1038E000010080800080008080800F300C030C304D
:1038F0000F0000808000808080000020312E0E317B
:103900002000808080000080808080818E7018067A
:10391000010000808080808080000021302C2221E6
:10392000300000000000807C020200000000003F28
:10393000404000000000FF00000000000000FF0009
:1039400000000002027C800000000040403F0000B8
:103950000000000601010202040400000000000053
:10396000000000000100020001000300010002004D
:103970000100040001000200010003000100020038
:103980000100050001000200010003000100020027
:103990000100040001000200010003000100020018
:1039A0000100060001000200010003000100020006
:1039B00001000400010002000100030001000200F8
:1039C00001000500010002000100030001000200E7
:1039D00001000400010002000100030001000200D8
:1039E00001000700010002000100030001000200C5
:1039F00001000400010002000100030001000200B8
:103A000001000500010002000100030001000200A6
:103A10000100040001000200010003000100020097
:103A20000100060001000200010003000100020085
:103A30000100040001000200010003000100020077
:103A40000100050001000200010003000100020066
:103A50000100040001000200010003000100020057
:103A60000100000002400000000000A00000000073
:103A700005400000000000C8000000000C400000ED
:103A80000000409C00000000194000000020BCBE67
:103A90000000000034400000BFC91B8E000000047D
:103AA000B5400000504BCFD06607E2CF01000000C8
:103AB0006C4100003E8251AADFEEA73401000000F5
:103AC000D9420000DCB5A0E23A301F97FFFFFFFFAC
:103AD000B4450000FD25A0C8E9A3C14FFFFFFFFFCB
:103AE000FF3F00000000008000000000FF3F0000DA
:103AF0000000008000000000343B000800000020AF
:103B0000801800006C010008F841000880180020AF
:103B1000A81B0000D00100081C00000043000000AA
:103B2000F8FFFFFF0C0000000E0000000F00000077
:103B30002E00000040120003050911FF118905C382
:103B400000E000F000F8000100083A4428FF11AA44
:103B5000440001500B830138448292927401831116
:103B600020087C44FF017D7D7D04410540047D01EA
:103B7000FF6E920102613F033B01017E8141914949
:103B8000F20101011BC230083F3F0303F31311018F
:103B9000100601F1116181402005816111F1473367
:103BA000414107200401C12120A321C11431193151
:103BB00037040736D33303033F3F426006E0E0009B
:103BC000007FA8127FBF40040618060A10080000F4
:103BD00040407F4040A410041F204001A3201F1438
:103BE0003300600E6004300C03460534C210040735
:103BF00007060170090404048444444484078005D2
:103C00000484C4041501120A71112140073D0707FD
:103C1000C9200F0000101814121100000F1010100E
:103C20000F0F131F1015600D081012120D00001851
:103C300000000D120A51295130015E01528001012C
:103C40003B4514047F030CA915DE1C053854545859
:103C50002503080A2004047800003C40407C200032
:103C6000092CFFAAAAAA280800FF681006264949BD
:103C70004932101005020408100F0D6F00049D0159
:103C8000040D9D0004156343F80801240500F8188D
:103C900060E82404806018235720202923E01021A5
:103CA000A310E01449B4313908043C886818630D46
:103CB00015FF037DEA039DFF0371144DFF031D06ED
:103CC000043D2E040942E91C0640202020C04A047D
:103CD000110721EA3E40520452600E8118712951A9
:103CE000070D4769031C060C0A0A090C0004156B32
:103CF0002D00042004080F081510050809090E07F7
:103D00001D180430050909090F0A512951070DFF33
:103D100000040D220004DDD3045004C0E0F00101D2
:103D20002117ADAD0621391005F8F8F8FC0490060E
:103D3000F8F0E0C080512117C3FCFC180112D040FC
:103D400009FCFEFFFFFF7F3FFF0171E70214FE1732
:103D5000B17D42FC1E50063F1F0F0F1F402DA803D0
:103D600052F80C1117B1180D16F0062E033408E1A5
:103D70008001151752F80182001C4DCF08910D01EA
:103D800016180D1CD7050114E9E180520F010176C8
:103D9000809AE02802717F80431F3F013DAA0805F9
:103DA0007180CD2B0A415C39FE49672E7FAA0856E7
:103DB0000F19211759A30E1F7F0F0995D80121173D
:103DC0007DDC0A2B0307E511015B0F0FC951174278
:103DD000071741180D13BB031FC0C0C5081380800F
:103DE00008110A2DEE03F2C01352801302120013C1
:103DF000410A52000A7113B28013D10AD1BE600584
:103E000007070701B03D8603320113F20113820355
:103E1000135005018080010A112F700403070E0A58
:103E2000211D720113C10A420F140D3AF7050C113E
:103E30004000001C3EBCC0E0E0EFEFE0E0C0B83E58
:103E40003E4B0A0C101DFEFCFC8C8C8CACECEC8CFC
:103E50009C9C9CFCFC970B9005CFF8FEFF015C0539
:103E6000FEF8CF0F660B600FC0F0F878383838F8DE
:103E7000F0C00080E0F00B1DAC032C053838F0E0FA
:103E8000C70521010E10C086051D18052C0BBBFBB4
:103E9000FBF9FFFFFBFBBB3B3B04113A80073838C3
:103EA0001818183801617ED00507071FFF015C064E
:103EB0003F06070F0743051DF4054810E0F87F1F74
:103EC0000087CFFFFC787078FFDF8F86740507FDD1
:103ED000FF3FDADE0677061008FFFF07383F3F3165
:103EE000011DD1030D1DA30419C81C0500C3E7EF74
:103EF0000004180ABFBF3F3F1FCFEFC301FB420EB4
:103F0000491808E0F0FCDFCFC7C19018047FFFF12B
:103F1000D75C06C0E1FF7F1E31041F7FFE980611AB
:103F200001FC05C0F0F070FA05610B21AA0D20B26A
:103F30000C3E032A063D7D050C0413010303610AB0
:103F4000311A1128AD640E311200059F03030100E0
:103F5000014DF2074278011DF8076DD2072DE407E5
:103F6000D278018E3002081D0408312D310C93F8EF
:103F7000F8390D2CF80A1A7E919E814D106E81DE63
:103F8000062DC2072DA0045AE0CA7EC07F0D000492
:103F9000131F3FFF010F313F1F7B0F1C04C0F1F3C4
:103FA00073082C103E1E1E1C1C1C1E1E3E3F7FFF55
:103FB000F3F1E0010C2D65056C04070303E60FAC7B
:103FC0000803073FFFFEFCC06D051A1F991C057F03
:103FD0007F7F3F71059D88050D2D150E1DA808BD1D
:103FE000A5032F80C03B06D4040000705119CC5D9E
:103FF0006B062D90081C05606060E0E303710741CB
:10400000040D343E113D3806230F0E0121F36A07DB
:10401000E69119BE0F6A06112E30080C0C0C0F0722
:104020003F3F072D1C0361040D4020057C06C0E0C6
:1040300070F0E0540AA009E0F8380C1C78F0801FFA
:104040008C043870F05406FD6006013A7B2C05C0E4
:10405000703C1FDD042C040FFFF81D074404F0FC26
:104060001F0B3004031FFE833C05C0F87F0F95062D
:1040700090050F7FF8C0100D4F700CAC07010F3F7B
:10408000703E1FC3079006073F7C783F6D0C085AAF
:10409000030F3E707C3F07F2101C08C0C060603008
:1040A00030101B06170808E91DE50E1D26060C0B2F
:1040B0003E181030302020606040C00F0D0514FD08
:1040C0004C0630180C060276032D81080D1A731168
:1040D0001D1208880603060C0C182F0D3E9C074C79
:1040E00004FCFF0314092DE20C9EFC7A0742FE013A
:1040F000D2FC013EF8130B0C0445C0FF3FFE0E1C22
:104100000A031F7CE09F6FFFFFF7C80C3E1FC60C21
:104110001C06F7FFEF5FBF23042004BF5FEF1610FC
:1041200005FFBF1F1F0F08104BF7F7FF6F9FFFFF23
:10413000DFDFFFC8E0F8CE87831C0401071FD5042A
:104140007D72084FBFBE7D0BBFBFBE08083FFEFE9D
:10415000F8042D6A0A0E5303720F25DD3E03A207F1
:104160003E079F04510A2D9E04DD6A070D3EF310A1
:104170005C071C7EFEFE9C98BA160C0A1448484840
:10418000C89898103060BF0E1C125858C8ECECFE4E
:10419000B8B0B0B0B8FEECECEC4848231191132253
:1041A000EE130E324083051DB60A3F0E0C81061732
:1041B0001C08831DEE100C0412070F04AA16300908
:1041C0001F3F3434343737370603153818130D12B0
:1041D0005B1170080AD7233C00A24A56D00901029D
:1041E0000304060708098B1116611A0C054802041E
:0841F00006089E080000000013
:040000050800022DC0
:00000001FF
