:020000040800F2
:10000000B004002001010008612F0008632F0008E0
:10001000672F00086B2F00086F2F000800000000FA
:10002000000000000000000000000000752F000824
:10003000732F000800000000772F0008792F0008B8
:100040001B0100081B0100081B0100081B01000820
:100050001B0100081B0100082B3000081B010008D1
:100060001B0100081B0100081B0100081B01000800
:100070001B0100081B0100081B0100081B010008F0
:100080001B0100081B0100081B0100081B010008E0
:100090001B0100081B0100081B010008413000087B
:1000A0001B0100081B0100081B0100081B010008C0
:1000B0001B010008133600081B0100081B01000883
:1000C0001B0100081B0100081B0100081B010008A0
:1000D0001B0100081B010008873100081B010008F4
:1000E0001B0100081B0100081B010008DFF80CD0F1
:1000F00004F06CF9004800473D330008B0040020CC
:100100000648804706480047FEE7FEE7FEE7FEE7B1
:10011000FEE7FEE7FEE7FEE7FEE7FEE70302000874
:10012000ED0000080CB50020019000906C480068BC
:1001300040F480306A49086000BF6948006800F4F4
:10014000003000900198401C0190009818B9019867
:10015000B0F5A06FF1D16248006800F4003010B132
:100160000120009001E0002000900098012843D178
:100170005C48006840F010005A4908600846006872
:1001800020F0030008600846006840F002000860A4
:1001900053484068524948600846406848600846ED
:1001A000406840F4806048600846406820F47C1055
:1001B00048600846406840F4E81048600846006817
:1001C00040F08070086000BF4548006800F0007093
:1001D0000028F9D04248406820F0030040494860B8
:1001E0000846406840F00200486000BF3C48406854
:1001F00000F00C000828F9D10CBD10B5FFF792FFF4
:1002000010BD10B53648006840F001003449086060
:10021000084640683449084031494860084600684B
:10022000324908402E4908600846006820F48020C2
:1002300008600846406820F4FE0048604FF41F0044
:100240008860FFF7DAFF4FF000602949086010BDB1
:1002500010B5002100200022214B5B6803F00C0147
:1002600021B1042906D0082928D107E0214B224CCE
:10027000236027E01F4B204C236023E0184B5B6872
:1002800003F47010164B5B6803F48032022303EB17
:10029000904022B9194B4343174C23600DE0104B9B
:1002A0005B6803F4003323B1144B4343124C2360C7
:1002B00003E0104B4343104C236003E00D4B0E4C06
:1002C000236000BF00BF064B5B68C3F303130C4CF5
:1002D000E15C094B1B68CB40074C236010BD00005C
:1002E00000100240002002400000FFF8FFFFF6FE71
:1002F00008ED00E000127A000000002000093D0037
:100300000400002010B50446CC48844208D10121E5
:10031000042000F02DFB0021042000F029FB46E022
:10032000C748844208D10121082000F021FB0021A8
:10033000082000F01DFB3AE0C248844208D10121A8
:10034000102000F015FB0021102000F011FB2EE022
:10035000BD48844208D10121202000F009FB002182
:10036000202000F005FB22E0B848844208D101219A
:10037000402000F0FDFA0021402000F0F9FA16E0DC
:10038000B348844208D10121802000F0F1FA002115
:10039000802000F0EDFA0AE0AE48844207D1012146
:1003A000801500F0E5FA0021A01500F0E1FA10BD7B
:1003B00010B50121084600F0DBFA0021012000F011
:1003C000D7FA10BD2DE9F041024600250026002095
:1003D00000230024002791F803C00CF00F0591F8CA
:1003E00003C00CF0100CBCF1000F03D091F802C058
:1003F0004CEA050591F800C0BCF1000F31D014683B
:1004000000202BE04FF0010C0CFA00F3B1F800C013
:100410000CEA03069E4220D183004FF00F0C0CFA29
:1004200003F7BC4305FA03FC4CEA040491F803C04B
:10043000BCF1280F06D14FF0010C0CFA00FCC2F8F9
:1004400014C00AE091F803C0BCF1480F05D14FF089
:10045000010C0CFA00FCC2F810C0401C0828D1D3D3
:100460001460B1F800C0BCF1FF0F34DD5468002007
:100470002EE000F1080C4FF0010808FA0CF3B1F877
:1004800000C00CEA03069E4221D183004FF00F0CFE
:100490000CFA03F7BC4305FA03FC4CEA040491F898
:1004A00003C0BCF1280F05D100F1080C08FA0CF8C4
:1004B000C2F8148091F803C0BCF1480F07D100F1D5
:1004C000080C4FF0010808FA0CF8C2F81080401C24
:1004D0000828CED35460BDE8F0814FF6FF7101804B
:1004E000022181700421C170704702460020936888
:1004F0000B400BB1012000E00020704701468868E6
:1005000080B2704702460020D3680B400BB1012037
:1005100000E0002070470146C86880B27047016162
:100520007047416170470AB1016100E04161704765
:10053000C16070474FF480320A43826181618261F9
:1005400082698269704702460020434B18684FF663
:100550008073184040EA021008433F4B1860704710
:100560003E49C8617047F0B50A46002300240021C7
:10057000002500F00046B6F1004F02D1364EF16979
:1005800001E0354E7168C0F3034583B200F44016B4
:10059000B6F5401F08D121F070612F4E766826F025
:1005A00070662D4F7E6012E000F48016B6F5801F55
:1005B00006D1032606FA05F4A14341F0706106E076
:1005C000460D360103FA06F6B14341F0706122B1DF
:1005D000460D360103FA06F6314300F00046B6F147
:1005E000004F02D11C4EF16101E01B4E7160F0BD65
:1005F00030B500228B071C0F0F2303FA04F2164BB1
:1006000008338C1053F824309343134C08348D1066
:1006100044F8253023468C1053F824308C07240FDF
:1006200000FA04F423430C4C08348D1044F82530B0
:1006300030BD0A49DC310860704700000008014005
:10064000000C01400010014000140140001801405E
:10065000001C014000200140000001400000204239
:10066000DF48006840F00100DD4908600846406846
:10067000DC490840DA49486008460068DA49084021
:10068000D74908600846006820F4802008600846C2
:10069000406820F4FE0048604FF41F0088607047F7
:1006A000CF49096821F48031CD4A116011460968AB
:1006B00021F480211160B0F5803F03D0B0F5802F88
:1006C0000ED106E0C649096841F48031C44A116080
:1006D00007E0C349096841F4A021C14A116000E064
:1006E00000BF00BF704710B5014600220023002064
:1006F0004A11012A02D1BA4C236806E0022A02D12B
:10070000B74C236A01E0B64C636A01F01F02012472
:1007100094401C400CB1012000E0002010BD38B511
:10072000002000900024002500BF3120FFF7DBFFF0
:1007300005460098401C00900098B0F5A06F01D0CD
:10074000002DF2D03120FFF7CEFF08B1012400E0E8
:100750000024204638BD01460020A14A106820F040
:10076000F80040EAC10010607047A0490860704777
:10077000024600209A4B586820F47C1042EA01039C
:100780001843974B58607047984908667047014670
:100790000020934A506820F00300084350607047DF
:1007A0008F48406800F00C007047014600208C4ADA
:1007B000506820F0F0000843506070470146002068
:1007C000874A506820F4E060084350607047014653
:1007D0000020834A506820F4605040EAC100506015
:1007E000704729B17E4A527A02437D4B5A7204E027
:1007F0007B4A527A82437A4B5A7270477B49D8318E
:100800000860704701460020754A506820F4404057
:100810000843506070470021714A20321170704ABD
:1008200082F82010012802D004280AD104E0012116
:100830006B4A2032117005E00521694A203211709F
:1008400000E000BF00BF7047694908607047644915
:10085000096A0143624A1162704765494439086078
:10086000704730B500210022002400235C4D6D68E4
:1008700005F00C0121B1042905D0082923D105E098
:100880005C4D056022E05B4D05601FE0544D6D68D6
:1008900005F47012524D6D6805F48034022505EBA5
:1008A00092421CB9544D554305600BE04C4D6D68A8
:1008B00005F400351DB1504D5543056002E04D4D26
:1008C0005543056002E04B4D056000BF00BF444D3D
:1008D0006D6805F0F0010909484D6B5C0568DD4065
:1008E00045603F4D6D6805F4E061090A434D6B5C5E
:1008F0004568DD4085603A4D6D6805F46051C90A70
:100900003E4D6B5C4568DD40C560354D6D6805F456
:100910004041890B3A4D6B5CC568B5FBF3F5056149
:1009200030BD29B12E4A526902432D4B5A6104E071
:100930002B4A526982432A4B5A61704729B1284A8F
:1009400092690243264B9A6104E0254A92698243E8
:10095000234B9A61704729B1214AD2690243204B47
:10096000DA6104E01E4AD26982431D4BDA617047A6
:1009700029B11B4AD2680243194BDA6004E0184AD5
:10098000D2688243164BDA60704729B1144A126963
:100990000243134B1A6104E0114A12698243104B5F
:1009A0001A61704712494039086070470F49C8649E
:1009B00070470B49C87170470948406A40F0807021
:1009C00007494862704701460020054A92680A407C
:1009D0000AB1012000E00020704701498872704789
:1009E000001002400000FFF8FFFFF6FE0000424248
:1009F0008004424200127A0000093D0014000020E9
:100A00002400002031490143314A1160704770B51C
:100A1000002100230F22C47804B32D4C246804F471
:100A2000E064C4F5E064210AC1F10403CA404478DB
:100A300004FA03F18478144021430901254C067817
:100A4000A155047804F01F050124AC4005786D1110
:100A5000AD0005F1E025C5F8004109E0047804F097
:100A60001F050124AC401C4D0678761145F8264040
:100A700070BD1A4A0A400243154B1B1F1A6070478B
:100A800039B1134A121D12680243114B1B1D1A6023
:100A900006E00F4A121D126882430D4B1B1D1A609F
:100AA0007047042808D14FF0E021096941F00401A2
:100AB0004FF0E022116107E04FF0E021096921F0D9
:100AC00004014FF0E0221161704700000000FA05B8
:100AD0000CED00E000E400E080E100E080FFFF1F9B
:100AE000002044490860091D0860091D0860091DAF
:100AF000086041483F4914310860704700213D4972
:100B00008279002A3AD00A46126803689A430B4653
:100B10001A600A1D126803689A430B1D1A60027955
:100B200011440A6803681A430A60324A083212689C
:100B300003689A432F4B08331A601A1D1268036822
:100B40009A432C4B0C331A604279102A0ED11A1F8B
:100B5000126803681A43274B08331A601A1D12687B
:100B600003681A43234B0C331A600DE02149427984
:100B700011440A6803681A430A6005E002791144C7
:100B80000A6803689A430A60704700210160017196
:100B90000C2141710021817170471649103109689B
:100BA0000143144A10321160704701460020114A77
:100BB000143212680A400AB1012000E00020704798
:100BC0000C49143108607047014600200022094B8F
:100BD0001B6803EA0102074B14331B680B4013B177
:100BE0000AB1012000E0002070470249143108607A
:100BF0007047000000040140FFFF0F0010B50446DD
:100C0000FB48844209D101218803FFF7B1FE00218E
:100C10004FF48040FFF7ACFE32E0F648844209D141
:100C200001214804FFF7B1FE00214FF40030FFF727
:100C3000ACFE25E0F048844209D101218804FFF789
:100C4000A4FE00214FF48020FFF79FFE18E0EB4840
:100C5000844209D10121C804FFF797FE00214FF417
:100C60000020FFF792FE0BE0E548844208D1012105
:100C70000805FFF78AFE00214FF48010FFF785FE7C
:100C800010BD2DE9F04786B005460E460024A24669
:100C900000BFA1460027B08900B100BF2F462C8AB3
:100CA0004CF6FF700440F08804432C82AC894EF669
:100CB000F3100440B0883189084371890843044324
:100CC000AC81AC8A4FF6FF400440B0890443AC824B
:100CD00001A8FFF7C6FDC648874202D1DDF810A083
:100CE00001E0DDF80CA0A88900F4004040B10AEB57
:100CF000CA0000EB0A1031684900B0FBF1F807E0C8
:100D00000AEBCA0000EB0A1031688900B0FBF1F869
:100D10006420B8FBF0F004012009642101FB108974
:100D2000A88900F4004040B1322000EBC900B0FBBC
:100D3000F1F000F00700044308E0322000EB091056
:100D40006421B0FBF1F000F00F0004432C8106B0E9
:100D5000BDE8F0874FF41651016000218180C18009
:100D600001810C21418100218181704710B502462B
:100D70000020108A4FF2FF0318400B884C88234351
:100D80008C882343CC8823431843108210BD002154
:100D9000018041808180C180704721B1828942F405
:100DA0000052828104E082894DF6FF731A408281ED
:100DB0007047F0B50346002400260025002040F6C9
:100DC0006A17B94200D100BF1846C1F3421401F0BE
:100DD0001F06012707FA06F5012C01D10C3004E0AB
:100DE000022C01D1103000E014301AB107682F43F3
:100DF000076002E00768AF430760F0BD1AB1838A5D
:100E00000B43838202E0838A8B4383827047028A8A
:100E10004FF6F0731A400282028A0A430282704738
:100E200082894FF2FF731A40828182890A4382814C
:100E3000704721B1828942F00202828104E08289F6
:100E40004FF6FD731A4082817047028A4FF6DF73B6
:100E50001A400282028A0A430282704721B1028A42
:100E600042F48042028204E0028A4BF6FF731A4089
:100E700002827047C1F30802828070470146888869
:100E8000C0F308007047818941F0010181817047FA
:100E9000028BD2B20283028B42EA012202837047A4
:100EA000028B02F47F420283028B0A430283704763
:100EB00021B1828A42F02002828204E0828A4FF6C7
:100EC000DF731A408282704721B1828A42F0100299
:100ED000828204E0828A4FF6EF731A408282704762
:100EE00021B1828A42F00802828204E0828A4FF6AF
:100EF000F7731A408282704721B1828942F400421E
:100F0000828103E08289C2F30E028281704721B19F
:100F1000828A42F40062828204E0828A4FF2FF7386
:100F20001A4082827047828A4FF6FB731A4082828F
:100F3000828A0A438282704721B1828A42F0020289
:100F4000828204E0828A4FF6FD731A4082827047E3
:100F500002460020B1F5007F00D100BF13880B408E
:100F60000BB1012000E00020704701F40072B2F5DF
:100F7000007F00D100BFCA430280704770B50246AF
:100F8000002400230025002040F66A16B14200D15B
:100F900000BFC1F3421501F01F03012606FA03F357
:100FA000012D02D19689334006E0022D02D1168A26
:100FB000334001E0968A33400C12012606FA04F40D
:100FC0001688344013B10CB1012000E0002070BD40
:100FD00010B50022002340F66A14A14200D100BFE0
:100FE0000A1201249440A3B2DC43048010BD000027
:100FF000003801400044004000480040004C0040E0
:101000000050004010B50446FA48844208D101213E
:101010004015FFF7ADFC00216015FFF7A9FC17E0B4
:10102000F548844208D101210015FFF7A1FC0021F9
:101030002015FFF79DFC0BE0F048844208D1012108
:10104000C803FFF795FC00214FF40040FFF790FC28
:1010500010BD30B50246002000235068E84C204007
:101060000D790C6844EA0524204350609068E54CF3
:101070002040D1E902542C434D7944EA45042043F1
:101080009060D06A20F470000C7C641EE4B22343AC
:1010900040EA0350D06230BD00210160017141710E
:1010A0008160C16001210174704721B1826842F002
:1010B0000102826003E0826822F0010282607047D0
:1010C00021B1826842F48072826003E0826822F477
:1010D00080728260704710B50023CBB21AB14468A9
:1010E0001C43446002E044689C43446010BD816836
:1010F00041F0080181607047014600208A6802F0D3
:1011000008020AB1012000E000207047816841F028
:10111000040181607047014600208A6802F00402E1
:101120000AB1012000E00020704721B1826842F43A
:10113000A002826003E0826822F4A002826070470D
:10114000014600208A6802F480020AB1012000E012
:101150000020704710B50A4600210023416821F4A1
:101160006041531E41EA4331416010BD21B14268E4
:1011700042F40062426003E0426822F4006242608E
:101180007047F0B504460D4600200021092D11DD01
:10119000E068A5F10A0606EB4607072606FA07F1FE
:1011A0008843A5F10A0606EB460603FA06F1084352
:1011B000E0600CE0206905EB4507072606FA07F119
:1011C000884305EB450603FA06F108432061072A28
:1011D0000FDA606B561E06EB86071F2606FA07F12C
:1011E0008843561E06EB860605FA06F1084360633F
:1011F00022E00D2A0FDA206BD61F06EB86071F268A
:1012000006FA07F18843D61F06EB860605FA06F1B3
:101210000843206310E0E06AA2F10D0606EB8607A2
:101220001F2606FA07F18843A2F10D0606EB860693
:1012300005FA06F10843E062F0BD21B1826842F48C
:101240008012826003E0826822F48012826070471C
:101250000146C86C80B2704766484C3000687047E1
:1012600021B1426842F48062426003E0426822F4A5
:1012700080624260704721B1426842F4805242600D
:1012800003E0426822F48052426070470A4600211F
:10129000816821F4E04111438160704721B1826887
:1012A00042F40042826003E0826822F400428260DD
:1012B000704721B1826842F40212826003E08268C2
:1012C00022F4021282607047014600208A6802F40C
:1012D00000120AB1012000E000207047F0B504467A
:1012E0001546002000220026092911DDE068A1F141
:1012F0000A0707EB470C072707FA0CF29043A1F106
:101300000A0707EB470703FA07F21043E0600CE017
:10131000206901EB410C072707FA0CF2904301EB1F
:10132000410703FA07F210432061A06BC0F3015696
:10133000EF1C06F1010CA7EB0C0707EB870C1F272E
:1013400007FA0CF29043EF1C06F1010CA7EB0C0717
:1013500007EB870701FA07F21043A063F0BD10B551
:101360000A4600210023816B21F44011531E41EAFB
:101370000351816310BD08B5002300930090009BCA
:101380000B440093009B1A6008BD08B5024600207C
:101390000090009201F12800009B184400900098F2
:1013A000006880B208BD0A4600214168164B19400A
:1013B0001143416070474162826270470A460021D2
:1013C000416821F01F0111434160704740B1094954
:1013D0000831096841F40001064A0832116007E04B
:1013E00004490831096821F40001024A08321160F9
:1013F000704700000024014000280140003C0140EB
:10140000FFFEF0FFFDF7F1FFFFFD3FFF024600206A
:1014100013680B400BB1012000E000207047CA4365
:101420000260704770B502460020002300240B12B2
:101430005568CEB205EA060415681D4015B10CB119
:10144000012000E0002070BD00220A12D343036097
:101450007047000010B50446FE48844208D10121BF
:10146000C014FFF785FA0021E014FFF781FAC4E009
:10147000B4F1804F08D101210846FFF786FA002118
:101480000120FFF782FAB8E0F348844208D1012135
:101490000220FFF77AFA00210220FFF776FAACE08B
:1014A000EE48844208D101210420FFF76EFA0021A2
:1014B0000420FFF76AFAA0E0E948844208D101213C
:1014C0000820FFF762FA00210820FFF75EFA94E097
:1014D000E448844208D101211020FFF756FA002188
:1014E0001020FFF752FA88E0DF48844208D101213A
:1014F0002020FFF74AFA00212020FFF746FA7CE07F
:10150000DA48844208D101214014FFF731FA002162
:101510006014FFF72DFA70E0D548844209D101210B
:10152000C804FFF725FA00214FF40020FFF720FA46
:1015300063E0D048844209D101210805FFF718FA79
:1015400000214FF48010FFF713FA56E0CA48844296
:1015500009D101214805FFF70BFA00214FF40010D3
:10156000FFF706FA49E0C548844208D1012140202E
:10157000FFF70BFA00214020FFF707FA3DE0C048D3
:10158000844208D101218020FFF7FFF9002180204B
:10159000FFF7FBF931E0BB48844208D101218015F7
:1015A000FFF7F3F90021A015FFF7EFF925E0B648A2
:1015B000844209D101210804FFF7DAF900214FF430
:1015C0008030FFF7D5F918E0B048844209D10121F5
:1015D0004804FFF7CDF900214FF40030FFF7C8F9B8
:1015E0000BE0AB48844208D101218804FFF7C0F921
:1015F00000214FF48020FFF7BBF910BD00220288C4
:10160000944B98420ED0994B98420BD0B0F1804F3A
:1016100008D0914B984205D0904B984202D0904B05
:10162000984204D14FF68F731A404B881A438D4B62
:10163000984207D08C4B984204D04FF6FF431A4093
:10164000CB881A4302808B8883850B880385814B66
:1016500098420BD0854B984208D08B4B984205D0CE
:101660008A4B984202D08A4B984201D10B7A03866A
:1016700001238382704770B5002400220023058C6B
:101680004FF6FE7635400584028C8388048B4FF636
:101690008F752C40B51E2C400D882C43751E2A409A
:1016A0000D892A434D882A436A4DA8420BD06F4DBD
:1016B000A84208D0744DA84205D0744DA84202D06B
:1016C000734DA84213D14FF6F7752A404D892A432E
:1016D0004FF6FB752A408D882A434FF6FF652B4055
:1016E0004FF6FF552B408D892B43CD892B438380AB
:1016F0000483CD888586028470BD70B500240022E5
:101700000023058C4FF6EF7635400584028C8388E4
:10171000048B48F6FF752C404FF6FF452C400D8892
:101720004FF6FF7606EA05252C434FF6DF752A4073
:101730000D8906EA05152A434D8806EA05152A4350
:10174000444DA84202D0494DA8421DD14FF67F75A5
:101750002A404D894FF6FF7606EA05152A434FF6D3
:10176000BF752A408D8806EA05152A434FF6FF35D6
:101770002B404FF2FF752B408D8906EA85052B43E0
:10178000CD8906EA85052B4383800483CD880587B0
:10179000028470BD70B5002400220023058C4FF632
:1017A000FF6635400584028C8388848B4FF68F75E5
:1017B0002C404FF6FC752C400D882C434FF6FF55FE
:1017C0002A400D894FF6FF7606EA05252A434D8803
:1017D00006EA05252A431F4DA84202D0234DA84200
:1017E0001DD14FF2FF752A404D894FF6FF7606EA6C
:1017F00005252A434FF6FF352A408D8806EA052540
:101800002A434EF6FF752B404DF6FF752B408D8910
:1018100006EA05152B43CD8906EA05152B4383807F
:101820008483CD888587028470BD70B50022002333
:101830000024058C4EF6FF7635400584038C8488A1
:10184000828B48F6FF752A404FF6FF452A400D88E7
:1018500020E00000002C014000040040000800408F
:10186000000C004000100040001400400034014013
:10187000004C01400050014000540140001800405D
:10188000001C004000200040004001400044014096
:10189000004801404FF6FF7606EA05252A434DF63B
:1018A000FF752B400D8906EA05352B434D8806EA66
:1018B00005352B43FA4DA84202D0FA4DA84208D173
:1018C0004BF6FF752C408D894FF6FF7606EA85159D
:1018D0002C4384808283CD88A0F84050038470BD5F
:1018E000828B4FF2FF331A408283828B4FF6FF7355
:1018F00003EA01231A4382837047F0B50C4615466C
:10190000002200210026078C4EF6FF7C07EA0C0718
:101910000784828B018C4FF6FF7707EA043640F686
:10192000FF473A404FF6FF7707EA05273A434FF65D
:10193000FF7707EA03373A43D94FB8420ED0D94F61
:10194000B8420BD0B0F1804F08D0D74FB84205D085
:10195000D64FB84202D0D64FB84206D14DF6FF77E7
:10196000394046F48057394305E047F6FF57394080
:1019700044F48057394382830184F0BD828B4FF653
:10198000F3731A408283828B0A4382837047F0B5D7
:101990000C461546002200210026078C4FF6FF6CEE
:1019A00007EA0C070784828B018C4FF6FF7707EA62
:1019B00004264FF60C773A404FF6FF7707EA0317F5
:1019C0002F433A43B64FB8420ED0B64FB8420BD071
:1019D000B0F1804F08D0B44FB84205D0B34FB842F1
:1019E00002D0B34FB84206D14FF6FF57394046F404
:1019F0008077394305E04FF2FF57394044F4807750
:101A0000394382830184F0BD028B4FF2FF331A40C9
:101A10000283028B4FF6FF7303EA01231A4302830A
:101A20007047F0B50C461546002200210026078CB1
:101A30004FF6EF7C07EA0C070784028B018C4FF608
:101A4000FF7707EA041640F6FF473A404FF6FF7764
:101A500007EA03373A434FF6FF7707EA05273A4389
:101A60008F4FB8420ED08F4FB8420BD0B0F1804F9D
:101A700008D08D4FB84205D08C4FB84202D08C4F61
:101A8000B84206D14FF6DF77394046F010073943A8
:101A900005E04FF65F77394044F010073943028381
:101AA0000184F0BD028B4FF6F3731A400283028B60
:101AB0000A4302837047F0B50C4615460022002108
:101AC000068C4FF6FE773E400684028B018C4FF663
:101AD0000C7632407E1C06EA03162E433243704ECB
:101AE000B0420ED06F4EB0420BD0B0F1804F08D054
:101AF0006D4EB04205D06D4EB04202D06C4EB04239
:101B000006D14FF6FD76314044F00106314305E041
:101B10004FF6F576314044F00106314302830184EB
:101B2000F0BD70B505460C465D4885420ED05D4857
:101B300085420BD0B5F1804F08D05B48854205D077
:101B40005A48854202D05A48854200D100E000BF81
:101B5000208850B92389A28861882846FFF7ABFF07
:101B6000E1882846FFF79EFF25E0208804280AD157
:101B70002389A28861882846FFF753FFE188284619
:101B8000FFF742FF17E0208808280AD12389A2889E
:101B900061882846FFF7FBFEE1882846FFF7EEFE46
:101BA00009E02389A28861882846FFF7A6FEE1881C
:101BB0002846FFF795FE70BD2DE9F04105460C461D
:101BC00000260127608808B9022600E00026A088C8
:101BD000012801D1022700E001272088A0B923892C
:101BE000A28861882846FFF766FFE1882846FFF74C
:101BF00059FF23893A4631462846FFF712FFE1880C
:101C00002846FFF701FF13E02389A2886188284650
:101C1000FFF707FFE1882846FFF7F6FE23893A46DB
:101C200031462846FFF747FFE1882846FFF73AFF8D
:101C3000BDE8F0810A884B881A438B881A43CB8809
:101C40001A430B891A434B891A438B891A43A0F80C
:101C5000442070474FF6FF71818000210180C180D0
:101C60004180017270470021018041808180C180E4
:101C7000018141818181C1817047002101804180C2
:101C8000012181800021C1800181704700210180F4
:101C900041808180C1800181418181817047000044
:101CA000002C0140003401400004004000080040C6
:101CB000000C004021B1028842F00102028004E0E1
:101CC00002884FF6FE731A400280704731B1B0F8B7
:101CD000442042F40042A0F8442005E0B0F844203B
:101CE000C2F30E02A0F8442070471AB183890B4357
:101CF000838102E083898B438381704781827047AF
:101D000041EA0203A0F8483070471AB183890B43B7
:101D1000838102E083898B438381704701894FF679
:101D2000F8721140018170470A46002101894FF67F
:101D30008F73194011430181704730B504460D4639
:101D400029462046FFF7F0FF208940F00700208158
:101D500030BD2DE9F04104460D4616461F46602D64
:101D600006D13B46012231462046FFF75AFE05E0E8
:101D70003B46012231462046FFF79DFE294620467C
:101D8000FFF7D2FF208940F007002081BDE8F081F5
:101D900030B50C4600210189C9B24FF6FF7505EA3E
:101DA0000325154325432943018130BD2DE9F04129
:101DB00005460E4617469846002443463A463146A5
:101DC0002846FFF7E5FF2C894FF6F870044044F0F1
:101DD00007044FF68F70044044F070042C81BDE876
:101DE000F081F0B504460D4616461F463B46324686
:101DF00029462046FFF7CCFF208940F4804020810F
:101E0000F0BD0185828270470A46002101884FF6A5
:101E10008F731940114301807047F0B50C46154689
:101E20001E460021002200230189028B038C4FF6FD
:101E3000F877394021434FF6FC473A4040F201170A
:101E40003A434FF6DD773B404FF6FF7707EA061738
:101E50002F433B43018102830384F0BD0A460021E6
:101E6000018B4FF68F7319401143018370470A4667
:101E70000021018B48F6FF7319404FF6FF7303EA08
:101E800002231943018370470A460021818B4FF6D4
:101E90008F7319401143818370470A460021818B5B
:101EA00048F6FF7319404FF6FF7303EA0223194304
:101EB0008183704721B1028842F08002028004E0F1
:101EC00002884FF67F731A400280704721B18288E2
:101ED00042F00402828004E082884FF6FB731A40CD
:101EE0008280704721B1828842F00802828004E03B
:101EF00082884FF6F7731A408280704721B182883A
:101F000042F00102828004E082884FF6FE731A409C
:101F1000828070470A460021018B4FF6F773194003
:101F20001143018370470A460021018B4FF2FF7372
:101F300019404FF6FF7303EA0223194301837047E8
:101F40000A460021818B4FF6F773194011438183B4
:101F500070470A460021818B4FF2FF7319404FF6FC
:101F6000FF7303EA02231943818370470A46002165
:101F7000018B4FF6FB7319401143018370470A46EA
:101F80000021018B4FF6FF3319404FF6FF7303EA30
:101F900002231943018370470A460021818B4FF6C3
:101FA000FB7319401143818370470A460021818BDE
:101FB0004FF6FF3319404FF6FF7303EA022319432C
:101FC000818370470A460021018B4FF67F731940C9
:101FD0001143018370470A460021018BC1F30E01B2
:101FE0004FF6FF7303EA02231943018370470A4641
:101FF0000021818B4FF67F73194011438183704715
:102000000A460021818BC1F30E014FF6FF7303EAEC
:1020100002231943818370470A460021018C4FF641
:10202000FD7319401143018470470A460021018C59
:102030004FF6F77319401143018470470A46002197
:10204000018C4FF6DF7319404FF6FF7303EA02135A
:102050001943018470470A460021018C4FF67F73B3
:1020600019404FF6FF7303EA0213194301847047C6
:102070000A460021018C4FF6FF5319404FF6FF73BB
:1020800003EA02231943018470470A460021018CA8
:102090004FF2FF7319404FF6FF7303EA022319430F
:1020A000018470470A460021018C4DF6FF731940E8
:1020B0004FF6FF7303EA023319430184704730B5CA
:1020C000002301248C40A3B2048C9C430484048C20
:1020D00002FA01F5ADB22C43048430BD30B50023C3
:1020E00004248C40A3B2048C9C430484048C02FA24
:1020F00001F5ADB22C43048430BD70B50346002019
:1021000000241846183001258D40ACB21D8CA54323
:102110001D8409B1082909D100EB6100056825F08B
:10212000700505600568154305600EE00D1FC5F3D9
:102130004E052844056825F4E045056005684FF61E
:10214000FF7606EA02263543056070BD21B102889C
:1021500042F00202028004E002884FF6FD731A404A
:102160000280704721B1028842F00402028004E03C
:1021700002884FF6FB731A400280704721B18288B3
:1021800042F08002828004E082884FF67F731A401A
:102190008280704702884FF6F7731A4002800288E7
:1021A0000A430280704782884FF68F731A408280FC
:1021B00082880A438280704702894FF6F8731A407A
:1021C000028102890A430281704702894FF67F73B8
:1021D0001A40028102890A43028170478184704754
:1021E0008185704781867047018770478187704776
:1021F000A0F84010704702884FF6FF431A40028053
:1022000002880A43028070470146888E7047014663
:10221000088F70470146888F70470146B1F840002B
:1022200070470146888C70470146088D704702460A
:102230000020138A0B400BB1012000E00020704702
:10224000CA430282704730B50246002000230024B2
:10225000158A05EA0103958905EA010413B10CB159
:10226000012000E0002030BDCA4302827047000018
:10227000002109E0002201E0531C9AB240F6B83375
:102280009A42F9DB4B1C99B28142F3DB70474FF461
:102290000072FE4B1A6052101A6020221B1F1A6037
:1022A000FB4AD06020221B1D1A601B1F1A60D2003F
:1022B0001A60F74AD16020221B1D1A601B1F1A608A
:1022C000D2001A60704700B501210020FFF7DFFF40
:1022D0004FF47A70FFF7CCFF00210120FFF7D7FF02
:1022E00041F290711020FFF7D2FF4FF41C51602093
:1022F000FFF7CDFF01216120FFF7C9FF0221462032
:10230000FFF7C5FF48F210011320FFF7C0FF48F2A6
:10231000FE011220FFF7BBFF4FF4A0610220FFF780
:10232000B6FF41F230010320FFF7B1FF40F2033165
:102330003020FFF7ACFF40F203313120FFF7A7FF59
:1023400040F203313220FFF7A2FF4FF440713320F7
:10235000FFF79DFF03213420FFF799FF40F203317F
:102360003520FFF794FF14213620FFF790FF40F24D
:1023700003313720FFF78BFF40F203313820FFF79E
:1023800086FF40F203313920FFF781FF4FF440719F
:102390003A20FFF77CFF03213B20FFF778FF40F254
:1023A00003313C20FFF773FF4FF4A0513D20FFF7AE
:1023B0006EFF4FF400719220FFF769FF40F2033186
:1023C0009320FFF764FF40F60D019020FFF75FFFB9
:1023D00041F218010320FFF75AFF40F27311072062
:1023E000FFF755FF00BD00B543F20801E320FFF7FA
:1023F0004EFF1221E720FFF74AFF41F23121EF2083
:10240000FFF745FF00210120FFF741FF4FF4E06196
:102410000220FFF73CFF41F230010320FFF737FFB6
:1024200000210420FFF733FF40F207210820FFF7C7
:102430002EFF00210920FFF72AFF00210A20FFF7C5
:1024400026FF00210C20FFF722FF00210D20FFF7BF
:102450001EFF00210F20FFF71AFF00211020FFF7B9
:1024600016FF07211120FFF712FF00211220FFF7AE
:102470000EFF00211320FFF70AFF4FF47A70FFF7D9
:10248000F7FE41F290611020FFF701FF40F2272193
:102490001120FFF7FCFE3220FFF7EAFE1D2112207B
:1024A000FFF7F5FE3220FFF7E3FE4FF40061132043
:1024B000FFF7EDFE14212920FFF7E9FE0B212B2069
:1024C000FFF7E5FE3220FFF7D3FE00212020FFF7C3
:1024D000DEFE00212120FFF7DAFE07213020FFF782
:1024E000D6FE40F207713120FFF7D1FE06213220DF
:1024F000FFF7CDFE40F204713520FFF7C8FE41F62C
:1025000004713620FFF7C3FE04213720FFF7BFFE1A
:1025100000213820FFF7BBFE40F206713920FFF79B
:10252000B6FE40F201713C20FFF7B1FE0F213D20C5
:10253000FFF7ADFE00215020FFF7A9FEEF2151204B
:10254000FFF7A5FE00215220FFF7A1FE40F23F1148
:102550005320FFF79CFE4FF41C516020FFF797FEBD
:1025600001216120FFF793FE00216A20FFF78FFE13
:1025700000218020FFF78BFE00218120FFF787FEDE
:1025800000218220FFF783FE00218320FFF77FFEDA
:1025900000218420FFF77BFE00218520FFF777FED6
:1025A00010219020FFF773FE00219220FFF76FFEAD
:1025B00003219320FFF76BFE4FF488719520FFF7FE
:1025C00066FE00219720FFF762FE00219820FFF7AA
:1025D0005EFE41F218010320FFF759FE40F273112D
:1025E0000720FFF754FE00BD08B54FF6FF70ADF8A9
:1025F000000003208DF8020010208DF803006946CA
:102600002348FDF7DFFE08BD1CB50420ADF800002F
:1026100003208DF8020010208DF8030069461D4844
:10262000FDF7D0FE04211B48FDF779FF4FF6FF7040
:10263000ADF8040003208DF8060048208DF807004F
:1026400001A91348FDF7BEFE1CBD70B504464FF44A
:1026500000700E490860401008602020091F0860C3
:102660000B48C4602020091D0860091F0860C000D5
:102670000860FFF7C9FF4FF4806004490860044810
:10268000806885B20815091F086005E0140C014038
:102690000010014000140140FFF7A6FF4FF4007046
:1026A000F8490860284670BD08B501212820FEF7CA
:1026B00045F901211020FEF741F901210846FEF7F6
:1026C0003DF90121F048FDF74EFF4FF4E660ADF80B
:1026D000000001208DF8020010208DF803006946EB
:1026E000E8481038FDF76EFEFFF77EFF08BD10B515
:1026F000FFF7DAFF0020FFF7A8FFE449088008464B
:10270000008848F23021884202D1FFF7DCFD01E069
:10271000FFF769FE0020FFF798FFDC49088010BD35
:1027200001B5BDF80000DA49088008BD01B5BDF863
:102730000000D849088008BD30B504460D46214642
:102740002020FFF7A4FD29462120FFF7A0FD30BD82
:102750004FF40071CB4A121D11604910121F116015
:1027600020211160CC49C8602021121D1160121F68
:102770001160C90011604900116070474FF400708A
:10278000C049091D0860401008602020091F08602A
:102790002220C149C8602020BA49091D0860091FCC
:1027A0000860C00008604000086070472DE9F043F1
:1027B00006468946174600240025A046B0464946ED
:1027C0004046FFF7B9FF00BF1EE0FFF7D7FF002527
:1027D0000FE037F814000121A940084020B9AD48A6
:1027E0000088FFF7B5FF03E0A9480088FFF7B0FFB6
:1027F0006D1C102DEDD308F1010000F0FF084946D3
:102800004046FFF799FF641C182CDED3BDE8F08327
:1028100070B505460E461446A4F12000C4B204EB80
:1028200044009E4901EB001231462846FFF7BEFFE7
:1028300070BDF0B507460C46002540F23F1609E092
:10284000227831463846FFF7E3FFA6F1100086B242
:10285000641C6D1C207808B1142DF1D3F0BD10B5A7
:1028600004468FA12046FFF7E4FF10BD30B50546B2
:10287000002400210846FFF75FFFFFF77FFF00BF3E
:1028800003E02846FFF764FF641CB4F5963FF8D3D5
:1028900030BDF0B504460D4616461F46B44206DB71
:1028A000A01B401C81B25020FFF7F1FC03E0002187
:1028B0005020FFF7ECFC21465120FFF7E8FCBD4219
:1028C00006DBE81B401C81B25220FFF7E0FC03E06E
:1028D00000215220FFF7DBFC29465320FFF7D7FCED
:1028E00029462046FFF728FFF0BD00B54FF4A0733E
:1028F000F022591EEF20FFF7CCFF41F21801032010
:10290000FFF7C5FC00BD2DE9F04106468846154697
:102910001F46002441463046FFF70EFF5FB9FFF720
:102920002DFF00BF04E05A480088FFF711FF641C28
:10293000AC42F8D310E000240CE0FFF71FFF54482E
:102940000088FFF705FF701CC6B241463046FFF70E
:10295000F3FE641CAC42F0D3BDE8F081F0B505464F
:102960000E4617461C460023224631462846FFF7EE
:10297000CAFFE919C8B2002322463146FFF7C3FF58
:1029800001233A4631462846FFF7BDFF301B401C65
:1029900081B201233A462846FFF7B5FFF0BD2DE985
:1029A000F04306460F4690460320A0EB480900245A
:1029B000454688E07A1991B23219D0B2FFF7BCFED1
:1029C000FFF7DCFE32480088FFF7C2FE7A1B91B2A7
:1029D0003219D0B2FFF7B0FEFFF7D0FE2C480088C6
:1029E000FFF7B6FE7A1991B2321BD0B2FFF7A4FE00
:1029F000FFF7C4FE26480088FFF7AAFE7A1B91B2B3
:102A0000321BD0B2FFF798FEFFF7B8FE20480088CF
:102A1000FFF79EFE3A1991B27219D0B2FFF78CFE01
:102A2000FFF7ACFE1A480088FFF792FE3A1B91B2FE
:102A30007219D0B2FFF780FEFFF7A0FE144800889D
:102A4000FFF786FE3A1991B2721BD0B2FFF774FEFF
:102A5000FFF794FE0E480088FFF77AFE3A1B91B20A
:102A6000721BD0B2FFF768FEFFF788FE08480088A7
:102A7000FFF76EFEB9F1000F1EDA062000EB8400AE
:102A800081441FE0100C0140000130002C000020A8
:102A9000280000202A00002000100140584D0008A6
:102AA0002020202020202020202020202020202026
:102AB0002020202000000000601B0A2101EB800084
:102AC00081446D1E641CAC427FF674AFBDE8F08398
:102AD00070B506460024002540F23F110020FFF7A4
:102AE0002BFEFFF74BFE00BF14E000250FE056F869
:102AF00024000121A940084020B95F480088FFF761
:102B000027FE03E05D480088FFF722FE6D1C202DA4
:102B1000EDD3641CB4F5166FE7D370BD70B50446F1
:102B2000002500266688A08846EA00466589A089B7
:102B300045EA0045701B46082C4441F20801032079
:102B4000FFF7A5FBFFF71AFE002504E02088FFF73A
:102B5000FFFDA41C6D1CB542F8D341F218010320FF
:102B6000FFF795FB70BD10B54FF400704449086045
:102B7000401008602020091F086022204149C860D9
:102B800020203F490860091F0860C0000860FFF767
:102B90003BFD4FF480603A4908603A48806884B24F
:102BA0000815091F0860FFF71FFD4FF40070344936
:102BB000091F0860204610BD00B500211020FFF756
:102BC00066FB00211120FFF762FB00211220FFF7B6
:102BD0005EFB00211320FFF75AFB1420FFF748FB90
:102BE00041F2B0711020FFF752FB40F23711112073
:102BF000FFF74DFB0520FFF73BFB40F23911122098
:102C0000FFF745FB0520FFF733FB4FF4E851132096
:102C1000FFF73DFB13212920FFF739FB0520FFF7C4
:102C200027FB40F273110720FFF731FB00BD00B511
:102C300040F273110720FFF72AFB00BD00B5002109
:102C40000720FFF724FB00BD30B5054600210846EC
:102C5000FFF772FDFFF792FD002409E015F814203C
:102C60006100491C695C42EA0120FFF771FD641CA8
:102C7000B4F5963FF2DB30BD2A000020280000208A
:102C8000140C01400010014008B501210820FDF797
:102C900055FE01210A48FDF766FC1020ADF8000042
:102CA00003208DF8020010208DF8030069460548C6
:102CB000FDF788FB012210210248FDF734FC08BD16
:102CC00000013000000C014008B58020ADF8000084
:102CD00002208DF8020028208DF8030069469F48E5
:102CE000FDF770FB08BD08B58020ADF8000002209C
:102CF0008DF8020010208DF8030069469748FDF713
:102D000061FB08BD10B5044624B180219348FDF74E
:102D100006FC03E080219148FDF703FC10BD10B5CF
:102D2000044624B140218D48FDF7F9FB03E0402122
:102D30008A48FDF7F6FB10BD10B580218748FDF7E6
:102D4000D4FB10BD002100E0491C8142FCD3704738
:102D500010B50120FFF7D6FF4FF4FA70FFF7F2FF2E
:102D60000120FFF7DCFF4FF4FA70FFF7EBFF0020C4
:102D7000FFF7C8FF4FF4FA70FFF7E4FF0020FFF7FA
:102D8000CEFF4FF4FA70FFF7DDFF10BD10B5002045
:102D9000FFF7C5FF4FF4FA70FFF7D4FF0020FFF7ED
:102DA000B1FF4FF4FA70FFF7CDFF0120FFF7B7FF37
:102DB0004FF4FA70FFF7C6FF0120FFF7A3FF4FF4AF
:102DC000FA70FFF7BFFF10BD10B50524FFF77CFFB9
:102DD0004FF4FA70FFF7B6FF0120FFF7A0FF4FF4A2
:102DE000FA70FFF7AFFF0CE0601E84B24FF4FA7088
:102DF000FFF7A8FF2CB9FFF776FFFFF7C7FF00200A
:102E000010BDFFF799FF0028EED1FFF76CFF0020FF
:102E1000FFF785FF4FF4FA70FFF794FF0120EFE70B
:102E200010B50020FFF76EFF4FF4FA70FFF78AFF2E
:102E30004FF4FA70FFF786FF0120FFF770FF4FF4A1
:102E4000FA70FFF77FFF0020FFF769FF4FF4FA7079
:102E5000FFF778FF10BD10B50120FFF753FF4FF4C7
:102E6000FA70FFF76FFF0120FFF759FF4FF4FA7078
:102E7000FFF768FF0020FFF752FF4FF4FA70FFF7EB
:102E800061FF10BD70B5044608251BE00020FFF768
:102E900046FF4FF4FA70FFF755FF04F08000FFF78C
:102EA00031FF4FF4FA70FFF74DFF6006040E4FF448
:102EB000FA70FFF747FF0120FFF731FF4FF4FA7078
:102EC000FFF740FF281EA5F10101CDB2DED1FFF7CB
:102ED00026FF4FF4FA70FFF735FF70BD70B5082577
:102EE0000024FFF7F1FE16E06006040E0020FFF755
:102EF00016FF4FF4FA70FFF725FF4FF4FA70FFF753
:102F000021FF0120FFF70BFF4FF4FA70FFF71AFFC4
:102F1000FFF712FF0443281EA5F10101CDB2E3D152
:102F2000FFF7FDFE4FF4FA70FFF70CFFFFF7DBFE33
:102F3000204670BD08B501210820FDF7FFFCC02028
:102F4000ADF8000002208DF8020010208DF803007B
:102F500069460248FDF736FA08BD0000000C014042
:102F6000704700BFFEE700BFFEE700BFFEE700BFFF
:102F7000FEE770477047704702480068401E0149ED
:102F800008607047480000201FB501210420FDF7AC
:102F9000D5FC40F20110ADF80C0003208DF80E00B6
:102FA00004208DF80F0003A92C48FDF70BFA00212F
:102FB0000846FDF71DFB08210020FDF719FB40F234
:102FC0000110009000208DF8040008208DF8050005
:102FD00001208DF806006846FDF790FD4FF4C060B3
:102FE000FDF710FD06208DF8080001208DF809007E
:102FF00006208DF80A0001208DF80B0002A8FDF7CD
:1030000006FD4FF4C060FDF7FDFC17208DF80800A9
:1030100001208DF8090006208DF80A0001208DF8A6
:103020000B0002A8FDF7F3FC1FBD10B50120FDF752
:10303000CBFD012803D10A490870FDF7D6FD10BD6C
:1030400010B54FF48070FDF7BFFD012805D10220B7
:1030500003490870C001FDF7C8FD10BD000801401C
:103060002E00002010B586B0044601210520FDF792
:1030700065FC01214804FDF76EFC4FF4C060FDF7CC
:10308000C1FC0420ADF8140003208DF816001820B0
:103090008DF8170005A95748FDF794F90820ADF8F9
:1030A000140003208DF8160004208DF8170005A9E0
:1030B0005048FDF787F94FF4C060FDF7A3FC2620C8
:1030C0008DF8000000208DF801008DF8020001202D
:1030D0008DF803006846FDF79AFC01940020ADF8D6
:1030E0000800ADF80A00ADF80C000C20ADF80E0099
:1030F0000020ADF8100001A93F48FDF7C2FD0121F5
:103100003D48FDF74AFE012240F225513A48FDF7BD
:1031100050FE06B010BD10B5002400BF04E0002032
:1031200036490855601CC4B2142CF8DB012240F269
:1031300025513148FDF73DFE10BD70B50446002510
:1031400000BF615D2C48FDF795FE00BF80212A4835
:10315000FDF7FEFE0028F9D0681CC5B2605D0028AE
:10316000EFD1FFF7D8FF70BD10B5002424480468E4
:10317000002023490860012240F225511E48FDF736
:1031800018FE204610BD10B5002440F225511A4803
:10319000FDF7F4FE01282BD140F225511648FDF72A
:1031A00017FF1548FDF76AFEC4B2144815490968AF
:1031B000445414480068401C124908600A2C17D176
:1031C000002110480068401E0C4A11540D48006848
:1031D000801E11540B480068801E094908600020B9
:1031E00008490860002240F225510348FDF7E1FD3F
:1031F00010BD000000080140004400405C000020B9
:10320000340000203000002000B585B001214FF4CB
:103210000270FDF793FB002000908DF804008DF8FC
:103220000500039001208DF810004FF460200290FB
:1032300069462548FDF70DFF06230122112122488A
:10324000FDF79FFF0723012210211F48FEF746F8D4
:103250000120FEF7BBF801211B48FEF701F8012110
:103260001948FDF722FF1848FDF750FF00BF164828
:10327000FDF751FF0028FAD105B000BD10B50121BE
:103280001148FDF752FF00BF02210F48FEF7BEF8BC
:103290000028F9D00C48FDF7DBFF10BD10B5012167
:1032A0000948FDF742FF00BF04210748FEF7AEF8CA
:1032B0000028F9D004210448FEF7B1F8142102488F
:1032C000FEF763F810BD0000002401401FB5012186
:1032D0000220FDF740FB4FF4C060FDF793FB1D207B
:1032E0008DF80C0000208DF80D0001208DF80E00E7
:1032F0008DF80F0003A8FDF78AFB0020ADF8000051
:10330000ADF802004CF25030ADF804000020ADF8EA
:10331000060069460848FEF771F901224721064870
:10332000FEF76FFD012211460348FEF7DEFC012186
:103330000148FEF7BFFC1FBD0004004000F00CF880
:103340004FF400510348FDF7EAF801E000F0F5F80A
:10335000FCE700000010014070B5FFF7EBFDFFF740
:10336000B5FFFFF751FFFFF70FFE4FF4E130FFF716
:1033700079FEFFF7BCF9FFF787FCFE4800684FF4C1
:103380007A72B0FBF2F1481EB0F1807F00D31BE0EF
:10339000481E4FF0E022506150170F22002807DA34
:1033A00013071D0EF44B00F00F04241F1D5503E0FE
:1033B00013071C0EF14B1C5400BF00204FF0E022FD
:1033C00090610720106100BF4FF6FF70FFF74EFAC3
:1033D0004FF6FF70FFF7A4F90020FFF7A7F90020D0
:1033E000FFF744FAE6A13020FFF723FAEAA16020B4
:1033F000FFF71FFAEEA17820FFF71BFAF2A1902049
:10340000FFF717FA70BD70B50446FFF7A1FC8020E6
:10341000FFF738FDFFF7D8FC2046FFF733FDFFF735
:10342000D3FCFFF795FC8120FFF72CFDFFF7CCFCC8
:10343000FFF754FD0546FFF7C7FCFFF7A7FC28463A
:1034400070BD70B505460C46FFF782FC8020FFF783
:1034500019FDFFF7B9FC2846FFF714FDFFF7B4FC90
:103460002046FFF70FFDFFF7AFFCFFF78FFC70BDA5
:10347000DB49086000BFDA4909680029FBD17047C1
:103480002DE9FC5F824600244FF0FE0BD5480190E9
:103490002046FFF7B8FF814609F07F0040F010009A
:1034A00000900520FFF7E4FF504600F0ADFD074611
:1034B000CD4ACE4B00F0AEFC054600F0B8FD82468A
:1034C0004FF08B41019800F067FC01905146019844
:1034D00000F062FC01904FF07E51019800F024FC56
:1034E000019020460099FFF7ACFF0520FFF7C0FFD1
:1034F0002046FFF788FF81460520FFF7B9FF0198B6
:1035000000F06EFDC5B258462946FFF79AFF052028
:10351000FFF7AEFF09F0EF0920464946FFF791FF9C
:103520000520FFF7A5FF49F0A1012046FFF789FF1D
:103530000520FFF79DFFBDE8FC9F2DE9F05FFFF739
:103540009DFEAB4908600846006800F044FD8346D4
:1035500000F05AFD80464FF06632A64B00F05AFC50
:1035600006460022A44B00F0C7FC044600F05FFDB5
:103570008246504600F048FD044622460B469FA175
:10358000A24800F067FFA148FFF7D7FDFFF786FECE
:103590009F4908609F480068096808449D49086081
:1035A0009D480078401C9C490870084600780A280D
:1035B0002DD100200870974800680A21B0FBF1F86F
:1035C000404600F008FD074694480168384600F080
:1035D000B1FB064692480168304600F0A8FB05465C
:1035E00090480168284600F0D7FB04468E4900F059
:1035F00049FB8246504600F007FD044622460B4632
:103600008AA1904800F026FF002082490860BDE8AA
:10361000F09F10B501218C48FEF709FE01280DD15D
:1036200001218948FEF70CFE88480078401CC0B292
:1036300086490870142801D10020087010BDF8B523
:103640000024FFF791FD0446002C76D00B2C75D298
:10365000DFE804F0742F4F758E8D8C8B8A74060012
:103660004FF6FF707A49C86004207A490860C04369
:103670000860002210217848FCF755FF4FF6FF70D4
:10368000FFF74EF80020FFF751F80020FFF7EEF8A3
:103690003BA13020FFF7CDF83FA16020FFF7C9F82C
:1036A00043A17820FFF7C5F847A19020FFF7C1F8A4
:1036B000E2E147F6FF706649C8600420654908608A
:1036C000C0430860002210216348FCF72CFF4FF430
:1036D000FC60FFF72BF84FF4FC60FFF7C7F85F4A78
:1036E0005FA14A4800F0B6FE48497820FFF7A1F8EC
:1036F000C2E143F6FF705649C8600420554908608E
:10370000C0430860002210215348FCF70CFF4FF61D
:10371000E070FFF70BF84FF6E070FFF7A7F84F4A9D
:1037200055A13A4800F096FE38497820FFF781F815
:103730005749A820FFF77DF89EE19EE160E141F640
:10374000FF704349C860042042490860C0430860D4
:10375000002210214048FCF7E6FE4FF47840FEF7C7
:10376000E5FF4FF4784095E02BE106E1E5E0C0E0AD
:103770009CE000000000002018ED00E000E400E004
:103780002020202020746573745F6F6E65202020D8
:103790002020202000000000202020202020506C2D
:1037A000656173652020202020202020000000007B
:1037B000202020656E642074686520696E707574C1
:1037C000202020200000000020202077697468203D
:1037D00074686520456E746572202020000000002A
:1037E0004800002020BCBE4BCDCCCCCCCCCCEC3F98
:1037F0004C00002066660A4000FEAF40566F6C74B5
:1038000061676520252E3266560D0A007000002083
:1038100050000020540000205800002040000020EC
:103820003C000020380000200000C84174656D7025
:103830006572617475726520252E326620430D0A0B
:10384000000000008400002000040040440000202C
:10385000001001400C140140000C01405C000020ED
:10386000202020206675636B206F66663A31202524
:103870007320202020000000202020206675636B2C
:10388000206F66663A322025732020202000000039
:1038900098000020FEF7EAFFBA4ABBA1C04800F03A
:1038A000D9FDBF497820FEF7C4FFE5E040F6FF7080
:1038B000BC49C8600420BC490860C04308600022BD
:1038C0001021BA48FCF72FFE4FF6FF70FEF72EFFCF
:1038D0004FF6FF70FEF7CAFF0020FEF721FFA94A4E
:1038E000B3A1AF4800F0B6FDAD497820FEF7A1FFC7
:1038F000C2E040F2FF70AB49C8600420AA490860EA
:10390000C043086000221021A848FCF70CFE40F2DA
:103910001F50FEF70BFF40F21F50FEF7A7FF994A1A
:10392000A9A19F4800F096FD9D497820FEF781FFF0
:10393000AB49A820FEF77DFF9EE040F2FF30994999
:10394000C860042098490860C04308600022102124
:103950009648FCF7E8FD4FF2DE70FEF7E7FE4FF207
:10396000DE70FEF783FF874A9EA18D4800F072FD4E
:103970008B497820FEF75DFF7EE040F2FF10894919
:10398000C860042088490860C043086000221021F4
:103990008648FCF7C8FD4FF61F00FEF7C7FE4FF63E
:1039A0001F00FEF763FF774A94A17D4800F052FDA7
:1039B0007B497820FEF73DFF8949A820FEF739FFB3
:1039C0005AE0FF207749C860042077490860C04367
:1039D0000860002210217548FCF7A5FD47F6FF702E
:1039E000FEF7A4FE47F6FF70FEF740FF654A89A187
:1039F0006B4800F02FFD6A497820FEF71AFF3BE084
:103A00004AF6FF206749C860042067490860C04340
:103A100008605C48FFF791FB642094FBF0F100FB29
:103A200011400A2190FBF1F201FB120000F1300578
:103A300094FBF1F090FBF1F201FB120000F1300673
:103A4000642094FBF0F000F1300733463A4677A14A
:103A50005348009500F0FEFC5148FFF76EFB4FF60F
:103A6000FF70FEF75DFE4FF47840FEF75FFE73A136
:103A70007820FEF7DEFE00BF00BFC820FFF7F8FC8D
:103A8000012210214948FCF74EFD4FF6FF704549D1
:103A9000C860042044490860C0430860F8BD10B500
:103AA0006C480078012822D14FF6FF703D49C8606C
:103AB00004203D490860C0430860002210213B48B3
:103AC000FCF731FD4FF4FC60FEF730FE4FF4FC6074
:103AD000FEF7CCFE2B4A60A1314800F0BBFC304918
:103AE0007820FEF7A6FE00205A49087020E05948C9
:103AF000007802281CD14FF6FF702A49C8600420C4
:103B000029490860C0430860002210212748FCF7BB
:103B10000AFD4FF4FC60FEF709FE4FF4FC60FEF76F
:103B2000A5FE53A17820FEF784FE002049490870C5
:103B300010BD10B54FF6FF501A49C86004201A494D
:103B40000860C0430860002210211848FCF7EBFC15
:103B5000FFF794FB0446FFF78BFC4FF6FF7011490B
:103B6000C860042010490860C04308600122102189
:103B70000E48FCF7D8FCFFF781FB0446FFF778FC02
:103B800010BD00005C000020202020206675636BC3
:103B9000206F66663A332025732020202000000025
:103BA00070000020001001400C140140000C014086
:103BB000202020206675636B206F66663A342025CE
:103BC0007320202020000000202020206675636BD9
:103BD000206F66663A3520257320202020000000E3
:103BE00098000020202020206675636B206F666699
:103BF0003A3620257320202020000000202020209D
:103C00006675636B206F66663A3720257320202027
:103C100020000000202020206675636B206F666600
:103C20003A38202573202020200000000A434F4E00
:103C3000543D256325632563000000002057617211
:103C40006E696E673A696E707574206572726F7214
:103C5000200000002E000020202020204B6579202D
:103C600053746174653A20257320202020000000E1
:103C700020202020204949435F436C656172202049
:103C800020202000F0B480EA0102D40F4200B2EB01
:103C9000410F02D20246084611464A0042D0C30DE7
:103CA000DDB2C1F3C752AD1A202D35DAC1F31601CA
:103CB00041F4000204B15242C5F1200602FA06F1B5
:103CC0002A411044B3EBD05F23D0C4B1012DA0EB47
:103CD000C35009DCF0BC4FF0004202EAC352DBB231
:103CE00000F5000000F00FBA400000F1807000EB1A
:103CF000C350A0F1807040EAD170490009E0490842
:103D000041EAC071A0EBC35000F50000400800EB91
:103D1000C350F0BC00F0EEB96142012202EB410158
:103D2000001BF6E7F0BC704781F00041AAE780F085
:103D30000040A7E780EA010210B502F0004340000E
:103D400022D04A001FD0010E01EB1261C0F35600D1
:103D5000C2F3560240F4000042F40002A0FB02202D
:103D600000047F39140400D0401C50EA124001D4F2
:103D70004000491EC2B20C0604EBD010401C4008A3
:103D8000802A02D003E0002010BD20F001000029AD
:103D900000DA0020184310BD30B480EA010202F0BE
:103DA000004530F0004221F0004013D090B1C30D27
:103DB000D40DC2F31601C0F31600E41A41F4000159
:103DC00040F400027D34914201D3641C00E04900BC
:103DD000002C02DA30BC002070474FF400000023B2
:103DE000914201D3891A034340084FEA4101F7D1B8
:103DF00051B1914202D14FF0004105E002D24FF0A3
:103E0000010101E06FF0010103EBC450284430BC14
:103E100000F070B92DE9FE4F81EA030404F000447C
:103E200021F0004100944FF0000B23F0004350EAD2
:103E300001045ED052EA03045BD0C3F30A54C1F319
:103E40000A552C44A4F2F3340194A0FB0254C1F3AC
:103E5000130141F48011C3F3130343F4801301FBF6
:103E6000024400FB034E840A970A44EA815447EA5D
:103E70008357A4FB076802958D0A05FB07854FEA67
:103E8000932C04FB0C542705029D4FEA065847EA81
:103E90001637B5EB08056EEB070C870E920E47EA56
:103EA000811742EA8312A7FB0201B6EB0B0164EB18
:103EB00000042B0D43EA0C335E1844EB1C50DA4629
:103EC0005146E7FB0201C5F313044FEA0B3343EA03
:103ED00014534FEA0432019C43EA0603A4F10C0494
:103EE0000294009CCDE900B400F04AF903B0BDE8AB
:103EF000F08F00200146F9E72DE9F04D81EA030437
:103F000004F0004B21F0004514464FF0000A23F066
:103F1000004150EA050220D054EA01021DD0C5F349
:103F20000A570246C5F31303C1F31300C1F30A563F
:103F300040F4801543F48013A7EB0608101BD64607
:103F400008F2FD3873EB050002D308F1010801E027
:103F500092185B41B8F1000F03DA00200146BDE87A
:103F6000F08D00204FF48011064684460EE0171BAA
:103F700073EB050705D3121B63EB050306434CEAFD
:103F8000010C49084FEA300092185B4150EA0107E2
:103F9000EDD152EA030012D082EA040083EA05015F
:103FA000084305D0101BAB4106D20122002306E0D6
:103FB00000224FF0004302E06FF0010253101AEBB1
:103FC00006004CEB085110EB0A0041EB0B01BDE879
:103FD000F04D00F0C6B896230022114600F093B8C9
:103FE00020F00040C10DC0F3160040F400007F290E
:103FF00001DA00207047962903DCC1F19601C84020
:10400000704796398840704700F0004230F0004019
:104010000AD0C10D01F56071C0F3160042EA0151EA
:10402000C20840071143704700200146704701F065
:10403000004330B421F0004150EA010206D00A0DDD
:10404000A2F56072C1F31301002A02DC30BC00202B
:104050007047440F44EAC104C100E01830BC00EBD3
:10406000C25000F047B830B50B4601460020202270
:10407000012409E021FA02F59D4205D303FA02F575
:10408000491B04FA02F52844151EA2F10102F1DCD5
:1040900030BD2DE9F05F0546002092469B468846DC
:1040A0000646814640241BE02846414647462246B4
:1040B00000F0ADF953465A46C01A914110D311464B
:1040C0001846224600F094F92D1A67EB01084F4676
:1040D00022460120002100F08BF917EB00094E4128
:1040E000201EA4F10104DFDC484631462A4643463F
:1040F000BDE8F09F0029A8BF7047401C490008BFD9
:1041000020F00100704710B4B0FA80FC00FA0CF007
:1041100050EA010404BF10BC704749B1CCF120043F
:1041200021FA04F411FA0CF118BF012121430843CC
:10413000A3EB0C01CB1D4FEA00614FEA102042BFF8
:10414000002010BC704700EBC35010440029A4BFEE
:1041500010BC7047401C490008BF20F0010010BC93
:10416000704710B5141E73F1000408DA401C41F1C9
:10417000000192185B411A4301D120F0010010BDEB
:104180002DE9F04D92469B4611B1B1FA81F202E061
:10419000B0FA80F22032904600F02AF904460F4629
:1041A00040EA0A0041EA0B0153465A46084313D03D
:1041B000114653EA010019D0C8F14002504600F000
:1041C00026F905460E4650465946424600F010F97B
:1041D000084305D0012004E020463946BDE8F08DB3
:1041E0000020054346EAE0762C4337430A986305EE
:1041F000E40AA0EB08000022FD0A44EA47540A3012
:1042000002D500200146E9E7010510196941DDE901
:10421000084500196941BDE8F04DA2E72DE9FE4FC0
:10422000804681EA0300C00F0C46009021F0004157
:1042300023F00045B8EB0200A94105D240462146D3
:1042400090461C460B46024623F00040104347D0E0
:10425000270DC7F30A00C3F30A510290401A0190D8
:1042600040286BDAC3F3130040F4801B0098924699
:1042700020B10023D2EB030A63EB0B0B01985946E4
:10428000C0F14002504600F0B3F806460D465046D5
:104290005946019A00F0CBF810EB08006141002468
:1042A00087EA115284EAE7731A4340D0009A62B356
:1042B000019A012A4FEA075215DC001B61EB02014B
:1042C0004FF0004202EA0752CDE90042001C41F5DE
:1042D000801132462B46FFF753FF03B0BDE8F08F45
:1042E00040462146F9E7001B61EB0201001C41F545
:1042F000801300185B412018A2F5001747EB03015B
:1043000040EAD570B6196D4111E06D084FEA3606E6
:1043100045EAC0754FEA0752001B61EB0201001C21
:1043200041F5801149084FEA3000001951413246E9
:104330002B4603B0BDE8F04FFFF713BF00980122F2
:1043400040000023D0EB020263EBE07300982146AB
:104350004FEAE074B8EB000061EB0401E9E783F099
:1043600000435BE781F0004158E7C1F30A52C1F313
:10437000130140F2FF3341F480119A4202DA002027
:104380000146704740F233439A42A2F2334202DCC4
:10439000524200F03CB800F02BB8000030B5041ECB
:1043A00071F1000404DB4FF00044404264EB010172
:1043B000141E73F1000405DB1C464FF0004352420B
:1043C00063EB0403994208BF904230BD064C074D91
:1043D00006E0E06840F0010394E8070098471034D5
:1043E000AC42F6D3FBF786FE285F0008485F000862
:1043F000202A04DB203A00FA02F1002070479140A5
:10440000C2F1200320FA03F3194390407047202A99
:1044100004DB203A21FA02F00021704721FA02F36E
:10442000D040C2F120029140084319467047202A2B
:1044300006DBCB17203A41FA02F043EAE07306E0CC
:1044400041FA02F3D040C2F12002914008431946DC
:10445000704700000FB4084B10B504A902AA0398D6
:1044600000F0DEF8044602A9002000F070FC2046AF
:1044700010BC5DF814FB00004F4D000802E008C8B6
:10448000121F08C1002AFAD170477047002001E0CE
:1044900001C1121F002AFBD1704700002DE9FF5F08
:1044A00082B00021DDE90430020DDDF840B00343A5
:1044B00018D044F61050A2F2FF324243151411985E
:1044C00001281FD0A5EB0B00401C5FEA000A4FF04B
:1044D00000064E4FDFF83891B046504615D5CAF168
:1044E000000413E0119801244AA3012801D16FEAC6
:1044F0000B010298119AC0E90031C0E9024206B0EE
:10450000BDE8F09FCBF10000DFE704460021404A00
:10451000491842EB0450CDE9001012E0E00707D043
:1045200032463B4640464946FFF774FC8046894682
:1045300032463B4610461946FFF76CFC06460F46CE
:104540006410002CEAD1DDE90401DDE90023BAF1B1
:10455000000F06DAFFF75EFC42464B46FFF75AFCB7
:1045600005E0FFF7C9FC42464B46FFF7C5FC044691
:104570000E460022284BFFF711FF03D84FF0FF3003
:10458000014607E00022254B20463146FFF746FE54
:10459000FFF7EBFE102409E0002C0ADB0A220023BF
:1045A000FFF777FD039B30321A55641E50EA010273
:1045B000F2D1641C039AC4F111031444119A012A24
:1045C00003D0012208430DD10AE0084304D00020A3
:1045D0004FF0110B119072E7A3EB0B056D1E0DE070
:1045E0005B4504DD4FF0000205F1010504E003DA4C
:1045F0004FF00002A5F10105002AECD002981199B4
:10460000C0E90231C0E9004579E70000000014402C
:104610000000F03F300000000000F0430000E03FE9
:104620002DE9FF4F95B09B468946064600250FE2CF
:10463000252877D100242746F84A0121059400E077
:10464000044316F8013F203B01FA03F01042F7D172
:1046500030782A2811D06FF02F033078A0F1300283
:10466000092A16D8059A44F0020402EB820203EBF1
:1046700042021044761C0590EFE759F8042B05928E
:10468000002A03DA504244F40054059044F0020436
:10469000761C30782E2816D116F8010F44F0040449
:1046A0002A280DD06FF02F023078A0F13003092BAB
:1046B00009D807EB870302EB4303C718761CF3E71F
:1046C00059F8047B761C30786C280FD006DC4C2817
:1046D00017D068280DD06A2814D104E0742810D0AF
:1046E0007A280FD10DE044F400140AE044F4801459
:1046F00001E044F440147278824202D104F580143F
:10470000761C761C307866280BD013DC582877D0BE
:1047100009DC002875D04528F6D04628F4D0472873
:104720001AD19DE118E0632835D0642879D0652836
:1047300012D195E1702873D008DC6728F1D0692880
:104740006FD06E280DD06F2806D1B5E073282CD01D
:10475000752875D0782874D05A46179990476D1CE3
:1047600075E1C4F30250022809D003280DD0D9F80E
:10477000001004280DD00D6009F1040967E1D9F893
:104780000010EA17C1E90052F6E7D9F800100D80D1
:10479000F2E70D70F0E719F8041B8DF80010002007
:1047A0008DF80100EA46012003E059F804AB4FF010
:1047B000FF3061074FF0000102D40DE008F1010164
:1047C0008846B9420FDA8045F8DB1AF8081000294C
:1047D000F4D108E008F1010188468142FADB1AF8B9
:1047E00008100029F6D105985B46A0EB0807214682
:1047F0003846179A00F094FA284400EB080507E0C1
:104800004DE029E10DE01AF8010B5A46179990473F
:10481000B8F10108F7D25B4621463846179A13E1F2
:1048200042E00A220092C4F302524FF0000A022A28
:1048300008D059F804CB032A4FEAEC710AD00DE0F6
:1048400029E02AE009F1070121F00702F2E802C19C
:10485000914609E00FFA8CFC4FEAEC71042A03D16F
:104860004FFA8CFC4FEAEC71002907DA0A46002166
:10487000DCF1000C61EB02012D2202E0220504D5DF
:104880002B228DF80420012203E0E20701D0202230
:10489000F7E7904659E00A2102E010220DE01021CE
:1048A0004FF0000A00910BE010224FF0000A44F094
:1048B00004040827009203E008224FF0000A009247
:1048C000C4F30252022A05D059F804CB0021032A6E
:1048D00008D009E009F1070121F00702F2E802C15E
:1048E000914605E01FFA8CFC042A01D10CF0FF0C64
:1048F0004FF00008220728D5702806D0009B83F0CF
:10490000100353EA0A0305D00EE040228DF804207C
:10491000012208E05CEA010206D030228DF8042072
:104920008DF8050002229046009B83F0080353EAAD
:104930000A030AD15CEA010201D1620705D53022DF
:104940008DF804204FF001087F1E582804D034A0B1
:1049500003900EA802900DE036A0F9E7534660469A
:10496000009AFFF796FB84460398825C0298401EEB
:10497000029002705CEA0100F0D1029806A9081AC0
:1049800000F1200A600702D524F4803400E00127FA
:10499000574502DDA7EB0A0000E0002000EB0A010A
:1049A000009005984144401A0590E00306D45B4608
:1049B0002146179A059800F0B3F90544002706E050
:1049C00001A85A46C05D179990476D1C7F1C47454A
:1049D000F6DBE0030CD55B462146179A059800F0FC
:1049E0009FF9054404E030205A46179990476D1C02
:1049F0000099481E00900029F5DC08E00298029911
:104A00005A460078491C0291179990476D1CBAF1DB
:104A10000001AAF1010AF1DC65E1000009280100AA
:104A20003031323334353637383961626364656624
:104A300000000000303132333435363738394142E6
:104A4000434445460000000000F058F90544761C38
:104A5000307800287FF4ECAD19B02846BDE8F08F1F
:104A6000620700D4062709F1070222F0070CFCE8D0
:104A70000223E14603F000485FEA080C02D00FF27F
:104A8000702C0DE05FEA045C02D50FF2682C07E0A1
:104A90005FEAC47C02D00FF2602C01E0AFF2700C30
:104AA0004FF0FF3823F00043CDF850C065280CD0FC
:104AB00006DC452809D046281DD047283DD13DE0D9
:104AC000662818D067287ED138E00021112F01DB3D
:104AD000112000E0781CCDE9000106A90EA8FFF71F
:104AE000DDFCDDE90F010E9A03910021009207F130
:104AF000010A04914DE04FF000400097CDE901100C
:104B000006A90EA8FFF7CAFCDDE90F0203920E9B6F
:104B100011990022DDF80CA00093049211B9791CC0
:104B200000EB010AB7EB0A0004D4C0F1FF3007F133
:104B3000010A0490AAEB0700019044E0012F00DA7B
:104B400001270021112F01DD112000E03846CDE9B9
:104B5000000106A90EA8FFF7A1FCDDE90F010E9ADE
:104B60000391002104910092BA4621070CD40399C5
:104B7000514500DA8A46BAF1010F05DD009AAAF123
:104B80000101515C302908D0B84202DA10F1040F5B
:104B900006DA0121CDE9011015E0AAF10101E9E7EA
:104BA000002805DC049901440491AAEB000102E00D
:104BB000411C514500DD8A460499401A401C019071
:104BC0004FF000400290200704D40198504501DBCB
:104BD000CDF8048000208DF84F0002980DF14F07AA
:104BE000B0F1004F25D02B200E9002984FF0020814
:104BF00000280CDA404202902D200E9007E00A2196
:104C00000298FFF730FA3031029007F8011DB8F131
:104C10000001A8F10108F2DC02980028EFD1791E0A
:104C20000E980870307800F0200040F0450007F83A
:104C3000020D12A8C01B00F107081498007800B1FB
:104C4000012000EB0A01019801EBE0710598414455
:104C5000401A401E0590E00306D45B462146179A91
:104C6000059800F05DF805441498007818B15A468C
:104C7000179990476D1CE00324D55B462146179A8F
:104C8000059800F04DF805441CE00498002807DB67
:104C9000DDE90301884203DD0098405C179901E0DB
:104CA000179930205A469047049805F10105401C99
:104CB00004900198401E019004D12E205A46179965
:104CC00090476D1CBAF10001AAF1010ADDDC05E094
:104CD00017F8010B5A46179990476D1CB8F100015F
:104CE000A8F10108F4DC5B462146179A0598ABE66B
:104CF0002D0000002B000000200000002DE9F041F5
:104D0000044600251E461746880404D405E03946AB
:104D10002020B0476D1C641EF9D52846BDE8F081FF
:104D20002DE9F041044600251E469046C80301D5F2
:104D3000302700E02027880404D505E041463846A6
:104D4000B0476D1C641EF9D52846BDE8F0810A689D
:104D5000531C0B6010707047000000000000000042
:104D60000000000000000000000000000000000043
:104D70000000000000000000000000000000000033
:104D800000000000000000000000800180018001A0
:104D9000800180018001800180018001800180010B
:104DA00080018001000000008001800100000000FF
:104DB000000000000000000000000000CC00CC005B
:104DC000CC00CC00CC00CC000000000000000000B3
:104DD00000000000000000000000000000000000D3
:104DE00000000000000000000000000000000000C3
:104DF00000000000600C600C600C30063006FE1FE6
:104E0000FE1F300638071803FE1FFE1F1803180385
:104E10008C018C018C01000000008000E003F80F81
:104E20009C0E8C1C8C188C009800F801E007800EFA
:104E3000801C8C188C189C18B80CF00FE0038000B4
:104E400080000000000000000000000000000E18BC
:104E50001B0C110C11061106110311039B018E018D
:104E6000C038C06C60446044304430441844186C0E
:104E70000C380000000000000000E001F0033807DB
:104E8000180618063003F001F000F8009C310E33CC
:104E9000061E061C061C063FFC73F02100000000E5
:104EA0000000000000000000000000000C000C00EA
:104EB0000C000C000C000C000000000000000000C2
:104EC00000000000000000000000000000000000E2
:104ED000000000000000000000000002000380014C
:104EE000C000C000600060003000300030003000C2
:104EF000300030003000300060006000C000C000B2
:104F00008001000300020000000020006000C000DB
:104F10008001800100030003000600060006000671
:104F20000006000600060006000300038001800161
:104F3000C000600020000000000000000000000031
:104F400000000000C000C000D806F807E0013003F0
:104F50003807000000000000000000000000000012
:104F60000000000000000000000000000000000041
:104F70000000000080018001800180018001FC3F71
:104F8000FC3F800180018001800180010000000061
:104F90000000000000000000000000000000000011
:104FA0000000000000000000000000000000000001
:104FB00000000000000000000000800180010001EE
:104FC0000001800000000000000000000000000060
:104FD00000000000000000000000000000000000D1
:104FE000E007E007000000000000000000000000F3
:104FF00000000000000000000000000000000000B1
:1050000000000000000000000000000000000000A0
:1050100000000000000000000000C000C000000010
:1050200000000000000000000000000C000C000662
:1050300000060006000300030003800380018001D6
:105040008001C000C000C0006000600000000000DF
:1050500000000000000000000000E003F007380E30
:10506000180C0C180C180C180C180C180C180C1820
:105070000C180C18180C380EF007E00300000000A4
:105080000000000000000000000000018001C001DD
:10509000F001980188018001800180018001800178
:1050A00080018001800180018001800100000000FA
:1050B00000000000000000000000E003F80F180CE2
:1050C0000C180C1800180018000C000600038001D2
:1050D000C000600030001800FC1FFC1F0000000032
:1050E00000000000000000000000E001F807180EBA
:1050F0000C0C0C0C000C0006C003C007000C0018C0
:1051000000180C180C18180CF807E0030000000039
:1051100000000000000000000000000C000E000F66
:10512000000F800DC00C600C600C300C180C0C0CC7
:10513000FC3FFC3F000C000C000C000C00000000C9
:1051400000000000000000000000F80FF80F180039
:1051500018000C00EC03FC071C0E001C00180018C3
:1051600000180C181C0C180EF807E00300000000D3
:1051700000000000000000000000C007F00F381C15
:10518000181818000C00CC03EC0F3C0E1C1C0C185B
:105190000C180C18181C380EF007E0030000000073
:1051A00000000000000000000000FC1FFC1F000CBD
:1051B00000060006000380038001C001C000E0007B
:1051C000600060007000300030003000000000001F
:1051D00000000000000000000000E003F007380EAF
:1051E000180C180C180C3806F007F007180C0C18DF
:1051F0000C180C180C18380CF80FE0030000000015
:1052000000000000000000000000E003F007380E7E
:105210001C0C0C180C180C181C1C381EF81BE01960
:105220000018000C000C1C0EF807F0010000000034
:10523000000000000000000000000000000000006E
:10524000000000008001800100000000000000005C
:10525000000000000000000080018001000000004C
:10526000000000000000000000000000000000003E
:10527000000000008001800100000000000000002C
:10528000000000000000000080018001000100011A
:10529000800000000000000000000000000000008E
:1052A00000000000000000000010001C800FE00360
:1052B000F8001800F800E003800F001C0010000048
:1052C00000000000000000000000000000000000DE
:1052D0000000000000000000F81F000000000000B7
:1052E000F81F0000000000000000000000000000A7
:1052F00000000000000000000000000000000000AE
:10530000000000000000000008003800F001C007A5
:10531000001F0018001FC007F0013800080000003F
:1053200000000000000000000000E003F80F180C6F
:105330000C180C180018000C000600038001C000B7
:10534000C000C00000000000C000C000000000005D
:10535000000000000000000000000000E007181836
:105360000420C229224A114409440944094409225B
:105370001113E20C024004201818E007000000009E
:105380000000000000000000000080038003C00651
:10539000C006C006600C600C301830183018F83F9A
:1053A000F83F1C700C600C6006C006C000000000D6
:1053B00000000000000000000000FC03FC0F0C0CCB
:1053C0000C180C180C180C0CFC07FC0F0C180C30EB
:1053D0000C300C300C300C18FC1FFC0700000000D7
:1053E00000000000000000000000C007F01F383877
:1053F0001C300C7006600600060006000600060061
:10540000060006600C701C30F01FE0070000000072
:1054100000000000000000000000FE03FE0F060E6A
:1054200006180618063006300630063006300630FC
:10543000063006180618060EFE0FFE0300000000D8
:1054400000000000000000000000FC3FFC3F0C00DA
:105450000C000C000C000C00FC1FFC1F0C000C00CE
:105460000C000C000C000C00FC3FFC3F0000000096
:1054700000000000000000000000F83FF83F1800A6
:105480001800180018001800F81FF81F180018005E
:10549000180018001800180018001800000000007C
:1054A00000000000000000000000E00FF83F3C7822
:1054B0000E6006E007C00300030003FE03FE03C006
:1054C00007C006C00EC03CF0F83FE00F000000002F
:1054D000000000000000000000000C300C300C3018
:1054E0000C300C300C300C30FC3FFC3F0C300C30DE
:1054F0000C300C300C300C300C300C300000000044
:105500000000000000000000000080018001800118
:105510008001800180018001800180018001800183
:105520008001800180018001800180010000000075
:105530000000000000000000000000060006000659
:10554000000600060006000600060006000600062B
:105550000006180618063807F003E00100000000F6
:105560000000000000000000000006300618060CD5
:10557000060606038601C60066007600DE008E0180
:1055800006030606060C061806300660000000003A
:1055900000000000000000000000180018001800C3
:1055A000180018001800180018001800180018003B
:1055B0001800180018001800F81FF81F000000005D
:1055C000000000000000000000000EE01EF01EF0D1
:1055D0001EF036D836D836D836D866CC66CC66CCEF
:1055E000C6C6C6C6C6C6C6C686C386C300000000F9
:1055F000000000000000000000000C301C303C30B7
:105600003C306C306C30CC30CC308C310C330C33C3
:105610000C360C360C3C0C3C0C380C3000000000F6
:1056200000000000000000000000E007F81F1C3828
:105630000E70066003C003C003C003C003C003C0F4
:1056400003C006600E701C38F81FE0070000000061
:1056500000000000000000000000FC0FFC1F0C38E0
:105660000C300C300C300C300C18FC1FFC070C00FC
:105670000C000C000C000C000C000C0000000000E2
:1056800000000000000000000000E007F81F1C38C8
:105690000E70066003E003C003C003C003C003C074
:1056A00007E006630E3F1C3CF83FE0F700C0000037
:1056B00000000000000000000000FE0FFE1F063882
:1056C0000630063006300638FE1FFE0706030606C3
:1056D000060C0618061806300630066000000000AA
:1056E00000000000000000000000E003F80F1C0CA8
:1056F0000C180C180C001C00F803E00F001E0038FA
:10570000063006300E301C1CF80FE00700000000C9
:1057100000000000000000000000FE7FFE7F80010E
:105720008001800180018001800180018001800171
:105730008001800180018001800180010000000063
:10574000000000000000000000000C300C300C30A5
:105750000C300C300C300C300C300C300C300C3069
:105760000C300C300C301818F81FE0070000000057
:10577000000000000000000000000360063006305A
:1057800006300C180C180C18180C180C380E3006B3
:105790003006700760036003C001C0010000000014
:1057A000000000000000000000000360C361C3614E
:1057B000C3616633663366336633663366336C1BA8
:1057C0006C1B6C1B2C1A3C1E380E380E000000009F
:1057D000000000000000000000000FE00C70183016
:1057E0003018700C600EC00780038003C003E00611
:1057F000700C301C18180C300E6007E00000000020
:105800000000000000000000000003C006600C3033
:105810001C383818300C6006E007C0038001800196
:105820008001800180018001800180010000000072
:1058300000000000000000000000FC7FFC7F006012
:1058400000300018000C000600038001C00060005A
:10585000300018000C000600FE7FFE7F00000000F4
:1058600000000000000000000000E003E003600012
:105870006000600060006000600060006000600028
:105880006000600060006000600060006000600018
:105890006000E003E0030000000030003000600022
:1058A00060006000C000C000C000C0018001800135
:1058B0008001000300030003000600060000000052
:1058C00000000000000000000000E003E00300030F
:1058D00000030003000300030003000300030003B0
:1058E00000030003000300030003000300030003A0
:1058F0000003E003E003000000000000C001C0015D
:1059000060036003600330063006180C180C0000BA
:105910000000000000000000000000000000000087
:105920000000000000000000000000000000000077
:105930000000000000000000000000000000000067
:1059400000000000000000000000FFFFFFFF00005B
:10595000000000000000000000000C000C000C0023
:105960000C000C000C000000000000000000000013
:105970000000000000000000000000000000000027
:105980000000000000000000000000000000000017
:1059900000000000F003F8071C0C0C0C000FF00FC7
:1059A000F80C0C0C0C0C1C0FF80FF0180000000089
:1059B000000000000000000000001800180018009F
:1059C00018001800D803F80F380C181818181818F1
:1059D000181818181818380CF80FD8030000000011
:1059E00000000000000000000000000000000000B7
:1059F00000000000C003F007300E180C180018005B
:105A000018001800180C300EF007C003000000004A
:105A1000000000000000000000000018001800183E
:105A200000180018C01BF01F301C18181818181880
:105A3000181818181818301CF01FC01B00000000A0
:105A40000000000000000000000000000000000056
:105A500000000000C003F00F300C1818F81FF81FEA
:105A6000180018003818301CF00FC00700000000A4
:105A700000000000000000000000800FC00FC00008
:105A8000C000C000F007F007C000C000C000C000A8
:105A9000C000C000C000C000C000C0000000000086
:105AA00000000000000000000000000000000000F6
:105AB00000000000E00DF80F180E0C0C0C0C0C0C84
:105AC0000C0C0C0C0C0C180EF80FE00D000C0C0C50
:105AD0001C06F807F001000000001800180018006C
