:020000040800F2
:1000000000C000205D140008410300084D030008F3
:1000100053030008590300085F03000800000000B4
:100020000000000000000000000000006503000860
:1000300071030008000000007D0300088903000828
:10004000A5140008A5140008A5140008A5140008AC
:10005000A5140008A5140008A5140008A51400089C
:10006000A5140008A5140008A5140008A51400088C
:10007000A5140008A5140008A5140008A51400087C
:10008000A5140008A5140008A5140008A51400086C
:10009000A5140008A5140008A5140008A51400085C
:1000A000A5140008A5140008A5140008A51400084C
:1000B000A5140008A5140008A5140008A51400083C
:1000C000A5140008A5140008A5140008A51400082C
:1000D000A5140008A5140008110A0008A5140008BA
:1000E000A5140008A5140008A5140008A51400080C
:1000F000A5140008A5140008A5140008A5140008FC
:10010000A5140008A5140008A5140008A5140008EB
:10011000A5140008A5140008A5140008A5140008DB
:10012000A5140008A5140008A5140008A5140008CB
:1001300000000000000000000000000000000000BF
:1001400000000000000000000000000000000000AF
:10015000000000000000000000000000000000009F
:10016000000000000000000000000000000000008F
:10017000000000000000000000000000000000007F
:10018000000000000000000000000000000000006F
:10019000000000000000000000000000000000005F
:1001A000000000000000000000000000000000004F
:1001B000000000000000000000000000000000003F
:1001C000000000000000000000000000000000002F
:1001D000000000000000000000000000000000001F
:0401E0005FF8E0F1F3
:1001E40010B5054C237833B9044B13B10448AFF36D
:1001F40000800123237010BD44080020000000008B
:10020400D015000808B5034B1BB103490348AFF3ED
:10021400008008BD0000000048080020D015000838
:1002240080B485B000AF7860124A7B6842F228310E
:1002340001FB03F353600F4B01221A600D4B0022A4
:100244009A600C4B1B68FB60FB6803F00103002BF6
:1002540004D0FB6803F48033002BF2D0054B00225A
:100264001A60044B00229A6000BF1437BD4680BC5C
:10027400704700BF10E000E080B584B002AF00F02A
:1002840017FB00F08DFA4FF4E13000F019FB00F099
:1002940061F90121102000F01DFE0121042000F06D
:1002A40019FE1023FB714FF48073BB800323BB71D1
:1002B4003B1D19461C4800F067FC42F20603BB8054
:1002C4003B1D1946194800F05FFC0122062117481E
:1002D40000F032FD154B06225A61C820FFF7A0FF3B
:1002E400124B06221A61C820FFF79AFF00F032F978
:1002F40064230F4A0321062000F0D8F94FF47A70E2
:10030400FFF78EFF00F026F90A4B009308238022A2
:100314000021002000F0FAF94FF47A70FFF780FF13
:10032400054800F02BFBD5E7000801400010014010
:10033400E815000800000020F415000880B400AFA0
:1003440000BFBD4680BC704780B400AFFEE780B4F8
:1003540000AFFEE780B400AFFEE780B400AFFEE775
:1003640080B400AF00BFBD4680BC704780B400AF0E
:1003740000BFBD4680BC704780B400AF00BFBD461F
:1003840080BC704780B400AF00BFBD4680BC7047DE
:1003940080B500AF2021084800F0B2FC8021064857
:1003A40000F0AEFC8021044800F0B8FC2021024893
:1003B40000F0B4FC00BF80BD0008014080B500AF70
:1003C4002021064800F09CFC8021044800F0A6FC93
:1003D4008021024800F094FC00BF80BD0008014069
:1003E40080B500AF2021044800F08AFC2021024897
:1003F40000F094FC00BF80BD0008014080B584B0CB
:1004040000AF0346FB71FB79BB732021164800F053
:1004140085FC0023FB731FE0BB7B7B737B7B23F09A
:100424007F037B737B7B802B04D180210E4800F0FB
:1004340067FC03E080210C4800F070FCBB7B5B0090
:10044400BB732021084800F05BFC2021064800F023
:1004540065FCFB7B0133FB73FB7B072BDCD900BF03
:1004640000BF1037BD4680BD0008014080B582B092
:1004740000AF0346FB71FFF78BFF7820FFF7BEFF49
:10048400FFF7AEFF0020FFF7B9FFFFF7A9FFFB79E5
:100494001846FFF7B3FFFFF7A3FFFFF78FFF00BF77
:1004A4000837BD4680BD80B582B000AF0346FB71FE
:1004B400FFF76EFF7820FFF7A1FFFFF791FF4020C1
:1004C400FFF79CFFFFF78CFFFB791846FFF796FFB9
:1004D400FFF786FFFFF772FF00BF0837BD4680BDF8
:1004E40080B582B000AF786039603B68002B05D0DE
:1004F4007B68DBB21846FFF7D6FF04E07B68DBB20B
:100504001846FFF7B3FF00BF0837BD4680BD80B56E
:1005140082B000AF03460A46FB711346BB71BB7938
:10052400B03300211846FFF7DBFFFB791B09DBB270
:1005340043F01003DBB200211846FFF7D1FFFB792B
:1005440003F00F0300211846FFF7CAFF00BF083766
:10055400BD4680BD80B582B000AF0023FB711EE0B4
:10056400FB79B03300211846FFF7BAFF00210020C1
:10057400FFF7B6FF00211020FFF7B2FF0023BB7185
:1005840006E001210020FFF7ABFFBB790133BB710B
:1005940097F90630002BF4DAFB790133FB71FB7910
:1005A400072BDDD900BF00BF0837BD4680BD000062
:1005B40090B585B000AF0446084611461A46234656
:1005C400FB710346BB710B467B7113463B710023E1
:1005D400BB730023FB737B79203BBB7397F9073014
:1005E400002B04DA0023FB71BB790233BB713B7926
:1005F400102B35D1BA79FB7911461846FFF787FFDE
:100604000023FB730CE0BB7B1A01FB7B1344254ADC
:10061400D35C01211846FFF763FFFB7B0133FB73B7
:10062400FB7B072BEFD9BB790133DAB2FB79114697
:100634001846FFF76CFF0023FB730DE0BB7B1A0128
:10064400FB7B13440833174AD35C01211846FFF798
:1006540047FFFB7B0133FB73FB7B072BEED91CE0CD
:10066400BA79FB7911461846FFF751FF0023FB7353
:1006740010E0BA7BF97B0C4813465B0013445B0023
:1006840003440B441B7801211846FFF729FFFB7B29
:100694000133FB73FB7B052BEBD900BF1437BD463D
:1006A40090BD00BF4C1800082416000880B584B023
:1006B40000AF3A601A460346FB710B46BB71134602
:1006C4007B710023FB7316E0FB7B3A6813441A78B2
:1006D4007B79B979F879FFF76BFFFB790833FB7104
:1006E400FB79782B04D90023FB71BB790233BB71EE
:1006F400FB7B0133FB73FB7B3A6813441B78002BB1
:10070400E2D100BF00BF1037BD4680BD90B585B0B3
:1007140000AF0446084611461A462346FB710346B9
:10072400BB710B467B7113463B710023FB603B7925
:1007340003F00703DBB2002B03D13B79DB08BB7268
:1007440004E03B79DB08DBB20133BB72BB79BB72DB
:100754001CE0BA7AFB7911461846FFF7D8FEFB79FC
:10076400FB720CE0FB685A1CFA603A6A13441B786B
:1007740001211846FFF7B4FEFB7A0133FB72FA7AC3
:100784007B799A42EED3BB7A0133BB72BA7A3B7956
:100794009A42DED300BF00BF1437BD4690BD0000AF
:1007A40080B582B000AF0121042000F093FBA023A8
:1007B400BB801023FB710323BB713B1D19463B48CF
:1007C40000F0E2F9A021394800F09AFA0021AE20A5
:1007D400FFF786FE00210020FFF782FE0021102093
:1007E400FFF77EFE00214020FFF77AFE0021B020B3
:1007F400FFF776FE00218120FFF772FE0021FF2023
:10080400FFF76EFE0021A120FFF76AFE0021A6205B
:10081400FFF766FE0021A820FFF762FE00213F20BB
:10082400FFF75EFE0021C820FFF75AFE0021D32007
:10083400FFF756FE00210020FFF752FE0021D520CD
:10084400FFF74EFE00218020FFF74AFE0021D8204A
:10085400FFF746FE00210520FFF742FE0021D920C4
:10086400FFF73EFE0021F120FFF73AFE0021DA20D7
:10087400FFF736FE00211220FFF732FE0021DB20B5
:10088400FFF72EFE00213020FFF72AFE00218D20E5
:10089400FFF726FE00211420FFF722FE0021AF20DF
:1008A400FFF71EFE00BF0837BD4680BD00080140AB
:1008B40080B500AF4FF4A06000F0F2F800BF80BD37
:1008C40080B588B000AF78600121052000F002FBFC
:1008D40001214FF4003000F01BFB4FF4C06000F026
:1008E400DFF80423BB830323BB771823FB7707F1CB
:1008F4001C0319461F4800F047F90823BB83032350
:10090400BB770423FB7707F11C031946194800F051
:100914003BF94FF4C06000F0C3F826233B72002378
:100924007B720023BB720123FB7207F10803184694
:1009340000F0C8F87B68FB6000233B8200237B82C5
:100944000023BB820C23FB8200233B8307F10C03AF
:100954001946094800F0FAFA0121074800F0B0FBF3
:10096400012240F22551044800F0C9FB00BF2037A2
:10097400BD4680BD000801400044004080B584B0FD
:1009840000AF78600023FB73FB7B7A6813441B7809
:100994009BB219460C4800F0F9FB00BF80210A48BD
:1009A40000F014FC0346002BF8D0FB7B0133FB73EF
:1009B400FB7B7A6813441B78002BE5D100F006F822
:1009C40000BF1037BD4680BD0044004080B582B0F2
:1009D40000AF0023FB710023FB7106E0FB79094A99
:1009E4000021D154FB790133FB71FB79132BF5D929
:1009F400012240F22551044800F081FB00BF083772
:100A0400BD4680BD680800200044004080B582B027
:100A140000AF0023FB7140F225511D4800F0F1FBAB
:100A24000346012B30D140F22551194800F043FC14
:100A3400174800F0BCFB0346FB71164B1B681649B4
:100A4400FA79CA54134B1B680133124A1360FB79B9
:100A54000A2B19D10F4B1B68013B0F4A0021D154BB
:100A64000C4B1B68023B0C4A0021D154094B1B68F8
:100A7400023B0A4A1360074B00221A60002240F22C
:100A84002551034800F03BFB00BF0837BD4680BD3D
:100A9400004400406008002068080020640800202A
:100AA40080B483B000AF7860054A7B6843F0BF63CD
:100AB40043F40033D36000BF0C37BD4680BC70479D
:100AC40000ED00E080B487B000AF786000237B6164
:100AD40000233B610F23FB607B68DB78002B3AD05B
:100AE400274BDB68DB431B0A03F007037B617B694D
:100AF400C3F104033B61FA687B6922FA03F3FB60E8
:100B04007B685B781A463B6902FA03F37B617B6876
:100B14009B781A46FB6813407A6913437B617B69AF
:100B24001B017B61174A7B681B787969C9B213443E
:100B34000A4683F800237B681B7803F01F031149DE
:100B44007A6812785209D2B21046012202FA03F3EB
:100B540041F820300FE07B681B7803F01F0309493C
:100B64007A6812785209D2B2104601229A4000F1F2
:100B7400200341F8232000BF1C37BD4680BC7047CA
:100B840000ED00E000E100E080B489B000AF7860DF
:100B940039600023FB6100233B610023BB61002318
:100BA400FB6000237B610023BB603B68DB7803F0C0
:100BB4000F03FB613B68DB7803F01003002B05D0C7
:100BC4003B689B781A46FB691343FB613B681B88AF
:100BD400DBB2002B44D07B681B687B610023BB61C4
:100BE40038E00122BB6902FA03F3FB603B681B880F
:100BF4001A46FB6813403B613A69FB689A4226D166
:100C0400BB699B00FB600F22FB6802FA03F3BB6025
:100C1400BB68DB437A6913407B61FA69FB6802FABB
:100C240003F37A6913437B613B68DB78282B05D196
:100C34000122BB699A407B685A6108E03B68DB7813
:100C4400482B04D10122BB699A407B681A61BB69B5
:100C54000133BB61BB69072BC3D97B687A691A600E
:100C64003B681B88FF2B46D97B685B687B6100234C
:100C7400BB613AE0BB690833012202FA03F3FB606B
:100C84003B681B881A46FB6813403B613A69FB6862
:100C94009A4227D1BB699B00FB600F22FB6802FAD2
:100CA40003F3BB60BB68DB437A6913407B61FA6979
:100CB400FB6802FA03F37A6913437B613B68DB78D0
:100CC400282B05D1BB69083301229A407B685A61FD
:100CD4003B68DB78482B05D1BB69083301229A4075
:100CE4007B681A61BB690133BB61BB69072BC1D93E
:100CF4007B687A695A6000BF2437BD4680BC704760
:100D040080B483B000AF78600B467B807A887B68C0
:100D14001A6100BF0C37BD4680BC704780B483B0F5
:100D240000AF78600B467B807A887B685A6100BF8D
:100D34000C37BD4680BC704780B483B000AF786088
:100D44000B467B8013467B707B78002B03D07A881C
:100D54007B681A6102E07A887B685A6100BF0C37AD
:100D6400BD4680BC7047000080B487B000AF786097
:100D740000237B6100233B610023FB600023BB60F5
:100D84004F4B5B6803F00C037B617B69082B11D02C
:100D94007B69082B3AD87B69002B03D07B69042B31
:100DA40004D033E07B68474A1A6033E07B68454AE5
:100DB4001A602FE0424B5B6803F470133B61404BB5
:100DC4005B6803F48033FB603B699B0C02333B613B
:100DD400FB68002B06D13B693B4A02FB03F27B68AC
:100DE4001A6017E0364B5B6803F40033002B06D01F
:100DF4003B69354A02FB03F27B681A600AE03B69EF
:100E0400304A02FB03F27B681A6003E07B682D4AD8
:100E14001A6000BF2A4B5B6803F0F0037B617B69B7
:100E24001B097B61294A7B6913441B78DBB2BB60D5
:100E34007B681A68BB68DA407B685A60204B5B6841
:100E440003F4E0637B617B691B0A7B611F4A7B6956
:100E540013441B78DBB2BB607B685A68BB68DA401A
:100E64007B689A60164B5B6803F460537B617B6913
:100E7400DB0A7B61154A7B6913441B78DBB2BB60D8
:100E84007B685A68BB68DA407B68DA600C4B5B6845
:100E940003F440437B617B699B0B7B610C4A7B6958
:100EA40013441B78DBB2BB607B68DA68BB68B2FBB7
:100EB400F3F27B681A6100BF1C37BD4680BC7047E3
:100EC4000010024000127A0000093D0000040020D6
:100ED4001004002080B483B000AF78600B46FB7030
:100EE400FB78002B06D0094B9A6908497B681343A9
:100EF4008B6106E0054B9A697B68DB430349134029
:100F04008B6100BF0C37BD4680BC704700100240A7
:100F140080B483B000AF78600B46FB70FB78002B85
:100F240006D0094BDA6908497B681343CB6106E0B4
:100F3400054BDA697B68DB4303491340CB6100BF8F
:100F44000C37BD4680BC70470010024080B58CB0A1
:100F540000AF786039600023FB620023BB6200238A
:100F64007B6200233B620023FB617B68FB617B683F
:100F74001B8A9BB2FB62FA6A4CF6FF731340FB6256
:100F84003B68DB881A46FB6A1343FB62FB6A9AB22E
:100F94007B681A827B689B899BB2FB62FA6A4EF675
:100FA400F3131340FB623B689A883B681B89134325
:100FB4009AB23B685B8913439BB21A46FB6A13439C
:100FC400FB62FB6A9AB27B689A817B689B8A9BB2BC
:100FD400FB62FA6A4FF6FF431340FB623B689B894E
:100FE4001A46FB6A1343FB62FB6A9AB27B689A82D5
:100FF40007F108031846FFF7B7FEFB692E4A934230
:1010040002D17B69BB6201E03B69BB627B689B895F
:101014009BB21BB2002B0CDABA6A13469B00134432
:101024009A001A443B681B685B00B2FBF3F37B62D3
:101034000BE0BA6A13469B0013449A001A443B68B7
:101044001B689B00B2FBF3F37B627B6A1B4AA2FB27
:1010540003235B091B01FB62FB6A1B09642202FB7D
:1010640003F37A6AD31A3B627B689B899BB21BB2F7
:10107400002B0CDA3B6ADB003233104AA2FB032359
:101084005B0903F00703FA6A1343FB620BE03B6A54
:101094001B013233094AA2FB03235B0903F00F034C
:1010A400FA6A1343FB62FB6A9AB27B681A8100BF37
:1010B4003037BD4680BD00BF003801401F85EB516D
:1010C40080B483B000AF78600B46FB70FB78002BD4
:1010D40008D07B689B899BB243F400539AB27B6827
:1010E4009A8107E07B689B899BB223F400539AB2F0
:1010F4007B689A8100BF0C37BD4680BC704780B4C2
:1011040087B000AF78600B467B8013467B7000236A
:101114003B610023FB600023BB6000237B617B6891
:101124007B617B88DBB25B09DBB23B617B8803F0CC
:101134001F03FB600122FB6802FA03F3BB603B69F7
:10114400012B03D17B690C337B6109E03B69022BE2
:1011540003D17B6910337B6102E07B6914337B61CB
:101164007B78002B06D07B6919687B69BA680A43CF
:101174001A6006E07B691968BB68DA437B690A4038
:101184001A6000BF1C37BD4680BC704780B483B072
:1011940000AF78600B467B807B88C3F308039AB268
:1011A4007B689A8000BF0C37BD4680BC704780B412
:1011B40083B000AF78607B689B889BB2C3F308035D
:1011C4009BB218460C37BD4680BC704780B485B0CE
:1011D40000AF78600B467B800023FB737B681B8821
:1011E4009AB27B8813409BB2002B02D00123FB737D
:1011F40001E00023FB73FB7B18461437BD4680BC1B
:10120400704780B487B000AF78600B467B800023C2
:10121400FB6000237B610023BB600023FB747B889D
:10122400DBB25B09DBB2BB607B8803F01F037B612D
:1012340001227B6902FA03F37B61BB68012B07D1AE
:101244007B689B899BB21A467B6913407B6111E0E2
:10125400BB68022B07D17B681B8A9BB21A467B6949
:1012640013407B6106E07B689B8A9BB21A467B69CC
:1012740013407B617B881B0A9BB2FB600122FB68E5
:1012840002FA03F3FB607B681B889BB21A46FB6877
:101294001340FB607B69002B05D0FB68002B02D058
:1012A4000123FB7401E00023FB74FB7C18461C370C
:1012B400BD4680BC704780B485B000AF78600B46F3
:1012C4007B800023FB810023BB817B881B0AFB817D
:1012D400FB89012202FA03F3BB81BB89DB439AB287
:1012E4007B681A8000BF1437BD4680BC704700007D
:1012F40080B500AF134B1B68124A43F0010313601F
:10130400104B5A680F49104B13404B600D4B1B6830
:101314000C4A23F0847323F480331360094B1B6855
:10132400084A23F480231360064B5B68054A23F4C0
:10133400FE035360034B4FF41F029A6000F006F85B
:1013440000BF80BD001002400000FFF880B500AF70
:1013540000F002F800BF80BD80B483B000AF00236A
:101364007B6000233B603A4B1B68394A43F480336B
:101374001360374B1B6803F400333B607B68013315
:101384007B603B68002B03D17B68B3F5A06FF0D181
:101394002F4B1B6803F40033002B02D001233B6066
:1013A40001E000233B603B68012B4BD1294B1B68B8
:1013B400284A43F010031360264B1B68254A23F088
:1013C40003031360234B1B68224A43F00203136098
:1013D4001F4B1F4A5B6853601D4B1D4A5B6853607B
:1013E4001B4B5B681A4A43F480635360184B5B6879
:1013F400174A23F47C135360154B5B68144A43F477
:10140400E8135360124B1B68114A43F08073136056
:1014140000BF0F4B1B6803F00073002BF9D00C4B7B
:101424005B680B4A23F003035360094B5B68084A6B
:1014340043F00203536000BF054B5B6803F00C03E9
:10144400082BF9D100BF0C37BD4680BC704700BFE4
:101454000010024000200240002103E00B4B5B58C7
:10146400435004310A480B4B42189A42F6D30A4AB5
:1014740002E0002342F8043B084B9A42F9D3FFF7F9
:1014840037FF00F00FF8FEF7F7FE70474C1E000818
:10149400000000204408002044080020A008002088
:1014A400FEE7000070B50D4E0D4D761BB61006D04C
:1014B400002455F8043B01349847A642F9D1094E5B
:1014C400094D00F083F8761BB61006D0002455F8B9
:1014D400043B01349847A642F9D170BD401E000870
:1014E400401E0008481E0008401E0008024B13B1AD
:1014F400024800F005B8704700000000111500080C
:10150400002301461A46184600F01AB838B5084BAD
:10151400084D5B1B9C1007D0043B1D44013C55F84F
:1015240004399847002CF9D1BDE8384000F054B88C
:101534004C1E0008481E0008704700BF704700BFDB
:101544002DE9F047DFF880A00646DAF80000984657
:101554000F469146FFF7F0FF1A4B1B68D3F848413A
:1015640024B365681F2D26DC5EB96B1C0235DAF8DE
:101574000000636044F82570FFF7E0FF0020BDE839
:10158400F087012304EB8501C1F88890D4F8882101
:10159400AB401A43022EC4F88821C1F80881E4D173
:1015A400D4F88C211343C4F88C31DEE703F5A67418
:1015B400C3F84841D5E7DAF80000FFF7BFFF4FF062
:1015C400FF30DCE73C1E000840080020F8B500BFEF
:1015D400F8BC08BC9E467047F8B500BFF8BC08BC10
:0415E4009E46704768
:1015E80073746D333266313033524300E4B8ADE67C
:1015F8009687E4B8B2E58FA3E6B58BE8AF950D0AF8
:10160800456E676C6973682073657269616C2070D8
:101618006F727420746573740D0A00000000000076
:1016280000000000002F0000000007000700001461
:101638007F147F1400242A7F2A120062640813236F
:1016480000364955225000000503000000001C2206
:101658004100000041221C000014083E0814000844
:10166800083E0808000000A06000000808080808F4
:10167800000060600000002010080402003E51498C
:10168800453E0000427F400000426151494600212A
:1016980041454B31001814127F1000274545453944
:1016A800003C4A494930000171090503003649499F
:1016B800493600064949291E000036360000000058
:1016C80056360000000814224100001414141414A3
:1016D800000041221408000201510906003249594C
:1016E800513E007C1211127C007F49494936003E68
:1016F80041414122007F4141221C007F4949494123
:10170800007F09090901003E4149497A007F08081C
:10171800087F0000417F4100002040413F01007FD9
:1017280008142241007F40404040007F020C027FA5
:10173800007F0408107F003E4141413E007F0909B7
:101748000906003E4151215E007F091929460046DD
:10175800494949310001017F0101003F4040403FB4
:10176800001F2040201F003F4038403F00631408FE
:1017780014630007087008070061514945430000D9
:101788007F41410000552A552A55000041417F00FC
:1017980000040201020400404040404000000102F1
:1017A8000400002054545478007F484444380038DA
:1017B8004444442000384444487F00385454541862
:1017C80000087E0901020018A4A4A47C007F080474
:1017D80004780000447D4000004080847D00007F44
:1017E800102844000000417F4000007C0418047861
:1017F800007C0804047800384444443800FC24245D
:1018080024180018242418FC007C08040408004844
:101818005454542000043F444020003C4040207C65
:10182800001C2040201C003C4030403C0044281054
:101838002844001CA0A0A07C004464544C44141408
:101848001414141400000000000000000000000040
:1018580000000000000000F8000000000000003355
:101868003000000000100C06100C060000000000FC
:101878000000000040C07840C0784000043F0404E5
:101888003F040400007088FC08300000001820FFA6
:10189800211E0000F008F000E018000000211C03E1
:1018A8001E211E0000F00888700000001E2123245D
:1018B8001927211010160E0000000000000000007B
:1018C80000000000000000E018040200000000070B
:1018D8001820400000020418E00000000040201812
:1018E80007000000404080F0804040000202010FE5
:1018F80001020200000000F0000000000101011FC9
:1019080001010100000000000000000080B070002C
:1019180000000000000000000000000000010101BC
:10192800010101010000000000000000003030004B
:101938000000000000000000806018040060180625
:101948000100000000E010080810E000000F10205F
:1019580020100F00001010F8000000000020203FA9
:101968002020000000700808088870000030282433
:1019780022213000003008888848300000182020D4
:1019880020110E000000C02010F8000000070424F9
:10199800243F240000F8088888080800001921203E
:1019A80020110E0000E0108888180000000F112098
:1019B80020110E0000380808C83808000000003F51
:1019C800000000000070880808887000001C2221B0
:1019D80021221C0000E010080810E000000031225D
:1019E80022110F00000000C0C000000000000030FD
:1019F800300000000000008000000000000080604F
:101A080000000000000080402010080000010204CF
:101A180008102000404040404040400004040404B6
:101A28000404040000081020408000000020100872
:101A380004020100007048080808F00000000030A7
:101A480036010000C030C828E810E0000718272435
:101A580023140B000000C038E0000000203C2302E3
:101A68000227382008F8888888700000203F202046
:101A780020110E00C0300808080838000718202078
:101A88002010080008F808080810E000203F20206F
:101A980020100F0008F88888E8081000203F202050
:101AA8002320180008F88888E8081000203F200044
:101AB80003000000C030080808380000071820207C
:101AC800221E020008F808000008F808203F21013B
:101AD80001213F20000808F8080800000020203FE6
:101AE8002020000000000808F8080800C080808056
:101AF8007F00000008F888C028180800203F20014F
:101B08002638200008F8080000000000203F2020A8
:101B18002020300008F8F800F8F80800203F003FBF
:101B2800003F200008F830C00008F808203F2000D7
:101B380007183F00E01008080810E0000F102020E8
:101B480020100F0008F808080808F000203F2101BD
:101B580001010000E01008080810E0000F18242414
:101B680038504F0008F8888888887000203F200087
:101B7800030C30200070880808083800003820213D
:101B880021221C00180808F8080818000000203F47
:101B98002000000008F808000008F808001F2020AE
:101BA80020201F000878880000C83808000007387F
:101BB8000E010000F80800F80008F800033C0700D0
:101BC800073C0300081868808068180820302C0338
:101BD800032C30200838C800C83808000000203F0F
:101BE8002000000010080808C838080020382621FE
:101BF80020201800000000FE020202000000007F02
:101C080040404000000C30C000000000000000010F
:101C18000638C00000020202FE00000000404040FA
:101C28007F0000000000040202020400000000001F
:101C3800000000000000000000000000808080809C
:101C48008080808000020204000000000000000084
:101C5800000000000000808080800000001924221D
:101C680022223F2008F8008080000000003F112059
:101C780020110E000000008080800000000E11205E
:101C880020201100000000808088F800000E11203C
:101C980020103F200000808080800000001F22224A
:101CA80022221300008080F0888888180020203FB6
:101CB800202000000000808080808000006B9494C9
:101CC8009493600008F8008080800000203F210085
:101CD80000203F2000809898000000000020203F4E
:101CE80020200000000000809898000000C080803C
:101CF800807F000008F8000080808000203F2402D8
:101D08002D302000000808F8000000000020203FC7
:101D1800202000008080808080808000203F20007C
:101D28003F20003F8080008080800000203F21000D
:101D380000203F200000808080800000001F2020BD
:101D480020201F00808000808000000080FFA120EC
:101D580020110E000000008080808000000E1120FD
:101D680020A0FF80808080008080800020203F218C
:101D7800200001000000808080808000003324243F
:101D880024241900008080E0808000000000001FEB
:101D9800202000008080000000808000001F20209C
:101DA80020103F20808080000080808000010E305D
:101DB8000806010080800080008080800F300C03BE
:101DC8000C300F0000808000808080000020312EC1
:101DD8000E312000808080000080808080818E709D
:101DE8001806010000808080808080000021302C4F
:101DF8002221300000000000807C02020000000068
:101E0800003F404000000000FF000000000000000C
:101E1800FF0000000002027C800000000040403FFC
:101E28000000000000060101020204040000000096
:081E3800000000001804002066
:081E4000F1140008090200087A
:041E4800E5010008A8
:101E4C000003050911FF118905C300E000F000F83B
:101E5C00000000000000004428FF11AA440000000C
:101E6C000000000000000000000000000000000066
:101E7C000000000000000000000000000000000056
:101E8C000000000000000000000000000000000046
:101E9C000000000000000000000083013844829222
:101EAC0092740183000000000000007C44FF017D5F
:101EBC007D7D017D7D7D7D017D7D7D7D7D01FF00B5
:101ECC000000000000010001000100010001000100
:101EDC0000000000000000000001010000000000F4
:101EEC0000000000000000000000000000000000E6
:101EFC0000000000000000000000000000000000D6
:101F0C0000000000000000000000000000000000C5
:101F1C0000000000000000000000010100000000B3
:101F2C0000000101000000000000000000010101A0
:101F3C000101010101010101010101010101010086
:101F4C000000000000000000000000000000000085
:101F5C000000000000000000000000003F3F0303F1
:101F6C00F31311111111111101F111618101010111
:101F7C00816111F1010101014141F10101010101F5
:101F8C00C1211111111121C1010101014141F101C5
:101F9C000101010101010101011111111111D333D1
:101FAC0003033F3F000000000000000000000000A1
:101FBC000000000000000000000000000000000015
:101FCC000000000000000000000000000000000005
:101FDC00000000000000000000000000E0E0000035
:101FEC007F01010101010100007F000001061806BC
:101FFC000100007F0000000040407F4040000000D6
:10200C001F2040404040201F0000000040407F4007
:10201C004000000000600000000040300C03000095
:10202C000000E0E0000000000000000000000000E4
:10203C000000000000000000000000000000000094
:10204C000000000000000000000000000000000084
:10205C00000000000000000000000000070706065A
:10206C000606040404844444448404048444444420
:10207C008404040484C40404040484444444840494
:10208C000404040484444444840404040404844484
:10209C004444840404844444448404040404060630
:1020AC00060607070000000000000000000000000A
:1020BC000000000000000000000000000000000014
:1020CC000000000000000000000000000000000004
:1020DC0000000000000000000000000000000000F4
:1020EC000000000000101814121100000F10101046
:1020FC000F000000101F10000000081012120D003D
:10210C00001800000D1212120D000018000010181B
:10211C00141211000010181412110000000000001D
:10212C0000000000000000000000000000000000A3
:10213C000000000000000000000000000000000093
:10214C000000000000000000000000000000000083
:10215C000000000000000000000000000000000073
:10216C000000000000000000000000000000000063
:10217C000000000000000000000000008080808053
:10218C008080808000000000000000000000000043
:10219C000000000000000000000000000000000033
:1021AC000000000000000000000000000000000023
:1021BC000000000000000000000000000000000013
:1021CC00007F030C300C037F00003854545800007F
:1021DC007C04047800003C40407C000000000000BF
:1021EC0000000000000000000000000000000000E3
:1021FC00000000000000000000000000FFAAAAAAD6
:10220C00280800FF00000000000000000000000093
:10221C0000000000000000000000000000000000B2
:10222C000000000000000000007F030C300C037F56
:10223C000000264949493200007F020408107F0043
:10224C000000000001020304010203040607080950
:10225C000204060800000000000000000407002033
:10226C006C070020D40700200000000000000000D4
:10227C000000000000000000000000000000000052
:10228C000000000000000000000000000000000042
:10229C000000000000000000000000000000000032
:1022AC000000000000000000000000000000000022
:1022BC000000000000000000000000000000000012
:1022CC000000000000000000000000000000000002
:1022DC0000000000000000000000000000000000F2
:1022EC0000000000000000000000000000000000E2
:1022FC0000000000000000000000000000000000D2
:10230C0001000000000000000E33CDAB34126DE66E
:10231C00ECDE05000B0000000000000000000000D7
:10232C0000000000000000000000000000000000A1
:10233C000000000000000000000000000000000091
:10234C000000000000000000000000000000000081
:10235C000000000000000000000000000000000071
:04268C007C080020A6
:040000050800145D7E
:00000001FF
