:020000040800F2
:10000000C81E0020F1190008F5170008F7170008AE
:10001000FB170008FF170008031800080000000085
:1000200000000000000000000000000007180008A9
:1000300009180008000000000B1800080D1800083F
:100040000B1A00080B1A00080B1A00080B1A0008FC
:100050000B1A00080B1A00080B1A00080B1A0008EC
:100060000B1A00080B1A00080B1A00080B1A0008DC
:100070000B1A00080B1A00080B1A00080B1A0008CC
:100080000B1A00080B1A00080B1A00080B1A0008BC
:100090000B1A00080B1A00080B1A00080B1A0008AC
:1000A0000B1A00080B1A00080B1A00080B1A00089C
:1000B000031600080B1A00080B1A00080B1A000898
:1000C0000B1A00080B1A00080B1A00080B1A00087C
:1000D0000B1A00086F1100080B1A00080B1A000811
:1000E0000B1A00080B1A00080B1A00080B1A00085C
:1000F0000B1A00080B1A00080B1A00080B1A00084C
:100100000B1A00080B1A00080B1A00080B1A00083B
:100110000B1A00080B1A00080B1A00080B1A00082B
:100120000B1A00080B1A00080B1A00080B1A00081B
:10013000DFF80CD003F04CFD0048004787120008A0
:10014000C81E002010B58021F94801F0DEFD2021F5
:10015000F74801F0DAFD2021F54801F0D8FD8021B3
:10016000F34801F0D4FD10BD10B58021F04801F036
:10017000CCFD2021EE4801F0CAFD2021EC4801F021
:10018000C4FD10BD10B58021E94801F0BEFD8021FD
:10019000E74801F0BCFD10BD2DE9F04105462C46B5
:1001A0008021E34801F0B3FD002619E0274607F05F
:1001B0008007802F04D12021DD4801F0A6FD03E057
:1001C0002021DB4801F0A3FD6006040E8021D84801
:1001D00001F09BFD8021D64801F099FD701CC6B24C
:1001E000082EE3DBBDE8F08110B50446FFF7AAFF57
:1001F0007820FFF7D1FFFFF7C5FF0020FFF7CCFF06
:10020000FFF7C0FF2046FFF7C7FFFFF7BBFFFFF771
:10021000ABFF10BD10B50446FFF794FF7820FFF741
:10022000BBFFFFF7AFFF4020FFF7B6FFFFF7AAFFC6
:100230002046FFF7B1FFFFF7A5FFFFF795FF10BDC1
:1002400070B504460D461DB1E0B2FFF7E3FF02E0D2
:10025000E0B2FFF7C9FF70BD70B50646002418E094
:1002600004F1B0000021FFF7EBFF00210846FFF783
:10027000E7FF00211020FFF7E3FF002505E0012143
:100280003046FFF7DDFF681CC5B2802DF7DB601C30
:10029000C4B2082CE4DB70BD06E041F6650100E065
:1002A000491E0029FCD1401E0028F6D170470146A6
:1002B00005E0002001E0421CD0B27B28FBDB0A1ED7
:1002C000A1F10101F5D1704770B504460D4605F165
:1002D000B0000021FFF7B4FF102141EA1410002103
:1002E000FFF7AEFF04F00F000021FFF7A9FF70BD7C
:1002F00010B500218D20FFF7A3FF00211420FFF788
:100300009FFF0021AF20FFF79BFF10BD10B500211C
:100310008D20FFF795FF00211020FFF791FF0021AE
:10032000AE20FFF78DFF10BD70B5002418E004F17A
:10033000B0000021FFF784FF00210846FFF780FF8F
:1003400000211020FFF77CFF002505E0012100209F
:10035000FFF776FF681CC5B2802DF7DB601CC4B2C6
:10036000082CE4DB70BD70B5002418E004F1B00087
:100370000021FFF765FF00210846FFF761FF00211C
:100380001020FFF75DFF002505E001210846FFF77B
:1003900057FF681CC5B2802DF7DB601CC4B2082C67
:1003A000E4DB70BD2DE9F04707460E4690469946BE
:1003B00000250024A8F12000C5B27F2F02DD002710
:1003C000B01CC6B2B9F1100F24D131463846FFF740
:1003D0007BFF002408E004EB0511564A505C012124
:1003E000FFF72EFF601CC4B2082CF4DB701CC1B2F6
:1003F0003846FFF769FF002409E004EB05110831D6
:100400004C4A505C0121FFF71BFF601CC4B2082C52
:10041000F3DB12E031463846FFF756FF00240AE0CE
:1004200005EB4501444A02EB4101085D0121FFF75C
:1004300007FF601CC4B2062CF2DBBDE8F08710B5E4
:100440000246012000E050430B1EA1F10104E1B27D
:10045000F9D110BD2DE9FF5F074691461E460E9D5E
:100460004FF0000A002435E0301B401EC1B20A20C4
:10047000FFF7E5FFB9FBF0F00A21B0FBF1F201FB59
:100480001208BAF1000F14D1701EA04211DDB8F1AC
:10049000000F0CD1AB4605EBDB71491001FB047179
:1004A000C8B22B4620220199FFF77CFF10E04FF0E5
:1004B000010AAB4605EBDB71491001FB0471C8B2C0
:1004C00008F13001CAB22B460199FFF76BFF00BF5C
:1004D000601CC4B2B442C7DBBDE8FF9F2DE9F04108
:1004E00004460F461546984600260FE0AA5D43468F
:1004F00039462046FFF756FF04F10800C4B2782CB5
:1005000002DD0024B81CC7B2701CC6B2A85D00286A
:10051000ECD1BDE8F0812DE9F04180460E4615464C
:10052000002731464046FFF7CFFE002411E00000CF
:1005300000080140B0410008883F0008994A02EBDA
:100540008511085D0121FFF77BFE781CC7B2601C96
:10055000C4B2102CF2DB701CC1B24046FFF7B4FEEF
:1005600000240CE06900491C8E4A02EB4111085D31
:100570000121FFF765FE781CC7B2601CC4B2102CC5
:10058000F0DBBDE8F0812DE9F05F06460F469046AE
:100590001C46DDF828A04FF0000BE11704EB517169
:1005A000C910A4EBC10131B92046E11704EB517128
:1005B000C1F3C70506E02046E11704EB5171C910ED
:1005C000491CCDB23D4615E029463046FFF77CFE7A
:1005D000B1460BE059460BF1010B1AF8010001215D
:1005E000FFF72EFE09F1010000F0FF09C145F1DB24
:1005F000681CC5B2A542E7DBBDE8F09F08B5012144
:10060000042001F091FDA020ADF8000010208DF82D
:10061000030003208DF802006946634801F0C8FA20
:10062000A021614801F071FB0021AE20FFF708FE18
:1006300000210846FFF704FE00211020FFF700FE0E
:1006400000214020FFF7FCFD0021B020FFF7F8FD5E
:1006500000218120FFF7F4FD0021FF20FFF7F0FDCE
:100660000021A120FFF7ECFD0021A620FFF7E8FD07
:100670000021A820FFF7E4FD00213F20FFF7E0FD67
:100680000021C820FFF7DCFD0021D320FFF7D8FDB3
:1006900000210846FFF7D4FD0021D520FFF7D0FD4B
:1006A00000218020FFF7CCFD0021D820FFF7C8FDF6
:1006B00000210520FFF7C4FD0021D920FFF7C0FD70
:1006C0000021F120FFF7BCFD0021DA20FFF7B8FD83
:1006D00000211220FFF7B4FD0021DB20FFF7B0FD61
:1006E00000213020FFF7ACFD00218D20FFF7A8FD91
:1006F00000211420FFF7A4FD0021AF20FFF7A0FD8B
:1007000008BD08B501211C2001F00EFD0620ADF842
:10071000000010208DF8030003208DF802006946C8
:10072000224801F045FA4FF48070ADF80000102027
:100730008DF8030003208DF8020069461A4801F085
:1007400037FA4FF4C070ADF8000010208DF80300A8
:1007500003208DF802006946154801F029FA4FF48C
:10076000C071134801F0D3FA4FF40070ADF80000E7
:1007700004208DF8030003208DF8020069460C4820
:1007800001F016FA4FF48050ADF8000004208DF807
:10079000030003208DF802006946034801F008FABF
:1007A00008BD0000000000200008014000100140CA
:1007B000000C014000B587B001214FF4017001F039
:1007C000B3FC4E20ADF8180003208DF81A0000206D
:1007D0008DF81B0006A91F4801F0EAF900200190DE
:1007E0008DF808008DF80900049001208DF81400A0
:1007F0004FF46020039001A9174802F0AAF80121E4
:10080000154802F0D2F8144802F000F900BF12486F
:1008100002F001F90028FAD107B000BD10B5044676
:1008200001210D4802F001F9E1B2072301220A4833
:1008300002F027F900BF0221074802F067FA0028FA
:10084000F9D00221044802F06AFA034802F080F964
:1008500010BD0000000801400024014000B587B031
:100860000121C80301F06DFC01213D2001F05CFC79
:100870000121F94801F06DFA4FF40040ADF8040091
:1008800003208DF8060010208DF8070001A9F34819
:1008900001F08EF90820ADF8040018208DF807004B
:1008A00001A9EF4801F084F91020ADF8040001A976
:1008B000EB4801F07DF92020ADF8040001A9E848DB
:1008C00001F076F94FF40041E44801F01EFA0020EF
:1008D000ADF808004FF48270ADF80A000020ADF8C2
:1008E0000C000220ADF80E000120ADF8100040020F
:1008F000ADF812000020ADF81400ADF81600072086
:10090000ADF8180002A9D74801F09CFE0121D54896
:1009100001F03DFF07B000BD10B504462146D2A04E
:1009200003F0B2F9002010BD10B504464FF480501A
:10093000D94908600AE0D8490868411ED64A1160C2
:1009400020B90020FFF7E8FFC0B210BD0221C54862
:1009500001F0A1FF0028EED02146C24801F048FF77
:100960004FF48050CC4908600AE0CB490868411E2A
:10097000C94A116020B90120FFF7CEFFC0B2E4E7F9
:100980000121B84801F087FF0028EED0B54801F0FA
:1009900031FFC0B2D9E770B50025002400264FF41E
:1009A0000041AE4801F0B3F90520FFF7BDFF00BFDD
:1009B000FF20FFF7B9FF06466D1CB848B5FBF0F104
:1009C00000FB1150002851D1641C0B2C4DD2DFE8E4
:1009D00004F04C060D141B222930373E45005023ED
:1009E000AFA200210846FFF779FD3EE05023B1A2F7
:1009F00000210846FFF772FD37E05023B2A2002124
:100A00000846FFF76BFD30E05023B5A200210846F1
:100A1000FFF764FD29E05023B7A200210846FFF745
:100A20005DFD22E05023BBA200210846FFF756FDE2
:100A30001BE05023BEA200210846FFF74FFD14E043
:100A40005023C2A200210846FFF748FD0DE05023C5
:100A5000C6A200210846FFF741FD06E05023CBA2C5
:100A600000210846FFF73AFD00BF00BF06F0010075
:100A700000289DD14FF40041784801F046F970BD3F
:100A800010B54FF40041754801F041F90620FFF719
:100A90004BFF4FF40041714801F037F910BD10B51C
:100AA0000446FFF7EDFFFFF776FF4FF400416B4878
:100AB00001F02DF92020FFF737FFC4F30740FFF7BF
:100AC00033FFC4F30720FFF72FFFE0B2FFF72CFF3F
:100AD0004FF40041614801F018F9FFF75CFF10BDC9
:100AE00010B5FFF7CDFF4FF400415C4801F00FF95E
:100AF000C720FFF719FF4FF40041584801F005F9EE
:100B0000FFF749FF10BD70B505460C461646FFF7C6
:100B1000B7FF4FF40041514801F0F9F80220FFF708
:100B200003FFC4F30740FFF7FFFEC4F30720FFF7FE
:100B3000FBFEE0B2FFF7F8FEB6F5807F04DD4FF470
:100B400080769AA003F0A0F803E02878FFF7ECFE87
:100B50006D1C301EA6F101018EB2F6D14FF400419A
:100B60003E4801F0D2F8FFF716FF70BD2DE9F05FA7
:100B700007460E4614464FF00008C146C2460025FF
:100B8000AB4606F0FF0ACAF10000C5B22046E117E5
:100B900004EB1161C1F30728E11704EB116109129D
:100BA000A4EB012101F0FF09BAF1000F20D1B8F147
:100BB000000F05D1224631463846FFF7A4FF28E151
:100BC00009E04FF4807231463846FFF79CFF06F586
:100BD000807607F58077B8F10000A8F1010101F0F7
:100BE000FF08EED14A4631463846FFF78CFF10E148
:100BF000B8F1000F18D1A94510DDA9EB050000F0F0
:100C0000FF0B2A4631463846FFF77DFF2E442F441E
:100C10005A4631463846FFF776FFFAE0224631461B
:100C20003846FFF770FFF4E0601B84B22046E117FE
:100C300004EB1161C1F30728E11704EB11610912FC
:100C4000A4EB012101F0FF092A4631463846FFF79F
:100C50005AFF2E442F44CDE000023000000801402E
:100C6000000C0140003C00403C3C2D464C415348A8
:100C70002D4552524F522D3E3E2053504920B5C86B
:100C8000B4FDB3ACCAB1216572726F72436F646513
:100C9000203D2025640A00008001002070640800C7
:100CA0002020496E697469616C697A696E672020D9
:100CB000202A00002020496E697469616C697A6994
:100CC0006E672020202A2A002020496E69746961FD
:100CD0006C697A696E672020202A2A202A00000089
:100CE0002020496E697469616C697A696E67202099
:100CF000202A2A202A2A00002020496E697469616E
:100D00006C697A696E672020202A2A202A2A202AE4
:100D1000000000002020496E697469616C697A697D
:100D20006E672020202A2A202A2A202A2A00000052
:100D30002020496E697469616C697A696E67202048
:100D4000202A2A202A2A202A2A202A002020496E06
:100D5000697469616C697A696E672020202A2A208B
:100D60002A2A202A2A202A2A000000002020496E50
:100D7000697469616C697A696E672020202A2A206B
:100D80002A2A202A2A202A2A202A00002020496EE6
:100D9000697469616C697A696E672020202A2A204B
:100DA0002A2A202A2A202A2A202A2A003C3C2D46A8
:100DB0004C4153482D4552524F522D3E3E205350E8
:100DC000495F464C4153485F50616765577269748B
:100DD0006520746F6F206C61726765210A000000E6
:100DE0004FF4807231463846FFF78DFE06F5807667
:100DF00007F58077B8F10000A8F1010101F0FF08C4
:100E0000EED1B9F1000F04D04A4631463846FFF71B
:100E10007AFEBDE8F09F70B505460C4616464FF4C5
:100E200000416A4800F073FF0320FFF77DFDC4F323
:100E30000740FFF779FDC4F30720FFF775FDE0B227
:100E4000FFF772FD04E0FF20FFF76EFD28706D1CB8
:100E5000301EA6F101018EB2F5D14FF400415B487E
:100E600000F053FF70BD2DE9F0410024002500265D
:100E700000274FF40041554800F049FF9F20FFF73D
:100E800053FDFF20FFF750FD0546FF20FFF74CFD07
:100E90000646FF20FFF748FD07464FF400414B4848
:100EA00000F033FF280440EA062040EA0704204609
:100EB000BDE8F08110B500244FF40041434800F034
:100EC00026FFAB20FFF730FDFF20FFF72DFDFF20B1
:100ED000FFF72AFDFF20FFF727FDFF20FFF724FD86
:100EE00004464FF40041394800F00FFF204610BD82
:100EF00010B504464FF40041344800F008FF0320C9
:100F0000FFF712FDC4F30740FFF70EFDC4F30720FF
:100F1000FFF70AFDE0B2FFF707FD10BD10B5FF2097
:100F2000FFF702FD10BD10B504464FF4805028496C
:100F3000086009E026490868411E254A116018B971
:100F40000220FFF7E9FC10BD0221224801F0A3FCBA
:100F50000028EFD021461F4801F04AFC4FF4805092
:100F60001B49086009E01A490868411E184A1160C7
:100F700018B90320FFF7D0FCE5E70121154801F07F
:100F80008AFC0028EFD0134801F034FCDBE710B5F1
:100F90004FF400410D4800F0BAFEB920FFF7C4FC41
:100FA0004FF40041094800F0B0FE10BD10B54FF4F9
:100FB0000041064800F0ABFEAB20FFF7B5FC4FF454
:100FC0000041024800F0A1FE10BD000000080140F1
:100FD00080010020003C004010B56FF0040000F0DC
:100FE00068FD2E4800682E49B0FBF1F02D490870CD
:100FF0000846007800EB4001C1EBC0104FF6FF71CE
:1010000001EAC0002849088010BD0146254A12782F
:101010004A434FF0E0235A6100229A611A4612694E
:1010200042F001021A6100BF4FF0E022106900F0A7
:1010300001021AB100F48032002AF5D04FF0E0220C
:10104000126922F001024FF0E0231A6100229A6136
:1010500070470146144A12884A434FF0E0235A6110
:1010600000229A611A46126942F001021A6100BF19
:101070004FF0E022106900F001021AB100F4803252
:10108000002AF5D04FF0E022126922F001024FF061
:10109000E0231A6100229A6170470000BC19002009
:1010A00000127A00840100208601002010B54FF460
:1010B000A06000F0AFFC10BD014600BF704700BF4C
:1010C000494A128802F04002002AF9D0C2B2464BC7
:1010D0001B1D1A80704710B586B00446012144F2EA
:1010E000050001F021F84FF40070ADF81400032062
:1010F0008DF8160018208DF8170005A93B4800F060
:1011000057FD4FF48060ADF8140004208DF81700EF
:1011100005A9364800F04CFD25208DF8000003207D
:101120008DF801008DF8020001208DF8030068465B
:1011300000F075FC01940020ADF80800ADF80A003D
:10114000ADF80C00ADF810000C20ADF80E0001A9B0
:10115000254801F090F8012240F22551224801F083
:1011600022F90121204801F012F906B010BD10B596
:1011700040F225511C4801F0FBF910B31A4801F068
:1011800077F9C4B21A48008800F40040C8B918487A
:10119000008800F4804060B10A2C03D0002014497C
:1011A000088020E01248008840F400401049088080
:1011B00019E00D2C06D10E48008840F480400C49FF
:1011C000088010E00A480088C0F30D0009490C545B
:1011D00007480088401C0649088008460088C72840
:1011E00001DD0020088010BD0038014000080140EA
:1011F0008C010020E41900201FB504460121084697
:1012000000F09FFF1C208DF80C0001208DF80D00D0
:1012100000208DF80E0001208DF80F0003A800F0CB
:10122000FEFB41F61F40ADF80400A0B2ADF800008F
:1012300069464FF0804001F061FE0122114690079F
:1012400002F0D3F900214FF0804002F0B3F91FBD46
:1012500010B5034607E018780C78A04201D00020B2
:1012600010BD5B1C491C101EA2F10104A2B2F2D1F8
:101270000120F5E701B502E00098401E00900098BB
:101280000028F9D108BD002600240025FFF7A4FEA0
:10129000FFF70CFFFFF7B2F9FFF746F8FFF78AFAFE
:1012A000FFF72FFA4FF4E130FFF715FF5023E9A2C3
:1012B00000210846FFF712F9FFF7D0FAFFF7FAFD11
:1012C000E8490860C820FFF7D5FFFFF7CCFDE649E5
:1012D0000860E448026808460168E4A002F0D4FC13
:1012E000E1480068EF4988427ED1EFA002F0CCFCD3
:1012F0000420FFF781FF0121880702F05BF96420D9
:10130000FFF7A7FE00214FF0804002F053F928209C
:10131000FFF79FFE0420FFF76FFF0121880702F00F
:1013200049F94FF48770FFF794FE00214FF0804099
:1013300002F040F9FFF7D4FB0020FFF7B0FB1A22C0
:101340000021E148FFF712FCDF49E0A002F09CFC1D
:101350001A220021E348FFF75EFDE249E2A002F015
:1013600093FC1A22DF49D848FFF772FFE44908705E
:1013700008460078012846D100220421E14800F007
:10138000C8FCE1A002F080FCFEF7CEFF6423E7A2D8
:1013900003210620FFF7A2F80720FFF72DFF012108
:1013A000880702F007F96420FFF753FE00214FF091
:1013B000804002F0FFF84620FFF74BFE0320FFF7C6
:1013C0001BFF0121880702F0F5F86420FFF741FEBA
:1013D00000214FF0804002F0EDF8AA20FFF739FE1F
:1013E0000220FFF709FF00E01EE00121880702F05C
:1013F000E1F84FF48770FFF72CFE00214FF080409A
:1014000002F0D8F820E000220221BE4800F081FC62
:10141000CCA002F039FCFEF787FF6423D2A203219F
:101420000620FFF75BF80FE000220221B54800F02C
:1014300070FCD3A002F028FCFEF776FF6423D7A24D
:1014400003210620FFF74AF84FF41670FFF701FE5C
:10145000FEF76AFF5023D7A200210F20FFF73EF8C6
:101460005023D8A203210020FFF738F89CE0062083
:10147000FFF7D4F90A21B0FBF1F70620FFF7CEF908
:101480000A21B0FBF1F201FB12003C18232C04DA14
:10149000152C02DD6520D14948703A2C04DA232C42
:1014A00002DD6620CD494870962C04DA3A2C02DD24
:1014B0006720CA494870152C04DA092C02DD68201F
:1014C000C64948700120FFF7A9F90A21B0FBF1F7DE
:1014D0000120FFF7A3F90A21B0FBF1F201FB120092
:1014E0003D18282D04DA1E2D02DD7320BB4908703B
:1014F000632D04DA392D02DD6420B84908701E2DF1
:1015000004DA012D02DD6220B44908704FF48051E5
:10151000B34800F0E0FB18BB0A20FFF79AFD4FF438
:101520008051AF4800F0D7FBD0B9002612E04FF44D
:101530008071AB4800F0E9FB4FF4C870FFF765FD20
:101540004FF48071A64800F0E2FB4FF4C870FFF73B
:101550005CFD761C282EEADB4FF4FA70FFF779FD6C
:101560004FF400719F4800F0B6FB012818D102210A
:10157000644800F0CCFB99499BA002F085FB97489A
:1015800081789AA002F080FB5023944A07210A2018
:10159000FEF7A4FF5023914A07213C20FEF79EFF4F
:1015A0000221584800F0B1FB61E708B50121142081
:1015B00000F0BAFD0620ADF8000003208DF802000F
:1015C00010208DF8030069464E4800F0F1FA012220
:1015D00006214C4800F09DFB4FF48070ADF80000F0
:1015E00003208DF8020010208DF8030069467C4826
:1015F00000F0DEFA00224FF48071794800F089FB98
:1016000008BD10B50121880702F09DFA012820D1FC
:101610000121800702F0A8FA7548007808B9012076
:1016200000E00020724908700846007810B10128D7
:101630000DD105E001221102694800F06AFB07E0C4
:1016400000224FF48071664800F063FB00E000BFA9
:1016500000BF10BD2020496E697469616C697A69A8
:101660006E672000B0190020B41900200D0A204632
:101670006C617368494420697320307825582C09BF
:101680004D616E756661637475726572204465762E
:1016900069636520494420697320307825580D0A14
:1016A000000000001740EF000D0A20BCECB2E2B5CC
:1016B000BDB4AED0D0666C617368205732355131FD
:1016C0003620210D0A000000941900200D0A20D0B8
:1016D000B4C8EBB5C4CAFDBEDDCEAAA3BA2573203B
:1016E0000D090000AC1A00200D0A20B6C1B3F6B5F2
:1016F000C4CAFDBEDDCEAAA3BA2573200D0A000020
:10170000B8190020001001400D0A20384DB4AED0A9
:10171000D0666C6173682857323551313629B2E290
:10172000CAD4B3C9B9A6210A0D00000057323551F9
:101730003136207465737420697320737563636533
:10174000737320000D0A20384DB4AED0D0666C61A2
:1017500073682857323551313629B2E2CAD4CAA744
:10176000B0DC210A0D0000005732355131362074AB
:10177000657374206973206661696C65642000007C
:101780000D0A20BBF1C8A1B2BBB5BD2057323551FF
:101790003136204944210A0D000000006E6F20649C
:1017A000657669636520646574656374656421208A
:1017B000000000003433334D687A5F7265616479EC
:1017C00000000000486967682064656E7369747979
:1017D00020202020646576696365730090190020DD
:1017E00000080140000C0140257378002563780053
:1017F00093190020704700BFFEE700BFFEE700BF5F
:10180000FEE700BFFEE77047704770477047000073
:101810000CB50020019000906C48006840F48030C6
:101820006A49086000BF6948006800F40030009011
:101830000198401C0190009818B90198B0F5A06F6C
:10184000F1D16248006800F4003010B1012000902E
:1018500001E0002000900098012843D15C48006816
:1018600040F010005A4908600846006820F0030064
:1018700008600846006840F002000860534840686D
:10188000524948600846406848600846406840F44D
:10189000806048600846406820F47C104860084634
:1018A000406840F4E81048600846006840F08070E6
:1018B000086000BF4548006800F000700028F9D0BB
:1018C0004248406820F003004049486008464068AC
:1018D00040F00200486000BF3C48406800F00C0047
:1018E0000828F9D10CBD10B5FFF792FF10BD10B557
:1018F0003648006840F001003449086008464068F6
:101900003449084031494860084600683249084077
:101910002E4908600846006820F4802008600846C8
:10192000406820F4FE0048604FF41F008860FFF715
:10193000DAFF4FF000602949086010BD10B50021A2
:1019400000200022214B5B6803F00C0121B1042927
:1019500006D0082928D107E0214B224C236027E03C
:101960001F4B204C236023E0184B5B6803F470107E
:10197000164B5B6803F48032022303EB904022B9DC
:10198000194B4343174C23600DE0104B5B6803F485
:10199000003323B1144B4343124C236003E0104B3C
:1019A0004343104C236003E00D4B0E4C236000BFFB
:1019B00000BF064B5B68C3F303130C4CE15C094B9F
:1019C0001B68CB40074C236010BD00000010024094
:1019D000002002400000FFF8FFFFF6FE08ED00E0E7
:1019E00000127A00BC19002000093D00C019002037
:1019F0000648804706480047FEE7FEE7FEE7FEE7A9
:101A0000FEE7FEE7FEE7FEE7FEE7FEE7EF18000869
:101A10003101000831490143314A1160704770B506
:101A2000002100230F22C47804B32D4C246804F451
:101A3000E064C4F5E064210AC1F10403CA404478BB
:101A400004FA03F18478144021430901254C0678F7
:101A5000A155047804F01F050124AC4005786D11F0
:101A6000AD0005F1E025C5F8004109E0047804F077
:101A70001F050124AC401C4D0678761145F8264020
:101A800070BD1A4A0A400243154B1B1F1A6070476B
:101A900039B1134A121D12680243114B1B1D1A6003
:101AA00006E00F4A121D126882430D4B1B1D1A607F
:101AB0007047042808D14FF0E021096941F0040182
:101AC0004FF0E022116107E04FF0E021096921F0B9
:101AD00004014FF0E0221161704700000000FA0598
:101AE0000CED00E000E400E080E100E080FFFF1F7B
:101AF00010B50446CC48844208D10121042000F0EE
:101B00002DFB0021042000F029FB46E0C748844259
:101B100008D10121082000F021FB0021082000F05D
:101B20001DFB3AE0C248844208D10121102000F098
:101B300015FB0021102000F011FB2EE0BD4884426F
:101B400008D10121202000F009FB0021202000F015
:101B500005FB22E0B848844208D10121402000F072
:101B6000FDFA0021402000F0F9FA16E0B348844263
:101B700008D10121802000F0F1FA0021802000F03E
:101B8000EDFA0AE0AE48844207D10121801500F049
:101B9000E5FA0021A01500F0E1FA10BD10B5012111
:101BA000084600F0DBFA0021012000F0D7FA10BD52
:101BB0002DE9F041024600250026002000230024E4
:101BC000002791F803C00CF00F0591F803C00CF04A
:101BD000100CBCF1000F03D091F802C04CEA0505CF
:101BE00091F800C0BCF1000F31D0146800202BE048
:101BF0004FF0010C0CFA00F3B1F800C00CEA030638
:101C00009E4220D183004FF00F0C0CFA03F7BC4327
:101C100005FA03FC4CEA040491F803C0BCF1280F58
:101C200006D14FF0010C0CFA00FCC2F814C00AE017
:101C300091F803C0BCF1480F05D14FF0010C0CFA2C
:101C400000FCC2F810C0401C0828D1D31460B1F8C1
:101C500000C0BCF1FF0F34DD546800202EE000F11D
:101C6000080C4FF0010808FA0CF3B1F800C00CEAB8
:101C700003069E4221D183004FF00F0C0CFA03F7AC
:101C8000BC4305FA03FC4CEA040491F803C0BCF120
:101C9000280F05D100F1080C08FA0CF8C2F81480DE
:101CA00091F803C0BCF1480F07D100F1080C4FF0C8
:101CB000010808FA0CF8C2F81080401C0828CED39E
:101CC0005460BDE8F0814FF6FF7101800221817000
:101CD0000421C17070470246002093680B400BB18D
:101CE000012000E0002070470146886880B27047FC
:101CF00002460020D3680B400BB1012000E0002019
:101D000070470146C86880B2704701617047416101
:101D100070470AB1016100E041617047C1607047DE
:101D20004FF480320A4382618161826182698269F3
:101D3000704702460020434B18684FF680731840E6
:101D400040EA021008433F4B186070473E49C861A3
:101D50007047F0B50A46002300240021002500F05A
:101D60000046B6F1004F02D1364EF16901E0354E22
:101D70007168C0F3034583B200F44016B6F5401F06
:101D800008D121F070612F4E766826F070662D4FD5
:101D90007E6012E000F48016B6F5801F06D103269F
:101DA00006FA05F4A14341F0706106E0460D3601E4
:101DB00003FA06F6B14341F0706122B1460D3601D7
:101DC00003FA06F6314300F00046B6F1004F02D1A7
:101DD0001C4EF16101E01B4E7160F0BD30B5002278
:101DE0008B071C0F0F2303FA04F2164B08338C10D9
:101DF00053F824309343134C08348D1044F82530A5
:101E000023468C1053F824308C07240F00FA04F476
:101E100023430C4C08348D1044F8253030BD0A495A
:101E2000DC3108607047000000080140000C0140F0
:101E3000001001400014014000180140001C014046
:101E4000002001400000014000002042DF480068FF
:101E500040F00100DD49086008464068DC49084060
:101E6000DA49486008460068DA490840D7490860FE
:101E70000846006820F4802008600846406820F486
:101E8000FE0048604FF41F0088607047CF49096822
:101E900021F48031CD4A11601146096821F4802176
:101EA0001160B0F5803F03D0B0F5802F0ED106E071
:101EB000C649096841F48031C44A116007E0C3494A
:101EC000096841F4A021C14A116000E000BF00BFD1
:101ED000704710B501460022002300204A11012A54
:101EE00002D1BA4C236806E0022A02D1B74C236A19
:101EF00001E0B64C636A01F01F02012494401C40CB
:101F00000CB1012000E0002010BD38B50020009089
:101F10000024002500BF3120FFF7DBFF05460098B5
:101F2000401C00900098B0F5A06F01D0002DF2D0B9
:101F30003120FFF7CEFF08B1012400E00024204645
:101F400038BD01460020A14A106820F0F80040EAA0
:101F5000C10010607047A049086070470246002029
:101F60009A4B586820F47C1042EA01031843974BBF
:101F70005860704798490866704701460020934AA8
:101F8000506820F003000843506070478F48406855
:101F900000F00C007047014600208C4A506820F089
:101FA000F00008435060704701460020874A50689F
:101FB00020F4E06008435060704701460020834AE7
:101FC000506820F4605040EAC1005060704729B169
:101FD0007E4A527A02437D4B5A7204E07B4A527A1F
:101FE00082437A4B5A7270477B49D83108607047F8
:101FF00001460020754A506820F440400843506074
:1020000070470021714A20321170704A82F8201006
:10201000012802D004280AD104E001216B4A2032B1
:10202000117005E00521694A2032117000E000BFFF
:1020300000BF70476949086070476449096A0143F5
:10204000624A11627047654944390860704730B58B
:1020500000210022002400235C4D6D6805F00C0176
:1020600021B1042905D0082923D105E05C4D056084
:1020700022E05B4D05601FE0544D6D6805F4701261
:10208000524D6D6805F48034022505EB92421CB96F
:10209000544D554305600BE04C4D6D6805F400351B
:1020A0001DB1504D5543056002E04D4D554305604F
:1020B00002E04B4D056000BF00BF444D6D6805F068
:1020C000F0010909484D6B5C0568DD4045603F4DF6
:1020D0006D6805F4E061090A434D6B5C4568DD40BD
:1020E00085603A4D6D6805F46051C90A3E4D6B5CE0
:1020F0004568DD40C560354D6D6805F44041890B8C
:102100003A4D6B5CC568B5FBF3F5056130BD29B18F
:102110002E4A526902432D4B5A6104E02B4A526900
:1021200082432A4B5A61704729B1284A9269024377
:10213000264B9A6104E0254A92698243234B9A61B7
:10214000704729B1214AD2690243204BDA6104E089
:102150001E4AD26982431D4BDA61704729B11B4A7E
:10216000D2680243194BDA6004E0184AD26882430D
:10217000164BDA60704729B1144A12690243134BB7
:102180001A6104E0114A12698243104B1A617047C8
:1021900012494039086070470F49C86470470B49BD
:1021A000C87170470948406A40F08070074948622A
:1021B000704701460020054A92680A400AB1012092
:1021C00000E000207047014988727047001002400B
:1021D0000000FFF8FFFFF6FE00004242800442428A
:1021E00000127A0000093D00D0190020E0190020FB
:1021F00010B50446FB48844209D101218803FFF74A
:10220000ADFF00214FF48040FFF7A8FF32E0F64811
:10221000844209D101214804FFF7ADFF00214FF4AA
:102220000030FFF7A8FF25E0F048844209D10121E2
:102230008804FFF7A0FF00214FF48020FFF79BFFE9
:1022400018E0EB48844209D10121C804FFF793FF4D
:1022500000214FF40020FFF78EFF0BE0E548844299
:1022600008D101210805FFF786FF00214FF48010F7
:10227000FFF781FF10BD2DE9F04786B005460E46F9
:102280000024A24600BFA1460027B08900B100BFCC
:102290002F462C8A4CF6FF700440F08804432C82B1
:1022A000AC894EF6F3100440B08831890843718937
:1022B00008430443AC81AC8A4FF6FF400440B08928
:1022C0000443AC8201A8FFF7C2FEC648874202D190
:1022D000DDF810A001E0DDF80CA0A88900F40040B2
:1022E00040B10AEBCA0000EB0A1031684900B0FBAC
:1022F000F1F807E00AEBCA0000EB0A103168890028
:10230000B0FBF1F86420B8FBF0F00401200964216F
:1023100001FB1089A88900F4004040B1322000EB95
:10232000C900B0FBF1F000F00700044308E03220E0
:1023300000EB09106421B0FBF1F000F00F00044342
:102340002C8106B0BDE8F0874FF4165101600021E2
:102350008180C18001810C214181002181817047F0
:1023600010B502460020108A4FF2FF0318400B8878
:102370004C8823438C882343CC8823431843108202
:1023800010BD0021018041808180C180704721B152
:10239000828942F40052828104E082894DF6FF7303
:1023A0001A4082817047F0B50346002400260025BC
:1023B000002040F66A17B94200D100BF1846C1F3A9
:1023C000421401F01F06012707FA06F5012C01D17E
:1023D0000C3004E0022C01D1103000E014301AB1AE
:1023E00007682F43076002E00768AF430760F0BD4E
:1023F0001AB1838A0B43838202E0838A8B438382F0
:102400007047028A4FF6F0731A400282028A0A432A
:102410000282704782894FF2FF731A40828182895B
:102420000A438281704721B1828942F0020282818F
:1024300004E082894FF6FD731A4082817047028A58
:102440004FF6DF731A400282028A0A430282704703
:1024500021B1028A42F48042028204E0028A4BF6F1
:10246000FF731A4002827047C1F3080282807047EE
:1024700001468888C0F308007047818941F0010156
:1024800081817047028BD2B20283028B42EA012221
:1024900002837047028B02F47F420283028B0A435D
:1024A0000283704721B1828A42F02002828204E0D6
:1024B000828A4FF6DF731A408282704721B1828A86
:1024C00042F01002828204E0828A4FF6EF731A40D3
:1024D0008282704721B1828A42F00802828204E03F
:1024E000828A4FF6F7731A408282704721B182893F
:1024F00042F40042828103E08289C2F30E028281AB
:10250000704721B1828A42F40062828204E0828AAA
:102510004FF2FF731A4082827047828A4FF6FB7334
:102520001A408282828A0A438282704721B1828A5B
:1025300042F00202828204E0828A4FF6FD731A4062
:102540008282704702460020B1F5007F00D100BFB3
:1025500013880B400BB1012000E00020704701F40C
:102560000072B2F5007F00D100BFCA4302807047FD
:1025700070B50246002400230025002040F66A16AC
:10258000B14200D100BFC1F3421501F01F03012683
:1025900006FA03F3012D02D19689334006E0022D9D
:1025A00002D1168A334001E0968A33400C1201268C
:1025B00006FA04F41688344013B10CB1012000E08F
:1025C000002070BD10B50022002340F66A14A1421D
:1025D00000D100BF0A1201249440A3B2DC4304805E
:1025E00010BD000000380140004400400048004099
:1025F000004C00400050004010B50446BE488442E4
:1026000008D101218014FFF7A9FD0021A014FFF7D4
:10261000A5FD16E0B948844208D101210014FFF756
:10262000AAFD00212014FFF7A6FD0AE0B448844269
:1026300007D10121C013FFF79EFD0021E013FFF732
:102640009AFD10BD10B50022028802F441520B8899
:102650004C8823438C882343CC8823430C89234311
:102660004C8923438C892343CC8923431A4302801A
:10267000838B4FF2FF74234083830B8A038210BD48
:102680002DE9F04F85B005460C464FF000090227B2
:102690004FF000084FF0010B0026B246A88B4FF216
:1026A00040010840A88302202884B5F81C90A06847
:1026B000022801D100BF38E0A08810B94FF0010B0B
:1026C00001E04FF0020B8D48854200D100E000BFD1
:1026D0006846FFF7BCFCDDF800A0E088B0F5007F9D
:1026E0000AD14FEA1A2000EB80004000A168B0FB3D
:1026F000F1F0401D86B20BE04FEA4B10BAFBF0F050
:1027000000EB80004000A168B0FBF1F0401D86B2F4
:102710000A20B6FBF0F606F00108A6EB0800C0F3AD
:102720004F074FF6FF7000EA0828022F01DBFF2F4A
:1027300002DD02274FF00008E08840EA0800384335
:102740002884A088A1890843618808432188084318
:1027500040F4006040EA0909A5F81C9005B0BDE806
:10276000F08F0021018041808180C1800181418101
:102770008181C18107210182704700210180418050
:102780008180C1800221816000218181704721B157
:10279000028842F04002028004E002884FF6BF73D4
:1027A0001A400280704721B1828B42F4806282839A
:1027B00004E0828B4FF6FF331A408283704730B5B6
:1027C000002400230C110125A540ABB21AB1858865
:1027D0001D43858002E085889D43858030BD1AB108
:1027E00083880B43838002E083888B438380704718
:1027F000818170470146888970474FF6FF62914298
:1028000004D0028842F48072028004E002884FF60D
:10281000FF631A400280704721B1828842F00402AF
:10282000828004E082884FF6FB731A4082807047F2
:1028300002884FF2FF731A40028002880A43028026
:102840007047018841F480510180704721B10288AE
:1028500042F40052028004E002884DF6FF731A40F1
:102860000280704702460020012901D0108B00E051
:10287000908A70470146088A7047B1F5804F04D1AD
:10288000028842F48042028004E002884BF6FF7323
:102890001A40028070470246002013890B400BB19A
:1028A000012000E000207047CA4302817047F0B564
:1028B0000246002000240023002501F00F07012616
:1028C000BE40B4B20B1101269E40B3B2968806EA10
:1028D00003051689264016B10DB1012000E0002045
:1028E000F0BD10B5002201F00F040123A3409AB2FD
:1028F000D343038110BD0000003001400038004088
:10290000003C004010B50446FA48844208D1012139
:102910004015FFF723FC00216015FFF71FFC17E0AF
:10292000F548844208D101210015FFF717FC00216A
:102930002015FFF713FC0BE0F048844208D1012179
:10294000C803FFF70BFC00214FF40040FFF706FC23
:1029500010BD30B50246002000235068E84C2040EE
:102960000D790C6844EA0524204350609068E54CDA
:102970002040D1E902542C434D7944EA45042043D8
:102980009060D06A20F470000C7C641EE4B2234393
:1029900040EA0350D06230BD0021016001714171F5
:1029A0008160C16001210174704721B1826842F0E9
:1029B0000102826003E0826822F0010282607047B7
:1029C00021B1826842F48072826003E0826822F45E
:1029D00080728260704710B50023CBB21AB1446890
:1029E0001C43446002E044689C43446010BD81681D
:1029F00041F0080181607047014600208A6802F0BA
:102A000008020AB1012000E000207047816841F00F
:102A1000040181607047014600208A6802F00402C8
:102A20000AB1012000E00020704721B1826842F421
:102A3000A002826003E0826822F4A00282607047F4
:102A4000014600208A6802F480020AB1012000E0F9
:102A50000020704710B50A4600210023416821F488
:102A60006041531E41EA4331416010BD21B14268CB
:102A700042F40062426003E0426822F40062426075
:102A80007047F0B504460D4600200021092D11DDE8
:102A9000E068A5F10A0606EB4607072606FA07F1E5
:102AA0008843A5F10A0606EB460603FA06F1084339
:102AB000E0600CE0206905EB4507072606FA07F100
:102AC000884305EB450603FA06F108432061072A0F
:102AD0000FDA606B561E06EB86071F2606FA07F113
:102AE0008843561E06EB860605FA06F10843606326
:102AF00022E00D2A0FDA206BD61F06EB86071F2671
:102B000006FA07F18843D61F06EB860605FA06F19A
:102B10000843206310E0E06AA2F10D0606EB860789
:102B20001F2606FA07F18843A2F10D0606EB86067A
:102B300005FA06F10843E062F0BD21B1826842F473
:102B40008012826003E0826822F480128260704703
:102B50000146C86C80B2704766484C3000687047C8
:102B600021B1426842F48062426003E0426822F48C
:102B700080624260704721B1426842F480524260F4
:102B800003E0426822F48052426070470A46002106
:102B9000816821F4E04111438160704721B182686E
:102BA00042F40042826003E0826822F400428260C4
:102BB000704721B1826842F40212826003E08268A9
:102BC00022F4021282607047014600208A6802F4F3
:102BD00000120AB1012000E000207047F0B5044661
:102BE0001546002000220026092911DDE068A1F128
:102BF0000A0707EB470C072707FA0CF29043A1F1ED
:102C00000A0707EB470703FA07F21043E0600CE0FE
:102C1000206901EB410C072707FA0CF2904301EB06
:102C2000410703FA07F210432061A06BC0F301567D
:102C3000EF1C06F1010CA7EB0C0707EB870C1F2715
:102C400007FA0CF29043EF1C06F1010CA7EB0C07FE
:102C500007EB870701FA07F21043A063F0BD10B538
:102C60000A4600210023816B21F44011531E41EAE2
:102C70000351816310BD08B5002300930090009BB1
:102C80000B440093009B1A6008BD08B50246002063
:102C90000090009201F12800009B184400900098D9
:102CA000006880B208BD0A4600214168164B1940F1
:102CB0001143416070474162826270470A460021B9
:102CC000416821F01F0111434160704740B109493B
:102CD0000831096841F40001064A0832116007E032
:102CE00004490831096821F40001024A08321160E0
:102CF000704700000024014000280140003C0140D2
:102D0000FFFEF0FFFDF7F1FFFFFD3FFF0246002051
:102D100013680B400BB1012000E000207047CA434C
:102D20000260704770B502460020002300240B1299
:102D30005568CEB205EA060415681D4015B10CB100
:102D4000012000E0002070BD00220A12D34303607E
:102D50007047000010B50446FE48844208D10121A6
:102D6000C014FFF7FBF90021E014FFF7F7F9C4E006
:102D7000B4F1804F08D101210846FFF7FCF900218A
:102D80000120FFF7F8F9B8E0F348844208D10121A7
:102D90000220FFF7F0F900210220FFF7ECF9ACE088
:102DA000EE48844208D101210420FFF7E4F9002114
:102DB0000420FFF7E0F9A0E0E948844208D10121AE
:102DC0000820FFF7D8F900210820FFF7D4F994E094
:102DD000E448844208D101211020FFF7CCF90021FA
:102DE0001020FFF7C8F988E0DF48844208D10121AC
:102DF0002020FFF7C0F900212020FFF7BCF97CE07C
:102E0000DA48844208D101214014FFF7A7F90021D4
:102E10006014FFF7A3F970E0D548844209D101217D
:102E2000C804FFF79BF900214FF40020FFF796F943
:102E300063E0D048844209D101210805FFF78EF9EB
:102E400000214FF48010FFF789F956E0CA48844208
:102E500009D101214805FFF781F900214FF4001045
:102E6000FFF77CF949E0C548844208D101214020A0
:102E7000FFF781F900214020FFF77DF93DE0C048D0
:102E8000844208D101218020FFF775F900218020BC
:102E9000FFF771F931E0BB48844208D10121801568
:102EA000FFF769F90021A015FFF765F925E0B6489D
:102EB000844209D101210804FFF750F900214FF4A1
:102EC0008030FFF74BF918E0B048844209D1012166
:102ED0004804FFF743F900214FF40030FFF73EF9B3
:102EE0000BE0AB48844208D101218804FFF736F992
:102EF00000214FF48020FFF731F910BD0022028835
:102F0000944B98420ED0994B98420BD0B0F1804F21
:102F100008D0914B984205D0904B984202D0904BEC
:102F2000984204D14FF68F731A404B881A438D4B49
:102F3000984207D08C4B984204D04FF6FF431A407A
:102F4000CB881A4302808B8883850B880385814B4D
:102F500098420BD0854B984208D08B4B984205D0B5
:102F60008A4B984202D08A4B984201D10B7A038651
:102F700001238382704770B5002400220023058C52
:102F80004FF6FE7635400584028C8388048B4FF61D
:102F90008F752C40B51E2C400D882C43751E2A4081
:102FA0000D892A434D882A436A4DA8420BD06F4DA4
:102FB000A84208D0744DA84205D0744DA84202D052
:102FC000734DA84213D14FF6F7752A404D892A4315
:102FD0004FF6FB752A408D882A434FF6FF652B403C
:102FE0004FF6FF552B408D892B43CD892B43838092
:102FF0000483CD888586028470BD70B500240022CC
:103000000023058C4FF6EF7635400584028C8388CB
:10301000048B48F6FF752C404FF6FF452C400D8879
:103020004FF6FF7606EA05252C434FF6DF752A405A
:103030000D8906EA05152A434D8806EA05152A4337
:10304000444DA84202D0494DA8421DD14FF67F758C
:103050002A404D894FF6FF7606EA05152A434FF6BA
:10306000BF752A408D8806EA05152A434FF6FF35BD
:103070002B404FF2FF752B408D8906EA85052B43C7
:10308000CD8906EA85052B4383800483CD88058797
:10309000028470BD70B5002400220023058C4FF619
:1030A000FF6635400584028C8388848B4FF68F75CC
:1030B0002C404FF6FC752C400D882C434FF6FF55E5
:1030C0002A400D894FF6FF7606EA05252A434D88EA
:1030D00006EA05252A431F4DA84202D0234DA842E7
:1030E0001DD14FF2FF752A404D894FF6FF7606EA53
:1030F00005252A434FF6FF352A408D8806EA052527
:103100002A434EF6FF752B404DF6FF752B408D89F7
:1031100006EA05152B43CD8906EA05152B43838066
:103120008483CD888587028470BD70B5002200231A
:103130000024058C4EF6FF7635400584038C848888
:10314000828B48F6FF752A404FF6FF452A400D88CE
:1031500020E00000002C0140000400400008004076
:10316000000C0040001000400014004000340140FA
:10317000004C014000500140005401400018004044
:10318000001C00400020004000400140004401407D
:10319000004801404FF6FF7606EA05252A434DF622
:1031A000FF752B400D8906EA05352B434D8806EA4D
:1031B00005352B43FA4DA84202D0FA4DA84208D15A
:1031C0004BF6FF752C408D894FF6FF7606EA851584
:1031D0002C4384808283CD88A0F84050038470BD46
:1031E000828B4FF2FF331A408283828B4FF6FF733C
:1031F00003EA01231A4382837047F0B50C46154653
:10320000002200210026078C4EF6FF7C07EA0C07FF
:103210000784828B018C4FF6FF7707EA043640F66D
:10322000FF473A404FF6FF7707EA05273A434FF644
:10323000FF7707EA03373A43D94FB8420ED0D94F48
:10324000B8420BD0B0F1804F08D0D74FB84205D06C
:10325000D64FB84202D0D64FB84206D14DF6FF77CE
:10326000394046F48057394305E047F6FF57394067
:1032700044F48057394382830184F0BD828B4FF63A
:10328000F3731A408283828B0A4382837047F0B5BE
:103290000C461546002200210026078C4FF6FF6CD5
:1032A00007EA0C070784828B018C4FF6FF7707EA49
:1032B00004264FF60C773A404FF6FF7707EA0317DC
:1032C0002F433A43B64FB8420ED0B64FB8420BD058
:1032D000B0F1804F08D0B44FB84205D0B34FB842D8
:1032E00002D0B34FB84206D14FF6FF57394046F4EB
:1032F0008077394305E04FF2FF57394044F4807737
:10330000394382830184F0BD028B4FF2FF331A40B0
:103310000283028B4FF6FF7303EA01231A430283F1
:103320007047F0B50C461546002200210026078C98
:103330004FF6EF7C07EA0C070784028B018C4FF6EF
:10334000FF7707EA041640F6FF473A404FF6FF774B
:1033500007EA03373A434FF6FF7707EA05273A4370
:103360008F4FB8420ED08F4FB8420BD0B0F1804F84
:1033700008D08D4FB84205D08C4FB84202D08C4F48
:10338000B84206D14FF6DF77394046F0100739438F
:1033900005E04FF65F77394044F010073943028368
:1033A0000184F0BD028B4FF6F3731A400283028B47
:1033B0000A4302837047F0B50C46154600220021EF
:1033C000068C4FF6FE773E400684028B018C4FF64A
:1033D0000C7632407E1C06EA03162E433243704EB2
:1033E000B0420ED06F4EB0420BD0B0F1804F08D03B
:1033F0006D4EB04205D06D4EB04202D06C4EB04220
:1034000006D14FF6FD76314044F00106314305E028
:103410004FF6F576314044F00106314302830184D2
:10342000F0BD70B505460C465D4885420ED05D483E
:1034300085420BD0B5F1804F08D05B48854205D05E
:103440005A48854202D05A48854200D100E000BF68
:10345000208850B92389A28861882846FFF7ABFFEE
:10346000E1882846FFF79EFF25E0208804280AD13E
:103470002389A28861882846FFF753FFE188284600
:10348000FFF742FF17E0208808280AD12389A28885
:1034900061882846FFF7FBFEE1882846FFF7EEFE2D
:1034A00009E02389A28861882846FFF7A6FEE18803
:1034B0002846FFF795FE70BD2DE9F04105460C4604
:1034C00000260127608808B9022600E00026A088AF
:1034D000012801D1022700E001272088A0B9238913
:1034E000A28861882846FFF766FFE1882846FFF733
:1034F00059FF23893A4631462846FFF712FFE188F3
:103500002846FFF701FF13E02389A2886188284637
:10351000FFF707FFE1882846FFF7F6FE23893A46C2
:1035200031462846FFF747FFE1882846FFF73AFF74
:10353000BDE8F0810A884B881A438B881A43CB88F0
:103540001A430B891A434B891A438B891A43A0F8F3
:10355000442070474FF6FF71818000210180C180B7
:103560004180017270470021018041808180C180CB
:10357000018141818181C1817047002101804180A9
:10358000012181800021C1800181704700210180DB
:1035900041808180C180018141818181704700002B
:1035A000002C0140003401400004004000080040AD
:1035B000000C004021B1028842F00102028004E0C8
:1035C00002884FF6FE731A400280704731B1B0F89E
:1035D000442042F40042A0F8442005E0B0F8442022
:1035E000C2F30E02A0F8442070471AB183890B433E
:1035F000838102E083898B43838170478182704796
:1036000041EA0203A0F8483070471AB183890B439E
:10361000838102E083898B438381704701894FF660
:10362000F8721140018170470A46002101894FF666
:103630008F73194011430181704730B504460D4620
:1036400029462046FFF7F0FF208940F0070020813F
:1036500030BD2DE9F04104460D4616461F46602D4B
:1036600006D13B46012231462046FFF75AFE05E0CF
:103670003B46012231462046FFF79DFE2946204663
:10368000FFF7D2FF208940F007002081BDE8F081DC
:1036900030B50C4600210189C9B24FF6FF7505EA25
:1036A0000325154325432943018130BD2DE9F04110
:1036B00005460E4617469846002443463A4631468C
:1036C0002846FFF7E5FF2C894FF6F870044044F0D8
:1036D00007044FF68F70044044F070042C81BDE85D
:1036E000F081F0B504460D4616461F463B4632466D
:1036F00029462046FFF7CCFF208940F480402081F6
:10370000F0BD0185828270470A46002101884FF68C
:103710008F731940114301807047F0B50C46154670
:103720001E460021002200230189028B038C4FF6E4
:10373000F877394021434FF6FC473A4040F20117F1
:103740003A434FF6DD773B404FF6FF7707EA06171F
:103750002F433B43018102830384F0BD0A460021CD
:10376000018B4FF68F7319401143018370470A464E
:103770000021018B48F6FF7319404FF6FF7303EAEF
:1037800002231943018370470A460021818B4FF6BB
:103790008F7319401143818370470A460021818B42
:1037A00048F6FF7319404FF6FF7303EA02231943EB
:1037B0008183704721B1028842F08002028004E0D8
:1037C00002884FF67F731A400280704721B18288C9
:1037D00042F00402828004E082884FF6FB731A40B4
:1037E0008280704721B1828842F00802828004E022
:1037F00082884FF6F7731A408280704721B1828821
:1038000042F00102828004E082884FF6FE731A4083
:10381000828070470A460021018B4FF6F7731940EA
:103820001143018370470A460021018B4FF2FF7359
:1038300019404FF6FF7303EA0223194301837047CF
:103840000A460021818B4FF6F7731940114381839B
:1038500070470A460021818B4FF2FF7319404FF6E3
:10386000FF7303EA02231943818370470A4600214C
:10387000018B4FF6FB7319401143018370470A46D1
:103880000021018B4FF6FF3319404FF6FF7303EA17
:1038900002231943018370470A460021818B4FF6AA
:1038A000FB7319401143818370470A460021818BC5
:1038B0004FF6FF3319404FF6FF7303EA0223194313
:1038C000818370470A460021018B4FF67F731940B0
:1038D0001143018370470A460021018BC1F30E0199
:1038E0004FF6FF7303EA02231943018370470A4628
:1038F0000021818B4FF67F731940114381837047FC
:103900000A460021818BC1F30E014FF6FF7303EAD3
:1039100002231943818370470A460021018C4FF628
:10392000FD7319401143018470470A460021018C40
:103930004FF6F77319401143018470470A4600217E
:10394000018C4FF6DF7319404FF6FF7303EA021341
:103950001943018470470A460021018C4FF67F739A
:1039600019404FF6FF7303EA0213194301847047AD
:103970000A460021018C4FF6FF5319404FF6FF73A2
:1039800003EA02231943018470470A460021018C8F
:103990004FF2FF7319404FF6FF7303EA02231943F6
:1039A000018470470A460021018C4DF6FF731940CF
:1039B0004FF6FF7303EA023319430184704730B5B1
:1039C000002301248C40A3B2048C9C430484048C07
:1039D00002FA01F5ADB22C43048430BD30B50023AA
:1039E00004248C40A3B2048C9C430484048C02FA0B
:1039F00001F5ADB22C43048430BD70B50346002000
:103A000000241846183001258D40ACB21D8CA5430A
:103A10001D8409B1082909D100EB6100056825F072
:103A2000700505600568154305600EE00D1FC5F3C0
:103A30004E052844056825F4E045056005684FF605
:103A4000FF7606EA02263543056070BD21B1028883
:103A500042F00202028004E002884FF6FD731A4031
:103A60000280704721B1028842F00402028004E023
:103A700002884FF6FB731A400280704721B182889A
:103A800042F08002828004E082884FF67F731A4001
:103A90008280704702884FF6F7731A4002800288CE
:103AA0000A430280704782884FF68F731A408280E3
:103AB00082880A438280704702894FF6F8731A4061
:103AC000028102890A430281704702894FF67F739F
:103AD0001A40028102890A4302817047818470473B
:103AE000818570478186704701877047818770475D
:103AF000A0F84010704702884FF6FF431A4002803A
:103B000002880A43028070470146888E704701464A
:103B1000088F70470146888F70470146B1F8400012
:103B200070470146888C70470146088D70470246F1
:103B30000020138A0B400BB1012000E000207047E9
:103B4000CA430282704730B5024600200023002499
:103B5000158A05EA0103958905EA010413B10CB140
:103B6000012000E0002030BDCA43028270472DE9E9
:103B7000F05F0546002092469B46884606468146F1
:103B800040241BE0284641464746224600F041F8C3
:103B900053465A46C01A914110D311461846224640
:103BA00000F028F82D1A67EB01084F462246012045
:103BB000002100F01FF817EB00094E41201EA4F170
:103BC0000104DFDC484631462A464346BDE8F09F03
:103BD000064C074D06E0E06840F0010394E807005A
:103BE00098471034AC42F6D3FCF7A6FAA047000879
:103BF000C0470008202A04DB203A00FA02F1002026
:103C000070479140C2F1200320FA03F3194390401A
:103C10007047202A04DB203A21FA02F00021704785
:103C200021FA02F3D040C2F1200291400843194624
:103C3000704770B58C1810F8015B15F0070301D1BF
:103C400010F8013B2A1106D110F8012B03E010F8FF
:103C5000016B01F8016B5B1EF9D12B0705D4002322
:103C6000521E0DD401F8013BFAE710F8013BCB1AC4
:103C7000921C03E013F8015B01F8015B521EF9D5B9
:103C8000A142D8D3002070BD0FB4054B10B503A9D5
:103C9000044A029800F018F810BC5DF814FB00000C
:103CA000BF1000088801002002E008C8121F08C1E8
:103CB000002AFAD170477047002001E001C1121FAD
:103CC000002AFBD1704700002DE9FF4F8DB09B46C5
:103CD0000F460446002606E025280BD05A460F99C9
:103CE0009047641C761C20780028F5D111B030462E
:103CF000BDE8F08F0025A8460122984900E0054361
:103D000014F8013F203B02FA03F00842F7D1207873
:103D10002E2817D114F8010F45F004052A280ED0DB
:103D20006FF02F022078A0F1300109290AD808EBA2
:103D3000880102EB410100EB0108641CF2E757F82F
:103D4000048B641C20786C280DD004DC4C2812D025
:103D50006A2811D104E074280DD07A280CD10AE029
:103D600045F4001507E0617845F48015814202D1E1
:103D7000641C05F58015641C2278692A45D008DC8E
:103D8000002AB3D0582A69D0632A10D0642A08D1F7
:103D90003BE0702A67D0732A13D0752A5CD0782A4A
:103DA0005CD010465A460F999047761CD3E017F81E
:103DB000040B8DF8000000208DF80100E946012079
:103DC00003E057F8049B4FF0FF3069074FF0000500
:103DD00001D40AE06D1C45450DDA8542FADB19F87D
:103DE00005100029F6D106E06D1C8542FCDB19F8B0
:103DF00005100029F8D12E4404E019F8010B5A46A9
:103E00000F9990476D1EF8D2A5E00A200021CDE958
:103E10000801C5F3025002280DD001CFC117031EBF
:103E200071F100030DDA4FF0000CD0EB0C006CEBDD
:103E300001012D2308E0FF1D27F00707F7E8020125
:103E4000EDE72B0504D52B238DF8283001233BE02B
:103E5000EB0739D02023F7E70A2000E010200021EB
:103E6000CDE9080107E01020002145F00405CDE967
:103E700008014FF00808C5F3025002280FD001CF07
:103E800000214FF0000A2B071FD5702A0DD0DDE965
:103E900008C38CF0100C5CEA030C0CD015E0FF1D7D
:103EA00027F00707F7E80201EBE740228DF828200A
:103EB0004FF0010A0BE050EA010306D030238DF8E1
:103EC00028308DF8292002239A46582A04D024A2AB
:103ED0000DF120090B9209E026A2F9E7DDE908239C
:103EE000FFF745FE0B9B9B5C09F8013D50EA010280
:103EF000F4D1ADEB090020300890680701D44FF0F1
:103F000001080899884502DDA8EB010000E00020C7
:103F10008046002506E00AA85A46405D0F99904762
:103F20006D1C761C5545F6DB04E030205A460F998F
:103F30009047761CB8F10001A8F10108F5DC05E016
:103F400019F8010B5A460F999047761C0899481E9C
:103F500008900029F4DC641CC5E600000928010073
:103F600030313233343536373839616263646566EF
:103F700000000000303132333435363738394142B1
:103F8000434445460000000000000000000000001F
:103F9000002F000000000700070000147F147F14AA
:103FA00000242A7F2A120062640813230036495530
:103FB000225000000503000000001C224100000008
:103FC00041221C000014083E08140008083E08089E
:103FD000000000A0600000080808080800006060F9
:103FE0000000002010080402003E5149453E000038
:103FF000427F4000004261514946002141454B311A
:10400000001814127F10002745454539003C4A49E5
:104010004930000171090503003649494936000657
:104020004949291E000036360000000056360000BF
:10403000000814224100001414141414000041223A
:10404000140800020151090600324959513E007C12
:104050001211127C007F49494936003E41414122FC
:10406000007F4141221C007F49494941007F0909E5
:104070000901003E4149497A007F0808087F000095
:10408000417F4100002040413F01007F0814224150
:10409000007F40404040007F020C027F007F040808
:1040A000107F003E4141413E007F09090906003E64
:1040B0004151215E007F091929460046494949318D
:1040C0000001017F0101003F4040403F001F2040B0
:1040D000201F003F4038403F00631408146300076E
:1040E0000870080700615149454300007F414100C5
:1040F00000552A552A55000041417F000004020165
:104100000204004040404040000001020400002042
:1041100054545478007F4844443800384444442080
:1041200000384444487F00385454541800087E092D
:1041300001020018A4A4A47C007F080404780000F5
:10414000447D4000004080847D00007F10284400B2
:104150000000417F4000007C04180478007C0804C3
:10416000047800384444443800FC242424180018FF
:10417000242418FC007C08040408004854545420EB
:1041800000043F444020003C4040207C001C204074
:10419000201C003C4030403C004428102844001CB7
:1041A000A0A0A07C004464544C44141414141414AF
:1041B00000000000000000000000000000000000FF
:1041C000000000F800000000000000333000000094
:1041D00000100C06100C060000000000000000009B
:1041E00040C07840C0784000043F04043F0404000D
:1041F000007088FC08300000001820FF211E00001D
:10420000F008F000E018000000211C031E211E0031
:1042100000F00888700000001E21232419272110B7
:1042200010160E000000000000000000000000005A
:10423000000000E018040200000000071820400001
:1042400000020418E00000000040201807000000F1
:10425000404080F0804040000202010F0102020055
:10426000000000F0000000000101011F0101010039
:10427000000000000000000080B07000000000009E
:104280000000000000000000000101010101010127
:1042900000000000000000000030300000000000BE
:1042A0000000000080601804006018060100000093
:1042B00000E010080810E000000F102020100F0090
:1042C000001010F8000000000020203F2020000017
:1042D000007008080888700000302824222130006F
:1042E00000300888884830000018202020110E0077
:1042F0000000C02010F8000000070424243F240020
:1043000000F80888880808000019212020110E00F4
:1043100000E0108888180000000F112020110E0006
:1043200000380808C83808000000003F00000000FE
:104330000070880808887000001C222121221C00BF
:1043400000E010080810E0000000312222110F00E8
:10435000000000C0C000000000000030300000007D
:1043600000000080000000000000806000000000ED
:104370000000804020100800000102040810200006
:104380004040404040404000040404040404040051
:1043900000081020408000000020100804020100E6
:1043A000007048080808F0000000003036010000E6
:1043B000C030C828E810E0000718272423140B0099
:1043C0000000C038E0000000203C23020227382013
:1043D00008F8888888700000203F202020110E00F7
:1043E000C0300808080838000718202020100800EE
:1043F00008F808080810E000203F202020100F00D7
:1044000008F88888E8081000203F202023201800A2
:1044100008F88888E8081000203F2000030000000A
:10442000C03008080838000007182020221E0200AB
:1044300008F808000008F808203F210101213F206A
:10444000000808F8080800000020203F2020000095
:1044500000000808F8080800C08080807F00000085
:1044600008F888C028180800203F200126382000BE
:1044700008F8080000000000203F20202020300025
:1044800008F8F800F8F80800203F003F003F20003F
:1044900008F830C00008F808203F200007183F0047
:1044A000E01008080810E0000F10202020100F0076
:1044B00008F808080808F000203F21010101000069
:1044C000E01008080810E0000F18242438504F00AE
:1044D00008F8888888887000203F2000030C30206E
:1044E00000708808080838000038202121221C00AC
:1044F000180808F8080818000000203F20000000F5
:1045000008F808000008F808001F202020201F00DD
:104510000878880000C83808000007380E0100003D
:10452000F80800F80008F800033C0700073C030007
:10453000081868808068180820302C03032C30206D
:104540000838C800C83808000000203F20000000DC
:1045500010080808C8380800203826212020180034
:10456000000000FE020202000000007F4040400008
:10457000000C30C000000000000000010638C00040
:1045800000020202FE000000004040407F000000E8
:10459000000004020202040000000000000000000D
:1045A000000000000000000080808080808080800B
:1045B00000020204000000000000000000000000F3
:1045C00000008080808000000019242222223F20E9
:1045D00008F8008080000000003F112020110E002C
:1045E0000000008080800000000E112020201100BB
:1045F000000000808088F800000E112020103F206D
:104600000000808080800000001F222222221300F0
:10461000008080F0888888180020203F202000003B
:104620000000808080808000006B949494936000F0
:1046300008F8008080800000203F210000203F20FB
:1046400000809898000000000020203F20200000FB
:10465000000000809898000000C08080807F0000EB
:1046600008F8000080808000203F24022D302000C8
:10467000000808F8000000000020203F2020000073
:104680008080808080808000203F20003F20003F8D
:104690008080008080800000203F210000203F209B
:1046A0000000808080800000001F202020201F004C
:1046B000808000808000000080FFA12020110E007B
:1046C0000000008080808000000E112020A0FF806C
:1046D000808080008080800020203F212000010019
:1046E000000080808080800000332424242419006E
:1046F000008080E0808000000000001F202000007B
:104700008080000000808000001F202020103F20BB
:10471000808080000080808000010E30080601004B
:1047200080800080008080800F300C030C300F00F0
:1047300000808000808080000020312E0E3120001B
:10474000808080000080808080818E70180601004B
:1047500000808080808080000021302C2221300069
:1047600000000000807C020200000000003F40408A
:1047700000000000FF00000000000000FF0000003B
:104780000002027C800000000040403F000000006A
:104790000006010102020404000000000000000005
:1047A000C047000800000020E4190000323C000867
:1047B000404F0008E4190020E4040000B83C000861
:1047C0000010138080EE888888E88F088878484E2B
:1047D00040C0167F2424247F0008168140300F300B
:1047E0004180051701E21CE037804020100C030EC9
:1047F00010030C304080402C101090010009121062
:1048000010FF101011161018082060203F10101013
:10481000400D10102040F8601D828282FE0449067F
:104820000911A01A80B9510217FF1F181610D0B82D
:1048300097840B1192947F11080D1120108C8380A6
:1048400041462810284443C0114FFE022242827282
:10485000050213FE2FFF100806010E0504134E80FB
:104860007FF2A0100A03050911FF118905C312E0A8
:1048700012F069F1073D4428FF11AA44700B83012F
:10488000384482929274018328087C44FF017D7D24
:104890007D044905647D01FF9A0102818A010B01B3
:1048A0003669419949FA0101011D38083F3F030368
:1048B000F31311011E01F1116181312D816111F19B
:1048C000393B4141072C01C1211EAB21C1143901E3
:1048D00039360738D33303033F3F23E0E06A7FA82C
:1048E0001A7FBF4C0618060A213640407F40401C04
:1048F0001F204001AB201F14113A600E6C300C03D6
:104900004601361C07070601780904040484444460
:104910004484071C0484C405790E09110A791129FD
:1049200040034107072610181412112E0F10101003
:104930000F0F331F1026081012120D22186B0D12C4
:104940000A5929590701605A8001013D20087F0357
:104950000C300C037F2538545458257C040478050A
:10496000223C40407C17FFAAAAAA28080A2CFF680C
:104970001E2649494932101D020408100F100A036F
:10498000050911FF118905C312E012F072F8073D05
:104990004428FF11AA44700B830138448292927418
:1049A00001831E7C44FF017D01990559BB9A0102D8
:1049B000818A010B013669419949FA010101204BB5
:1049C000F808011135F818608035806018F82B2040
:1049D0002006312BE0101EAB10E014613937043E85
:1049E0008868186A7FA71A7FBE4C0618060A114607
:1049F00040407F40401C1F204001AB201F1411622B
:104A0000603A602F01441E40202020C0ED19072984
:104A1000EA2A4005115A600E891879295907014977
:104A2000260C0A0A090C360F0808080F2C080F0874
:104A3000151D0809090E0719181C09090918190A72
:104A40005929590701605A8001013D20087F030C54
:104A5000300C037F2538545458257C0404780522F3
:104A60003C40407C17FFAAAAAA28080A2CFF681E0F
:104A70002649494932101D020408100FD9D35CC0E1
:104A8000E0F001092117C129221DF8F8F8FC049E65
:104A9000F8F0E0C0803A29172AFC19991801141877
:104AA00008FCFEFFFFFF7F3F052901910A14FE1756
:104AB000B97D4AFC1D5E3F1F0F0F1F2932F85AF8BF
:104AC0000C1917B91801163507070301E96909150B
:104AD0001729E9290141591C491D990D0916180189
:104AE0001D091527E91719D339010976804BE0F024
:104AF00001410A717F804B1F3F01410A710780D13C
:104B00004A3F1D1BFCF801490B337F0F4B0F7F0DF4
:104B100029175AFC180220074A0F01092517811C82
:104B20000103071E1A1F018F0F0F07070301171933
:104B30001829174918011416C0C0C080801B808036
:104B400008190A215909B913390A1913691DB9132A
:104B5000490A31390A7913290909170AD9BE3C07CC
:104B60000707B329B039BD3A0113390AB913490A05
:104B700039135D018080010A191C7C03070E0A2984
:104B80000919015913C90A4A0F0A013A29C3000F2A
:104B9000421C3EBCC0E0E0EFEFE0E0C0B83E3E00AB
:104BA000101DFEFCFC8C8C8CACECEC8C9C9C9CFC5E
:104BB000FC9F0707CFF8FEFF0157FEF8CF0F07074E
:104BC000100BC0F0F878383838F8F0C06C80E0F09E
:104BD0000B1117E0F03838F0E01A80B419011BC04F
:104BE000C0C2E11946200DBBFBFBF9FFFFFBFBBB7D
:104BF0003BFFFF193A3E3838181818084901697EFA
:104C0000AC07071F7E29013D3F06070F81240707D8
:104C1000031680E0F87F1F200B87CFFFFC787078A9
:104C2000FFDF8F1B01033636FDFF3F0301E6010165
:104C3000070706180980FFFF07383F3F31011B3F78
:104C40003F8D011D1A0F6B4814C3E7EF1F3F3FBF95
:104C5000BF3F3F1FCFEFC301070F0F0E496016E0A4
:104C6000F0FCDFCFC7C1C0C0C07FFFF1C08080C0F3
:104C7000E1FF7F1E1D1F7FFEE0121914E4F0F070AB
:104C800039B76129AA39CB011D3A03CA2B0F0FCFBF
:104C90007A033C19DB8901391A1928292979202935
:104CA00012493C019F480880C0E0F0F0F0780119FB
:104CB0000A54E0C0805DF0F8F8F8167901623039E6
:104CC000323BF0F82D390C4AF80C4939012EB67EEA
:104CD000FFFFFF811A811042FF29081B80C0603945
:104CE0000119096A805F2B1F3F1C09100103333F24
:104CF0001F2816C0F1F3FF7F3F3E1E1E1C1C1C1E0A
:104D00001E3E3F7FFFF3F1E06A5809070F0F0F07C0
:104D100003030101700803073FFFFEFCC0190F00E9
:104D20001235070F1F1F3F3F7F7F7F3F1F1F0F075A
:104D30000703011A7FB86AC0D9411B80C012227FC5
:104D4000AD70F0F0E0191C80C0F018420F780BF83D
:104D5000F8F8606060E0C0E0E0074904013539CB55
:104D60002C0F0F0E0129F319F4F919491869E219EA
:104D70000E38080C0C0C0F073F3F071A0F956904FB
:104D800001426EC0E070F0E0F8680980E0F8380C8D
:104D90001C78F010391F953870F0C08B80C00C095A
:104DA0003F7B2EC0703C1F07E11BFFF8725680F05E
:104DB000FC1F033C031FFE8336C0F87F0F012D014B
:104DC0000F7FF877691001515E010F3F703E7D61E2
:104DD0009E073F7C783F6D2F030F3E707C3FAD01F7
:104DE000561816808080C0C06060303010181818C7
:104DF00008080C0C0C0808080B180B181030302091
:104E000020606040C0220151180BC0E030180C0631
:104E10000203030101111982091A64080B460101FA
:104E20000303060C0C18F0E0891CFCFF03FA780B56
:104E3000C0C0C0E0F0F0F8FCFEFF014AFE01DAFC61
:104E4000013BF8F0B50347FF3F280F031F7CE09FAD
:104E50006FFFFFF7FFFF1F1F1F791EF7FFEF5FBFF9
:104E6000082CBF5FEF161DFFBF1F1F0F00114CF76F
:104E7000F7FF6F9FFFFFDFDFFFC8E0F8CE87017FFE
:104E800001071F3F7F7FFA3CBFBE3F017BBFBE13C0
:104E900029011EFEFE7F7F3FA405550F0F07031C4F
:104EA000010103014A07011A0F67690129170A4A1C
:104EB00001F2771C7EFEFE9C98000C14484848C8FE
:104EC0009898103060C08020125858C8ECECFEB89A
:104ED000B0B0B0B8FEECECEC48489A40132AEE13A0
:104EE0000A3140ED19EA100B0E0E0C1C1C1E1E3E62
:104EF0001C082401070E0414070F0438091F3F344F
:104F00003434373737060B153818130118F01BB136
:104F1000EAD7BCCBABD3EFB2E2CAD420666F722023
:104F2000456E676C6973680D0A7BA24A7E68090149
:104F3000020304060708090C6910050002040608AC
:0400000508000131BD
:00000001FF
