:020000040800F2
:100000008804002001010008C9300008CB30000836
:10001000CF300008D3300008D730000800000000BF
:10002000000000000000000000000000DD300008BB
:10003000DB30000800000000DF300008E13000087D
:100040001B0100081B0100081B0100081B01000820
:100050001B0100081B0100081B0100081B01000810
:100060001B0100081B0100081B0100081B01000800
:100070001B0100081B0100081B0100081B010008F0
:100080001B0100081B0100081B0100081B010008E0
:100090001B0100081B0100081B0100081B010008D0
:1000A0001B0100081B0100081B0100081B010008C0
:1000B0001B0100084B2E00081B0100081B01000853
:1000C0001B0100081B0100081B0100081B010008A0
:1000D0001B0100081B010008852D00081B010008FA
:1000E0001B0100081B0100081B010008DFF80CD0F1
:1000F00003F00AFD00480047B92E000888040020DC
:100100000648804706480047FEE7FEE7FEE7FEE7B1
:10011000FEE7FEE7FEE7FEE7FEE7FEE70302000874
:10012000ED0000080CB50020019000906C480068BC
:1001300040F480306A49086000BF6948006800F4F4
:10014000003000900198401C0190009818B9019867
:10015000B0F5A06FF1D16248006800F4003010B132
:100160000120009001E0002000900098012843D178
:100170005C48006840F010005A4908600846006872
:1001800020F0030008600846006840F002000860A4
:1001900053484068524948600846406848600846ED
:1001A000406840F4806048600846406820F47C1055
:1001B00048600846406840F4E81048600846006817
:1001C00040F08070086000BF4548006800F0007093
:1001D0000028F9D04248406820F0030040494860B8
:1001E0000846406840F00200486000BF3C48406854
:1001F00000F00C000828F9D10CBD10B5FFF792FFF4
:1002000010BD10B53648006840F001003449086060
:10021000084640683449084031494860084600684B
:10022000324908402E4908600846006820F48020C2
:1002300008600846406820F4FE0048604FF41F0044
:100240008860FFF7DAFF4FF000602949086010BDB1
:1002500010B5002100200022214B5B6803F00C0147
:1002600021B1042906D0082928D107E0214B224CCE
:10027000236027E01F4B204C236023E0184B5B6872
:1002800003F47010164B5B6803F48032022303EB17
:10029000904022B9194B4343174C23600DE0104B9B
:1002A0005B6803F4003323B1144B4343124C2360C7
:1002B00003E0104B4343104C236003E00D4B0E4C06
:1002C000236000BF00BF064B5B68C3F303130C4CF5
:1002D000E15C094B1B68CB40074C236010BD00005C
:1002E00000100240002002400000FFF8FFFFF6FE71
:1002F00008ED00E000127A000000002000093D0037
:100300000400002010B50446CC48844208D10121E5
:10031000042000F02DFB0021042000F029FB46E022
:10032000C748844208D10121082000F021FB0021A8
:10033000082000F01DFB3AE0C248844208D10121A8
:10034000102000F015FB0021102000F011FB2EE022
:10035000BD48844208D10121202000F009FB002182
:10036000202000F005FB22E0B848844208D101219A
:10037000402000F0FDFA0021402000F0F9FA16E0DC
:10038000B348844208D10121802000F0F1FA002115
:10039000802000F0EDFA0AE0AE48844207D1012146
:1003A000801500F0E5FA0021A01500F0E1FA10BD7B
:1003B00010B50121084600F0DBFA0021012000F011
:1003C000D7FA10BD2DE9F041024600250026002095
:1003D00000230024002791F803C00CF00F0591F8CA
:1003E00003C00CF0100CBCF1000F03D091F802C058
:1003F0004CEA050591F800C0BCF1000F31D014683B
:1004000000202BE04FF0010C0CFA00F3B1F800C013
:100410000CEA03069E4220D183004FF00F0C0CFA29
:1004200003F7BC4305FA03FC4CEA040491F803C04B
:10043000BCF1280F06D14FF0010C0CFA00FCC2F8F9
:1004400014C00AE091F803C0BCF1480F05D14FF089
:10045000010C0CFA00FCC2F810C0401C0828D1D3D3
:100460001460B1F800C0BCF1FF0F34DD5468002007
:100470002EE000F1080C4FF0010808FA0CF3B1F877
:1004800000C00CEA03069E4221D183004FF00F0CFE
:100490000CFA03F7BC4305FA03FC4CEA040491F898
:1004A00003C0BCF1280F05D100F1080C08FA0CF8C4
:1004B000C2F8148091F803C0BCF1480F07D100F1D5
:1004C000080C4FF0010808FA0CF8C2F81080401C24
:1004D0000828CED35460BDE8F0814FF6FF7101804B
:1004E000022181700421C170704702460020936888
:1004F0000B400BB1012000E00020704701468868E6
:1005000080B2704702460020D3680B400BB1012037
:1005100000E0002070470146C86880B27047016162
:100520007047416170470AB1016100E04161704765
:10053000C16070474FF480320A43826181618261F9
:1005400082698269704702460020434B18684FF663
:100550008073184040EA021008433F4B1860704710
:100560003E49C8617047F0B50A46002300240021C7
:10057000002500F00046B6F1004F02D1364EF16979
:1005800001E0354E7168C0F3034583B200F44016B4
:10059000B6F5401F08D121F070612F4E766826F025
:1005A00070662D4F7E6012E000F48016B6F5801F55
:1005B00006D1032606FA05F4A14341F0706106E076
:1005C000460D360103FA06F6B14341F0706122B1DF
:1005D000460D360103FA06F6314300F00046B6F147
:1005E000004F02D11C4EF16101E01B4E7160F0BD65
:1005F00030B500228B071C0F0F2303FA04F2164BB1
:1006000008338C1053F824309343134C08348D1066
:1006100044F8253023468C1053F824308C07240FDF
:1006200000FA04F423430C4C08348D1044F82530B0
:1006300030BD0A49DC310860704700000008014005
:10064000000C01400010014000140140001801405E
:10065000001C014000200140000001400000204239
:10066000DF48006840F00100DD4908600846406846
:10067000DC490840DA49486008460068DA49084021
:10068000D74908600846006820F4802008600846C2
:10069000406820F4FE0048604FF41F0088607047F7
:1006A000CF49096821F48031CD4A116011460968AB
:1006B00021F480211160B0F5803F03D0B0F5802F88
:1006C0000ED106E0C649096841F48031C44A116080
:1006D00007E0C349096841F4A021C14A116000E064
:1006E00000BF00BF704710B5014600220023002064
:1006F0004A11012A02D1BA4C236806E0022A02D12B
:10070000B74C236A01E0B64C636A01F01F02012472
:1007100094401C400CB1012000E0002010BD38B511
:10072000002000900024002500BF3120FFF7DBFFF0
:1007300005460098401C00900098B0F5A06F01D0CD
:10074000002DF2D03120FFF7CEFF08B1012400E0E8
:100750000024204638BD01460020A14A106820F040
:10076000F80040EAC10010607047A0490860704777
:10077000024600209A4B586820F47C1042EA01039C
:100780001843974B58607047984908667047014670
:100790000020934A506820F00300084350607047DF
:1007A0008F48406800F00C007047014600208C4ADA
:1007B000506820F0F0000843506070470146002068
:1007C000874A506820F4E060084350607047014653
:1007D0000020834A506820F4605040EAC100506015
:1007E000704729B17E4A527A02437D4B5A7204E027
:1007F0007B4A527A82437A4B5A7270477B49D8318E
:100800000860704701460020754A506820F4404057
:100810000843506070470021714A20321170704ABD
:1008200082F82010012802D004280AD104E0012116
:100830006B4A2032117005E00521694A203211709F
:1008400000E000BF00BF7047694908607047644915
:10085000096A0143624A1162704765494439086078
:10086000704730B500210022002400235C4D6D68E4
:1008700005F00C0121B1042905D0082923D105E098
:100880005C4D056022E05B4D05601FE0544D6D68D6
:1008900005F47012524D6D6805F48034022505EBA5
:1008A00092421CB9544D554305600BE04C4D6D68A8
:1008B00005F400351DB1504D5543056002E04D4D26
:1008C0005543056002E04B4D056000BF00BF444D3D
:1008D0006D6805F0F0010909484D6B5C0568DD4065
:1008E00045603F4D6D6805F4E061090A434D6B5C5E
:1008F0004568DD4085603A4D6D6805F46051C90A70
:100900003E4D6B5C4568DD40C560354D6D6805F456
:100910004041890B3A4D6B5CC568B5FBF3F5056149
:1009200030BD29B12E4A526902432D4B5A6104E071
:100930002B4A526982432A4B5A61704729B1284A8F
:1009400092690243264B9A6104E0254A92698243E8
:10095000234B9A61704729B1214AD2690243204B47
:10096000DA6104E01E4AD26982431D4BDA617047A6
:1009700029B11B4AD2680243194BDA6004E0184AD5
:10098000D2688243164BDA60704729B1144A126963
:100990000243134B1A6104E0114A12698243104B5F
:1009A0001A61704712494039086070470F49C8649E
:1009B00070470B49C87170470948406A40F0807021
:1009C00007494862704701460020054A92680A407C
:1009D0000AB1012000E00020704701498872704789
:1009E000001002400000FFF8FFFFF6FE0000424248
:1009F0008004424200127A0000093D0014000020E9
:100A00002400002010B50446FA48844208D1012190
:100A10004015FFF7ADFF00216015FFF7A9FF17E0B4
:100A2000F548844208D101210015FFF7A1FF0021FC
:100A30002015FFF79DFF0BE0F048844208D101210B
:100A4000C803FFF795FF00214FF40040FFF790FF28
:100A500010BD30B50246002000235068E84C20400D
:100A60000D790C6844EA0524204350609068E54CF9
:100A70002040D1E902542C434D7944EA45042043F7
:100A80009060D06A20F470000C7C641EE4B22343B2
:100A900040EA0350D06230BD002101600171417114
:100AA0008160C16001210174704721B1826842F008
:100AB0000102826003E0826822F0010282607047D6
:100AC00021B1826842F48072826003E0826822F47D
:100AD00080728260704710B50023CBB21AB14468AF
:100AE0001C43446002E044689C43446010BD81683C
:100AF00041F0080181607047014600208A6802F0D9
:100B000008020AB1012000E000207047816841F02E
:100B1000040181607047014600208A6802F00402E7
:100B20000AB1012000E00020704721B1826842F440
:100B3000A002826003E0826822F4A0028260704713
:100B4000014600208A6802F480020AB1012000E018
:100B50000020704710B50A4600210023416821F4A7
:100B60006041531E41EA4331416010BD21B14268EA
:100B700042F40062426003E0426822F40062426094
:100B80007047F0B504460D4600200021092D11DD07
:100B9000E068A5F10A0606EB4607072606FA07F104
:100BA0008843A5F10A0606EB460603FA06F1084358
:100BB000E0600CE0206905EB4507072606FA07F11F
:100BC000884305EB450603FA06F108432061072A2E
:100BD0000FDA606B561E06EB86071F2606FA07F132
:100BE0008843561E06EB860605FA06F10843606345
:100BF00022E00D2A0FDA206BD61F06EB86071F2690
:100C000006FA07F18843D61F06EB860605FA06F1B9
:100C10000843206310E0E06AA2F10D0606EB8607A8
:100C20001F2606FA07F18843A2F10D0606EB860699
:100C300005FA06F10843E062F0BD21B1826842F492
:100C40008012826003E0826822F480128260704722
:100C50000146C86C80B2704766484C3000687047E7
:100C600021B1426842F48062426003E0426822F4AB
:100C700080624260704721B1426842F48052426013
:100C800003E0426822F48052426070470A46002125
:100C9000816821F4E04111438160704721B182688D
:100CA00042F40042826003E0826822F400428260E3
:100CB000704721B1826842F40212826003E08268C8
:100CC00022F4021282607047014600208A6802F412
:100CD00000120AB1012000E000207047F0B5044680
:100CE0001546002000220026092911DDE068A1F147
:100CF0000A0707EB470C072707FA0CF29043A1F10C
:100D00000A0707EB470703FA07F21043E0600CE01D
:100D1000206901EB410C072707FA0CF2904301EB25
:100D2000410703FA07F210432061A06BC0F301569C
:100D3000EF1C06F1010CA7EB0C0707EB870C1F2734
:100D400007FA0CF29043EF1C06F1010CA7EB0C071D
:100D500007EB870701FA07F21043A063F0BD10B557
:100D60000A4600210023816B21F44011531E41EA01
:100D70000351816310BD08B5002300930090009BD0
:100D80000B440093009B1A6008BD08B50246002082
:100D90000090009201F12800009B184400900098F8
:100DA000006880B208BD0A4600214168164B194010
:100DB0001143416070474162826270470A460021D8
:100DC000416821F01F0111434160704740B109495A
:100DD0000831096841F40001064A0832116007E051
:100DE00004490831096821F40001024A08321160FF
:100DF000704700000024014000280140003C0140F1
:100E0000FFFEF0FFFDF7F1FFFFFD3FFF0246002070
:100E100013680B400BB1012000E000207047CA436B
:100E20000260704770B502460020002300240B12B8
:100E30005568CEB205EA060415681D4015B10CB11F
:100E4000012000E0002070BD00220A12D34303609D
:100E50007047000010B50446FB48844209D10121C7
:100E60008803FFF785FD00214FF48040FFF780FDE8
:100E700032E0F648844209D101214804FFF785FD9C
:100E800000214FF40030FFF780FD25E0F048844258
:100E900009D101218804FFF778FD00214FF480205B
:100EA000FFF773FD18E0EB48844209D10121C80423
:100EB000FFF76BFD00214FF40020FFF766FD0BE00C
:100EC000E548844208D101210805FFF75EFD0021B5
:100ED0004FF48010FFF759FD10BD2DE9F04786B0A3
:100EE00005460E460024A24600BFA1460027B08951
:100EF00000B100BF2F462C8A4CF6FF700440F088EA
:100F000004432C82AC894EF6F3100440B08831893A
:100F10000843718908430443AC81AC8A4FF6FF4013
:100F20000440B0890443AC8201A8FFF79AFCC6488C
:100F3000874202D1DDF810A001E0DDF80CA0A889FD
:100F400000F4004040B10AEBCA0000EB0A1031681F
:100F50004900B0FBF1F807E00AEBCA0000EB0A1009
:100F600031688900B0FBF1F86420B8FBF0F00401AF
:100F70002009642101FB1089A88900F4004040B1D8
:100F8000322000EBC900B0FBF1F000F00700044391
:100F900008E0322000EB09106421B0FBF1F000F012
:100FA0000F0004432C8106B0BDE8F0874FF41651C2
:100FB000016000218180C18001810C2141810021DB
:100FC0008181704710B502460020108A4FF2FF035E
:100FD00018400B884C8823438C882343CC882343B8
:100FE0001843108210BD0021018041808180C180A2
:100FF000704721B1828942F40052828104E08289E3
:101000004DF6FF731A4082817047F0B50346002405
:1010100000260025002040F66A17B94200D100BF23
:101020001846C1F3421401F01F06012707FA06F51E
:10103000012C01D10C3004E0022C01D1103000E071
:1010400014301AB107682F43076002E00768AF4306
:101050000760F0BD1AB1838A0B43838202E0838A62
:101060008B4383827047028A4FF6F0731A400282E4
:10107000028A0A430282704782894FF2FF731A4044
:10108000828182890A438281704721B1828942F03C
:101090000202828104E082894FF6FD731A40828148
:1010A0007047028A4FF6DF731A400282028A0A43AF
:1010B0000282704721B1028A42F48042028204E037
:1010C000028A4BF6FF731A4002827047C1F308028E
:1010D0008280704701468888C0F308007047818984
:1010E00041F0010181817047028BD2B20283028BF1
:1010F00042EA012202837047028B02F47F4202839C
:10110000028B0A430283704721B1828A42F0200297
:10111000828204E0828A4FF6DF731A40828270472F
:1011200021B1828A42F01002828204E0828A4FF664
:10113000EF731A408282704721B1828A42F008021E
:10114000828204E0828A4FF6F7731A4082827047E7
:1011500021B1828942F40042828103E08289C2F394
:101160000E028281704721B1828A42F4006282823B
:1011700004E0828A4FF2FF731A4082827047828AAB
:101180004FF6FB731A408282828A0A43828270473A
:1011900021B1828A42F00202828204E0828A4FF602
:1011A000FD731A408282704702460020B1F5007F2D
:1011B00000D100BF13880B400BB1012000E00020DC
:1011C000704701F40072B2F5007F00D100BFCA433E
:1011D0000280704770B502460024002300250020DD
:1011E00040F66A16B14200D100BFC1F3421501F0CA
:1011F0001F03012606FA03F3012D02D1968933401D
:1012000006E0022D02D1168A334001E0968A33406F
:101210000C12012606FA04F41688344013B10CB1FE
:10122000012000E0002070BD10B50022002340F630
:101230006A14A14200D100BF0A1201249440A3B253
:10124000DC43048010BD0000003801400044004031
:1012500000480040004C004000500040314901432C
:10126000314A1160704770B5002100230F22C47805
:1012700004B32D4C246804F4E064C4F5E064210A4E
:10128000C1F10403CA40447804FA03F1847814409D
:1012900021430901254C0678A155047804F01F0567
:1012A0000124AC4005786D11AD0005F1E025C5F8CD
:1012B000004109E0047804F01F050124AC401C4DF6
:1012C0000678761145F8264070BD1A4A0A40024356
:1012D000154B1B1F1A60704739B1134A121D126853
:1012E0000243114B1B1D1A6006E00F4A121D1268C3
:1012F00082430D4B1B1D1A607047042808D14FF024
:10130000E021096941F004014FF0E022116107E09A
:101310004FF0E021096921F004014FF0E022116152
:10132000704700000000FA050CED00E000E400E06A
:1013300080E100E080FFFF1F10B50446FE488442B4
:1013400008D10121C014FFF713FB0021E014FFF7BF
:101350000FFBC4E0B4F1804F08D101210846FFF72C
:1013600014FB00210120FFF710FBB8E0F348844292
:1013700008D101210220FFF708FB00210220FFF71E
:1013800004FBACE0EE48844208D101210420FFF7C1
:10139000FCFA00210420FFF7F8FAA0E0E9488442B3
:1013A00008D101210820FFF7F0FA00210820FFF7FB
:1013B000ECFA94E0E448844208D101211020FFF7C0
:1013C000E4FA00211020FFF7E0FA88E0DF488442C9
:1013D00008D101212020FFF7D8FA00212020FFF7B3
:1013E000D4FA7CE0DA48844208D101214014FFF7A6
:1013F000BFFA00216014FFF7BBFA70E0D5488442C1
:1014000009D10121C804FFF7B3FA00214FF40020ED
:10141000FFF7AEFA63E0D048844209D10121080504
:10142000FFF7A6FA00214FF48010FFF7A1FA56E06B
:10143000CA48844209D101214805FFF799FA0021E1
:101440004FF40010FFF794FA49E0C548844208D1F0
:1014500001214020FFF799FA00214020FFF795FA7B
:101460003DE0C048844208D101218020FFF78DFA79
:1014700000218020FFF789FA31E0BB48844208D17F
:1014800001218015FFF781FA0021A015FFF77DFAF1
:1014900025E0B648844209D101210804FFF768FA23
:1014A00000214FF48030FFF763FA18E0B04884421F
:1014B00009D101214804FFF75BFA00214FF4003005
:1014C000FFF756FA0BE0AB48844208D101218804AB
:1014D000FFF74EFA00214FF48020FFF749FA10BDC4
:1014E00000220288944B98420ED0994B98420BD020
:1014F000B0F1804F08D0914B984205D0904B984264
:1015000002D0904B984204D14FF68F731A404B880B
:101510001A438D4B984207D08C4B984204D04FF61B
:10152000FF431A40CB881A4302808B8883850B883F
:101530000385814B98420BD0854B984208D08B4B4A
:10154000984205D08A4B984202D08A4B984201D1EA
:101550000B7A038601238382704770B50024002232
:101560000023058C4FF6FE7635400584028C838877
:10157000048B4FF68F752C40B51E2C400D882C43E4
:10158000751E2A400D892A434D882A436A4DA84278
:101590000BD06F4DA84208D0744DA84205D0744DB1
:1015A000A84202D0734DA84213D14FF6F7752A40D6
:1015B0004D892A434FF6FB752A408D882A434FF602
:1015C000FF652B404FF6FF552B408D892B43CD896E
:1015D0002B4383800483CD888586028470BD70B5DB
:1015E000002400220023058C4FF6EF763540058459
:1015F000028C8388048B48F6FF752C404FF6FF451C
:101600002C400D884FF6FF7606EA05252C434FF651
:10161000DF752A400D8906EA05152A434D8806EA3A
:1016200005152A43444DA84202D0494DA8421DD178
:101630004FF67F752A404D894FF6FF7606EA05156D
:101640002A434FF6BF752A408D8806EA05152A43BE
:101650004FF6FF352B404FF2FF752B408D8906EA80
:1016600085052B43CD8906EA85052B4383800483BA
:10167000CD880587028470BD70B500240022002348
:10168000058C4FF6FF6635400584028C8388848B79
:101690004FF68F752C404FF6FC752C400D882C436F
:1016A0004FF6FF552A400D894FF6FF7606EA0525CD
:1016B0002A434D8806EA05252A431F4DA84202D039
:1016C000234DA8421DD14FF2FF752A404D894FF698
:1016D000FF7606EA05252A434FF6FF352A408D8816
:1016E00006EA05252A434EF6FF752B404DF6FF7599
:1016F0002B408D8906EA05152B43CD8906EA051591
:101700002B4383808483CD888587028470BD70B528
:10171000002200230024058C4EF6FF763540058418
:10172000038C8488828B48F6FF752A404FF6FF456C
:101730002A400D8820E00000002C014000040040F9
:1017400000080040000C0040001000400014004061
:1017500000340140004C0140005001400054014061
:1017600000180040001C00400020004000400140E4
:1017700000440140004801404FF6FF7606EA052587
:101780002A434DF6FF752B400D8906EA05352B439C
:101790004D8806EA05352B43FA4DA84202D0FA4D92
:1017A000A84208D14BF6FF752C408D894FF6FF7685
:1017B00006EA85152C4384808283CD88A0F84050AA
:1017C000038470BD828B4FF2FF331A408283828B79
:1017D0004FF6FF7303EA01231A4382837047F0B583
:1017E0000C461546002200210026078C4EF6FF7C91
:1017F00007EA0C070784828B018C4FF6FF7707EA14
:10180000043640F6FF473A404FF6FF7707EA0527D0
:101810003A434FF6FF7707EA03373A43D94FB842C6
:101820000ED0D94FB8420BD0B0F1804F08D0D74F6F
:10183000B84205D0D64FB84202D0D64FB84206D1F2
:101840004DF6FF77394046F48057394305E047F6B7
:10185000FF57394044F48057394382830184F0BDF7
:10186000828B4FF6F3731A408283828B0A43828302
:101870007047F0B50C461546002200210026078C63
:101880004FF6FF6C07EA0C070784828B018C4FF63A
:10189000FF7707EA04264FF60C773A404FF6FF77BA
:1018A00007EA03172F433A43B64FB8420ED0B64F5C
:1018B000B8420BD0B0F1804F08D0B44FB84205D039
:1018C000B34FB84202D0B34FB84206D14FF6FF57DC
:1018D000394046F48077394305E04FF2FF573940ED
:1018E00044F48077394382830184F0BD028B4FF248
:1018F000FF331A400283028B4FF6FF7303EA012382
:101900001A4302837047F0B50C46154600220021A9
:101910000026078C4FF6EF7C07EA0C070784028B42
:10192000018C4FF6FF7707EA041640F6FF473A406E
:101930004FF6FF7707EA03373A434FF6FF7707EA98
:1019400005273A438F4FB8420ED08F4FB8420BD085
:10195000B0F1804F08D08D4FB84205D08C4FB842BF
:1019600002D08C4FB84206D14FF6DF77394046F0AF
:101970001007394305E04FF65F77394044F0100710
:10198000394302830184F0BD028B4FF6F3731A4092
:101990000283028B0A4302837047F0B50C4615465A
:1019A00000220021068C4FF6FE773E400684028B13
:1019B000018C4FF60C7632407E1C06EA03162E434D
:1019C0003243704EB0420ED06F4EB0420BD0B0F1E9
:1019D000804F08D06D4EB04205D06D4EB04202D05F
:1019E0006C4EB04206D14FF6FD76314044F0010610
:1019F000314305E04FF6F576314044F001063143BE
:101A000002830184F0BD70B505460C465D488542F1
:101A10000ED05D4885420BD0B5F1804F08D05B48B1
:101A2000854205D05A48854202D05A48854200D1A5
:101A300000E000BF208850B92389A2886188284629
:101A4000FFF7ABFFE1882846FFF79EFF25E02088DF
:101A500004280AD12389A28861882846FFF753FF0A
:101A6000E1882846FFF742FF17E0208808280AD1BE
:101A70002389A28861882846FFF7FBFEE188284673
:101A8000FFF7EEFE09E02389A28861882846FFF768
:101A9000A6FEE1882846FFF795FE70BD2DE9F041CE
:101AA00005460C4600260127608808B9022600E09A
:101AB0000026A088012801D1022700E00127208804
:101AC000A0B92389A28861882846FFF766FFE188CC
:101AD0002846FFF759FF23893A4631462846FFF743
:101AE00012FFE1882846FFF701FF13E02389A2884F
:101AF00061882846FFF707FFE1882846FFF7F6FED2
:101B000023893A4631462846FFF747FFE1882846B1
:101B1000FFF73AFFBDE8F0810A884B881A438B88AB
:101B20001A43CB881A430B891A434B891A438B8972
:101B30001A43A0F8442070474FF6FF7181800021BE
:101B40000180C18041800172704700210180418085
:101B50008180C180018141818181C18170470021E3
:101B600001804180012181800021C1800181704775
:101B70000021018041808180C1800181418181817A
:101B800070470000002C0140003401400004004078
:101B900000080040000C004021B1028842F0010220
:101BA000028004E002884FF6FE731A4002807047FC
:101BB00031B1B0F8442042F40042A0F8442005E0DE
:101BC000B0F84420C2F30E02A0F8442070471AB1C6
:101BD00083890B43838102E083898B438381704730
:101BE0008182704741EA0203A0F8483070471AB179
:101BF00083890B43838102E083898B438381704710
:101C000001894FF6F8721140018170470A460021A0
:101C100001894FF68F73194011430181704730B528
:101C200004460D4629462046FFF7F0FF208940F084
:101C30000700208130BD2DE9F04104460D461646CF
:101C40001F46602D06D13B46012231462046FFF754
:101C50005AFE05E03B46012231462046FFF79DFE35
:101C600029462046FFF7D2FF208940F00700208157
:101C7000BDE8F08130B50C4600210189C9B24FF6AC
:101C8000FF7505EA0325154325432943018130BD2E
:101C90002DE9F04105460E46174698460024434676
:101CA0003A4631462846FFF7E5FF2C894FF6F87093
:101CB000044044F007044FF68F70044044F0700471
:101CC0002C81BDE8F081F0B504460D4616461F464E
:101CD0003B46324629462046FFF7CCFF208940F498
:101CE00080402081F0BD0185828270470A46002134
:101CF00001884FF68F731940114301807047F0B58A
:101D00000C4615461E460021002200230189028B45
:101D1000038C4FF6F877394021434FF6FC473A40A1
:101D200040F201173A434FF6DD773B404FF6FF771D
:101D300007EA06172F433B43018102830384F0BD6A
:101D40000A460021018B4FF68F731940114301831E
:101D500070470A460021018B48F6FF7319404FF681
:101D6000FF7303EA02231943018370470A460021E7
:101D7000818B4FF68F7319401143818370470A4658
:101D80000021818B48F6FF7319404FF6FF7303EA79
:101D9000022319438183704721B1028842F08002F7
:101DA000028004E002884FF67F731A400280704779
:101DB00021B1828842F00402828004E082884FF6DA
:101DC000FB731A408280704721B1828842F008027A
:101DD000828004E082884FF6F7731A408280704751
:101DE00021B1828842F00102828004E082884FF6AD
:101DF000FE731A40828070470A460021018B4FF61D
:101E0000F77319401143018370470A460021018B83
:101E10004FF2FF7319404FF6FF7303EA0223194391
:101E2000018370470A460021818B4FF6F7731940F2
:101E30001143818370470A460021818B4FF2FF7363
:101E400019404FF6FF7303EA022319438183704759
:101E50000A460021018B4FF6FB73194011430183A1
:101E600070470A460021018B4FF6FF3319404FF6A9
:101E7000FF7303EA02231943018370470A460021D6
:101E8000818B4FF6FB7319401143818370470A46DB
:101E90000021818B4FF6FF3319404FF6FF7303EAA1
:101EA00002231943818370470A460021018B4FF6B4
:101EB0007F7319401143018370470A460021018B4B
:101EC000C1F30E014FF6FF7303EA022319430183A6
:101ED00070470A460021818B4FF67F7319401143EA
:101EE000818370470A460021818BC1F30E014FF6B2
:101EF000FF7303EA02231943818370470A460021D6
:101F0000018C4FF6FD7319401143018470470A4656
:101F10000021018C4FF6F77319401143018470477B
:101F20000A460021018C4FF6DF7319404FF6FF730C
:101F300003EA02131943018470470A460021018C09
:101F40004FF67F7319404FF6FF7303EA02131943EC
:101F5000018470470A460021018C4FF6FF53194057
:101F60004FF6FF7303EA02231943018470470A46C0
:101F70000021018C4FF2FF7319404FF6FF7303EA03
:101F800002231943018470470A460021018C4DF653
:101F9000FF7319404FF6FF7303EA023319430184BC
:101FA000704730B5002301248C40A3B2048C9C43BD
:101FB0000484048C02FA01F5ADB22C43048430BDD4
:101FC00030B5002304248C40A3B2048C9C430484C9
:101FD000048C02FA01F5ADB22C43048430BD70B517
:101FE0000346002000241846183001258D40ACB26D
:101FF0001D8CA5431D8409B1082909D100EB61009E
:10200000056825F0700505600568154305600EE05C
:102010000D1FC5F34E052844056825F4E04505600D
:1020200005684FF6FF7606EA02263543056070BD67
:1020300021B1028842F00202028004E002884FF6D9
:10204000FD731A400280704721B1028842F00402F9
:10205000028004E002884FF6FB731A40028070474A
:1020600021B1828842F08002828004E082884FF6AB
:102070007F731A408280704702884FF6F7731A40C8
:10208000028002880A430280704782884FF68F736D
:102090001A40828082880A438280704702894FF604
:1020A000F8731A40028102890A430281704702894B
:1020B0004FF67F731A40028102890A4302817047FA
:1020C000818470478185704781867047018770479A
:1020D00081877047A0F84010704702884FF6FF4391
:1020E0001A40028002880A43028070470146888EA7
:1020F00070470146088F70470146888F7047014638
:10210000B1F8400070470146888C70470146088D41
:10211000704702460020138A0B400BB1012000E0FB
:1021200000207047CA430282704730B50246002043
:1021300000230024158A05EA0103958905EA0104B4
:1021400013B10CB1012000E0002030BDCA4302826F
:1021500070470000002109E0002201E0531C9AB200
:1021600040F6B8339A42F9DB4B1C99B28142F3DB5B
:1021700070474FF40072FA4B1A6052101A60202216
:102180001B1F1A60F74AD06020221B1D1A601B1FFC
:102190001A60D2001A60F34AD16020221B1D1A6017
:1021A0001B1F1A60D2001A60704700B50121002081
:1021B000FFF7DFFF4FF47A70FFF7CCFF002101201B
:1021C000FFF7D7FF41F290711020FFF7D2FF4FF4D5
:1021D0001C516020FFF7CDFF01216120FFF7C9FFEF
:1021E00002214620FFF7C5FF48F210011320FFF738
:1021F000C0FF48F2FE011220FFF7BBFF4FF4A061C1
:102200000220FFF7B6FF41F230010320FFF7B1FFD4
:1022100040F203313020FFF7ACFF40F203313120B0
:10222000FFF7A7FF40F203313220FFF7A2FF4FF480
:1022300040713320FFF79DFF03213420FFF799FF02
:1022400040F203313520FFF794FF14213620FFF7C9
:1022500090FF40F203313720FFF78BFF40F203314C
:102260003820FFF786FF40F203313920FFF781FF66
:102270004FF440713A20FFF77CFF03213B20FFF72A
:1022800078FF40F203313C20FFF773FF4FF4A05179
:102290003D20FFF76EFF4FF400719220FFF769FFBA
:1022A00040F203319320FFF764FF40F60D019020C8
:1022B000FFF75FFF41F218010320FFF75AFF40F2DA
:1022C00073110720FFF755FF00BD00B543F2080169
:1022D000E320FFF74EFF1221E720FFF74AFF41F20C
:1022E0003121EF20FFF745FF00210120FFF741FFDB
:1022F0004FF4E0610220FFF73CFF41F23001032080
:10230000FFF737FF00210420FFF733FF40F20721DA
:102310000820FFF72EFF00210920FFF72AFF0021E8
:102320000A20FFF726FF00210C20FFF722FF0021E3
:102330000D20FFF71EFF00210F20FFF71AFF0021DD
:102340001020FFF716FF07211120FFF712FF0021D1
:102350001220FFF70EFF00211320FFF70AFF4FF4B2
:102360007A70FFF7F7FE41F290611020FFF701FF4E
:1023700040F227211120FFF7FCFE3220FFF7EAFE92
:102380001D211220FFF7F5FE3220FFF7E3FE4FF488
:1023900000611320FFF7EDFE14212920FFF7E9FE6D
:1023A0000B212B20FFF7E5FE3220FFF7D3FE0021A3
:1023B0002020FFF7DEFE00212120FFF7DAFE0721B3
:1023C0003020FFF7D6FE40F207713120FFF7D1FE33
:1023D00006213220FFF7CDFE40F204713520FFF7D1
:1023E000C8FE41F604713620FFF7C3FE04213720F2
:1023F000FFF7BFFE00213820FFF7BBFE40F2067159
:102400003920FFF7B6FE40F201713C20FFF7B1FE24
:102410000F213D20FFF7ADFE00215020FFF7A9FE60
:10242000EF215120FFF7A5FE00215220FFF7A1FE6A
:1024300040F23F115320FFF79CFE4FF41C516020E7
:10244000FFF797FE01216120FFF793FE00216A202C
:10245000FFF78FFE00218020FFF78BFE00218120F7
:10246000FFF787FE00218220FFF783FE00218320F3
:10247000FFF77FFE00218420FFF77BFE00218520EF
:10248000FFF777FE10219020FFF773FE00219220C6
:10249000FFF76FFE03219320FFF76BFE4FF4887167
:1024A0009520FFF766FE00219720FFF762FE0021CE
:1024B0009820FFF75EFE41F218010320FFF759FE56
:1024C00040F273110720FFF754FE00BD08B54FF628
:1024D000FF70ADF8000003208DF8020010208DF889
:1024E000030069461F48FDF76DFF08BD08B54FF6AC
:1024F000FF70ADF8000003208DF8020048208DF831
:10250000030069461748FDF75DFF08BD70B5044636
:102510004FF4007012490860401008602020091F25
:1025200008601048C4602020091D0860091F086069
:10253000C0000860FFF7DAFF4FF4806008490860C8
:102540000848806885B20815091F0860FFF7BEFFBC
:102550004FF400700249091F0860284670BD000052
:10256000140C01400010014008B501211820FEF7AD
:10257000E5F901212020FEF7E1F94FF4E460ADF820
:10258000000001208DF8020010208DF8030069463C
:10259000F848FDF717FFFFF799FFF648103000687D
:1025A00040F4C460F3491031086008BD10B5FFF76E
:1025B000DBFF0020FFF7AAFFEF49088008460088EC
:1025C00048F23021884202D1FFF7EFFD01E0FFF72A
:1025D0007CFE0020FFF79AFFE749088010BD01B597
:1025E000BDF80000E549088008BD01B5BDF8000050
:1025F000E349088008BD30B504460D462146202039
:10260000FFF7B7FD29462120FFF7B3FD30BD4FF49A
:102610000071D84A143211604910121F1160202134
:102620001160D849C8602021121D1160121F11606D
:10263000C90011604900116070474FF40070CD4926
:1026400014310860401008602020091F0860222013
:10265000CC49C8602020C74914310860091F0860B0
:10266000C00008604000086070472DE9F04306464E
:102670008946174600240025A046B04649464046F4
:10268000FFF7B9FF00BF1EE0FFF7D7FF00250FE0FF
:1026900037F814000121A940084020B9B848008843
:1026A000FFF7B5FF03E0B5480088FFF7B0FF6D1CEA
:1026B000102DEDD308F1010000F0FF084946404617
:1026C000FFF799FF641C182CDED3BDE8F08370B5CA
:1026D00005460E461446A4F12000C4B204EB4400A3
:1026E000A94901EB001231462846FFF7BEFF70BD35
:1026F000F0B507460C46002540F23F1609E0227867
:1027000031463846FFF7E3FFA6F1100086B2641C9D
:102710006D1C207808B1142DF1D3F0BD10B504461E
:102720009AA12046FFF7E4FF10BD30B5054600240E
:1027300000210846FFF75FFFFFF77FFF00BF03E0C0
:102740002846FFF764FF641CB4F5963FF8D330BD0C
:10275000F0B504460D4616461F46B44206DBA01BE4
:10276000401C81B25020FFF704FD03E000215020FF
:10277000FFF7FFFC21465120FFF7FBFCBD4206DBC3
:10278000E81B401C81B25220FFF7F3FC03E000215C
:102790005220FFF7EEFC29465320FFF7EAFC2946BA
:1027A0002046FFF728FFF0BD00B54FF4A073F022DC
:1027B000591EEF20FFF7CCFF41F218010320FFF76D
:1027C000D8FC00BD2DE9F0410646884615461F4657
:1027D000002441463046FFF70EFF5FB9FFF72DFF9B
:1027E00000BF04E065480088FFF711FF641CAC429D
:1027F000F8D310E000240CE0FFF71FFF5F480088CB
:10280000FFF705FF701CC6B241463046FFF7F3FEE6
:10281000641CAC42F0D3BDE8F081F0B505460E462D
:1028200017461C460023224631462846FFF7CAFFBA
:10283000E919C8B2002322463146FFF7C3FF01233E
:102840003A4631462846FFF7BDFF301B401C81B297
:1028500001233A462846FFF7B5FFF0BD2DE9F043C6
:1028600006460F4690460320A0EB48090024454643
:102870006EE07A1991B23219D0B2FFF7BCFEFFF7C1
:10288000DCFE3E480088FFF7C2FE7A1B91B2321987
:10289000D0B2FFF7B0FEFFF7D0FE38480088FFF750
:1028A000B6FE7A1991B2321BD0B2FFF7A4FEFFF741
:1028B000C4FE32480088FFF7AAFE7A1B91B2321B91
:1028C000D0B2FFF798FEFFF7B8FE2C480088FFF75C
:1028D0009EFE3A1991B27219D0B2FFF78CFEFFF743
:1028E000ACFE26480088FFF792FE3A1B91B272199F
:1028F000D0B2FFF780FEFFF7A0FE20480088FFF768
:1029000086FE3A1991B2721BD0B2FFF774FEFFF740
:1029100094FE1A480088FFF77AFE3A1B91B2721BA8
:10292000D0B2FFF768FEFFF788FE14480088FFF773
:102930006EFEB9F1000F04DA062000EB840081443A
:1029400005E0601B0A2101EB800081446D1E641CC0
:10295000AC428ED9BDE8F08370B506460024002550
:1029600040F23F110020FFF746FEFFF766FE00BF72
:102970002DE00000000C01402C0000202800002069
:102980002A00002000100140B4440008202020202C
:102990002020202020202020202020202020202037
:1029A0000000000000250FE056F824000121A94096
:1029B000084020B95F480088FFF729FE03E05E4821
:1029C0000088FFF724FE6D1C202DEDD3641CB4F5A8
:1029D000166FE7D370BD70B50446002500266688E3
:1029E000A08846EA00466589A08945EA0045701B33
:1029F00046082C4441F208010320FFF7BAFBFFF719
:102A00001CFE002504E02088FFF701FEA41C6D1CBD
:102A1000B542F8D341F218010320FFF7AAFB70BDBD
:102A200010B54FF400704549086040100860202040
:102A3000091F086022204249C86020203F490860E1
:102A4000091F0860C0000860FFF750FD4FF4806068
:102A50003A4908603A48806884B20815091F08603E
:102A6000FFF734FD4FF400703449091F0860204619
:102A700010BD00B500211020FFF77BFB00211120C5
:102A8000FFF777FB00211220FFF773FB00211320D3
:102A9000FFF76FFB1420FFF75DFB41F2B0711020D0
:102AA000FFF767FB40F237111120FFF762FB0520AB
:102AB000FFF750FB40F239111220FFF75AFB0520B7
:102AC000FFF748FB4FF4E8511320FFF752FB1321A7
:102AD0002920FFF74EFB0520FFF73CFB40F2731166
:102AE0000720FFF746FB00BD00B540F27311072039
:102AF000FFF73FFB00BD00B500210720FFF739FBC2
:102B000000BD30B5054600210846FFF774FDFFF70C
:102B100094FD002409E015F814206100491C695C4B
:102B200042EA0120FFF773FD641CB4F5963FF2DB27
:102B300030BD00002A00002028000020140C0140B5
:102B40000010014000B587B001214FF40270FDF77D
:102B5000F5FE0120ADF8180003208DF81A000020C2
:102B60008DF81B0006A91E48FDF72CFC00200190E3
:102B70008DF808008DF80900049001208DF81400EC
:102B80004FF46020039001A91648FDF762FF00236F
:102B9000012208211348FDF7F4FF01211148FDF738
:102BA00084FF1048FDF7B2FF00BF0E48FDF7B3FFEA
:102BB0000028FAD107B000BD10B501210948FDF782
:102BC000B4FF00BF02210748FEF720F90028F9D022
:102BD00002210448FEF723F90248FEF739F810BD38
:102BE000000C01400024014008B501210C20FDF734
:102BF000A5FE0120ADF8000004208DF80300694611
:102C00001048FDF7DFFB4FF48070ADF800000420A2
:102C10008DF8030069460B48FDF7D4FB0220ADF8A0
:102C2000000004208DF8030069460748FDF7CAFB41
:102C30000420ADF800008DF8030069460248FDF756
:102C4000C1FB08BD00080140000C014008B501218E
:102C50002020FDF773FE0420ADF8000003208DF85E
:102C6000020010208DF8030069460248FDF7AAFB18
:102C700008BD00000014014010B586B004460121D3
:102C80004804FDF768FE01210520FDF757FE0820E6
:102C9000ADF8040004208DF8070001A94A48FDF7AB
:102CA00091FB0420ADF8040003208DF806001820E5
:102CB0008DF8070001A94448FDF784FB0294002029
:102CC000ADF80C00ADF80E00ADF81000ADF8140032
:102CD0000C20ADF81200C001FEF7C0FA26208DF8D6
:102CE000000001208DF8010000208DF80200012075
:102CF0008DF803006846FEF7B6FA02A93348FEF7DE
:102D0000ECF801213148FEF774F9012240F2255117
:102D10002E48FEF77AF9012280212C48FEF775F93A
:102D200006B010BD70B504460D46E1B22748FEF767
:102D3000CDF900BF40212548FEF736FA0028F9D02A
:102D4000204670BD002000BF04E00021204A11543D
:102D5000411CC8B21428F8DB704770B50446002542
:102D600000BF615D1948FEF7B1F900BF8021174827
:102D7000FEF71AFA0028F9D0681CC5B2605D002879
:102D8000EFD170BD10B5002440F225510F48FEF779
:102D900021FA012816D140F225510C48FEF711FA0C
:102DA0000A48FEF797F9C4B209480A490968445429
:102DB00008480068401C074908600120064908804F
:102DC0000649087010BD00000008014000440040A2
:102DD0005C00002034000020300000203A00002079
:102DE0001FB501210220FDF7B6FD41F28730ADF895
:102DF00008000020ADF80400ADF80A00ADF80600A8
:102E000001A92848FEF76CFB012247212548FEF75F
:102E10006AFF4FF4C060FEF721FA1D208DF8000014
:102E200000208DF801008DF8020001208DF80300CC
:102E30006846FEF718FA012211461A48FEF7C7FE47
:102E400001211848FEF7A8FE1FBD10B50121154845
:102E5000FFF76BF9012824D101211248FFF776F919
:102E60001148007801281CD110480088401C0F49E7
:102E7000088008460088022813DD00200C490860FD
:102E8000002240F225510B48FEF7BFF8002006490A
:102E9000087006490880012240F225510548FEF7D6
:102EA000B4F810BD000400403A00002038000020B3
:102EB0003400002000440040FFF7C8FEFFF776FB17
:102EC00040F21F50FFF731FC4FF6FF70FFF787FB12
:102ED0004FF41650FFF7D0FEFFF734FE5748006856
:102EE0004FF47A72B0FBF2F1481EB0F1807F00D34C
:102EF0001BE0481E4FF0E022506150170F220028BF
:102F000007DA13071D0E4E4B00F00F04241F1D554A
:102F100003E013071C0E4B4B1C5400BF00204FF066
:102F2000E02290610720106100BFFFF75DFEFFF710
:102F300057FF4FF6FF704449C8604448006840F0AE
:102F40000400424908600846006820F00400086058
:102F50004FF6FF70FFF749FB3DA10020FFF7C8FBCC
:102F60003BA11820FFF7C4FB39A1D820FFF7C0FB15
:102F700040F21F50FFF739FB3CA16020FFF7B8FB80
:102F80003CA17820FFF7B4FB3CA19020FFF7B0FBF9
:102F90003CA1A820FFF7ACFB3CA1C020FFF7A8FB99
:102FA0004BE03C480088012818D100F008F9264879
:102FB000FDF7A4FA000A3849086008460078C043C3
:102FC000C2B236A1384800F0F3FD3749C020FFF700
:102FD0008FFBFFF7B7FE00202E49088000F0B4F900
:102FE000FFF7EAFD044600F0A8FB304908600846F8
:102FF000006800F0A7FB06464FF066322C4B00F04D
:10300000BBFA044600222B4B00F028FB804600F060
:10301000ACFB294908600846006800F093FB0446B1
:1030200022460B4625A1204800F0C2FD1E4948203B
:10303000FFF75EFB642000F05BF8B2E700000020C1
:1030400018ED00E000E400E0001001400C14014025
:103050002020202020202020202020202020202070
:103060002020202020202020000000002042313A93
:10307000520000002042323A520000002042333A0F
:10308000520000002042343A52000000204C4544D7
:103090003A3030003000002054000020204C4544DD
:1030A0003A25303258000000700000204000002017
:1030B00066660A400000B0404400002020414443BE
:1030C0003D252E3266562000704700BFFEE700BF48
:1030D000FEE700BFFEE700BFFEE77047704770479E
:1030E00002480068401E0149086070473C0000200B
:1030F000E749086000BFE64909680029FBD170472D
:1031000010B502460024002300BF00BF0A20FFF7CD
:10311000EFFF04E0D05C204484B2581C83B2D05C42
:1031200028B1D05C0D2802D0D05C0A28F2D120460C
:1031300010BD10B50446D7480079312807D10120C9
:10314000A040D54909788143D348017025E0D14892
:103150000079302807D10120A040CF4909780843E1
:10316000CD49087019E0CB480079322815D1CB48F9
:103170000068012806D1A040C74909788143C648A4
:1031800001700AE0C5480068012806D00120A0406F
:10319000C14909780843C0490870BF480078010256
:1031A000BF48FDF7C5F9BF48006840F00400BD49BD
:1031B00008600846006820F00400086010BD2DE992
:1031C000F047B448FFF79CFFB749088008460088DD
:1031D000B0F5957F07DD08460088B0F59A7F02DCE0
:1031E00040F22B100880B0480088B5284ED006DC8D
:1031F000B2280BD0B3281ED0B4287DD131E0A0F284
:103200000710002857D02428F7D187E00121A748CC
:10321000FDF76BF938B9A6A16020FFF769FAA6A0FF
:1032200000F0B6FC06E0A6A16020FFF761FAA6A0B8
:1032300000F0AEFC85E04FF480719C48FDF755F935
:1032400038B9A3A17820FFF753FAA3A000F0A0FC9F
:1032500006E0A3A17820FFF74BFAA3A000F098FCAA
:103260006FE00221A248FDF740F938B9A1A19020F2
:10327000FFF73EFAA1A000F08BFC06E0A1A1902090
:10328000FFF736FAA1A000F083FC5AE00421984829
:10329000FDF72BF938B99FA1A820FFF729FA9FA0C5
:1032A00000F076FC06E09FA1A820FFF721FA9FA07E
:1032B00000F06EFC45E0FFF77FFC044600F03DFAAD
:1032C0009C4908600846006800F03CFA06464FF04A
:1032D0006632994B00F050F904460022974B00F0FB
:1032E000BDF9804600F041FA95490860084600683B
:1032F00000F028FA044600E01FE022460B4691A1A8
:10330000934800F055FC92494820FFF7F1F99048A6
:1033100000F03EFC69A000F03BFC12E05F48006852
:1033200008B9012000E000205C490860594989780B
:10333000313988B2FFF7FDFE03E086A000F028FCDB
:1033400000BF00BFBDE8F08710B5002406E060A113
:103350007820FFF7CDF90F20FFF7CAFE4FF48071F8
:103360005248FDF7C2F818B97C4800880128EED110
:1033700006E060A19020FFF7BBF90F20FFF7B8FE31
:1033800002215B48FDF7B1F818B97448008801289C
:10339000EFD106E05FA1A820FFF7AAF90F20FFF701
:1033A000A7FE04215248FDF7A0F818B96B48008821
:1033B0000128EFD139E00120FFF79AFE601C84B2AA
:1033C0003BA16020FFF794F9B4F5487F2DDD4FF65F
:1033D000FF703349C8600846C06861490968C9433D
:1033E00000EA01202E49C8602E48006840F0040021
:1033F0002C4908600846006820F00400086028484E
:10340000FDF77CF8000A5649086008460078C0437A
:10341000C2B254A14E4800F0CBFB4D49C020FFF78B
:1034200067F94FF4FA70FFF763FE01211F48FDF7BB
:103430005CF818B9494800880128BCD1012C15DD79
:10344000B4F5487F12DA4FF6FF701549C860154889
:10345000006840F00400134908600846006820F046
:103460000400086042A1C020FFF742F914A16020C7
:10347000FFF73EF91AA17820FFF73AF921A1902031
:10348000FFF736F927A1A820FFF732F910BD000099
:103490003C0000205C000020500000204C00002078
:1034A000001001400C1401404800002000080140B9
:1034B0002042313A5000000042313A500D0A0000DB
:1034C0002042313A5200000042313A520D0A0000C7
:1034D0002042323A5000000042323A500D0A0000B9
:1034E0002042323A5200000042323A520D0A0000A5
:1034F000000C01402042333A5000000042333A5061
:103500000D0A00002042333A5200000042333A5282
:103510000D0A00002042343A5000000042343A5074
:103520000D0A00002042343A5200000042343A5260
:103530000D0A00004000002066660A400000B0400E
:1035400044000020204144433D252E326656200091
:10355000700000206572726F0000000030000020D3
:1035600054000020204C45443A25303258000000D9
:10357000204C45443A3030002DE9FE4F81EA0304E7
:1035800004F0004421F0004100944FF0000B23F0C0
:10359000004350EA01045ED052EA03045BD0C3F357
:1035A0000A54C1F30A552C44A4F2F3340194A0FB4D
:1035B0000254C1F3130141F48011C3F3130343F424
:1035C000801301FB024400FB034E840A970A44EA7D
:1035D000815447EA8357A4FB076802958D0A05FBCF
:1035E00007854FEA932C04FB0C542705029D4FEAF4
:1035F000065847EA1637B5EB08056EEB070C870E41
:10360000920E47EA811742EA8312A7FB0201B6EB4A
:103610000B0164EB00042B0D43EA0C335E1844EB02
:103620001C50DA465146E7FB0201C5F313044FEA8A
:103630000B3343EA14534FEA0432019C43EA060376
:10364000A4F10C040294009CCDE900B400F036F91A
:1036500003B0BDE8F08F00200146F9E72DE9F04DF9
:1036600081EA030404F0004B21F0004514464FF0BA
:10367000000A23F0004150EA050220D054EA01027A
:103680001DD0C5F30A570246C5F31303C1F3130057
:10369000C1F30A5640F4801543F48013A7EB0608E3
:1036A000101BD64608F2FD3873EB050002D308F173
:1036B000010801E092185B41B8F1000F03DA002025
:1036C0000146BDE8F08D00204FF480110646844687
:1036D0000EE0171B73EB050705D3121B63EB050305
:1036E00006434CEA010C49084FEA300092185B414E
:1036F00050EA0107EDD152EA030012D082EA040039
:1037000083EA0501084305D0101BAB4106D2012214
:10371000002306E000224FF0004302E06FF00102B8
:1037200053101AEB06004CEB085110EB0A0041EB6A
:103730000B01BDE8F04D00F0B2B89623002211460F
:1037400000F07FB800F0004230F000400AD0C10D18
:1037500001F56071C0F3160042EA0151C20840074A
:103760001143704700200146704701F0004330B418
:1037700021F0004150EA010206D00A0DA2F5607264
:10378000C1F31301002A02DC30BC00207047440F53
:1037900044EAC104C100E01830BC00EBC25000F0A4
:1037A00047B830B50B46014600202022012409E02D
:1037B00021FA02F59D4205D303FA02F5491B04FAEA
:1037C00002F52844151EA2F10102F1DC30BD2DE9FD
:1037D000F05F0546002092469B4688460646814695
:1037E00040241BE0284641464746224600F0ADF9FA
:1037F00053465A46C01A914110D3114618462246E4
:1038000000F094F92D1A67EB01084F46224601207B
:10381000002100F08BF917EB00094E41201EA4F1A6
:103820000104DFDC484631462A464346BDE8F09FA6
:103830000029A8BF7047401C490008BF20F00100C4
:10384000704710B4B0FA80FC00FA0CF050EA0104A2
:1038500004BF10BC704749B1CCF1200421FA04F434
:1038600011FA0CF118BF012121430843A3EB0C010D
:10387000CB1D4FEA00614FEA102042BF002010BC70
:10388000704700EBC35010440029A4BF10BC704720
:10389000401C490008BF20F0010010BC704710B563
:1038A000141E73F1000408DA401C41F10001921863
:1038B0005B411A4301D120F0010010BD2DE9F04D0C
:1038C00092469B4611B1B1FA81F202E0B0FA80F261
:1038D0002032904600F02AF904460F4640EA0A00DA
:1038E00041EA0B0153465A46084313D0114653EAA6
:1038F000010019D0C8F14002504600F026F90546F3
:103900000E4650465946424600F010F9084305D08D
:10391000012004E020463946BDE8F08D0020054333
:1039200046EAE0762C4337430A986305E40AA0EBA5
:1039300008000022FD0A44EA47540A3002D500205C
:103940000146E9E7010510196941DDE9084500195B
:103950006941BDE8F04DA2E72DE9FE4F804681EABE
:103960000300C00F0C46009021F0004123F00045F9
:10397000B8EB0200A94105D24046214690461C46BC
:103980000B46024623F00040104347D0270DC7F3F3
:103990000A00C3F30A510290401A019040286BDAE2
:1039A000C3F3130040F4801B0098924620B100231B
:1039B000D2EB030A63EB0B0B01985946C0F14002AE
:1039C000504600F0B3F806460D4650465946019A57
:1039D00000F0CBF810EB08006141002487EA115297
:1039E00084EAE7731A4340D0009A62B3019A012A2D
:1039F0004FEA075215DC001B61EB02014FF0004259
:103A000002EA0752CDE90042001C41F5801132461E
:103A10002B46FFF753FF03B0BDE8F08F4046214629
:103A2000F9E7001B61EB0201001C41F5801300184F
:103A30005B412018A2F5001747EB030140EAD5705F
:103A4000B6196D4111E06D084FEA360645EAC075BA
:103A50004FEA0752001B61EB0201001C41F5801187
:103A600049084FEA30000019514132462B4603B055
:103A7000BDE8F04FFFF713BF00980122400000237C
:103A8000D0EB020263EBE073009821464FEAE0744A
:103A9000B8EB000061EB0401E9E783F000435BE76A
:103AA00081F0004158E7C1F30A52C1F3130140F21B
:103AB000FF3341F480119A4202DA00200146704738
:103AC00040F233439A42A2F2334202DC524200F007
:103AD0003CB800F02BB8000030B5041E71F10004B2
:103AE00004DB4FF00044404264EB0101141E73F10B
:103AF000000405DB1C464FF00043524263EB040315
:103B0000994208BF904230BD064C074D06E0E06880
:103B100040F0010394E8070098471034AC42F6D314
:103B2000FCF7E8FA84560008A4560008202A04DBB3
:103B3000203A00FA02F1002070479140C2F12003C0
:103B400020FA03F3194390407047202A04DB203AFF
:103B500021FA02F00021704721FA02F3D040C2F1AD
:103B600020029140084319467047202A06DBCB17F4
:103B7000203A41FA02F043EAE07306E041FA02F328
:103B8000D040C2F12002914008431946704700001E
:103B90000FB4054B10B503A9044A029800F0EEF8E3
:103BA00010BC5DF814FB0000252D00085800002013
:103BB0000FB4084B10B504A902AA039800F0DEF870
:103BC000044602A9002000F070FC204610BC5DF8FD
:103BD00014FB0000AB44000802E008C8121F08C133
:103BE000002AFAD170477047002001E001C1121F7E
:103BF000002AFBD1704700002DE9FF5F82B0002151
:103C0000DDE90430020DDDF840B0034318D044F67E
:103C10001050A2F2FF3242431514119801281FD010
:103C2000A5EB0B00401C5FEA000A4FF000064E4F68
:103C3000DFF83891B046504615D5CAF1000413E0BC
:103C4000119801244AA3012801D16FEA0B010298BF
:103C5000119AC0E90031C0E9024206B0BDE8F09F08
:103C6000CBF10000DFE704460021404A491842EB4F
:103C70000450CDE9001012E0E00707D032463B4681
:103C800040464946FFF778FC8046894632463B4627
:103C900010461946FFF770FC06460F466410002CCC
:103CA000EAD1DDE90401DDE90023BAF1000F06DA0B
:103CB000FFF762FC42464B46FFF75EFC05E0FFF76C
:103CC000CDFC42464B46FFF7C9FC04460E46002297
:103CD000284BFFF701FF03D84FF0FF30014607E004
:103CE0000022254B20463146FFF736FEFFF7DBFE6C
:103CF000102409E0002C0ADB0A220023FFF767FDED
:103D0000039B30321A55641E50EA0102F2D1641C42
:103D1000039AC4F111031444119A012A03D0012219
:103D200008430DD10AE0084304D000204FF0110BE6
:103D3000119072E7A3EB0B056D1E0DE05B4504DDF2
:103D40004FF0000205F1010504E003DA4FF0000234
:103D5000A5F10105002AECD002981199C0E90231C1
:103D6000C0E9004579E70000000014400000F03F82
:103D7000300000000000F0430000E03F2DE9FF4F5D
:103D800095B09B468946064600250FE2252877D147
:103D900000242746F84A0121059400E0044316F860
:103DA000013F203B01FA03F01042F7D130782A2876
:103DB00011D06FF02F033078A0F13002092A16D805
:103DC000059A44F0020402EB820203EB4202104423
:103DD000761C0590EFE759F8042B0592002A03DAC8
:103DE000504244F40054059044F00204761C3078AC
:103DF0002E2816D116F8010F44F004042A280DD0FD
:103E00006FF02F023078A0F13003092B09D807EBAF
:103E1000870302EB4303C718761CF3E759F8047BCA
:103E2000761C30786C280FD006DC4C2817D0682818
:103E30000DD06A2814D104E0742810D07A280FD14C
:103E40000DE044F400140AE044F4801401E044F46A
:103E500040147278824202D104F58014761C761CDC
:103E6000307866280BD013DC582877D009DC00287E
:103E700075D04528F6D04628F4D047281AD19DE1C0
:103E800018E0632835D0642879D0652812D195E1EF
:103E9000702873D008DC6728F1D069286FD06E28AD
:103EA0000DD06F2806D1B5E073282CD0752875D0B9
:103EB000782874D05A46179990476D1C75E1C4F361
:103EC0000250022809D003280DD0D9F80010042888
:103ED0000DD00D6009F1040967E1D9F80010EA1767
:103EE000C1E90052F6E7D9F800100D80F2E70D7035
:103EF000F0E719F8041B8DF8001000208DF8010080
:103F0000EA46012003E059F804AB4FF0FF306107A7
:103F10004FF0000102D40DE008F101018846B942DA
:103F20000FDA8045F8DB1AF808100029F4D108E010
:103F300008F1010188468142FADB1AF808100029CD
:103F4000F6D105985B46A0EB080721463846179A3C
:103F500000F094FA284400EB080507E04DE029E161
:103F60000DE01AF8010B5A4617999047B8F101086D
:103F7000F7D25B4621463846179A13E142E00A22FF
:103F80000092C4F302524FF0000A022A08D059F8F6
:103F900004CB032A4FEAEC710AD00DE029E02AE0B5
:103FA00009F1070121F00702F2E802C1914609E098
:103FB0000FFA8CFC4FEAEC71042A03D14FFA8CFC07
:103FC0004FEAEC71002907DA0A460021DCF1000C07
:103FD00061EB02012D2202E0220504D52B228DF88F
:103FE0000420012203E0E20701D02022F7E79046F7
:103FF00059E00A2102E010220DE010214FF0000AE2
:1040000000910BE010224FF0000A44F0040408274E
:10401000009203E008224FF0000A0092C4F302521B
:10402000022A05D059F804CB0021032A08D009E060
:1040300009F1070121F00702F2E802C1914605E00B
:104040001FFA8CFC042A01D10CF0FF0C4FF0000881
:10405000220728D5702806D0009B83F0100353EA6E
:104060000A0305D00EE040228DF80420012208E06A
:104070005CEA010206D030228DF804208DF805009C
:1040800002229046009B83F0080353EA0A030AD1F8
:104090005CEA010201D1620705D530228DF80420C7
:1040A0004FF001087F1E582804D034A003900EA8BA
:1040B00002900DE036A0F9E753466046009AFFF7FC
:1040C00086FB84460398825C0298401E0290027030
:1040D0005CEA0100F0D1029806A9081A00F1200A52
:1040E000600702D524F4803400E00127574502DD43
:1040F000A7EB0A0000E0002000EB0A010090059801
:104100004144401A0590E00306D45B462146179AC5
:10411000059800F0B3F90544002706E001A85A46C7
:10412000C05D179990476D1C7F1C4745F6DBE00387
:104130000CD55B462146179A059800F09FF9054477
:1041400004E030205A46179990476D1C0099481E8C
:1041500000900029F5DC08E0029802995A460078A0
:10416000491C0291179990476D1CBAF10001AAF100
:10417000010AF1DC65E10000092801003031323329
:104180003435363738396162636465660000000093
:10419000303132333435363738394142434445467D
:1041A0000000000000F058F90544761C3078002823
:1041B0007FF4ECAD19B02846BDE8F08F620700D45B
:1041C000062709F1070222F0070CFCE80223E1466A
:1041D00003F000485FEA080C02D00FF2702C0DE0EB
:1041E0005FEA045C02D50FF2682C07E05FEAC47C4A
:1041F00002D00FF2602C01E0AFF2700C4FF0FF38EC
:1042000023F00043CDF850C065280CD006DC4528CB
:1042100009D046281DD047283DD13DE0662818D05A
:1042200067287ED138E00021112F01DB112000E04A
:10423000781CCDE9000106A90EA8FFF7DDFCDDE939
:104240000F010E9A03910021009207F1010A0491D7
:104250004DE04FF000400097CDE9011006A90EA8EF
:10426000FFF7CAFCDDE90F0203920E9B11990022B1
:10427000DDF80CA00093049211B9791C00EB010A3F
:10428000B7EB0A0004D4C0F1FF3007F1010A049033
:10429000AAEB0700019044E0012F00DA012700217A
:1042A000112F01DD112000E03846CDE9000106A9FB
:1042B0000EA8FFF7A1FCDDE90F010E9A0391002182
:1042C00004910092BA4621070CD40399514500DAB3
:1042D0008A46BAF1010F05DD009AAAF10101515C8D
:1042E000302908D0B84202DA10F1040F06DA0121B1
:1042F000CDE9011015E0AAF10101E9E7002805DC8C
:10430000049901440491AAEB000102E0411C5145CB
:1043100000DD8A460499401A401C01904FF000408D
:104320000290200704D40198504501DBCDF80480A9
:1043300000208DF84F0002980DF14F07B0F1004FAB
:1043400025D02B200E9002984FF0020800280CDA9E
:10435000404202902D200E9007E00A210298FFF7BC
:1043600020FA3031029007F8011DB8F10001A8F1E0
:104370000108F2DC02980028EFD1791E0E9808702F
:10438000307800F0200040F0450007F8020D12A838
:10439000C01B00F107081498007800B1012000EB61
:1043A0000A01019801EBE07105984144401A401E52
:1043B0000590E00306D45B462146179A059800F065
:1043C0005DF805441498007818B15A46179990473B
:1043D0006D1CE00324D55B462146179A059800F032
:1043E0004DF805441CE00498002807DBDDE90301D3
:1043F000884203DD0098405C179901E0179930204E
:104400005A469047049805F10105401C0490019814
:10441000401E019004D12E205A46179990476D1CDA
:10442000BAF10001AAF1010ADDDC05E017F8010B81
:104430005A46179990476D1CB8F10001A8F1010880
:10444000F4DC5B462146179A0598ABE62D00000088
:104450002B000000200000002DE9F041044600255B
:104460001E461746880404D405E039462020B0478C
:104470006D1C641EF9D52846BDE8F0812DE9F04198
:10448000044600251E469046C80301D5302700E0AB
:104490002027880404D505E041463846B0476D1C06
:1044A000641EF9D52846BDE8F0810A68531C0B60EC
:1044B00010707047000000000000000000000000C5
:1044C00000000000000000000000000000000000EC
:1044D00000000000000000000000000000000000DC
:1044E0000000000000008001800180018001800147
:1044F00080018001800180018001800180018001B4
:1045000000000000800180010000000000000000A9
:104510000000000000000000CC00CC00CC00CC006B
:10452000CC00CC00000000000000000000000000F3
:10453000000000000000000000000000000000007B
:10454000000000000000000000000000000000006B
:10455000600C600C600C30063006FE1FFE1F30063B
:1045600038071803FE1FFE1F180318038C018C0167
:104570008C01000000008000E003F80F9C0E8C1CF2
:104580008C188C009800F801E007800E801C8C18B5
:104590008C189C18B80CF00FE0038000800000001D
:1045A000000000000000000000000E181B0C110CA1
:1045B00011061106110311039B018E01C038C06C56
:1045C00060446044304430441844186C0C38000097
:1045D000000000000000E001F0033807180618068C
:1045E0003003F001F000F8009C310E33061E061C6B
:1045F000061C063FFC73F0210000000000000000D4
:1046000000000000000000000C000C000C000C007A
:104610000C000C0000000000000000000000000082
:10462000000000000000000000000000000000008A
:10463000000000000000000200038001C000C00074
:10464000600060003000300030003000300030008A
:104650003000300060006000C000C0008001000336
:1046600000020000000020006000C0008001800106
:104670000003000300060006000600060006000610
:10468000000600060003000380018001C0006000F6
:1046900020000000000000000000000000000000FA
:1046A000C000C000D806F807E0013003380700005A
:1046B00000000000000000000000000000000000FA
:1046C00000000000000000000000000000000000EA
:1046D00080018001800180018001FC3FFC3F80015E
:1046E00080018001800180010000000000000000C6
:1046F00000000000000000000000000000000000BA
:1047000000000000000000000000000000000000A9
:104710000000000000008001800100010001800015
:104720000000000000000000000000000000000089
:10473000000000000000000000000000E007E007AB
:104740000000000000000000000000000000000069
:104750000000000000000000000000000000000059
:104760000000000000000000000000000000000049
:10477000000000000000C000C000000000000000B9
:10478000000000000000000C000C000600060006FF
:104790000003000300038003800180018001C0004A
:1047A000C000C000600060000000000000000000C9
:1047B000000000000000E003F007380E180C0C1891
:1047C0000C180C180C180C180C180C180C180C18C9
:1047D000180C380EF007E003000000000000000095
:1047E00000000000000000018001C001F0019801FC
:1047F00088018001800180018001800180018001A9
:1048000080018001800180010000000000000000A4
:10481000000000000000E003F80F180C0C180C1842
:1048200000180018000C000600038001C0006000A2
:1048300030001800FC1FFC1F0000000000000000FA
:10484000000000000000E001F807180E0C0C0C0C32
:10485000000C0006C003C007000C001800180C185C
:104860000C18180CF807E00300000000000000001E
:10487000000000000000000C000E000F000F800D73
:10488000C00C600C600C300C180C0C0CFC3FFC3F96
:10489000000C000C000C000C0000000000000000E8
:1048A000000000000000F80FF80F180018000C00BE
:1048B000EC03FC071C0E001C0018001800180C1854
:1048C0001C0C180EF807E0030000000000000000B8
:1048D000000000000000C007F00F381C1818180076
:1048E0000C00CC03EC0F3C0E1C1C0C180C180C1804
:1048F000181C380EF007E003000000000000000064
:10490000000000000000FC1FFC1F000C0006000659
:10491000000380038001C001C000E000600060006F
:104920007000300030003000000000000000000087
:10493000000000000000E003F007380E180C180C0F
:10494000180C3806F007F007180C0C180C180C1887
:104950000C18380CF80FE003000000000000000005
:10496000000000000000E003F007380E1C0C0C18DB
:104970000C180C181C1C381EF81BE0190018000C31
:10498000000C1C0EF807F001000000000000000001
:104990000000000000000000000000000000000017
:1049A0008001800100000000000000000000000005
:1049B00000000000800180010000000000000000F5
:1049C00000000000000000000000000000000000E7
:1049D00080018001000000000000000000000000D5
:1049E0000000000080018001000100018000000043
:1049F00000000000000000000000000000000000B7
:104A0000000000000010001C800FE003F8001800F8
:104A1000F800E003800F001C001000000000000000
:104A20000000000000000000000000000000000086
:104A300000000000F81F000000000000F81F000048
:104A40000000000000000000000000000000000066
:104A50000000000000000000000000000000000056
:104A60000000000008003800F001C007001F001817
:104A7000001FC007F001380008000000000000001F
:104A8000000000000000E003F80F180C0C180C18D0
:104A90000018000C000600038001C000C000C00028
:104AA00000000000C000C000000000000000000086
:104AB0000000000000000000E00718180420C229D0
:104AC000224A114409440944094409221113E20C01
:104AD000024004201818E007000000000000000059
:104AE00000000000000080038003C006C006C0066E
:104AF000600C600C301830183018F83FF83F1C700C
:104B00000C600C6006C006C0000000000000000041
:104B1000000000000000FC03FC0F0C0C0C180C182B
:104B20000C180C0CFC07FC0F0C180C300C300C3063
:104B30000C300C18FC1FFC070000000000000000F7
:104B4000000000000000C007F01F38381C300C7057
:104B50000660060006000600060006000600066065
:104B60000C701C30F01FE007000000000000000087
:104B7000000000000000FE03FE0F060E06180618D7
:104B8000063006300630063006300630063006188D
:104B90000618060EFE0FFE030000000000000000D5
:104BA000000000000000FC3FFC3F0C000C000C006B
:104BB0000C000C00FC1FFC1F0C000C000C000C0077
:104BC0000C000C00FC3FFC3F000000000000000057
:104BD000000000000000F83FF83F1800180018001F
:104BE00018001800F81FF81F180018001800180007
:104BF0001800180018001800000000000000000055
:104C0000000000000000E00FF83F3C780E6006E076
:104C100007C00300030003FE03FE03C007C006C075
:104C20000EC03CF0F83FE00F000000000000000064
:104C30000000000000000C300C300C300C300C3048
:104C40000C300C30FC3FFC3F0C300C300C300C3086
:104C50000C300C300C300C30000000000000000064
:104C600000000000000080018001800180018001BF
:104C7000800180018001800180018001800180012C
:104C80008001800180018001000000000000000020
:104C900000000000000000060006000600060006F6
:104CA00000060006000600060006000600061806BC
:104CB00018063807F003E0010000000000000000C3
:104CC00000000000000006300618060C0606060369
:104CD0008601C60066007600DE008E010603060629
:104CE000060C0618063006600000000000000000F8
:104CF000000000000000180018001800180018003C
:104D000018001800180018001800180018001800E3
:104D100018001800F81FF81F000000000000000035
:104D20000000000000000EE01EF01EF01EF036D85D
:104D300036D836D836D866CC66CC66CCC6C6C6C69B
:104D4000C6C6C6C686C386C30000000000000000B9
:104D50000000000000000C301C303C303C306C3057
:104D60006C30CC30CC308C310C330C330C360C36F0
:104D70000C3C0C3C0C380C30000000000000000023
:104D8000000000000000E007F81F1C380E700660ED
:104D900003C003C003C003C003C003C003C0066058
:104DA0000E701C38F81FE007000000000000000033
:104DB000000000000000FC0FFC1F0C380C300C3011
:104DC0000C300C300C18FC1FFC070C000C000C0005
:104DD0000C000C000C000C000000000000000000A3
:104DE000000000000000E007F81F1C380E7006608D
:104DF00003E003C003C003C003C003C007E00663B1
:104E00000E3F1C3CF83FE0F700C00000000000002F
:104E1000000000000000FE0FFE1F063806300630BE
:104E200006300638FE1FFE0706030606060C0618A7
:104E30000618063006300660000000000000000082
:104E4000000000000000E003F80F1C0C0C180C1808
:104E50000C001C00F803E00F001E0038063006307E
:104E60000E301C1CF80FE0070000000000000000DE
:104E7000000000000000FE7FFE7F800180018001B5
:104E8000800180018001800180018001800180011A
:104E9000800180018001800100000000000000000E
:104EA0000000000000000C300C300C300C300C30D6
:104EB0000C300C300C300C300C300C300C300C3012
:104EC0000C301818F81FE007000000000000000078
:104ED00000000000000003600630063006300C18A9
:104EE0000C180C18180C180C380E30063006700709
:104EF00060036003C001C00100000000000000006A
:104F00000000000000000360C361C361C361663339
:104F1000663366336633663366336C1B6C1B6C1BFF
:104F20002C1A3C1E380E380E000000000000000055
:104F30000000000000000FE00C7018303018700CFA
:104F4000600EC00780038003C003E006700C301CB5
:104F500018180C300E6007E0000000000000000090
:104F600000000000000003C006600C301C38381838
:104F7000300C6006E007C0038001800180018001E1
:104F8000800180018001800100000000000000001D
:104F9000000000000000FC7FFC7F00600030001873
:104FA000000C000600038001C00060003000180003
:104FB0000C000600FE7FFE7F0000000000000000E5
:104FC000000000000000E003E003600060006000FB
:104FD00060006000600060006000600060006000D1
:104FE0006000600060006000600060006000E0033E
:104FF000E00300000000300030006000600060004E
:10500000C000C000C000C001800180018001000319
:10501000000300030006000600000000000000007E
:10502000000000000000E003E003000300030003B1
:105030000003000300030003000300030003000358
:105040000003000300030003000300030003E00368
:10505000E003000000000000C001C0016003600325
:10506000600330063006180C180C00000000000029
:105070000000000000000000000000000000000030
:105080000000000000000000000000000000000020
:105090000000000000000000000000000000000010
:1050A000000000000000FFFFFFFF00000000000004
:1050B0000000000000000C000C000C000C000C00B4
:1050C0000C000000000000000000000000000000D4
:1050D00000000000000000000000000000000000D0
:1050E00000000000000000000000000000000000C0
:1050F000F003F8071C0C0C0C000FF00FF80C0C0C54
:105100000C0C1C0FF80FF01800000000000000004D
:105110000000000000001800180018001800180017
:10512000D803F80F380C1818181818181818181869
:105130001818380CF80FD803000000000000000019
:10514000000000000000000000000000000000005F
:10515000C003F007300E180C1800180018001800D3
:10516000180C300EF007C003000000000000000023
:1051700000000000000000180018001800180018B7
:10518000C01BF01F301C18181818181818181818F9
:105190001818301CF01FC01B0000000000000000A9
:1051A00000000000000000000000000000000000FF
:1051B000C003F00F300C1818F81FF81F1800180063
:1051C0003818301CF00FC00700000000000000007D
:1051D000000000000000800FC00FC000C000C00031
:1051E000F007F007C000C000C000C000C000C00051
:1051F000C000C000C000C0000000000000000000AF
:10520000000000000000000000000000000000009E
:10521000E00DF80F180E0C0C0C0C0C0C0C0C0C0CFC
:105220000C0C180EF80FE00D000C0C0C1C06F80707
:10523000F001000000001800180018001800180005
:10524000D807F80F381C1818181818181818181834
:10525000181818181818181800000000000000008E
:10526000000000000000C000C000000000000000BE
:10527000C000C000C000C000C000C000C000C0002E
:10528000C000C000C000C00000000000000000001E
:10529000000000000000C000C0000000000000008E
:1052A000C000C000C000C000C000C000C000C000FE
:1052B000C000C000C000C000C000C000C000F800B6
:1052C0007800000000000C000C000C000C000C002A
:1052D0000C0C0C060C038C01CC006C00FC009C0137
:1052E0008C030C030C060C0C0000000000000000F6
:1052F000000000000000C000C000C000C000C000EE
:10530000C000C000C000C000C000C000C000C0009D
:10531000C000C000C000C00000000000000000008D
:10532000000000000000000000000000000000007D
:105330007C3CFF7EC7E383C183C183C183C183C13A
:1053400083C183C183C183C100000000000000004D
:10535000000000000000000000000000000000004D
:105360009807F80F381C1818181818181818181853
:10537000181818181818181800000000000000006D
:10538000000000000000000000000000000000001D
:10539000C003F00F300C181818181818181818181F
:1053A0001818300CF00FC0030000000000000000CF
:1053B00000000000000000000000000000000000ED
:1053C000D803F80F380C18181818181818181818C7
:1053D0001818380CF80FD803180018001800180017
:1053E00018000000000000000000000000000000A5
:1053F000C01BF01F301C1818181818181818181887
:105400001818301CF01FC01B0018001800180018D6
:105410000018000000000000000000000000000074
:10542000B007F00370003000300030003000300072
:1054300030003000300030000000000000000000AC
:10544000000000000000000000000000000000005C
:10545000E003F003380E180C3800F003C007000C0E
:10546000180C380EF007E0030000000000000000F8
:1054700000000000000000008000C000C000C0006C
:10548000F007F007C000C000C000C000C000C000AE
:10549000C000C000C007800700000000000000003E
:1054A00000000000000000000000000000000000FC
:1054B000181818181818181818181818181818186C
:1054C0001818381CF01FE019000000000000000050
:1054D00000000000000000000000000000000000CC
:1054E0000C18180C180C180C300630063006600327
:1054F00060036003C001C001000000000000000064
:10550000000000000000000000000000000000009B
:10551000C141C141C3616363636363633636363639
:1055200036361C1C1C1C1C1C000000000000000067
:10553000000000000000000000000000000000006B
:105540001C38381C300C6006600360036003600385
:105550006006300C381C1C38000000000000000001
:10556000000000000000000000000000000000003B
:105570001830301830187018600C600CE00CC00641
:10558000C00680038003800380018001C001F00019
:10559000700000000000000000000000000000009B
:1055A000FC1FFC1F000C000600038001C00060000F
:1055B00030001800FC1FFC1F00000000000000006D
:1055C00000000000000000038001C000C000C00017
:1055D000C000C000C00060006000300060004000FB
:1055E000C000C000C000C000C000C00080010003B7
:1055F0000000000000008001800180018001800126
:105600008001800180018001800180018001800192
:105610008001800180018001800180018001800182
:105620008001000000006000C000C0018001800116
:1056300080018001800100030003000600030001D7
:10564000800180018001800180018001C000600034
:10565000000000000000000000000000000000004A
:1056600000000000F010F81F080F0000000000000C
:10567000000000000000000000000000000000002A
:1056800000000000A4560008000000205C0000009C
:10569000D83B0008005700085C0000202C040000E4
:1056A000E83B000800A24A040000000000000000DF
:1056B00001020304060708090000000001020304B8
:1056C0000102030406070809020406080000FFFFA0
:1056D00000000000000000000000000000000000CA
:1056E00000000000000000000000000000000000BA
:1056F00001000000FF0000000000000000000000AA
:04000005080000ED02
:00000001FF
