:020000040800F2
:1000000010070020751F0008190300081B030008D3
:100010001F03000823030008270300080000000056
:100020000000000000000000000000002B0300089A
:100030002D030008000000002F0300083103000812
:100040008F1F00088F1F00088F1F00088F1F0008D8
:100050008F1F00088F1F00088F1F00088F1F0008C8
:100060008F1F00088F1F00088F1F00088F1F0008B8
:100070008F1F00088F1F00088F1F00088F1F0008A8
:100080008F1F00088F1F00088F1F00088F1F000898
:100090008F1F00088F1F00088F1F00088F1F000888
:1000A0008F1F00088F1F00088F1F00088F1F000878
:1000B0008F1F00088F1F00088F1F00088F1F000868
:1000C0008F1F00088F1F00088F1F00088F1F000858
:1000D0008F1F0008EB1E00088F1F00088F1F0008ED
:1000E0008F1F00088F1F00088F1F0008DFF80CD03B
:1000F00002F0CAFE00480047750100081007002002
:1001000008B50121192002F0D1FA4FF6FF70ADF8C1
:10011000000010208DF8030003208DF802006946CE
:100120005E4802F007F84FF6FF715C4802F0AFF846
:1001300001215B4802F0CFF81020ADF800008DF8E7
:10014000030003208DF802006946564801F0F2FFD3
:100150000420ADF8000010208DF8030003208DF876
:1001600002006946504801F0E5FF04214E4802F0C4
:100170008EF808BD01F0EEFD01F056FE00F026FC01
:10018000FFF7BEFF4FF4E13001F063FE01F016FB14
:100190004FF4FC6001F0D1FB4FF4FC6001F02DFB4B
:1001A0004FF6FF7001F023FB01F02AF800F02EFF5C
:1001B0003EA002F0A7FE00F093FE43A002F0A2FED4
:1001C00000F0E2FE4FF4FC6001F0B7FB46A16020B6
:1001D00001F096FB4FF6FF703049C86004203249A9
:1001E0000C310860C043086057E0002410212D48FE
:1001F00002F04DF8012000F0B3FE404800F09AFFF5
:100200000646002E48D03D493DA002F07BFE9020DE
:1002100001F08CFB3949902001F072FB681CC5B2DB
:10022000082D00D100254FF480711C4802F02FF8F2
:100230004FF48051194802F02CF804201A490C316F
:100240000860C0430860002410E01021154802F047
:100250001EF84FF4C87001F096FD1021114802F00D
:1002600018F84FF4C87001F08EFD641C282CECDBEC
:100270004FF48051094802F00AF84FF480710748A2
:1002800002F007F84FF6FF700449C86004200649E1
:100290000C310860C043086000BFA6E700100140B1
:1002A00000013000000C0140001401404368656308
:1002B0006B2074686520636F6E6E656374696F6E22
:1002C0002E2E2E2E0D0A0000436865636B20746885
:1002D0006520656E64206F6620636F6E6E65637463
:1002E000696F6E0D0A000000202020207465737471
:1002F000205246324C3031202020000004020020E1
:10030000526563656976656420636F6E74656E74AB
:10031000203A2025730D0A00704700BFFEE700BF9A
:10032000FEE700BFFEE700BFFEE77047704770477B
:10033000704700000CB50020019000906C480068E8
:1003400040F480306A49086000BF6948006800F4E2
:10035000003000900198401C0190009818B9019855
:10036000B0F5A06FF1D16248006800F4003010B120
:100370000120009001E0002000900098012843D166
:100380005C48006840F010005A4908600846006860
:1003900020F0030008600846006840F00200086092
:1003A00053484068524948600846406848600846DB
:1003B000406840F4806048600846406820F47C1043
:1003C00048600846406840F4E81048600846006805
:1003D00040F08070086000BF4548006800F0007081
:1003E0000028F9D04248406820F0030040494860A6
:1003F0000846406840F00200486000BF3C48406842
:1004000000F00C000828F9D10CBD10B5FFF792FFE1
:1004100010BD10B53648006840F00100344908604E
:100420000846406834490840314948600846006839
:10043000324908402E4908600846006820F48020B0
:1004400008600846406820F4FE0048604FF41F0032
:100450008860FFF7DAFF4FF000602949086010BD9F
:1004600010B5002100200022214B5B6803F00C0135
:1004700021B1042906D0082928D107E0214B224CBC
:10048000236027E01F4B204C236023E0184B5B6860
:1004900003F47010164B5B6803F48032022303EB05
:1004A000904022B9194B4343174C23600DE0104B89
:1004B0005B6803F4003323B1144B4343124C2360B5
:1004C00003E0104B4343104C236003E00D4B0E4CF4
:1004D000236000BF00BF064B5B68C3F303130C4CE3
:1004E000E15C094B1B68CB40074C236010BD00004A
:1004F00000100240002002400000FFF8FFFFF6FE5F
:1005000008ED00E000127A000000002000093D0024
:100510000400002010B58021F94801F0B8FE202128
:10052000F74801F0B4FE2021F54801F0B2FE802129
:10053000F34801F0AEFE10BD10B58021F04801F087
:10054000A6FE2021EE4801F0A4FE2021EC4801F097
:100550009EFE10BD10B58021E94801F098FE802173
:10056000E74801F096FE10BD2DE9F04105462C4606
:100570008021E34801F08DFE002619E0274607F0B0
:100580008007802F04D12021DD4801F080FE03E0A8
:100590002021DB4801F07DFE6006040E8021D84852
:1005A00001F075FE8021D64801F073FE701CC6B2C2
:1005B000082EE3DBBDE8F08110B50446FFF7AAFF83
:1005C0007820FFF7D1FFFFF7C5FF0020FFF7CCFF32
:1005D000FFF7C0FF2046FFF7C7FFFFF7BBFFFFF79E
:1005E000ABFF10BD10B50446FFF794FF7820FFF76E
:1005F000BBFFFFF7AFFF4020FFF7B6FFFFF7AAFFF3
:100600002046FFF7B1FFFFF7A5FFFFF795FF10BDED
:1006100070B504460D461DB1E0B2FFF7E3FF02E0FE
:10062000E0B2FFF7C9FF70BD70B50646002418E0C0
:1006300004F1B0000021FFF7EBFF00210846FFF7AF
:10064000E7FF00211020FFF7E3FF002505E001216F
:100650003046FFF7DDFF681CC5B2802DF7DB601C5C
:10066000C4B2082CE4DB70BD06E041F6650100E091
:10067000491E0029FCD1401E0028F6D170470146D2
:1006800005E0002001E0421CD0B27B28FBDB0A1E03
:10069000A1F10101F5D1704770B504460D4605F191
:1006A000B0000021FFF7B4FF102141EA141000212F
:1006B000FFF7AEFF04F00F000021FFF7A9FF70BDA8
:1006C00010B500218D20FFF7A3FF00211420FFF7B4
:1006D0009FFF0021AF20FFF79BFF10BD10B5002149
:1006E0008D20FFF795FF00211020FFF791FF0021DB
:1006F000AE20FFF78DFF10BD70B5002418E004F1A7
:10070000B0000021FFF784FF00210846FFF780FFBB
:1007100000211020FFF77CFF002505E001210020CB
:10072000FFF776FF681CC5B2802DF7DB601CC4B2F2
:10073000082CE4DB70BD70B5002418E004F1B000B3
:100740000021FFF765FF00210846FFF761FF002148
:100750001020FFF75DFF002505E001210846FFF7A7
:1007600057FF681CC5B2802DF7DB601CC4B2082C93
:10077000E4DB70BD2DE9F04707460E4690469946EA
:1007800000250024A8F12000C5B27F2F02DD00273C
:10079000B01CC6B2B9F1100F24D131463846FFF76C
:1007A0007BFF002408E004EB0511564A505C012150
:1007B000FFF72EFF601CC4B2082CF4DB701CC1B222
:1007C0003846FFF769FF002409E004EB0511083102
:1007D0004C4A505C0121FFF71BFF601CC4B2082C7F
:1007E000F3DB12E031463846FFF756FF00240AE0FB
:1007F00005EB4501444A02EB4101085D0121FFF789
:1008000007FF601CC4B2062CF2DBBDE8F08710B510
:100810000246012000E050430B1EA1F10104E1B2A9
:10082000F9D110BD2DE9FF5F074691461E460E9D8A
:100830004FF0000A002435E0301B401EC1B20A20F0
:10084000FFF7E5FFB9FBF0F00A21B0FBF1F201FB85
:100850001208BAF1000F14D1701EA04211DDB8F1D8
:10086000000F0CD1AB4605EBDB71491001FB0471A5
:10087000C8B22B4620220199FFF77CFF10E04FF011
:10088000010AAB4605EBDB71491001FB0471C8B2EC
:1008900008F13001CAB22B460199FFF76BFF00BF88
:1008A000601CC4B2B442C7DBBDE8FF9F2DE9F04134
:1008B00004460F461546984600260FE0AA5D4346BB
:1008C00039462046FFF756FF04F10800C4B2782CE1
:1008D00002DD0024B81CC7B2701CC6B2A85D002897
:1008E000ECD1BDE8F0812DE9F04180460E46154679
:1008F000002731464046FFF7CFFE002411E00000FC
:10090000000801404032000818300008734A02EB2A
:100910008511085D0121FFF77BFE781CC7B2601CC2
:10092000C4B2102CF2DB701CC1B24046FFF7B4FE1B
:1009300000240CE06900491C684A02EB4111085D83
:100940000121FFF765FE781CC7B2601CC4B2102CF1
:10095000F0DBBDE8F0812DE9F05F06460F469046DA
:100960001C46DDF828A04FF0000BE11704EB517195
:10097000C910A4EBC10131B92046E11704EB517154
:10098000C1F3C70506E02046E11704EB5171C91019
:10099000491CCDB23D4615E029463046FFF77CFEA6
:1009A000B1460BE059460BF1010B1AF80100012189
:1009B000FFF72EFE09F1010000F0FF09C145F1DB50
:1009C000681CC5B2A542E7DBBDE8F09F08B5012170
:1009D000042001F06BFEA020ADF8000010208DF87F
:1009E000030003208DF8020069463D4801F0A2FB98
:1009F000A0213B4801F04BFC4FF4FA7001F0E7F9FD
:100A00000021AE20FFF704FE00210846FFF700FE9C
:100A100000211020FFF7FCFD00214020FFF7F8FD2A
:100A20000021B020FFF7F4FD00218120FFF7F0FD49
:100A30000021FF20FFF7ECFD0021A120FFF7E8FDDA
:100A40000021A620FFF7E4FD0021A820FFF7E0FD2C
:100A500000213F20FFF7DCFD0021C820FFF7D8FD73
:100A60000021D320FFF7D4FD00210846FFF7D0FD79
:100A70000021D520FFF7CCFD00218020FFF7C8FD25
:100A80000021D820FFF7C4FD00210520FFF7C0FD9D
:100A90000021D920FFF7BCFD0021F120FFF7B8FDB0
:100AA0000021DA20FFF7B4FD00211220FFF7B0FD8E
:100AB0000021DB20FFF7ACFD00213020FFF7A8FD6F
:100AC00000218D20FFF7A4FD00211420FFF7A0FDD9
:100AD0000021AF20FFF79CFD08BD0000140000209E
:100AE0000008014070B50446F848006820F48060B2
:100AF000F6490860204600F0E7FBFF2000F0E4FB29
:100B00000546F248006840F48060F04908602846D5
:100B100070BD2DE9F04104460E461746EB480068CB
:100B200020F48060E9490860204600F0CDFB0025F4
:100B300005E0FF2000F0C8FB7055681CC5B2BD423F
:100B4000F7DBE248006840F48060E0490860BDE8F7
:100B5000F08170B504460D46DC48006820F48060E2
:100B6000DA49086044F0200000F0AEFB284600F0AF
:100B7000ABFBD648006840F48060D449086070BD83
:100B80002DE9F04105460E461746D048006820F48E
:100B90008060CE49086045F0200000F095FB0024FD
:100BA00004E0305D00F090FB601CC4B2BC42F8DB96
:100BB000C648006840F48060C4490860BDE8F08120
:100BC00010B5C248006820F48060C0490860E12088
:100BD00000F07AFBBD48006840F48060BB490860C3
:100BE00010BD10B5B948006820F48060B7490860AE
:100BF000E22000F069FBB548006840F48060B3492A
:100C0000086010BD10B5B148006820F48060AF499D
:100C10000860E32000F058FBAC48006840F48060B6
:100C2000AA49086010BD10B5A848006820F480608B
:100C3000A6490860FF2000F047FBA448006840F484
:100C40008060A249086010BD10B5A048006820F47B
:100C500080609E490860072000F036FB04469B48F0
:100C6000006840F4806099490860204610BD70B566
:100C70000446002504F07004FFF7E6FF054693489C
:100C8000006820F4806091490860272000F01CFB78
:100C900044EA050000F018FB8C48006840F48060CE
:100CA0008A490860FFF7D0FF70BD10B5FFF7CCFF91
:100CB00000F0700010BD10B58448006820F480601A
:100CC00082490860602000F0FFFAFF2000F0FCFA83
:100CD00004467E48006840F480607C4908602046F5
:100CE00010BD70B505460720FFF7FCFEC0F34204B7
:100CF000FFF7E1FF06467548006820F480607349FD
:100D00000860612000F0E0FA002405E0FF2000F018
:100D1000DBFA2855601CC4B2B442F7DB6B480068AC
:100D200040F4806069490860FFF75BFF304670BDA2
:100D30002DE9F04105460E46202E01DD202000E081
:100D400030460746FFF73CFF6048006820F48060AB
:100D50005E490860A02000F0B7FA002404E0285D96
:100D600000F0B2FA601CC4B2BC42F8DB574800681D
:100D700040F4806055490860BDE8F08170B50546D3
:100D80000C46202C00DC04B970BD5048006820F4EB
:100D900080604E490860B02000F096FA03E02878A1
:100DA00000F092FA6D1C201EA4F10101CCB2F6D124
:100DB0004648006840F480604449086000BFE3E7AB
:100DC00070B506460D46202D01DD202000E02846A6
:100DD00005463E48006820F480603C490860A82031
:100DE00000F072FA002404E0305D00F06DFA601C3F
:100DF000C4B2AC42F8DB3548006840F48060334947
:100E0000086070BD70B505460C46052C01DD052057
:100E100000E020460446224629461020FFF7B0FE97
:100E200070BD70B504460E461546052D01DD052042
:100E300000E028460546052C01DD052000E020469F
:100E4000044604F10A01C8B22A463146FFF798FE6B
:100E500070BD70B5054600240620FFF743FE04462A
:100E600024F0280415B944F0200408E0012D02D133
:100E700024F0280403E0022D01D144F008042146A7
:100E80000620FFF766FE70BD70B505460620FFF729
:100E900029FE20F0070435B1012D06D0022D07D020
:100EA000032D0BD107E000BF09E044F0020406E087
:100EB00044F0040403E044F0060400E000BF00BF77
:100EC00021460620FFF745FE70BD00000C0C0140D6
:100ED00010B5044604F07F010520FFF73AFE10BD6F
:100EE0001FB5BBA103C9CDE902010020009001900C
:100EF00028E0052202A91020FFF742FE05226946DC
:100F00001020FFF706FE002408E002A8005D1DF88F
:100F10000410884200D003E0601CC4B2052CF4DB4E
:100F200000BF052C03D1ACA001F0ECFF0BE00823BF
:100F3000AE48032102680020FFF7B8FC40F2DC5005
:100F400000F045FFD5E700BF0823A9480321026848
:100F50000020FFF7ABFC40F2DC5000F038FF1FBD73
:100F600070B5044600250020FFF7BCFD054614B906
:100F700025F0010503E0012C01D145F001052946CA
:100F80000020FFF7E6FD70BD1CB59AA103C9CDE9AD
:100F900000019A48006840F4805098490860702029
:100FA000FFF765FE01211C20FFF7D3FD07211D205F
:100FB000FFF7CFFD1C20FFF795FD1D20FFF792FDE9
:100FC0000A210020FFF7C5FD01210846FFF7C1FDFA
:100FD00001210220FFF7BDFD03210846FFF7B9FDFF
:100FE000FF210420FFF7B5FD3C210520FFF7B1FDEF
:100FF00026210620FFF7ADFD05216846FFF702FF19
:10100000052269460020FFF70CFF1CBD08B5012131
:10101000082001F04BFB10208DF8030001208DF813
:1010200002000003ADF80000694674480C3801F076
:1010300081F84FF4805171480C3801F028F94820AC
:101040008DF8030001208DF80200C002ADF8000009
:1010500069466A480C3801F06DF84FF40061674842
:101060000C3801F014F96548006820F48050634999
:1010700008600846006840F48060086008BD2DE9FB
:10108000F04105460E46002400275C48006820F425
:1010900080605A490860E12000F016F9574800685E
:1010A00040F48060554908600846006820F480508C
:1010B000086032462946A020FFF762FD4F480068CD
:1010C00040F480504D49086010E0012000F07FFEA0
:1010D0003846791C8FB2B0F5FA7F07D1FFF796FF3B
:1010E000FFF752FF0020FFF73BFF09E04348001FD6
:1010F000006800F40060002181EAD0200028E4D1DB
:1011000000BF0720FFF7EEFC044621460720FFF74B
:1011100020FD04F0100030B1FF21E120FFF719FDA0
:101120001020BDE8F08104F0200008B12020F8E78D
:10113000FF20F6E72DE9F0410446002500260027B0
:101140002E48006820F480602C490860E22000F0FE
:10115000BBF82A48006840F48060284908600FE026
:10116000642000F034FE3846791CCFB21E2807D127
:10117000FFF74CFFFFF708FF0120FFF7F1FE09E042
:101180001E48001F006800F40060002181EAD020A2
:101190000028E5D100BF0720FFF7A4FC054629463B
:1011A0000720FFF7D6FC05F0400078B16020FFF77C
:1011B00099FC0646324621466120FFF7AAFCFF2132
:1011C000E220FFF7C6FC3046BDE8F0810020FBE7D7
:1011D000A5A5A5A5A5000000524634304330312016
:1011E0007265616479212E2E2E2E0000940100205C
:1011F0009801002034431010010000000C0C014045
:1012000000B587B001214FF4847001F04FFA01203E
:101210008DF81A0018208DF81B004FF40050ADF81F
:10122000180006A94D4800F085FF4FF40040ADF8C6
:10123000180006A9494800F07DFF4FF48040ADF842
:10124000180006A9454800F075FF10208DF81B0016
:101250008001ADF8180006A9404800F06BFF4FF47C
:1012600080613E4801F013F83D4801F087FC012100
:10127000880301F028FA0021394801F04AFD0020D6
:10128000ADF804004FF48270ADF806000020ADF810
:101290000A00ADF80C00ADF808004FF40070ADF88E
:1012A0000E002820ADF810000020ADF81200072035
:1012B000ADF8140001A92A4801F086FC0121284854
:1012C00001F027FD07B000BD70B5044600260025DB
:1012D00007E0681C80B205464FF6FF71884200D1D6
:1012E00005E002211E4801F098FD0028F1D000BF62
:1012F00047F6FF751A480C30048007E0681C80B27E
:1013000005464FF6FF71884200D105E001211448DF
:1013100001F083FD0028F1D000BF11480C30008897
:10132000C6B2304670BD70B504460D4616464FF441
:1013300080610A4800F0ADFF05E02878FFF7C4FFA0
:101340002070641C6D1C301EA6F101018EB2F4D118
:101350004FF48061014800F09AFF70BD000C01401D
:1013600000380040002109E0002201E0531C9AB23D
:1013700040F6B8339A42F9DB4B1C99B28142F3DB59
:1013800070474FF40072FA4B1A6052101A60202214
:101390001B1F1A60F74AD06020221B1D1A601B1FFA
:1013A0001A60D2001A60F34AD16020221B1D1A6015
:1013B0001B1F1A60D2001A60704700B5012100207F
:1013C000FFF7DFFF4FF47A70FFF7CCFF0021012019
:1013D000FFF7D7FF41F290711020FFF7D2FF4FF4D3
:1013E0001C516020FFF7CDFF01216120FFF7C9FFED
:1013F00002214620FFF7C5FF48F210011320FFF736
:10140000C0FF48F2FE011220FFF7BBFF4FF4A061BE
:101410000220FFF7B6FF41F230010320FFF7B1FFD2
:1014200040F203313020FFF7ACFF40F203313120AE
:10143000FFF7A7FF40F203313220FFF7A2FF4FF47E
:1014400040713320FFF79DFF03213420FFF799FF00
:1014500040F203313520FFF794FF14213620FFF7C7
:1014600090FF40F203313720FFF78BFF40F203314A
:101470003820FFF786FF40F203313920FFF781FF64
:101480004FF440713A20FFF77CFF03213B20FFF728
:1014900078FF40F203313C20FFF773FF4FF4A05177
:1014A0003D20FFF76EFF4FF400719220FFF769FFB8
:1014B00040F203319320FFF764FF40F60D019020C6
:1014C000FFF75FFF41F218010320FFF75AFF40F2D8
:1014D00073110720FFF755FF00BD00B543F2080167
:1014E000E320FFF74EFF1221E720FFF74AFF41F20A
:1014F0003121EF20FFF745FF00210120FFF741FFD9
:101500004FF4E0610220FFF73CFF41F2300103207D
:10151000FFF737FF00210420FFF733FF40F20721D8
:101520000820FFF72EFF00210920FFF72AFF0021E6
:101530000A20FFF726FF00210C20FFF722FF0021E1
:101540000D20FFF71EFF00210F20FFF71AFF0021DB
:101550001020FFF716FF07211120FFF712FF0021CF
:101560001220FFF70EFF00211320FFF70AFF4FF4B0
:101570007A70FFF7F7FE41F290611020FFF701FF4C
:1015800040F227211120FFF7FCFE3220FFF7EAFE90
:101590001D211220FFF7F5FE3220FFF7E3FE4FF486
:1015A00000611320FFF7EDFE14212920FFF7E9FE6B
:1015B0000B212B20FFF7E5FE3220FFF7D3FE0021A1
:1015C0002020FFF7DEFE00212120FFF7DAFE0721B1
:1015D0003020FFF7D6FE40F207713120FFF7D1FE31
:1015E00006213220FFF7CDFE40F204713520FFF7CF
:1015F000C8FE41F604713620FFF7C3FE04213720F0
:10160000FFF7BFFE00213820FFF7BBFE40F2067156
:101610003920FFF7B6FE40F201713C20FFF7B1FE22
:101620000F213D20FFF7ADFE00215020FFF7A9FE5E
:10163000EF215120FFF7A5FE00215220FFF7A1FE68
:1016400040F23F115320FFF79CFE4FF41C516020E5
:10165000FFF797FE01216120FFF793FE00216A202A
:10166000FFF78FFE00218020FFF78BFE00218120F5
:10167000FFF787FE00218220FFF783FE00218320F1
:10168000FFF77FFE00218420FFF77BFE00218520ED
:10169000FFF777FE10219020FFF773FE00219220C4
:1016A000FFF76FFE03219320FFF76BFE4FF4887165
:1016B0009520FFF766FE00219720FFF762FE0021CC
:1016C0009820FFF75EFE41F218010320FFF759FE54
:1016D00040F273110720FFF754FE00BD08B54FF626
:1016E000FF70ADF8000003208DF8020010208DF887
:1016F000030069461F4800F01DFD08BD08B54FF600
:10170000FF70ADF8000003208DF8020048208DF82E
:1017100003006946174800F00DFD08BD70B504468A
:101720004FF4007012490860401008602020091F23
:1017300008601048C4602020091D0860091F086067
:10174000C0000860FFF7DAFF4FF4806008490860C6
:101750000848806885B20815091F0860FFF7BEFFBA
:101760004FF400700249091F0860284670BD000050
:10177000140C01400010014008B50121182000F0B0
:1017800095FF0121202000F091FF4FF4E460ADF8B7
:10179000000001208DF8020010208DF8030069463A
:1017A000F84800F0C7FCFFF799FFF64810300068D2
:1017B00040F4C460F3491031086008BD10B5FFF76C
:1017C000DBFF0020FFF7AAFFEF49088008460088EA
:1017D00048F23021884202D1FFF7EFFD01E0FFF728
:1017E0007CFE0020FFF79AFFE749088010BD01B595
:1017F000BDF80000E549088008BD01B5BDF800004E
:10180000E349088008BD30B504460D462146202036
:10181000FFF7B7FD29462120FFF7B3FD30BD4FF498
:101820000071D84A143211604910121F1160202132
:101830001160D849C8602021121D1160121F11606B
:10184000C90011604900116070474FF40070CD4924
:1018500014310860401008602020091F0860222011
:10186000CC49C8602020C74914310860091F0860AE
:10187000C00008604000086070472DE9F04306464C
:101880008946174600240025A046B04649464046F2
:10189000FFF7B9FF00BF1EE0FFF7D7FF00250FE0FD
:1018A00037F814000121A940084020B9B848008841
:1018B000FFF7B5FF03E0B5480088FFF7B0FF6D1CE8
:1018C000102DEDD308F1010000F0FF084946404615
:1018D000FFF799FF641C182CDED3BDE8F08370B5C8
:1018E00005460E461446A4F12000C4B204EB4400A1
:1018F000A94901EB001231462846FFF7BEFF70BD33
:10190000F0B507460C46002540F23F1609E0227864
:1019100031463846FFF7E3FFA6F1100086B2641C9B
:101920006D1C207808B1142DF1D3F0BD10B504461C
:101930009AA12046FFF7E4FF10BD30B5054600240C
:1019400000210846FFF75FFFFFF77FFF00BF03E0BE
:101950002846FFF764FF641CB4F5963FF8D330BD0A
:10196000F0B504460D4616461F46B44206DBA01BE2
:10197000401C81B25020FFF704FD03E000215020FD
:10198000FFF7FFFC21465120FFF7FBFCBD4206DBC1
:10199000E81B401C81B25220FFF7F3FC03E000215A
:1019A0005220FFF7EEFC29465320FFF7EAFC2946B8
:1019B0002046FFF728FFF0BD00B54FF4A073F022DA
:1019C000591EEF20FFF7CCFF41F218010320FFF76B
:1019D000D8FC00BD2DE9F0410646884615461F4655
:1019E000002441463046FFF70EFF5FB9FFF72DFF99
:1019F00000BF04E065480088FFF711FF641CAC429B
:101A0000F8D310E000240CE0FFF71FFF5F480088C8
:101A1000FFF705FF701CC6B241463046FFF7F3FEE4
:101A2000641CAC42F0D3BDE8F081F0B505460E462B
:101A300017461C460023224631462846FFF7CAFFB8
:101A4000E919C8B2002322463146FFF7C3FF01233C
:101A50003A4631462846FFF7BDFF301B401C81B295
:101A600001233A462846FFF7B5FFF0BD2DE9F043C4
:101A700006460F4690460320A0EB48090024454641
:101A80006EE07A1991B23219D0B2FFF7BCFEFFF7BF
:101A9000DCFE3E480088FFF7C2FE7A1B91B2321985
:101AA000D0B2FFF7B0FEFFF7D0FE38480088FFF74E
:101AB000B6FE7A1991B2321BD0B2FFF7A4FEFFF73F
:101AC000C4FE32480088FFF7AAFE7A1B91B2321B8F
:101AD000D0B2FFF798FEFFF7B8FE2C480088FFF75A
:101AE0009EFE3A1991B27219D0B2FFF78CFEFFF741
:101AF000ACFE26480088FFF792FE3A1B91B272199D
:101B0000D0B2FFF780FEFFF7A0FE20480088FFF765
:101B100086FE3A1991B2721BD0B2FFF774FEFFF73E
:101B200094FE1A480088FFF77AFE3A1B91B2721BA6
:101B3000D0B2FFF768FEFFF788FE14480088FFF771
:101B40006EFEB9F1000F04DA062000EB8400814438
:101B500005E0601B0A2101EB800081446D1E641CBE
:101B6000AC428ED9BDE8F08370B50646002400254E
:101B700040F23F110020FFF746FEFFF766FE00BF70
:101B80002DE00000000C0140A00100209C0100207D
:101B90009E01002000100140303800082020202045
:101BA0002020202020202020202020202020202035
:101BB0000000000000250FE056F824000121A94094
:101BC000084020B95F480088FFF729FE03E05E481F
:101BD0000088FFF724FE6D1C202DEDD3641CB4F5A6
:101BE000166FE7D370BD70B50446002500266688E1
:101BF000A08846EA00466589A08945EA0045701B31
:101C000046082C4441F208010320FFF7BAFBFFF716
:101C10001CFE002504E02088FFF701FEA41C6D1CBB
:101C2000B542F8D341F218010320FFF7AAFB70BDBB
:101C300010B54FF40070454908604010086020203E
:101C4000091F086022204249C86020203F490860DF
:101C5000091F0860C0000860FFF750FD4FF4806066
:101C60003A4908603A48806884B20815091F08603C
:101C7000FFF734FD4FF400703449091F0860204617
:101C800010BD00B500211020FFF77BFB00211120C3
:101C9000FFF777FB00211220FFF773FB00211320D1
:101CA000FFF76FFB1420FFF75DFB41F2B0711020CE
:101CB000FFF767FB40F237111120FFF762FB0520A9
:101CC000FFF750FB40F239111220FFF75AFB0520B5
:101CD000FFF748FB4FF4E8511320FFF752FB1321A5
:101CE0002920FFF74EFB0520FFF73CFB40F2731164
:101CF0000720FFF746FB00BD00B540F27311072037
:101D0000FFF73FFB00BD00B500210720FFF739FBBF
:101D100000BD30B5054600210846FFF774FDFFF70A
:101D200094FD002409E015F814206100491C695C49
:101D300042EA0120FFF773FD641CB4F5963FF2DB25
:101D400030BD00009E0100209C010020140C0140C9
:101D50000010014010B56FF0040000F06CF92E483F
:101D600000682E49B0FBF1F02D4908700846007854
:101D700000EB4001C1EBC0104FF6FF7101EAC0005B
:101D80002849088010BD0146254A12784A434FF081
:101D9000E0235A6100229A611A46126942F0010258
:101DA0001A6100BF4FF0E022106900F001021AB181
:101DB00000F48032002AF5D04FF0E022126922F0C0
:101DC00001024FF0E0231A6100229A617047014638
:101DD000144A12884A434FF0E0235A6100229A6164
:101DE0001A46126942F001021A6100BF4FF0E02268
:101DF000106900F001021AB100F48032002AF5D017
:101E00004FF0E022126922F001024FF0E0231A6144
:101E100000229A61704700000000002000127A0042
:101E2000A2010020A401002010B54FF4A06000F032
:101E3000B3F810BD014600BF704700BF494A128881
:101E400002F04002002AF9D0C2B2464B1B1D1A8094
:101E5000704710B586B00446012144F2050000F039
:101E600025FC4FF40070ADF8140003208DF8160027
:101E700018208DF8170005A93B4800F05BF94FF4D6
:101E80008060ADF8140004208DF8170005A93648CD
:101E900000F050F925208DF8000003208DF8010096
:101EA0008DF8020001208DF80300684600F079F8F3
:101EB00001940020ADF80800ADF80A00ADF80C0060
:101EC000ADF810000C20ADF80E0001A9254800F077
:101ED00094FC012240F22551224800F026FD012108
:101EE000204800F016FD06B010BD10B540F2255197
:101EF0001C4800F0FFFD10B31A4800F07BFDC4B28F
:101F00001A48008800F40040C8B91848008800F456
:101F1000804060B10A2C03D000201449088020E0E2
:101F20001248008840F400401049088019E00D2C48
:101F300006D10E48008840F480400C49088010E02B
:101F40000A480088C0F30D0009490C54074800886E
:101F5000401C0649088008460088C72801DD00208B
:101F6000088010BD0038014000080140AC0100208D
:101F7000440200200648804706480047FEE7FEE787
:101F8000FEE7FEE7FEE7FEE7FEE7FEE7FEE7FEE729
:101F900013040008ED00000831490143314A116083
:101FA000704770B5002100230F22C47804B32D4C74
:101FB000246804F4E064C4F5E064210AC1F1040378
:101FC000CA40447804FA03F184781440214309019B
:101FD000254C0678A155047804F01F050124AC4077
:101FE00005786D11AD0005F1E025C5F8004109E067
:101FF000047804F01F050124AC401C4D06787611CE
:1020000045F8264070BD1A4A0A400243154B1B1F73
:102010001A60704739B1134A121D12680243114BFE
:102020001B1D1A6006E00F4A121D126882430D4BF9
:102030001B1D1A607047042808D14FF0E021096980
:1020400041F004014FF0E022116107E04FF0E02180
:10205000096921F004014FF0E0221161704700008E
:102060000000FA050CED00E000E400E080E100E093
:1020700080FFFF1F10B50446CC48844208D10121DF
:10208000042000F02DFB0021042000F029FB46E095
:10209000C748844208D10121082000F021FB00211B
:1020A000082000F01DFB3AE0C248844208D101211B
:1020B000102000F015FB0021102000F011FB2EE095
:1020C000BD48844208D10121202000F009FB0021F5
:1020D000202000F005FB22E0B848844208D101210D
:1020E000402000F0FDFA0021402000F0F9FA16E04F
:1020F000B348844208D10121802000F0F1FA002188
:10210000802000F0EDFA0AE0AE48844207D10121B8
:10211000801500F0E5FA0021A01500F0E1FA10BDED
:1021200010B50121084600F0DBFA0021012000F083
:10213000D7FA10BD2DE9F041024600250026002007
:1021400000230024002791F803C00CF00F0591F83C
:1021500003C00CF0100CBCF1000F03D091F802C0CA
:102160004CEA050591F800C0BCF1000F31D01468AD
:1021700000202BE04FF0010C0CFA00F3B1F800C086
:102180000CEA03069E4220D183004FF00F0C0CFA9C
:1021900003F7BC4305FA03FC4CEA040491F803C0BE
:1021A000BCF1280F06D14FF0010C0CFA00FCC2F86C
:1021B00014C00AE091F803C0BCF1480F05D14FF0FC
:1021C000010C0CFA00FCC2F810C0401C0828D1D346
:1021D0001460B1F800C0BCF1FF0F34DD546800207A
:1021E0002EE000F1080C4FF0010808FA0CF3B1F8EA
:1021F00000C00CEA03069E4221D183004FF00F0C71
:102200000CFA03F7BC4305FA03FC4CEA040491F80A
:1022100003C0BCF1280F05D100F1080C08FA0CF836
:10222000C2F8148091F803C0BCF1480F07D100F147
:10223000080C4FF0010808FA0CF8C2F81080401C96
:102240000828CED35460BDE8F0814FF6FF710180BD
:10225000022181700421C1707047024600209368FA
:102260000B400BB1012000E0002070470146886858
:1022700080B2704702460020D3680B400BB10120AA
:1022800000E0002070470146C86880B270470161D5
:102290007047416170470AB1016100E041617047D8
:1022A000C16070474FF480320A438261816182616C
:1022B00082698269704702460020434B18684FF6D6
:1022C0008073184040EA021008433F4B1860704783
:1022D0003E49C8617047F0B50A460023002400213A
:1022E000002500F00046B6F1004F02D1364EF169EC
:1022F00001E0354E7168C0F3034583B200F4401627
:10230000B6F5401F08D121F070612F4E766826F097
:1023100070662D4F7E6012E000F48016B6F5801FC7
:1023200006D1032606FA05F4A14341F0706106E0E8
:10233000460D360103FA06F6B14341F0706122B151
:10234000460D360103FA06F6314300F00046B6F1B9
:10235000004F02D11C4EF16101E01B4E7160F0BDD7
:1023600030B500228B071C0F0F2303FA04F2164B23
:1023700008338C1053F824309343134C08348D10D9
:1023800044F8253023468C1053F824308C07240F52
:1023900000FA04F423430C4C08348D1044F8253023
:1023A00030BD0A49DC310860704700000008014078
:1023B000000C0140001001400014014000180140D1
:1023C000001C0140002001400000014000002042AC
:1023D000DF48006840F00100DD49086008464068B9
:1023E000DC490840DA49486008460068DA49084094
:1023F000D74908600846006820F480200860084635
:10240000406820F4FE0048604FF41F008860704769
:10241000CF49096821F48031CD4A1160114609681D
:1024200021F480211160B0F5803F03D0B0F5802FFA
:102430000ED106E0C649096841F48031C44A1160F2
:1024400007E0C349096841F4A021C14A116000E0D6
:1024500000BF00BF704710B50146002200230020D6
:102460004A11012A02D1BA4C236806E0022A02D19D
:10247000B74C236A01E0B64C636A01F01F020124E5
:1024800094401C400CB1012000E0002010BD38B584
:10249000002000900024002500BF3120FFF7DBFF63
:1024A00005460098401C00900098B0F5A06F01D040
:1024B000002DF2D03120FFF7CEFF08B1012400E05B
:1024C0000024204638BD01460020A14A106820F0B3
:1024D000F80040EAC10010607047A04908607047EA
:1024E000024600209A4B586820F47C1042EA01030F
:1024F0001843974B586070479849086670470146E3
:102500000020934A506820F0030008435060704751
:102510008F48406800F00C007047014600208C4A4C
:10252000506820F0F00008435060704701460020DA
:10253000874A506820F4E0600843506070470146C5
:102540000020834A506820F4605040EAC100506087
:10255000704729B17E4A527A02437D4B5A7204E099
:102560007B4A527A82437A4B5A7270477B49D83100
:102570000860704701460020754A506820F44040CA
:102580000843506070470021714A20321170704A30
:1025900082F82010012802D004280AD104E0012189
:1025A0006B4A2032117005E00521694A2032117012
:1025B00000E000BF00BF7047694908607047644988
:1025C000096A0143624A11627047654944390860EB
:1025D000704730B500210022002400235C4D6D6857
:1025E00005F00C0121B1042905D0082923D105E00B
:1025F0005C4D056022E05B4D05601FE0544D6D6849
:1026000005F47012524D6D6805F48034022505EB17
:1026100092421CB9544D554305600BE04C4D6D681A
:1026200005F400351DB1504D5543056002E04D4D98
:102630005543056002E04B4D056000BF00BF444DAF
:102640006D6805F0F0010909484D6B5C0568DD40D7
:1026500045603F4D6D6805F4E061090A434D6B5CD0
:102660004568DD4085603A4D6D6805F46051C90AE2
:102670003E4D6B5C4568DD40C560354D6D6805F4C9
:102680004041890B3A4D6B5CC568B5FBF3F50561BC
:1026900030BD29B12E4A526902432D4B5A6104E0E4
:1026A0002B4A526982432A4B5A61704729B1284A02
:1026B00092690243264B9A6104E0254A926982435B
:1026C000234B9A61704729B1214AD2690243204BBA
:1026D000DA6104E01E4AD26982431D4BDA61704719
:1026E00029B11B4AD2680243194BDA6004E0184A48
:1026F000D2688243164BDA60704729B1144A1269D6
:102700000243134B1A6104E0114A12698243104BD1
:102710001A61704712494039086070470F49C86410
:1027200070470B49C87170470948406A40F0807093
:1027300007494862704701460020054A92680A40EE
:102740000AB1012000E000207047014988727047FB
:10275000001002400000FFF8FFFFF6FE00004242BA
:102760008004424200127A0000093D00AE010020C0
:10277000BE01002010B50446FB48844209D1012166
:102780008803FFF7ADFF00214FF48040FFF7A8FF5B
:1027900032E0F648844209D101214804FFF7ADFF39
:1027A00000214FF40030FFF7A8FF25E0F0488442F5
:1027B00009D101218804FFF7A0FF00214FF48020F8
:1027C000FFF79BFF18E0EB48844209D10121C804C0
:1027D000FFF793FF00214FF40020FFF78EFF0BE07F
:1027E000E548844208D101210805FFF786FF002152
:1027F0004FF48010FFF781FF10BD2DE9F04786B040
:1028000005460E460024A24600BFA1460027B08917
:1028100000B100BF2F462C8A4CF6FF700440F088B0
:1028200004432C82AC894EF6F3100440B088318901
:102830000843718908430443AC81AC8A4FF6FF40DA
:102840000440B0890443AC8201A8FFF7C2FEC64829
:10285000874202D1DDF810A001E0DDF80CA0A889C4
:1028600000F4004040B10AEBCA0000EB0A103168E6
:102870004900B0FBF1F807E00AEBCA0000EB0A10D0
:1028800031688900B0FBF1F86420B8FBF0F0040176
:102890002009642101FB1089A88900F4004040B19F
:1028A000322000EBC900B0FBF1F000F00700044358
:1028B00008E0322000EB09106421B0FBF1F000F0D9
:1028C0000F0004432C8106B0BDE8F0874FF4165189
:1028D000016000218180C18001810C2141810021A2
:1028E0008181704710B502460020108A4FF2FF0325
:1028F00018400B884C8823438C882343CC8823437F
:102900001843108210BD0021018041808180C18068
:10291000704721B1828942F40052828104E08289A9
:102920004DF6FF731A4082817047F0B503460024CC
:1029300000260025002040F66A17B94200D100BFEA
:102940001846C1F3421401F01F06012707FA06F5E5
:10295000012C01D10C3004E0022C01D1103000E038
:1029600014301AB107682F43076002E00768AF43CD
:102970000760F0BD1AB1838A0B43838202E0838A29
:102980008B4383827047028A4FF6F0731A400282AB
:10299000028A0A430282704782894FF2FF731A400B
:1029A000828182890A438281704721B1828942F003
:1029B0000202828104E082894FF6FD731A4082810F
:1029C0007047028A4FF6DF731A400282028A0A4376
:1029D0000282704721B1028A42F48042028204E0FE
:1029E000028A4BF6FF731A4002827047C1F3080255
:1029F0008280704701468888C0F30800704781894B
:102A000041F0010181817047028BD2B20283028BB7
:102A100042EA012202837047028B02F47F42028362
:102A2000028B0A430283704721B1828A42F020025E
:102A3000828204E0828A4FF6DF731A4082827047F6
:102A400021B1828A42F01002828204E0828A4FF62B
:102A5000EF731A408282704721B1828A42F00802E5
:102A6000828204E0828A4FF6F7731A4082827047AE
:102A700021B1828942F40042828103E08289C2F35B
:102A80000E028281704721B1828A42F40062828202
:102A900004E0828A4FF2FF731A4082827047828A72
:102AA0004FF6FB731A408282828A0A438282704701
:102AB00021B1828A42F00202828204E0828A4FF6C9
:102AC000FD731A408282704702460020B1F5007FF4
:102AD00000D100BF13880B400BB1012000E00020A3
:102AE000704701F40072B2F5007F00D100BFCA4305
:102AF0000280704770B502460024002300250020A4
:102B000040F66A16B14200D100BFC1F3421501F090
:102B10001F03012606FA03F3012D02D196893340E3
:102B200006E0022D02D1168A334001E0968A334036
:102B30000C12012606FA04F41688344013B10CB1C5
:102B4000012000E0002070BD10B50022002340F6F7
:102B50006A14A14200D100BF0A1201249440A3B21A
:102B6000DC43048010BD00000038014000440040F8
:102B700000480040004C00400050004010B50446A2
:102B8000BE48844208D101218014FFF7A9FD00212D
:102B9000A014FFF7A5FD16E0B948844208D1012131
:102BA0000014FFF7AAFD00212014FFF7A6FD0AE09C
:102BB000B448844207D10121C013FFF79EFD0021D4
:102BC000E013FFF79AFD10BD10B50022028802F451
:102BD00041520B884C8823438C882343CC88234361
:102BE0000C8923434C8923438C892343CC89234379
:102BF0001A430280838B4FF2FF74234083830B8A36
:102C0000038210BD2DE9F04F85B005460C464FF00C
:102C1000000902274FF000084FF0010B0026B246D2
:102C2000A88B4FF240010840A88302202884B5F801
:102C30001C90A068022801D100BF38E0A08810B91C
:102C40004FF0010B01E04FF0020B8D48854200D19F
:102C500000E000BF6846FFF7BCFCDDF800A0E0889C
:102C6000B0F5007F0AD14FEA1A2000EB8000400047
:102C7000A168B0FBF1F0401D86B20BE04FEA4B10AB
:102C8000BAFBF0F000EB80004000A168B0FBF1F06F
:102C9000401D86B20A20B6FBF0F606F00108A6EB4E
:102CA0000800C0F34F074FF6FF7000EA0828022F14
:102CB00001DBFF2F02DD02274FF00008E08840EA29
:102CC000080038432884A088A18908436188084304
:102CD0002188084340F4006040EA0909A5F81C90E7
:102CE00005B0BDE8F08F0021018041808180C18066
:102CF000018141818181C1810721018270470021C9
:102D0000018041808180C180022181600021818118
:102D1000704721B1028842F04002028004E002883C
:102D20004FF6BF731A400280704721B1828B42F484
:102D30008062828304E0828B4FF6FF331A408283E5
:102D4000704730B5002400230C110125A540ABB21B
:102D50001AB185881D43858002E085889D43858062
:102D600030BD1AB183880B43838002E083888B4394
:102D700083807047818170470146888970474FF68C
:102D8000FF62914204D0028842F48072028004E023
:102D900002884FF6FF631A400280704721B1828893
:102DA00042F00402828004E082884FF6FB731A40EE
:102DB0008280704702884FF2FF731A4002800288B7
:102DC0000A4302807047018841F4805101807047B6
:102DD00021B1028842F40052028004E002884DF6DC
:102DE000FF731A400280704702460020012901D07B
:102DF000108B00E0908A70470146088A7047B1F551
:102E0000804F04D1028842F48042028004E00288AC
:102E10004BF6FF731A400280704702460020138968
:102E20000B400BB1012000E000207047CA43028133
:102E30007047F0B50246002000240023002501F071
:102E40000F070126BE40B4B20B1101269E40B3B25B
:102E5000968806EA03051689264016B10DB10120B1
:102E600000E00020F0BD10B5002201F00F040123A6
:102E7000A3409AB2D343038110BD0000003001404B
:102E800000380040003C0040064C074D06E0E0687A
:102E900040F0010394E8070098471034AC42F6D3A1
:102EA000FDF728F9304A0008504A000870B58C1820
:102EB00010F8015B15F0070301D110F8013B2A114E
:102EC00006D110F8012B03E010F8016B01F8016B3B
:102ED0005B1EF9D12B0705D40023521E0DD401F837
:102EE000013BFAE710F8013BCB1A921C03E013F800
:102EF000015B01F8015B521EF9D5A142D8D3002035
:102F000070BD00000FB4054B10B503A9044A029828
:102F100000F017F810BC5DF814FB00003B1E000821
:102F2000A801002002E008C8121F08C1002AFAD137
:102F300070477047002001E001C1121F002AFBD139
:102F400070472DE9F84F9946924688460546002776
:102F500006E025280AD051464A4690476D1C7F1C42
:102F600028780028F5D13846BDE8F88F002315F8F9
:102F7000011F18462E2915D115F8011F04232A29EF
:102F80000DD06FF02F022978A1F13004092C09D857
:102F900000EB800002EB400008446D1CF3E758F89A
:102FA000040B6D1C2A78002ADDD0632A07D0732A0F
:102FB0000FD0104651464A4690477F1C2AE018F829
:102FC000042B8DF8002000218DF801106E460121A0
:102FD00003E058F8046B4FF0FF315A074FF000043C
:102FE00001D409E0641C84420BDA8C42FADB325DC6
:102FF000002AF7D105E0641C8C42FCDB305D002820
:10300000F9D1274404E016F8010B51464A4690478F
:10301000641EF8D26D1CA3E7000000000000000051
:10302000002F000000000700070000147F147F1429
:1030300000242A7F2A1200626408132300364955AF
:10304000225000000503000000001C224100000087
:1030500041221C000014083E08140008083E08081D
:10306000000000A060000008080808080000606078
:103070000000002010080402003E5149453E0000B7
:10308000427F4000004261514946002141454B3199
:10309000001814127F10002745454539003C4A4965
:1030A00049300001710905030036494949360006D7
:1030B0004949291E0000363600000000563600003F
:1030C00000081422410000141414141400004122BA
:1030D000140800020151090600324959513E007C92
:1030E0001211127C007F49494936003E414141227C
:1030F000007F4141221C007F49494941007F090965
:103100000901003E4149497A007F0808087F000014
:10311000417F4100002040413F01007F08142241CF
:10312000007F40404040007F020C027F007F040887
:10313000107F003E4141413E007F09090906003EE3
:103140004151215E007F091929460046494949310C
:103150000001017F0101003F4040403F001F20402F
:10316000201F003F4038403F0063140814630007ED
:103170000870080700615149454300007F41410044
:1031800000552A552A55000041417F0000040201E4
:1031900002040040404040400000010204000020C2
:1031A00054545478007F4844443800384444442000
:1031B00000384444487F00385454541800087E09AD
:1031C00001020018A4A4A47C007F08040478000075
:1031D000447D4000004080847D00007F1028440032
:1031E0000000417F4000007C04180478007C080443
:1031F000047800384444443800FC2424241800187F
:10320000242418FC007C080404080048545454206A
:1032100000043F444020003C4040207C001C2040F3
:10322000201C003C4030403C004428102844001C36
:10323000A0A0A07C004464544C441414141414142E
:10324000000000000000000000000000000000007E
:10325000000000F800000000000000333000000013
:1032600000100C06100C060000000000000000001A
:1032700040C07840C0784000043F04043F0404008C
:10328000007088FC08300000001820FF211E00009C
:10329000F008F000E018000000211C031E211E00B1
:1032A00000F00888700000001E2123241927211037
:1032B00010160E00000000000000000000000000DA
:1032C000000000E018040200000000071820400081
:1032D00000020418E0000000004020180700000071
:1032E000404080F0804040000202010F01020200D5
:1032F000000000F0000000000101011F01010100B9
:10330000000000000000000080B07000000000001D
:1033100000000000000000000001010101010101A6
:10332000000000000000000000303000000000003D
:103330000000000080601804006018060100000012
:1033400000E010080810E000000F102020100F000F
:10335000001010F8000000000020203F2020000096
:1033600000700808088870000030282422213000EE
:1033700000300888884830000018202020110E00F6
:103380000000C02010F8000000070424243F24009F
:1033900000F80888880808000019212020110E0074
:1033A00000E0108888180000000F112020110E0086
:1033B00000380808C83808000000003F000000007E
:1033C0000070880808887000001C222121221C003F
:1033D00000E010080810E0000000312222110F0068
:1033E000000000C0C00000000000003030000000FD
:1033F000000000800000000000008060000000006D
:103400000000804020100800000102040810200085
:1034100040404040404040000404040404040400D0
:103420000008102040800000002010080402010065
:10343000007048080808F000000000303601000065
:10344000C030C828E810E0000718272423140B0018
:103450000000C038E0000000203C23020227382092
:1034600008F8888888700000203F202020110E0076
:10347000C03008080808380007182020201008006D
:1034800008F808080810E000203F202020100F0056
:1034900008F88888E8081000203F20202320180022
:1034A00008F88888E8081000203F2000030000008A
:1034B000C03008080838000007182020221E02002B
:1034C00008F808000008F808203F210101213F20EA
:1034D000000808F8080800000020203F2020000015
:1034E00000000808F8080800C08080807F00000005
:1034F00008F888C028180800203F2001263820003E
:1035000008F8080000000000203F202020203000A4
:1035100008F8F800F8F80800203F003F003F2000BE
:1035200008F830C00008F808203F200007183F00C6
:10353000E01008080810E0000F10202020100F00F5
:1035400008F808080808F000203F210101010000E8
:10355000E01008080810E0000F18242438504F002D
:1035600008F8888888887000203F2000030C3020ED
:1035700000708808080838000038202121221C002B
:10358000180808F8080818000000203F2000000074
:1035900008F808000008F808001F202020201F005D
:1035A0000878880000C83808000007380E010000BD
:1035B000F80800F80008F800033C0700073C030087
:1035C000081868808068180820302C03032C3020ED
:1035D0000838C800C83808000000203F200000005C
:1035E00010080808C83808002038262120201800B4
:1035F000000000FE020202000000007F4040400088
:10360000000C30C000000000000000010638C000BF
:1036100000020202FE000000004040407F00000067
:10362000000004020202040000000000000000008C
:10363000000000000000000080808080808080808A
:103640000002020400000000000000000000000072
:1036500000008080808000000019242222223F2068
:1036600008F8008080000000003F112020110E00AB
:103670000000008080800000000E1120202011003A
:10368000000000808088F800000E112020103F20EC
:103690000000808080800000001F22222222130070
:1036A000008080F0888888180020203F20200000BB
:1036B0000000808080808000006B94949493600070
:1036C00008F8008080800000203F210000203F207B
:1036D00000809898000000000020203F202000007B
:1036E000000000809898000000C08080807F00006B
:1036F00008F8000080808000203F24022D30200048
:10370000000808F8000000000020203F20200000F2
:103710008080808080808000203F20003F20003F0C
:103720008080008080800000203F210000203F201A
:103730000000808080800000001F202020201F00CB
:10374000808000808000000080FFA12020110E00FA
:103750000000008080808000000E112020A0FF80EB
:10376000808080008080800020203F212000010098
:1037700000008080808080000033242424241900ED
:10378000008080E0808000000000001F20200000FA
:103790008080000000808000001F202020103F203B
:1037A000808080000080808000010E3008060100CB
:1037B00080800080008080800F300C030C300F0070
:1037C00000808000808080000020312E0E3120009B
:1037D000808080000080808080818E7018060100CB
:1037E00000808080808080000021302C22213000E9
:1037F00000000000807C020200000000003F40400A
:1038000000000000FF00000000000000FF000000BA
:103810000002027C800000000040403F00000000E9
:103820000006010102020404000000000000000084
:103830000000000000000000000000000000000088
:103840000000000000000000000000000000000078
:103850000000000000000000000000000000000068
:1038600000008001800180018001800180018001D1
:103870008001800180018001800180010000000042
:103880008001800100000000000000000000000036
:1038900000000000CC00CC00CC00CC00CC00CC0060
:1038A0000000000000000000000000000000000018
:1038B0000000000000000000000000000000000008
:1038C000000000000000000000000000600C600C20
:1038D000600C30063006FE1FFE1F30063807180346
:1038E000FE1FFE1F180318038C018C018C010000C1
:1038F00000008000E003F80F9C0E8C1C8C188C00DC
:103900009800F801E007800E801C8C188C189C1819
:10391000B80CF00FE0038000800000000000000001
:103920000000000000000E181B0C110C11061106FF
:10393000110311039B018E01C038C06C60446044C8
:10394000304430441844186C0C380000000000006B
:103950000000E001F0033807180618063003F001F4
:10396000F000F8009C310E33061E061C061C063FB4
:10397000FC73F021000000000000000000000000C7
:10398000000000000C000C000C000C000C000C00EF
:103990000000000000000000000000000000000027
:1039A0000000000000000000000000000000000017
:1039B0000000000200038001C000C0006000600041
:1039C0003000300030003000300030003000300077
:1039D00060006000C000C000800100030002000021
:1039E000000020006000C00080018001000300038F
:1039F0000006000600060006000600060006000697
:103A00000003000380018001C0006000200000006E
:103A1000000000000000000000000000C000C00026
:103A2000D806F807E0013003380700000000000066
:103A30000000000000000000000000000000000086
:103A40000000000000000000000000008001800174
:103A5000800180018001FC3FFC3F800180018001EA
:103A60008001800100000000000000000000000054
:103A70000000000000000000000000000000000046
:103A80000000000000000000000000000000000036
:103A900000008001800100010001800000000000A2
:103AA0000000000000000000000000000000000016
:103AB0000000000000000000E007E0070000000038
:103AC00000000000000000000000000000000000F6
:103AD00000000000000000000000000000000000E6
:103AE00000000000000000000000000000000000D6
:103AF0000000C000C0000000000000000000000046
:103B00000000000C000C0006000600060003000385
:103B100000038003800180018001C000C000C0005C
:103B200060006000000000000000000000000000D5
:103B30000000E003F007380E180C0C180C180C18D5
:103B40000C180C180C180C180C180C18180C380E33
:103B5000F007E0030000000000000000000000008B
:103B6000000000018001C001F0019801880180017E
:103B7000800180018001800180018001800180013D
:103B80008001800100000000000000000000000033
:103B90000000E003F80F180C0C180C18001800189F
:103BA000000C000600038001C00060003000180017
:103BB000FC1FFC1F000000000000000000000000CF
:103BC0000000E001F807180E0C0C0C0C000C0006AD
:103BD000C003C007000C001800180C180C18180CB3
:103BE000F807E003000000000000000000000000F3
:103BF0000000000C000E000F000F800DC00C600CC8
:103C0000600C300C180C0C0CFC3FFC3F000C000C42
:103C1000000C000C0000000000000000000000008C
:103C20000000F80FF80F180018000C00EC03FC0758
:103C30001C0E001C0018001800180C181C0C180E84
:103C4000F807E00300000000000000000000000092
:103C50000000C007F00F381C181818000C00CC0327
:103C6000EC0F3C0E1C1C0C180C180C18181C380EF1
:103C7000F007E0030000000000000000000000006A
:103C80000000FC1FFC1F000C000600060003800360
:103C90008001C001C000E0006000600070003000E2
:103CA00030003000000000000000000000000000B4
:103CB0000000E003F007380E180C180C180C38063A
:103CC000F007F007180C0C180C180C180C18380C0E
:103CD000F80FE003000000000000000000000000FA
:103CE0000000E003F007380E1C0C0C180C180C1820
:103CF0001C1C381EF81BE0190018000C000C1C0ED0
:103D0000F807F001000000000000000000000000C3
:103D100000000000000000000000000080018001A1
:103D20000000000000000000000000000000000093
:103D30008001800100000000000000000000000081
:103D40000000000000000000000000008001800171
:103D50000000000000000000000000000000000063
:103D600080018001000100018000000000000000CF
:103D70000000000000000000000000000000000043
:103D80000010001C800FE003F8001800F800E003AA
:103D9000800F001C00100000000000000000000068
:103DA0000000000000000000000000000000000013
:103DB000F81F000000000000F81F000000000000D5
:103DC00000000000000000000000000000000000F3
:103DD00000000000000000000000000000000000E3
:103DE00008003800F001C007001F0018001FC007BE
:103DF000F001380008000000000000000000000092
:103E00000000E003F80F180C0C180C180018000C38
:103E1000000600038001C000C000C00000000000D8
:103E2000C000C00000000000000000000000000012
:103E300000000000E00718180420C229224A11449B
:103E400009440944094409221113E20C02400420E8
:103E50001818E0070000000000000000000000004B
:103E6000000080038003C006C006C006600C600C22
:103E7000301830183018F83FF83F1C700C600C6098
:103E800006C006C0000000000000000000000000A6
:103E90000000FC03FC0F0C0C0C180C180C180C0C7C
:103EA000FC07FC0F0C180C300C300C300C300C18CC
:103EB000FC1FFC07000000000000000000000000E4
:103EC0000000C007F01F38381C300C700660060078
:103ED0000600060006000600060006600C701C3096
:103EE000F01FE007000000000000000000000000DC
:103EF0000000FE03FE0F060E0618061806300630F8
:103F00000630063006300630063006180618060E53
:103F1000FE0FFE0300000000000000000000000093
:103F20000000FC3FFC3F0C000C000C000C000C00DF
:103F3000FC1FFC1F0C000C000C000C000C000C0003
:103F4000FC3FFC3F000000000000000000000000FB
:103F50000000F83FF83F180018001800180018007B
:103F6000F81FF81F18001800180018001800180093
:103F70001800180000000000000000000000000011
:103F80000000E00FF83F3C780E6006E007C0030039
:103F9000030003FE03FE03C007C006C00EC03CF0D2
:103FA000F83FE00F000000000000000000000000EB
:103FB00000000C300C300C300C300C300C300C305D
:103FC000FC3FFC3F0C300C300C300C300C300C3013
:103FD0000C300C3000000000000000000000000069
:103FE000000080018001800180018001800180014A
:103FF00080018001800180018001800180018001B9
:1040000080018001000000000000000000000000AE
:104010000000000600060006000600060006000676
:1040200000060006000600060006180618063807F7
:10403000F003E001000000000000000000000000AC
:10404000000006300618060C060606038601C600A8
:1040500066007600DE008E0106030606060C0618D2
:1040600006300660000000000000000000000000B4
:104070000000180018001800180018001800180098
:104080001800180018001800180018001800180070
:10409000F81FF81F000000000000000000000000F2
:1040A00000000EE01EF01EF01EF036D836D836D8CE
:1040B00036D866CC66CC66CCC6C6C6C6C6C6C6C62C
:1040C00086C386C30000000000000000000000005E
:1040D00000000C301C303C303C306C306C30CC304C
:1040E000CC308C310C330C330C360C360C3C0C3C85
:1040F0000C380C3000000000000000000000000040
:104100000000E007F81F1C380E70066003C003C0F3
:1041100003C003C003C003C003C006600E701C3898
:10412000F81FE00700000000000000000000000091
:104130000000FC0FFC1F0C380C300C300C300C3025
:104140000C18FC1FFC070C000C000C000C000C00F1
:104150000C000C0000000000000000000000000047
:104160000000E007F81F1C380E70066003E003C073
:1041700003C003C003C003C007E006630E3F1C3C3E
:10418000F83FE0F700C00000000000000000000061
:104190000000FE0FFE1F06380630063006300638D7
:1041A000FE1FFE0706030606060C06180618063054
:1041B0000630066000000000000000000000000063
:1041C0000000E003F80F1C0C0C180C180C001C006D
:1041D000F803E00F001E0038063006300E301C1CBD
:1041E000F80FE007000000000000000000000000E1
:1041F0000000FE7FFE7F8001800180018001800140
:1042000080018001800180018001800180018001A6
:10421000800180010000000000000000000000009C
:1042200000000C300C300C300C300C300C300C30EA
:104230000C300C300C300C300C300C300C301818AA
:10424000F81FE00700000000000000000000000070
:10425000000003600630063006300C180C180C18ED
:10426000180C180C380E3006300670076003600317
:10427000C001C001000000000000000000000000BC
:1042800000000360C361C361C36166336633663394
:104290006633663366336C1B6C1B6C1B2C1A3C1E1E
:1042A000380E380E00000000000000000000000082
:1042B00000000FE00C7018303018700C600EC00752
:1042C00080038003C003E006700C301C18180C300B
:1042D0000E6007E000000000000000000000000089
:1042E000000003C006600C301C383818300C600623
:1042F000E007C0038001800180018001800180010E
:1043000080018001000000000000000000000000AB
:104310000000FC7FFC7F006000300018000C0006ED
:1043200000038001C0006000300018000C0006008F
:10433000FE7FFE7F00000000000000000000000083
:104340000000E003E00360006000600060006000C7
:10435000600060006000600060006000600060005D
:1043600060006000600060006000E003E0030000A7
:10437000000030003000600060006000C000C0003D
:10438000C000C00180018001800100030003000320
:104390000006000600000000000000000000000011
:1043A0000000E003E0030003000300030003000338
:1043B00000030003000300030003000300030003E5
:1043C00000030003000300030003E003E003000018
:1043D00000000000C001C0016003600360033006FC
:1043E0003006180C180C000000000000000000004F
:1043F00000000000000000000000000000000000BD
:1044000000000000000000000000000000000000AC
:10441000000000000000000000000000000000009C
:104420000000FFFFFFFF0000000000000000000090
:1044300000000C000C000C000C000C000C00000034
:10444000000000000000000000000000000000006C
:10445000000000000000000000000000000000005C
:10446000000000000000000000000000F003F8075A
:104470001C0C0C0C000FF00FF80C0C0C0C0C1C0F8F
:10448000F80FF0180000000000000000000000001D
:10449000000018001800180018001800D803F80FC2
:1044A000380C181818181818181818181818380C64
:1044B000F80FD8030000000000000000000000001A
:1044C000000000000000000000000000C003F00732
:1044D000300E180C1800180018001800180C300EB8
:1044E000F007C00300000000000000000000000012
:1044F000000000180018001800180018C01BF01F5A
:10450000301C181818181818181818181818301CF3
:10451000F01FC01B000000000000000000000000B1
:10452000000000000000000000000000C003F00FC9
:10453000300C1818F81FF81F180018003818301C15
:10454000F00FC007000000000000000000000000A5
:104550000000800FC00FC000C000C000F007F007CF
:10456000C000C000C000C000C000C000C000C0004B
:10457000C000C000000000000000000000000000BB
:10458000000000000000000000000000E00DF80F37
:10459000180E0C0C0C0C0C0C0C0C0C0C0C0C180E3F
:1045A000F80FE00D000C0C0C1C06F807F0010000E1
:1045B000000018001800180018001800D807F80F9D
:1045C000381C181818181818181818181818181847
:1045D000181818180000000000000000000000007B
:1045E0000000C000C000000000000000C000C000CB
:1045F000C000C000C000C000C000C000C000C000BB
:10460000C000C0000000000000000000000000002A
:104610000000C000C000000000000000C000C0009A
:10462000C000C000C000C000C000C000C000C0008A
:10463000C000C000C000C000C000F800780000004A
:1046400000000C000C000C000C000C000C0C0C0604
:104650000C038C01CC006C00FC009C018C030C034F
:104660000C060C0C00000000000000000000000020
:104670000000C000C000C000C000C000C000C000FA
:10468000C000C000C000C000C000C000C000C0002A
:10469000C000C0000000000000000000000000009A
:1046A0000000000000000000000000007C3CFF7ED5
:1046B000C7E383C183C183C183C183C183C183C174
:1046C00083C183C100000000000000000000000062
:1046D0000000000000000000000000009807F80F34
:1046E000381C181818181818181818181818181826
:1046F000181818180000000000000000000000005A
:10470000000000000000000000000000C003F00FE7
:10471000300C181818181818181818181818300C01
:10472000F00FC003000000000000000000000000C7
:10473000000000000000000000000000D803F80F97
:10474000380C181818181818181818181818380CC1
:10475000F80FD803180018001800180018000000FF
:10476000000000000000000000000000C01BF01F5F
:10477000301C181818181818181818181818301C81
:10478000F01FC01B001800180018001800180000C7
:10479000000000000000000000000000B007F0036F
:1047A0007000300030003000300030003000300049
:1047B0003000300000000000000000000000000099
:1047C000000000000000000000000000E003F00313
:1047D000380E180C3800F003C007000C180C380E07
:1047E000F007E003000000000000000000000000EF
:1047F000000000008000C000C000C000F007F0070B
:10480000C000C000C000C000C000C000C000C000A8
:10481000C00780070000000000000000000000004A
:104820000000000000000000000000001818181828
:104830001818181818181818181818181818381CD4
:10484000F01FE01900000000000000000000000060
:104850000000000000000000000000000C18180C10
:10486000180C180C30063006300660036003600335
:10487000C001C001000000000000000000000000B6
:10488000000000000000000000000000C141C14124
:10489000C3616363636363633636363636361C1C26
:1048A0001C1C1C1C00000000000000000000000098
:1048B0000000000000000000000000001C38381C50
:1048C000300C600660036003600360036006300C18
:1048D000381C1C3800000000000000000000000030
:1048E0000000000000000000000000001830301838
:1048F00030187018600C600CE00CC006C006800315
:104900008003800380018001C001F000700000007E
:10491000000000000000000000000000FC1FFC1F61
:10492000000C000600038001C00060003000180089
:10493000FC1FFC1F00000000000000000000000041
:10494000000000038001C000C000C000C000C00023
:10495000C00060006000300060004000C000C00087
:10496000C000C000C000C0008001000300000000C3
:1049700000008001800180018001800180018001B0
:10498000800180018001800180018001800180011F
:104990008001800180018001800180018001000090
:1049A00000006000C000C001800180018001800122
:1049B0008001000300030006000300018001800164
:1049C0008001800180018001C000600000000000C3
:1049D00000000000000000000000000000000000D7
:1049E000F010F81F080F0000000000000000000099
:1049F00000000000000000000000000000000000B7
:104A0000524632344C3031207265616479212E2E49
:104A100000000000524632344C3031206973206E61
:104A20006F742066696E6420212E2E2E0000000017
:104A3000504A000800000020C4010000AC2E00080D
:104A40001C4B0008C40100204C050000342F000856
:104A50001184A24A0400181301020304060708097E
:104A60008080EE888888E88F088878484E40C01695
:104A70007F2424247F0008168140300F30418005B8
:104A80001701E21CE037804020100C030E10030CCD
:104A9000304080402C101090010009121010FF10BF
:104AA0001011161018082060203F101010400D1033
:104AB000102040F8601D828282FE0449060911A080
:104AC0001A80B9510217FF1F181610D0B897840B1F
:104AD0001192947F11080D1120108C83804146287B
:104AE00010284443C0114FFE022242827205021375
:104AF000FE2FFF100806010E0504124E807F1314CE
:104B00004A12082904110A11FFA12D01020304040D
:0C4B100018080607080902040626000029
:04000005080000ED02
:00000001FF
